:10000000B3C70000CEC70000CCC70000CAC70000BD
:10001000C8C70000C6C70000C4C700000C94571929
:10002000C0C70000BEC70000BCC700000C94340C61
:10003000B8C70000B6C70000B4C70000B2C70000D0
:10004000B0C70000AEC700000C94221A0C945B1AD3
:100050000C948F1A0C948F0BA4C70000A2C7000049
:10006000A0C700009EC70000601075109410A91072
:10007000C810DD10FC101011921796179A179E17D2
:10008000A217A617AA17AE17B217C017C417C8171A
:10009000CC17D017D417D817DC17E0176E616E0095
:1000A000696E66004E414E494E495459494E46CDFF
:1000B000CCCC3D0AD7233C17B7D13877CC2B32951F
:1000C00095E6241FB14F0A000020410000C84200FD
:1000D000401C4620BCBE4CCA1B0E5AAEC59D7400C7
:1000E000407A10F35A00A0724E18090010A5D4E807
:1000F0000000E87648170000E40B54020000CA9A9A
:100100003B000000E1F505000080969800000040EB
:10011000420F000000A08601000000102700000030
:1001200000E803000000006400000000000A000076
:100130000000000100000000002C76D888DC674F2A
:100140000823DFC1DFAE59E1B1B796E5E3E453C65A
:100150003AE651997696E8E6C28426EB898C9B6252
:10016000ED407C6FFCEFBC9C9F40F2BAA56FA5F4FC
:1001700090055A2AF75C936B6CF9676DC11BFCE024
:10018000E40D47FEF520E6B500D0ED902E03009477
:100190003577050080841E080000204E0A0000000C
:1001A000C80C333333330F986E12831141EF8D2116
:1001B00014893BE65516CFFEE6DB18D1844B381B7D
:1001C000F77C1D901DA4BBE424203284725E228142
:1001D00000C9F124ECA1E53D276364696E6F70737B
:1001E0007578585B004144432564203A205363618D
:1001F0006C65203D2025662C204F66667365742053
:100200003D2025660A004E756D626572206F66207E
:1002100073616D706C6573203D2025640A00536125
:100220006D706C696E672072617465203D2031309D
:10023000303020487A0A004572726F722E20556E57
:1002400061626C6520746F20636F6E7665727420D6
:100250003C6F66667365743E20746F20666C6F61D8
:1002600074004572726F722E20556E61626C65204B
:10027000746F20636F6E76657274203C7363616C7B
:10028000653E20746F20666C6F6174004572726FFA
:10029000722E203C63683E206D7573742062652069
:1002A0003020746F2033004572726F722E203C6EC6
:1002B00072206F662073616D706C65733E206D7582
:1002C00073742062652031303020746F20363030F6
:1002D000303000253034750925660A004572726F8A
:1002E000722E203C63683E206D7573742062652019
:1002F0003020746F203300092566002530356400F6
:10030000F40C40045E0EDF03470E8403F30D5B0321
:100310004E0D2003000000001C0300036164630015
:10032000580300005703280353616D706C6520610A
:100330006C6C20414443206368616E6E656C732071
:10034000756E74696C205350414345206973207069
:100350007265737365640000736300820301017D3D
:1003600003630353616D706C652073696E676C6520
:1003700020414443206368616E6E656C003C636895
:100380003E007300D3030101C3038C035365742043
:100390006E756D626572206F662073616D706C653D
:1003A0007320616363756D756C6174656420666F3D
:1003B00072206561636820414443206368616E6E0A
:1003C000656C003C6E72206F662073616D706C65A9
:1003D000733E006366675F73616D706C6573003CAC
:1003E0000403032604E703436F6E6669677572654D
:1003F000206C696E65617220666974206F662041A9
:100400004443206368616E6E656C202879203D202E
:100410007363616C65207820414443202B206F6614
:100420006673657429003C63683E203C7363616CAD
:10043000653E203C6F66667365743E0063666700C8
:100440005D0400005C0448045265706F72742041C2
:1004500044432073657474696E67730000696E6647
:100460006F00AA0EA404B00E76040000000072040F
:1004700062046C656400A00400009F047E0444696B
:100480007361626C65204C45442028696620535096
:1004900049206973206E6F742075736564290000AC
:1004A0006F666600CE040000CD04AC04456E616248
:1004B0006C65204C45442020286966205350492013
:1004C0006973206E6F7420757365642900006F6E08
:1004D000002870756C6C2D75702044697361626CB6
:1004E000656429002870756C6C2D757020456E61EF
:1004F000626C65642900494E203D2025632000443C
:100500004952203D20492C200028494E203D2025DD
:100510006329004F5554203D202563200044495253
:10052000203D204F2C2000203A2000203D20307814
:1005300025303278202020004439004438004437E8
:100540000044360044350044340044330044320053
:1005500050494E442000504F5254440044445244A9
:10056000200050494E432000504F52544300444411
:100570005243200050494E422000504F52544200F6
:100580004444524220000A202020202020202048DD
:100590004558202020203720362035203420332095
:1005A000322031204F0A00707500310A00300A00F5
:1005B0004572726F722E203C70696E3E20737566B4
:1005C000666978206D75737420626520302E2E3731
:1005D000004572726F722E203C70696E3E20707200
:1005E00065666978206D75737420626520622C20C1
:1005F00063206F722064004572726F722E203C700F
:10060000696E3E206D75737420626520322C332C28
:10061000342C352C362C372C38206F722039007C46
:100620000F1F077A12EB06F7119706B311640683C2
:10063000114006000000003B061F066770696F004E
:10064000620601015C064806526561642047504914
:100650004F2070696E20696E707574003C70696E11
:100660003E0069009506020289066C06577269749D
:1006700065204750494F2070696E206F7574707502
:10068000742030206F722031003C70696E3E203C37
:10069000307C313E006F00E8060102DD069F064314
:1006A0006F6E666967757265204750494F207069A3
:1006B0006E20617320696E7075742E204F7074699E
:1006C0006F6E616C6C792050756C6C557020636135
:1006D0006E20626520656E61626C6564003C7069C5
:1006E0006E3E205B70755D006369001C070202109E
:1006F00007F306436F6E6669677572652047504958
:100700004F2070696E206173206F7574707574006E
:100710003C70696E3E203C307C313E00636F003996
:10072000070000380727075265706F727420475022
:10073000494F20696E666F0000696E666F004572F2
:10074000726F722E2053444120697320302E205442
:100750007279204932432042757320526573657463
:100760002070726F6365647572650A004572726FFE
:10077000722E2053434C20697320300A00534441A9
:10078000203D2025630A0053434C203D2025630A69
:10079000004572726F722E2053434C2069732030D3
:1007A0002E20493243204275732072657365742090
:1007B00072657175697265732053434C20746F20A4
:1007C00062652072656C6561736564004572726F65
:1007D000722E2053444120697320302E20547279A8
:1007E000204932432042757320526573657420702E
:1007F000726F6365647572650A004572726F722E5E
:100800002053434C20697320300A00253032582091
:10081000520A002530325820570A004572726F7212
:1008200021004572726F722E203C646174613E201B
:10083000617420696E64657820256420696E766134
:100840006C69640A004572726F722E203C6164729A
:100850003E206D757374206265203020746F2031E6
:100860003237002530325820004572726F722100F5
:100870004572726F722E203C6E72206F6620627914
:100880007465733E206D7573742062652031207429
:100890006F203136004572726F722E203C61647297
:1008A0003E206D757374206265203020746F203196
:1008B0003237003514C50974149809EC1368095EC1
:1008C000131F09F812D30800000000CF08B308690D
:1008D0003263001D0902020909DB085265616420C8
:1008E000757020746F203136206279746573206FC3
:1008F0006620646174612066726F6D20616E2049AC
:10090000324320736C617665003C6164723E203C2A
:100910006E72206F662062797465733E00720066A5
:1009200009010953092709577269746520757020F8
:10093000746F2038206279746573206F662064615B
:10094000746120746F20616E2049324320736C61A2
:100950007665003C6164723E203C64303E202E2E61
:10096000205B64375D0077009309000092097009ED
:100970005363616E20666F7220616C6C20636F6ED2
:100980006E65637465642049324320736C617665DB
:100990007300007363616E00C1090000C009A00903
:1009A000506572666F726D20493243206275732004
:1009B00072657365742070726F636564757265002B
:1009C0000072737400F0090000EF09CD09526570E0
:1009D0006F727420737461747573206F6620534353
:1009E0004C20616E64205344412070696E73000096
:1009F000696E666F00F414380A9214090A00000048
:100A000000050AF50972746300360A0202200A1111
:100A10000A5772697465205254432074696D6500E9
:100A20003C79792D6D6D2D64643E203C68683A6D8B
:100A30006D3A73733E0077004F0A00004E0A400A79
:100A400052656164205254432074696D65000072E0
:100A500000446F6E652E2041637475616C20626185
:100A600075642072617465203D20256C7520487A7C
:100A70000A004572726F722E20496E636F72726542
:100A8000637420706172616D61746572733B20756F
:100A90006E61626C6520746F20696E697469616C47
:100AA00069736520535049004572726F723A205B3A
:100AB0006F726465725D206D757374206265206C61
:100AC0007362206F72206D7362006C7362006D73CD
:100AD0006200004572726F722E205B6D6F64655DFF
:100AE000206D75737420626520302C20312C2032EB
:100AF000206F722033004572726F722E205B62612C
:100B000075645D206D757374206265203020746F8C
:100B100020256C7520487A0A004572726F723A205F
:100B2000496E76616C696420706172616D6574658F
:100B300072006C6F00686900004572726F722E203F
:100B40003C646174613E20617420696E6465782044
:100B5000256420696E76616C69640A0030782530FE
:100B6000327820004572726F722E203C6E72206FB8
:100B7000662062797465733E206D757374206265BA
:100B8000203120746F2031360030782530327820C3
:100B9000004572726F722E203C646174613E206168
:100BA0007420696E64657820256420696E76616CB6
:100BB00069640A005F16D90C1116A30CCC15600CE1
:100BC0007E151A0C1615D40B00000000D00BB40BC8
:100BD00073706900180C01080B0CDC0B4578636816
:100BE000616E676520757020746F2038206279749B
:100BF0006573206F66206461746120746F20616E7C
:100C00002053504920736C617665003C64303E206F
:100C10002E2E205B64375D0078005E0C0101500CC5
:100C2000220C5265616420757020746F203136206B
:100C30006279746573206F662064617461206672E6
:100C40006F6D20616E2053504920736C6176650092
:100C50003C6E72206F662062797465733E0072008C
:100C6000A10C0108940C680C5772697465207570AA
:100C700020746F2038206279746573206F66206459
:100C800061746120746F20616E2053504920736C31
:100C9000617665003C64303E202E2E205B64375D1B
:100CA000007700D60C0101CE0CAB0C54616B6520B3
:100CB000636F6E666967757265642043532070695F
:100CC0006E206C6F77206F722068696768003C6CDB
:100CD0006F7C68693E006373000A0D0005EF0CE14C
:100CE0000C436F6E66696775726520535049005BEF
:100CF00063735D205B626175645D205B6D6F64652D
:100D00005D205B6F726465725D0063666700000062
:100D10006E0400003706000018030000CB08000036
:100D2000CC0B0000010AD6202E0D00000000960D0D
:100D300000017E0D360D446973706C6179206C6919
:100D40007374206F6620636F6D6D616E64732077BE
:100D50006974682068656C702E204F7074696F6EBE
:100D6000616C6C7920746865206C697374206361B0
:100D70006E20626520726564756365642E005B6336
:100D80006D64287329207374617274732077697499
:100D9000682E2E2E5D0068656C7000205F5F5F5FBF
:100DA0002020205F5F20205F5F20544D0A7C2020A0
:100DB0005F205C20205C205C2F202F0A7C207C5F41
:100DC00029207C20205C20202F0A7C20205F5F2FA0
:100DD0002020202F20205C205049434F4E4F4D496A
:100DE00058202D20456D62656464656420456C65FE
:100DF00067616E63650A7C5F7C20202020202F5F66
:100E00002F5C5F5C2020202068747470733A2F2F51
:100E10007069636F6E6F6D69782E636F6D0A0A007B
:100E2000203A20004572726F7221204E756D626506
:100E300072206F6620706172616D657465727320D7
:100E4000696E636F72726563740A004572726F72C5
:100E50002120436F6D6D616E64206E6F7420666F2C
:100E6000756E640A0054797065202768656C702778
:100E700020746F20676574206C697374206F66201E
:100E8000636D647320776974682068656C70206492
:100E900065736372697074696F6E730A0A544142B4
:100EA000202020746F206379636C652F6175746FE7
:100EB000636F6D706C65746520636D642873290AB7
:100EC00055502F444E20746F20726563616C6C2006
:100ED0006F6C6420636D647320696E20686973743D
:100EE0006F72790A454E54455220746F20657865BB
:100EF0006375746520636D640A3C2E2E2E3E20615E
:100F000072652072657175697265642070617261C5
:100F10006D65746572730A5B2E2E2E5D206172659D
:100F2000206F7074696F6E616C20706172616D65A5
:100F3000746572730A0A0025303268752D253032C7
:100F400068752D25303268752025303268753A2550
:100F5000303268753A253032687500001F1C1F1E3C
:100F60001F1E1F1F1E1F1E1F11241FBECFEFD8E004
:100F7000DEBFCDBF12E0A0E0B1E0E2E3FDE502C0DC
:100F800005900D92A431B107D9F724E0A4E1B2E0B5
:100F900001C01D92A536B207E1F70E945A170C94C2
:100FA000972E2EC8A0E1B0E0E8EDF7E00C942425E0
:100FB0007C011B016A01FC0117821682838181FF7B
:100FC00044C39E012F5F3F4F3901F7019381F10127
:100FD00093FD859193FF81911F01882309F431C30B
:100FE000853239F493FD859193FF81911F018532FC
:100FF00039F4B70190E00E94832A56016501E5CFDC
:1010000010E0512C912CFFE1F915D8F08B3279F0DA
:1010100038F4803279F08332A1F4F92DF0612EC0DA
:101020008D3261F0803369F4292D21602DC0392D76
:101030003260932E892D8460982E2AC0E92DE860B5
:1010400015C097FC2DC020ED280F2A3088F496FE9D
:1010500006C03AE0139F200D1124122F19C08AE018
:10106000589E200D1124522EE92DE0629E2E10C0B4
:101070008E3231F496FCE5C2F92DF0649F2E08C043
:101080008C3621F4292D2068922E02C0883641F436
:10109000F10193FD859193FF81911F018111B3CFE0
:1010A0009BEB980F933020F4992D9061805E07C0E0
:1010B0009BE9980F933008F066C1992D9F7E96FFAB
:1010C00016E09F73992E853619F49064992E08C006
:1010D000863621F4392F3068932E02C01111115039
:1010E00097FE07C01C3350F444244394410E27E07C
:1010F0000BC0183038F027E017E005C027E09CE36C
:10110000492E02C0212F412C560184E0A80EB11CAB
:10111000F6016081718182819381042DA3010E9477
:101120004C296C01F981FC87F0FF02C0F3FF06C077
:1011300091FC06C092FE06C000E205C00DE203C0AD
:101140000BE201C000E08C858C7019F001115AC2CD
:101150009BC297FE10C04C0CFC85F4FF04C08A8132
:10116000813309F44A94141474F528E0241578F5B1
:1011700088E0482E2CC096FC2AC0812F90E08C1568
:101180009D059CF03CEFC3163FEFD30674F0892D0C
:101190008068982E0AC0E2E0F0E0EC0FFD1FE10F3E
:1011A000F11D8081803319F411501111F4CF97FE95
:1011B0000EC044244394410E812F90E0C816D906F6
:1011C0002CF41C1904C04424439401C010E097FE81
:1011D00006C01C141D0434F4C601019605C085E048
:1011E00090E002C081E090E001110196112331F0FE
:1011F000212F30E02F5F3F4F820F931F252D30E0CE
:101200008217930714F4581A01C0512C892D897044
:1012100049F4552039F0B70180E290E00E94832A1A
:101220005A94F7CF002329F0B701802F90E00E9455
:10123000832A93FC09C0552039F0B70180E390E080
:101240000E94832A5A94F7CF97FE4CC04601D7FEDE
:1012500002C0812C912CC60188199909F301E80F6D
:10126000F91FFE87ED87960124193109388B2F87E6
:10127000012F10E01195019511093FEF8316930698
:1012800029F4B7018EE290E00E94832AC814D904A1
:101290004CF08F8598898815990524F4ED85FE8595
:1012A000818101C080E3F1E08F1A91082D853E8590
:1012B0002F5F3F4F3E872D87801691062CF0B70198
:1012C00090E00E94832AD9CFC814D90441F49A81AE
:1012D000963320F4953319F43C8534FF81E3B7014C
:1012E00090E04EC08A81813319F09C859F7E9C8757
:1012F000B70190E00E94832A111105C094FC18C028
:1013000085E690E017C0B7018EE290E00E94832A44
:101310001E5F82E001E0080FF301E80FF11D8081FC
:10132000B70190E00E94832A802F0113F3CFE6CF0C
:1013300085E490E0B7010E94832AD7FC06C0C1145F
:10134000D10441F4EC85E4FF05C0D194C194D108E7
:101350008DE201C08BE2B70190E00E94832A80E316
:101360002AE0C216D1042CF08F5FFAE0CF1AD10820
:10137000F7CFB70190E00E94832AB701C601C0965B
:101380000E94832A54C1833631F0833779F0833544
:1013900009F056C020C0560132E0A30EB11CF60180
:1013A0008081898301E010E0630112C05601F2E000
:1013B000AF0EB11CF601C080D18096FE03C0612F34
:1013C00070E002C06FEF7FEFC6010E94782A8C01A7
:1013D000F92DFF7714C0560122E0A20EB11CF601D0
:1013E000C080D18096FE03C0612F70E002C06FEF15
:1013F0007FEFC6010E946D2A8C01F92DF0689F2EA7
:10140000F3FD1AC0852D90E008171907A8F4B7015D
:1014100080E290E00E94832A5A94F4CFF60197FC70
:10142000859197FE81916F01B70190E00E94832A18
:1014300051105A94015011090115110579F7F7C09F
:10144000843611F0893661F5560197FE09C024E013
:10145000A20EB11CF60160817181828193810AC064
:10146000F2E0AF0EB11CF60160817181072E000C15
:10147000880B990BF92DFF769F2E97FF09C0909549
:101480008095709561957F4F8F4F9F4FF0689F2E8D
:101490002AE030E0A3010E940D2BC82EC6183FC0E1
:1014A000092D853721F40F7E2AE030E01DC0097F29
:1014B0008F3691F018F4883559F0C3C0803719F091
:1014C000883711F0BEC0006104FF09C0046007C086
:1014D00094FE08C0066006C028E030E005C020E1A8
:1014E00030E002C020E132E0560107FF09C084E08D
:1014F000A80EB11CF601608171818281938108C0C0
:10150000F2E0AF0EB11CF6016081718180E090E0E5
:10151000A3010E940D2BC82EC6180F77902E96FEA1
:101520000BC0092D0E7FC11650F494FE0AC092FC28
:1015300008C0092D0E7E05C0DC2C092D03C0DC2C53
:1015400001C0D12E04FF0DC0FE01EC0DF11D808104
:10155000803311F4097E09C002FF06C0D394D394EE
:1015600004C0802F867809F0D39403FD11C000FFDA
:1015700006C01C2DD51480F4150D1D190DC0D514F1
:1015800058F4B70180E290E00E94832AD394F7CF09
:10159000D51410F45D1801C0512C04FF10C0B70120
:1015A00080E390E00E94832A02FF17C001FD03C080
:1015B00088E790E002C088E590E0B7010CC0802F7A
:1015C000867859F001FF02C08BE201C080E207FD7E
:1015D0008DE2B70190E00E94832AC11638F4B7016A
:1015E00080E390E00E94832A1150F7CFCA94F30160
:1015F000EC0DF11D8081B70190E00E94832AC1109B
:10160000F5CF15C0F4E0F51560F584E0581A93FEA7
:101610001FC0011127C02C8523FF2AC00CE910E050
:10162000392D3071932EF8018491811124C05520F9
:1016300009F4E4CCB70180E290E00E94832A5A9436
:10164000F6CFF7018681978126C08FEF9FEF23C0E9
:10165000B70180E290E00E94832A5A945110F8CF9B
:10166000D8CF512CB701802F90E00E94832AD3CF8E
:1016700000EA10E0D5CF91108052B70190E00E94AF
:10168000832A0F5F1F4FCFCF23E0251510F483E08F
:10169000BDCF512CC0CF6096E2E10C944025FC01F7
:1016A0008FEF9FEF918380831382128214821582C1
:1016B000168217820895FC0180819181681779074D
:1016C00010F471836083828193818617970710F4E9
:1016D0007383628384819581A681B781860F971F6A
:1016E000A11DB11D84839583A683B783089581309E
:1016F00051F028F0823059F0833069F0089580E489
:1017000080937C00089581E480937C00089582E4B6
:1017100080937C00089583E480937C0008951F9259
:101720000F920FB60F9211241F932F933F934F9355
:101730005F936F937F938F939F93AF93BF93EF9339
:10174000FF93CF93DF9300D0CDB7DEB780917800C1
:10175000909179009A8389838091550281110FC0FD
:1017600069817A8180915A0290E0880F991F880FD1
:10177000991F880F991F8B5C9D4F9DDF0EC069815B
:101780007A8180915A0290E0880F991F880F991FE3
:10179000880F991F8B5E9D4F8EDF80915A028F5F5D
:1017A00080935A02843038F4A2DFEAE7F0E08081C7
:1017B0008064808343C010925A02809158029091B5
:1017C0005902009731F00197909359028093580283
:1017D00035C08091560290915702909359028093A0
:1017E000580280915502811114C081E08093550206
:1017F00010E00CC0812F90E0880F991F880F991F6F
:10180000880F991F8B5E9D4F4ADF1F5F143090F346
:1018100012C01092550210E00CC0812F90E0880F8A
:10182000991F880F991F880F991F8B5C9D4F37DF79
:101830001F5F143090F381E0809314020F900F909B
:10184000DF91CF91FF91EF91BF91AF919F918F91D8
:101850007F916F915F914F913F912F911F910F90C9
:101860000FBE0F901F9018951F920F920FB60F92F8
:1018700011242F933F934F935F936F937F938F9395
:101880009F93AF93BF93EF93FF9380915A0281117F
:1018900006C02DDFEAE7F0E0808180648083FF915D
:1018A000EF91BF91AF919F918F917F916F915F91D8
:1018B0004F913F912F910F900FBE0F901F90189551
:1018C00090E490937C0013DFEAE7F0E087E8808300
:1018D00080818064808380917A0086FDFCCF1092A5
:1018E0007A0080917800909179000895CF92DF92EC
:1018F000EF92FF921F93CF93DF937C016B0110E077
:1019000011C0C12FD0E0CC0FDD1FCC0FDD1FCC0FDD
:10191000DD1FCE018B5C9D4FC2DECE018B5E9D4FE5
:10192000BEDE1F5F143068F310925A021092550207
:10193000D0925902C0925802D0925702C0925602D9
:10194000109214028DE880937A001092800089E052
:10195000809381001092850010928400B7017695E3
:101960006795CB01A0E0B0E0BC01CD017C5D8B4070
:101970009F4F970140E050E00E94C7242150310959
:101980003093890020938800EFE6F0E08081826048
:101990008083DF91CF911F91FF90EF90DF90CF90E8
:1019A00008951092810010927A0008958091140297
:1019B00008951092140208959091550291110AC051
:1019C00090E0880F991F880F991F880F991F8B5ED1
:1019D0009D4F089590E0880F991F880F991F880FD9
:1019E000991F8B5C9D4F0895CF938EE192E09F935A
:1019F0008F930E94D32AE0E0F1E081818F93808170
:101A00008F9386E092E09F938F930E94D32A0F904A
:101A10000F900F900F900F900F90C0E039C0EC2FF7
:101A2000F0E0EE0FFF1FEE0FFF1FEE0FFF1FE05065
:101A3000FF4FDF011696468111965C911197129621
:101A40006C91129713967C9113971497828111963B
:101A50009C91119712962C91129713963C917F931B
:101A60006F935F934F933F932F939F938F931F9207
:101A7000CF9385EE91E09F938F930E94D32ACF5FFF
:101A80008DB79EB70C960FB6F8949EBF0FBE8DBF54
:101A9000C43028F280E090E0CF9108954F925F9299
:101AA0006F927F928F929F92AF92BF92CF92DF926E
:101AB000FF920F931F93CF93DF931F92CDB7DEB7A3
:101AC000609100017091010188EE93E00FDFC12C5D
:101AD000D12C6CDF882309F464C06BDFDF92CF92D6
:101AE0008BEF92E09F938F930E94D32A0F900F90D9
:101AF0000F900F90F12C46C08F2D5EDF0F2D10E060
:101B0000000F111F000F111F000F111F00501F4F5A
:101B1000F80182809380A480B580FC016481758186
:101B2000868197810E9428262B013C01609100014B
:101B30007091010180E090E00E9428269B01AC0199
:101B4000C301B2010E94C0259B01AC01C501B401D3
:101B50000E94B626F80126813781408551850E9472
:101B60005C259F938F937F936F9387EF92E09F9372
:101B70008F930E94D32AF3940F900F900F900F90A1
:101B80000F900F90F3E0FF1508F0B6CF60915F045F
:101B9000709160048AE090E00E94832A8FEFC81A57
:101BA000D80ABE016F5F7F4F87E594E00E942E1B2D
:101BB000882309F48ECF8981803209F08ACFF1DE43
:101BC00080E090E00F90DF91CF911F910F91FF90F7
:101BD000DF90CF90BF90AF909F908F907F906F904D
:101BE0005F904F900895CF92DF92EF92FF920F9304
:101BF0001F93CF93DF9343E060E080E00E941022C8
:101C00008823D1F180915904C82FD0E059DE8C018E
:101C1000CC0FDD1FCC0FDD1FCC0FDD1FC050DF4F01
:101C2000CA80DB80EC80FD80BC0180E090E00E94F7
:101C300028269B01AC01C701B6010E94B6262E8161
:101C40003F81488559850E945C259F938F937F93A0
:101C50006F931F930F9383ED92E09F938F930E9456
:101C6000D32A8DB79EB708960FB6F8949EBF0FBEC5
:101C70008DBF80E090E002C08CED92E0DF91CF91CB
:101C80001F910F91FF90EF90DF90CF90089540E665
:101C90005AEE64E670E080E00E945F22882359F0EB
:101CA0008091590490915A0490930101809300010E
:101CB00080E090E0089587EA92E00895CF92DF9265
:101CC000EF92FF92CF93DF9343E060E080E00E94C9
:101CD0001022882381F1C0915904D0E081E00E9454
:101CE0000C23882359F1C0905904D0905A04E090F5
:101CF0005B04F0905C0482E00E940C23882309F1CD
:101D00008091590490915A04A0915B04B0915C04B5
:101D1000CC0FDD1FCC0FDD1FCC0FDD1FC050DF4F00
:101D2000CA82DB82EC82FD828E839F83A887B9877B
:101D300080E090E008C08CE892E005C082E692E086
:101D400002C087E392E0DF91CF91FF90EF90DF90A8
:101D5000CF90089585B1806285B980E090E00895C4
:101D600085B18F7D85B980E090E008950F931F9332
:101D7000CF93DF93D62F042F122F9F938F930E9420
:101D8000D32A1F92DF938BE295E09F938F930E945B
:101D9000D32A0F900F900F900F900F900F90C0E8E4
:101DA0001DC08C2F8D2349F060915F0470916004F9
:101DB000812F90E00E94832A08C060915F04709197
:101DC0006004802F90E00E94832A60915F047091EC
:101DD000600480E290E00E94832AC695C111E1CFA1
:101DE00060915F04709160048AE090E00E94832A11
:101DF000DF91CF911F910F9108951F93CF93DF93A0
:101E0000162FC42FD22F9F938F930E94D32A87E23D
:101E100095E09F938F930E94D32A0F900F900F907D
:101E20000F90112379F18DE195E09F938F930E949C
:101E3000D32A0F900F90CC2319F081E390E002C0D9
:101E400080E390E09F938F9383E195E09F938F933E
:101E50000E94D32A0F900F900F900F90DD2319F05E
:101E600081E390E002C080E390E09F938F9389E04C
:101E700095E09F938F930E94D32A0F900F900F901D
:101E80000F902EC08FEF94E09F938F930E94D32AE0
:101E90000F900F90DD2319F081E390E002C080E302
:101EA00090E09F938F9386EF94E09F938F930E948F
:101EB000D32A0F900F900F900F90CC2349F084EE0F
:101EC00094E09F938F930E94D32A0F900F9008C0A5
:101ED00081ED94E09F938F930E94D32A0F900F90EF
:101EE00060915F04709160048AE090E00E94832A10
:101EF000DF91CF911F910895CF93DF9386E895E00E
:101F00009F938F930E94D32A64B12FE449E480E821
:101F100095E02CDF65B121E340E38AE795E026DF19
:101F200063B121E340E384E795E020DFCDE5D4E031
:101F30006A817B818AE090E00E94832A67B12FE466
:101F400049E48EE695E012DF68B121E340E388E6DC
:101F500095E00CDF66B121E340E382E695E006DF21
:101F60006A817B818AE090E00E94832A6AB12FE433
:101F700049E48CE595E0FADE6BB121E340E386E5C8
:101F800095E0F4DE69B121E340E380E595E0EEDE23
:101F90006A817B818AE090E00E94832A29B14BB15B
:101FA0006AB122FB222720F942FB442740F962FB59
:101FB000662760F98DE495E020DF29B14BB16AB165
:101FC00023FB222720F943FB442740F963FB6627C4
:101FD00060F98AE495E011DF29B14BB16AB122952D
:101FE0002170429541706295617087E495E005DF4C
:101FF00029B14BB16AB125FB222720F945FB4427C3
:1020000040F965FB662760F984E495E0F6DE29B1C6
:102010004BB16AB126FB222720F946FB442740F941
:1020200066FB662760F981E495E0E7DE29B14BB1F4
:102030006AB1221F2227221F441F4427441F661F04
:102040006627661F8EE395E0D8DE23B145B164B103
:102050002170417061708BE395E0CFDE23B145B113
:1020600064B126952170469541706695617088E34C
:1020700095E0C3DE0F900F9080E090E0DF91CF916C
:102080000895DB01EC91EE2309F42BC10D900020A3
:10209000E9F71197A61BB70BA330B10508F024C1CF
:1020A000A130B10509F0DAC04E2F50E0FA01F297E5
:1020B000E830F10508F01BC1EC5CFF4F0C940525DE
:1020C0002BE230E0FC01318320832AE230E03383CD
:1020D000228329E230E03583248322E0268317829D
:1020E00021E0208780E090E008952BE230E0DC01E1
:1020F00011963C932E932AE230E013963C932E9354
:10210000129729E230E015963C932E93149723E022
:1021100016962C93169717961C92179721E01896EF
:102120002C9380E090E008952BE230E0FC013183B5
:1021300020832AE230E03383228329E230E03583B2
:10214000248324E02683178221E0208780E090E02A
:1021500008952BE230E0DC0111963C932E932AE2A5
:1021600030E013963C932E93129729E230E01596B7
:102170003C932E93149725E016962C93169717965A
:102180001C92179721E018962C9380E090E0089518
:102190002BE230E0FC01318320832AE230E03383FC
:1021A000228329E230E03583248326E026831782C8
:1021B00021E0208780E090E008952BE230E0DC0110
:1021C00011963C932E932AE230E013963C932E9383
:1021D000129729E230E015963C932E93149727E04E
:1021E00016962C93169717961C92179721E018961F
:1021F0002C9380E090E0089525E230E0FC013183EB
:10220000208324E230E03383228323E230E03583ED
:1022100024831682178221E0208780E090E00895D1
:1022200025E230E0DC0111963C932E9324E230E06D
:1022300013963C932E93129723E230E015963C932D
:102240002E93149721E016962C93169717961C92AE
:10225000179718962C9380E090E00895129709F054
:1022600049C0E33699F0E43621F1E23609F045C081
:1022700025E230E0FC013183208324E230E0338327
:10228000228323E230E03583248320C028E230E03B
:10229000DC0111963C932E9327E230E013963C9399
:1022A0002E93129726E230E015963C932E931497C6
:1022B0000DC02BE230E0FC01318320832AE230E0C4
:1022C0003383228329E230E035832483DB011196B6
:1022D0002C9120532830A0F4FC01268380E090E06C
:1022E000089580E391E0089580E391E0089587EFF9
:1022F00095E0089580E090E0089581ED95E00895DF
:1023000080EB95E00895FB01608171818BE592E09F
:10231000B8DE009739F5EBE5F2E0A481B5818C9148
:1023200090E0A0E0B0E0068004C0B695A795979530
:1023300087950A94D2F780FD0BC08DEA95E09F93B4
:102340008F930E94D32A0F900F9080E090E0089521
:102350008AEA95E09F938F930E94D32A0F900F9063
:1023600080E090E00895CF93DF93EB01688179815D
:102370008BE592E086DE0097B9F5EA81FB818081EA
:10238000803319F08133C1F02DC0CBE5D2E0E88174
:10239000F981208181E090E0A0E0B0E00E8004C0EF
:1023A000880F991FAA1FBB1F0A94D2F7809582231A
:1023B000808380E090E018C0CBE5D2E0E881F9812D
:1023C000208181E090E0A0E0B0E00E8004C0880FA2
:1023D000991FAA1FBB1F0A94D2F7822B808380E02B
:1023E00090E002C083E791E0DF91CF9108951F93C1
:1023F000CF93DF93182FEB01688179818BE592E011
:1024000040DE009709F072C0123068F067EA75E0AC
:102410008A819B810E94352A892B09F065C081E061
:102420008093630202C010926302EBE5F2E0178230
:102430008085811115C0EF010190F081E02D208190
:1024400081E090E0A0E0B0E00E8004C0880F991F0A
:10245000AA1FBB1F0A94D2F780958223808313C0E2
:10246000CBE5D2E0E881F981208181E090E0A0E035
:10247000B0E00E8004C0880F991FAA1FBB1F0A94EA
:10248000D2F7822B808380916202811117C0CBE545
:10249000D2E0EA81FB81208181E090E0A0E0B0E021
:1024A0000E8004C0880F991FAA1FBB1F0A94D2F781
:1024B00080958223808380E090E018C0CBE5D2E055
:1024C000EA81FB81208181E090E0A0E0B0E00E8015
:1024D00004C0880F991FAA1FBB1F0A94D2F7822B32
:1024E000808380E090E002C08FE891E0DF91CF919F
:1024F0001F910895CF93DF93EB01688179818BE57C
:1025000092E0BFDD009709F070C0EA81FB81808115
:10251000803319F0813321F066C01092630203C04A
:1025200081E080936302EBE5F2E081E087838085C0
:10253000811115C0EF010190F081E02D208181E033
:1025400090E0A0E0B0E00E8004C0880F991FAA1FA1
:10255000BB1F0A94D2F780958223808313C0CBE5FA
:10256000D2E0E881F981208181E090E0A0E0B0E054
:102570000E8004C0880F991FAA1FBB1F0A94D2F7B0
:10258000822B808380916202811117C0CBE5D2E05B
:10259000EA81FB81208181E090E0A0E0B0E00E8044
:1025A00004C0880F991FAA1FBB1F0A94D2F78095F9
:1025B0008223808380E090E018C0CBE5D2E0EA81FE
:1025C000FB81208181E090E0A0E0B0E00E8004C0BB
:1025D000880F991FAA1FBB1F0A94D2F7822B8083F2
:1025E00080E090E002C083E791E0DF91CF91089511
:1025F0000F931F93CF93DF93CDB7DEB760970FB6DE
:10260000F894DEBF0FBECDBF4FE760E080E00E94D0
:102610001022882309F442C01091590440E161E07E
:1026200081E00E9410228823E1F100915904612F7A
:1026300084E594E00E94CC1C402F50E023E0BE01D2
:102640006F5F7F4F84E594E00E948D1C811118C05C
:1026500089E698E028C0E1E0F0E0EC0FFD1FE10F13
:10266000F11D80811F928F9383E698E09F938F9353
:102670000E94D32A1F5F0F900F900F900F9001C000
:1026800010E0101740F360915F04709160048AE0DD
:1026900090E00E94832A80E090E005C085E998E000
:1026A00002C080E798E060960FB6F894DEBF0FBED8
:1026B000CDBFDF91CF911F910F910895EF92FF92BF
:1026C0000F931F93CF93DF93CDB7DEB728970FB645
:1026D000F894DEBF0FBECDBF082F4FE760E080E06B
:1026E0000E941022882309F440C0E0905904FF247E
:1026F000FA94F00E11E023C04FEF60E0812F0E94AA
:10270000102281110FC01F921F9382E298E09F93C5
:102710008F930E94D32A0F900F900F900F9080E01C
:1027200090E028C0E12FF0E031978091590421E03A
:1027300030E02C0F3D1FE20FF31F80831F5F101747
:10274000D8F26E2D84E594E00E94CC1C4F2D50E011
:1027500023E0BE016F5F7F4F84E594E00E945B1C25
:10276000811106C08BE198E005C085E498E002C0C5
:1027700080E090E028960FB6F894DEBF0FBECDBF84
:10278000DF91CF911F910F91FF90EF90089584E515
:1027900094E00C94461C089540E060E084E594E0E9
:1027A0000C94271C0895F3DF359908C08AEF97E051
:1027B0009F938F930E94D32A0F900F90349908C053
:1027C0008CEC97E09F938F930E94D32A0F900F90E9
:1027D000E3DF80E090E008951F93CF93DF931F9293
:1027E000CDB7DEB7E0DF0097D9F510E035C0612F37
:1027F00084E594E00E94CC1C23E040E050E060E0DF
:1028000070E084E594E00E945B1C882361F01F92D5
:102810001F9383E198E09F938F930E94D32A0F9098
:102820000F900F900F9023E041E050E0BE016F5FEA
:102830007F4F84E594E00E948D1C882361F01F92F5
:102840001F938BE098E09F938F930E94D32A0F9061
:102850000F900F900F901F5F11234CF680E090E0D7
:102860000F90DF91CF911F91089591DF359903C0AB
:1028700080E390E002C081E390E09F938F9387E82C
:1028800097E09F938F930E94D32A0F900F900F9001
:102890000F90349903C080E390E002C081E390E0A0
:1028A0009F938F938DE797E09F938F930E94D32AF6
:1028B0000F900F900F900F90359908C08CE697E01D
:1028C0009F938F930E94D32A0F900F90349908C042
:1028D0008EE397E09F938F930E94D32A0F900F90DF
:1028E0005BDF80E090E00895CF9351DF359912C00F
:1028F00053DF81E997E014C088B18F7D88B988EEF5
:1029000093E062D388B1806288B988EE93E05CD3AB
:10291000C15001C0C8E0C111EFCF3EDF80E090E0C0
:10292000CF9108950F931F93CF93DF93CDB7DEB769
:102930002C970FB6F894DEBF0FBECDBF8B01CE0132
:1029400009969F938F9301979F938F9301979F93DE
:102950008F9386ED91E09F938F93FB0181818F93FD
:1029600080818F930E94F72ACE010C969F938F93BC
:1029700001979F938F9301979F938F938BEE91E095
:102980009F938F93F80183818F9382818F930E940D
:10299000F72A8F81898388858A8389858B838A85B5
:1029A0008C838B858D838C858E83CE0101960E94CE
:1029B00070240FB6F894DEBF0FBECDBF882339F068
:1029C000CE0101960E94F32380E090E002C086EAE7
:1029D00091E02C960FB6F894DEBF0FBECDBFDF910D
:1029E000CF911F910F910895CF93DF9300D000D026
:1029F00000D0CDB7DEB7CE0101960E942024CE01D3
:102A000001960E94A62460915F04709160048AE0A0
:102A100090E00E94832A80E090E026960FB6F8941A
:102A2000DEBF0FBECDBFDF91CF910895FF920F9310
:102A30001F93CF93DF93CDB7DEB760970FB6F894AF
:102A4000DEBF0FBECDBFF82E10E01EC04FEF60E01E
:102A5000812F0E94102281110DC01F921F9381E9C6
:102A60009BE09F938F930E94D32A0F900F900F901B
:102A70000F9036C080915904E1E0F0E0EC0FFD1FAB
:102A8000E10FF11D80831F5F1F1500F32F2D30E034
:102A900003E0AE014F5F5F4FBA0185E692E097D346
:102AA00010E014C0E1E0F0E0EC0FFD1FE10FF11DBC
:102AB00080811F928F9389E89BE09F938F930E9460
:102AC000D32A1F5F0F900F900F900F901F1550F398
:102AD00060915F04709160048AE090E00E94832A14
:102AE00080E090E060960FB6F894DEBF0FBECDBFD9
:102AF000DF91CF911F910F91FF9008950F931F9336
:102B0000CF93DF93CDB7DEB760970FB6F894DEBFF3
:102B10000FBECDBF40E161E080E00E94102288231B
:102B200071F100915904402F50E020E0BE016F5F29
:102B30007F4F85E692E012D310E014C0E1E0F0E0B0
:102B4000EC0FFD1FE10FF11D80811F928F938CE52B
:102B50009BE09F938F930E94D32A1F5F0F900F904B
:102B60000F900F90101750F360915F047091600404
:102B70008AE090E00E94832A80E090E002C084E630
:102B80009BE060960FB6F894DEBF0FBECDBFDF911D
:102B9000CF911F910F9108950F931F93CF93DF93C0
:102BA000CDB7DEB728970FB6F894DEBF0FBECDBF06
:102BB000082F10E01EC04FEF60E0812F0E9410220E
:102BC00081110DC01F921F9389E39BE09F938F9308
:102BD0000E94D32A0F900F900F900F9015C08091F4
:102BE0005904E1E0F0E0EC0FFD1FE10FF11D8083DF
:102BF0001F5F101700F3402F50E020E0BE016F5F11
:102C00007F4F85E692E074D280E090E028960FB680
:102C1000F894DEBF0FBECDBFDF91CF911F910F9112
:102C20000895CF93DF9362E37BE080E00E94E3218D
:102C3000882319F0813001F13DC0CBE6D2E0E88174
:102C4000F981208181E090E0A0E0B0E00E8004C036
:102C5000880F991FAA1FBB1F0A94D2F78095822361
:102C6000808321E040E050E060E070E085E692E0A3
:102C70003FD280E090E020C0CBE6D2E0E881F9814D
:102C8000208181E090E0A0E0B0E00E8004C0880FD9
:102C9000991FAA1FBB1F0A94D2F7822B808322E0C0
:102CA00040E050E060E070E085E692E021D280E014
:102CB00090E002C089E19BE0DF91CF910895CF922F
:102CC000EF92FF920F931F93CF93DF93C82F7B0157
:102CD000882351F0DB016D917C918BE692E0D1D994
:102CE000009709F0BBC009C089E0E0E0F2E0ABE684
:102CF000B2E001900D928A95E1F7C23060F100E0F8
:102D000012E12AE730E040E050E0BA0181E00E94A1
:102D1000B122811115C01F928AE78F9382E18F93B0
:102D20001F9286EF9AE09F938F930E94D32A0F9071
:102D30000F900F900F900F900F9080E090E08EC05A
:102D40006091590470915A0480915B0490915C04E5
:102D50007FD2182F01C010E0C330B8F0D70114960D
:102D6000ED91FC9115978081813389F018F48033BF
:102D700031F06CC0823329F0833329F067C000E062
:102D800007C002E005C003E003C000E001C001E0AD
:102D9000C43068F06AEC7AE083E00E94E321882383
:102DA00019F0813031F055C0EE24E39403C0E12CDA
:102DB00001C0E12CEBE6F2E020813181D901CC9118
:102DC00081E090E0A0E0B0E0AC01BD01068004C06D
:102DD000440F551F661F771F0A94D2F74C2BE90149
:102DE0004883C281D3814881068004C0880F991F1F
:102DF000AA1FBB1F0A94D2F7842B88838091640298
:102E0000882319F085E692E05FD1C12C212F40E0A4
:102E100060E085E692E006D18823F1F0812F31D27F
:102E20009F938F937F936F9381E59AE09F938F9306
:102E30000E94D32A81E0809364020F900F900F903C
:102E40000F900F900F9080E090E008C083ED9AE023
:102E500005C088EA9AE002C082E79AE0DF91CF914C
:102E60001F910F91FF90EF90CF900895CF92EF9226
:102E70000F9342D05AD20E94562469D3CC24C394D3
:102E8000E12C08E020E032EC41E050E060E087E532
:102E900094E062D387E594E00ED4BFD0D3D440E071
:102EA00060E084E594E0D3D4789481E00F91EF90D2
:102EB000CF900895CF93DF931F92CDB7DEB7D6DFC3
:102EC0006BE97DE08EE09DE00E941A20BE016F5FFD
:102ED0007F4F87E594E0C2D3882319F089810E944F
:102EE0005F2083B7817F83BF83B7816083BF88956D
:102EF00083B78E7F83BFEACF87E085B98CE284B940
:102F000080E388B917B88FEF8BB982E08AB908954A
:102F100090E0FC013197E930F10538F5E45CFF4FB2
:102F20000C94052585B18B7F85B908958BB18B7F76
:102F30008BB908958BB1877F8BB908958BB18F7E44
:102F40008BB908958BB18F7D8BB908958BB18F7B31
:102F50008BB908958BB18F778BB9089585B18E7F2A
:102F600085B9089585B18D7F85B9089590E0FC01FC
:102F70003197E930F10538F5EB5BFF4F0C940525EF
:102F800085B1846085B908958BB184608BB908954B
:102F90008BB188608BB908958BB180618BB908952E
:102FA0008BB180628BB908958BB180648BB9089521
:102FB0008BB180688BB9089585B1816085B908951A
:102FC00085B1826085B9089505C025E02A95F1F79D
:102FD000000001970097C9F70895CF93DF93EC01A4
:102FE00004C088EE93E0F0DF21972097D1F7DF91BE
:102FF000CF91089581110AC06CBD442321F08DB595
:1030000081608DBD08958DB58E7F8DBD0895F2CF01
:103010000895FB0180831182089564E772E080E0E7
:10302000F8CF0895CF92EF920F931F93CF93DF9332
:10303000FC011182108261113FC04283233089F06C
:1030400028F42223D1F0223049F005C0253079F050
:1030500058F0263079F040E080E511C041E081E58C
:103060000EC040E081E50BC041E082E508C040E0D1
:1030700082E505C040E083E502C041E080E5902F95
:103080009370092F10E0000F111F000F111F082B64
:1030900081E0E81201C00062862FEF0103834483C0
:1030A000C582602FA7DFE4E7F2E0F983E88381813E
:1030B0008F5F818381E001C080E0DF91CF911F911C
:1030C0000F91EF90CF900895DC01ED91FC91119755
:1030D000918191509183992319F01D921C9206C001
:1030E0008081811101C01CBC1D921C9281E0089559
:1030F000DF92EF92FF920F931F93CF93DF937C01A8
:103100008B01EA01D22EDC01ED91FC91119714960E
:103110004C91149713966C91808179DFD0FE0FC08B
:10312000F7018281F5DE0BC0C8010196D8012C9110
:103130002EBD0DB407FEFDCF2EB521978C01209733
:1031400099F7D1FE03C0F701828110DFDF91CF91A3
:103150001F910F91FF90EF90DF900895DF92EF9213
:10316000FF920F931F93CF93DF937C018B01EA01B2
:10317000D22EDC01ED91FC91119714964C9114978D
:1031800013966C91808143DFD0FE11C0F7018281DC
:10319000BFDE0DC0D70115968C918EBD0DB407FE14
:1031A000FDCF8EB5F801808321970F5F1F4F2097C9
:1031B00089F7D1FE04C0D70112968C91D7DEDF913A
:1031C000CF911F910F91FF90EF90DF900895AF92F4
:1031D000BF92CF92DF92EF92FF920F93CF93DF9344
:1031E0005C017B016A01E901DC01ED91FC91119721
:1031F00014964C91149713966C91808108DF00FF10
:1032000015C0F501828184DE11C0C7010196D70186
:103210002C912EBD0DB407FEFDCF2EB5F6012083F7
:10322000219796012F5F3F4F69017C01209769F735
:1032300001FF04C0D50112968C9198DEDF91CF91E9
:103240000F91FF90EF90DF90CF90BF90AF900895D7
:103250000F931F938B019C0180E040E052E16AE7ED
:1032600070E007C076956795579547958F5F8630D4
:1032700029F00417150726073707A0F31F910F91B0
:1032800008950F931F9390E0019640E054E264EF9D
:1032900070E08A019B0104C0369527951795079524
:1032A0008A95D2F7C901B8011F910F9108951F9215
:1032B0000F920FB60F9211242F933F934F935F936A
:1032C0006F937F938F939F93AF93BF93EF93FF93EE
:1032D000809178029091790201969093790280937F
:1032E000780280917602909177020197909377020D
:1032F00080937602892B41F484E690E090937702E4
:10330000809376020E94BA23FF91EF91BF91AF9113
:103310009F918F917F916F915F914F913F912F91ED
:103320000F900FBE0F901F90189582E08093B00011
:1033300087E08093B1001092B2008BE98093B300D4
:1033400084E690E09093770280937602E0E7F0E0E5
:103350008081826080830895811105C0E1ECF0E0F6
:103360008081806280830895811110C0E1ECF0E0DB
:10337000108282E08093C0007093C5006093C40007
:103380004093C20088E9808381E0089580E0089539
:10339000FB018083118281E082831382148215A253
:1033A00016A20895CF92DF92EF92FF920F931F9390
:1033B000CF93DF93CDB7DEB728970FB6F894DEBF73
:1033C0000FBECDBF6B017C01CC0CDD1CEE1CFF1CC5
:1033D000CC0CDD1CEE1CFF1CCC0CDD1CEE1CFF1C01
:1033E000A701960160E074E284EF90E00E94E92476
:1033F00029833A834B835C836D837E838F83988795
:1034000049815A816B817C81CA01F694E794D794F3
:10341000C7940D811E812F8138850C151D052E0541
:103420003F0508F4019728960FB6F894DEBF0FBE4B
:10343000CDBFDF91CF911F910F91FF90EF90DF9063
:10344000CF9008951F920F920FB60F9211242F93D1
:103450003F934F938F939F93AF93BF93EF93FF93BC
:103460008091C0004091C6008471B9F4EAE7F2E0AF
:1034700025A130E086A190E001968F739927281747
:10348000390759F0DF0186A1E82FF0E0E658FD4F3B
:1034900047A38F5F8F7396968C93FF91EF91BF91A7
:1034A000AF919F918F914F913F912F910F900FBEB0
:1034B0000F901F9018951F920F920FB60F92112424
:1034C0008F939F93AF93BF93EF93FF93EAE7F2E05D
:1034D00093818481981309C0E1ECF0E080818F7DB5
:1034E00080838081806480830FC0EAE7F2E083817B
:1034F000A82FB0E0A658BD4F15969C918F5F8F7195
:1035000083839093C6001282FF91EF91BF91AF9198
:103510009F918F910F900FBE0F901F9018951F9243
:103520000F920FB60F9211248F93EF93FF9381E0C8
:1035300080937C02E1ECF0E080818F7B8083FF91BF
:10354000EF918F910F900FBE0F901F9018956AE723
:1035500072E080E01DCF0895AF92BF92CF92EF92BC
:103560000F931F93CF93DF93FC01A62F118210823C
:10357000611138C080917B02811136C0DC2D1E2D77
:10358000CA01B901CA2F5F010DDF113021F028F007
:10359000123029F02BC040E303C040E001C040E2FC
:1035A000063049F018F4053059F022C0073029F0F0
:1035B000083029F01DC0426003C0446001C046606D
:1035C000D13019F0D230B1F44860BC018C2FCCDE80
:1035D000882389F0EAE7F2E0D501ED93FC9391E0CE
:1035E000918309C080E007C080E005C080E003C08F
:1035F00080E001C080E0DF91CF911F910F91EF90AB
:10360000CF90BF90AF900895DC01ED91FC912381A4
:1036100030E0848190E001968F719927281739074F
:10362000B1F38481DF01A80FB11D15966C938F5FF4
:103630008F718483808190CE0895DC01ED91FC919F
:1036400095A186A19817E1F395A1DF01A90FB11DFE
:1036500097968C919F5F9F7395A30895DC01ED91E0
:10366000FC9195A186A1981769F085A1DF01A80FAB
:10367000B11D97969C91DB019C938F5F8F7385A3FF
:1036800081E0089580E00895CF93C82F8A3011F427
:103690008DE0FADF6C2F8091E1029091E202B4DFBD
:1036A00080E090E0CF9108958091E1029091E20254
:1036B000C4DF90E008959093E2028093E102EDE58B
:1036C000F4E082E291E09383828391838083089582
:1036D0008091B90084E98093BC008091BC0084FD96
:1036E000FCCF81E0089594EA9093BC009091BC00D7
:1036F0009923E4F79091B900987F9830F9F490E01D
:10370000880F991F862B8093BB0094E89093BC0090
:103710009091BC009923E4F780FF08C08091B90024
:10372000887F803469F0D4DF80E008958091B9000B
:10373000887F883139F0CCDF80E0089580E00895FB
:1037400081E0089581E0089594EA9093BC009091FF
:10375000BC009923E4F79091B900987F9031F9F477
:1037600090E0880F991F862B8093BB0094E890937C
:10377000BC009091BC009923E4F780FF08C08091C1
:10378000B900887F803469F0A3DF80E008958091DC
:10379000B900887F883139F09BDF80E0089580E0B0
:1037A000089581E0089581E008958093BB0084E846
:1037B0008093BC008091BC008823E4F78091B9001D
:1037C000887F883219F084DF80E0089581E00895D1
:1037D000FC01662321F084E88093BC0003C084ECE4
:1037E0008093BC009091BC009923E4F7662341F0DC
:1037F0009091B900987F983559F06ADF80E008957C
:103800009091B900987F903519F062DF80E00895BB
:103810008091BB00808381E0089581110DC01092DA
:10382000B90088E48093B8008FEF8093BB0084E0F8
:103830008093BC0081E0089580E00895FB018083BF
:103840001182089563EE72E080E0F8CF0895CF937F
:10385000DF93FC0111821082611114C0EC014283DC
:103860008091E402811105C08091E302D6DF8823B4
:1038700051F0E3EEF2E0F983E88381818F5F818389
:1038800081E001C080E0DF91CF910895DC01ED91EE
:10389000FC911197918191509183992319F01D9278
:1038A0001C9207C08081811102C01092BC001D9241
:1038B0001C9281E00895FF920F931F93CF93DF93A3
:1038C000FC018B01EA01F22E922F917020FD02C0C3
:1038D00023FF16C0992331F060E0828104DF81115B
:1038E0000FC015C060E082812FDF811109C00FC0B9
:1038F000F80180815ADF882351F00F5F1F4F219715
:103900002097B1F7F1FE02C0E3DE01C081E0DF9154
:10391000CF911F910F91FF900895FF920F931F93E6
:10392000CF93DF938B01EA01F22E2170F0FC02C0ED
:10393000F3FE25C0222339F061E0FC018281D3DE51
:1039400081111DC023C061E0FC018281FDDE811177
:1039500016C01CC0C130D10551F4F1FC02C0F2FE0A
:1039600006C061E0C80134DF811106C00FC060E00D
:10397000C8012EDF882351F00F5F1F4F219720973A
:1039800049F7F1FE02C0A4DE01C081E0DF91CF91D2
:103990001F910F91FF900895FC016283089590910B
:1039A000E502913079F018F09230B9F02BC08B31EC
:1039B00029F49F5F9093E50282E00895882334F50F
:1039C00081E008958B3529F49F5F9093E50282E0B2
:1039D00008951092E50282E008951092E502823483
:1039E000B9F018F4813431F00BC0833429F08434F9
:1039F00029F006C083E0089585E0089586E00895E3
:103A000081E008951092E50281E0089580E0089534
:103A100084E00895CF93DF93CDE5D4E06A817B8184
:103A20008BE190E00E94832A6A817B818BE590E0A4
:103A30000E94832A6A817B8182E390E00E94832A2C
:103A40006A817B818AE490E00E94832ADF91CF9192
:103A50000895CF93DF931092E502CDE5D4E06A811B
:103A60007B818BE190E00E94832A6A817B818BE5D8
:103A700090E00E94832A6A817B8188E490E00E9422
:103A8000832AC8DF84E690E0A8DADF91CF91089519
:103A90001F93CF93DF93182F15C0CDE5D4E06A8133
:103AA0007B8188E090E00E94832A6A817B8180E2AA
:103AB00090E00E94832A6A817B8188E090E00E94E6
:103AC000832A11501111E9CFDF91CF911F910895F1
:103AD000E091C303F0E0EC53FC4F108220E0E4ECF3
:103AE000F3E0A0E004C0108231969A2FA92F8081C4
:103AF0008032C9F3882319F1A43208F5823211F417
:103B0000319621E091E09A0FB0E0AA0FBB1FA558B3
:103B1000BC4FED93FC93211102C00BC03196808104
:103B2000823211F08111FACF823219F4119201C060
:103B3000319680818032D1F28111FACFD7CF8A2F8E
:103B400008958F3710F48F5F089580E008958823DB
:103B500011F0815008958FE708951F93CF93DF935D
:103B60001091C303111105C08091F8028093F702F0
:103B70003CC0D091F8028D2FC12FC150E8DFEC2F4F
:103B8000F0E0EC53FC4F2081E82FF0E0E750FD4FD0
:103B90009081291305C0C111F0CFD093F70225C041
:103BA000C0E08D2FCEDFD82FE82FF0E0AC2FB0E0B3
:103BB000AC53BC4F8C91E750FD4F8083CF5FC11752
:103BC00080F38D2FBEDF8093F8028093F702282FB9
:103BD00030E0F901E750FD4F9081992331F0F90170
:103BE000E750FD4F1082ADDFF2CFDF91CF911F91F3
:103BF000089544E050E0BC0183EF92E00E942C2A3B
:103C00006091F5027091F60261157105B1F0809135
:103C1000F3029091F402892B41F048E050E08BEEE2
:103C200092E00E942C2A81E0089544E050E08BEE5F
:103C300092E00E942C2A81E0089580E0089510927D
:103C4000E60280914404909145049093E8028093A9
:103C5000E702CFCF089510927A038091C303809337
:103C60007903EDCF08958091F5029091F602892BAA
:103C7000D1F08091F3029091F402892BB1F4E0919C
:103C8000E602E11114C0EF5FE093E602F0E08091FC
:103C9000ED029091EE02EE0FFF1FE951FD4F91836F
:103CA0008083A7CF089580E0089580E0089580E0A4
:103CB00008958091F5029091F602892B71F0E091C0
:103CC000E602F0E0EE0FFF1FE951FD4F8081918188
:103CD0000496918380838DCF089580E00895E091CC
:103CE000E602E11109C0809144049091450490934B
:103CF000E8028093E70216C0F0E03197EE0FFF1F55
:103D0000E951FD4F8081918174DFE091E602F0E09E
:103D10008091ED029091EE02EE0FFF1FE951FD4FF1
:103D200091838083E091E602F0E0EE0FFF1FE951FE
:103D3000FD4F808191815DCF0895E091E602EE23F1
:103D400061F0E150E093E602F0E0EE0FFF1FE95171
:103D5000FD4F808191814DCF089580E00895CF92ED
:103D6000DF92EF92FF920F931F93CF93DF93E09137
:103D7000E602F0E0EE0FFF1FE951FD4FE080F18019
:103D8000C0917A030091EB021091EC022FC0D1E0B8
:103D9000DC0FEC2FF0E0EC53FC4F808168019FEFCB
:103DA000C91AD90AF8010491011112C0803281F4B4
:103DB0008091F3029091F402892B09F055C053DFF2
:103DC0000091EB021091EC02D0937A03CD2F12C038
:103DD000801751F06EDFC82F811102C080DF47C00D
:103DE000C0917A03860106C08601CD2F80917903A8
:103DF000C81768F290917903C91770F4E091E60250
:103E0000F0E0EE0FFF1FE951FD4F80819181E81630
:103E1000F90609F0B7CF2AC08091C303891B38DEA9
:103E20007801FFEFEF1AFF0AF8018491882399F0D7
:103E3000CF3788F4D1E0DC0FEC2FF0E0EC53FC4FEF
:103E4000808360915F047091600490E00E94832AF7
:103E50008701CD2FE5CFC093C3032BDFC82F81117E
:103E600006C03DDFC1E003C0C0E001C0C0E08C2F50
:103E7000DF91CF911F910F91FF90EF90DF90CF9046
:103E800008950F931F93CF93DF938091C30300DEB8
:103E90001091F702C0E0E12FF0E0E750FD4FD08134
:103EA000DD23A1F060915F04709160048D2F90E09C
:103EB0000E94832A01E00C0FEC2FF0E0EC53FC4F42
:103EC000D083812F3EDE182FC02FE5CFC093C303D0
:103ED000DF91CF911F910F9108958091F70237DE06
:103EE0009091F8028917A9F032DEE82FF0E0E75050
:103EF000FD4F9081911102C0089529DEE82FF0E076
:103F0000E750FD4F90819111F8CF1BDE8093F702AF
:103F1000B8CF08958091F70201C013DEE82FF0E0DA
:103F2000E750FD4F90819111F8CF9091F8028913DD
:103F300008DE8093F702A5CF08950F931F93CF93C8
:103F4000DF93C6DDD82F882309F46FC0E0917B038F
:103F5000F0917C038081833209F467C070DE809128
:103F6000F5029091F602892B21F0C091E602CD175F
:103F700048F08BE49EE09F938F930E94D32A0F908A
:103F80000F9053C00C2F10E0F801EE0FFF1FE55803
:103F9000FC4F6091EB027091EC02808191810E9454
:103FA000352A892B41F48091F3029091F402892BF8
:103FB00021F459DED4CF7DDED2CFDC1BD1500F5F90
:103FC0001F4F000F111F05581C4F8091ED02D8178D
:103FD00020F08091EE028D1748F484E29EE09F93DA
:103FE0008F930E94D32A0F900F901FC089E092E018
:103FF0009F938F930E94BF2AE091F302F091F40205
:10400000B8018D2F09950F900F90009771F09F9335
:104010008F930E94D32A60915F04709160048AE0BC
:1040200090E00E94832A0F900F90DF91CF911F9113
:104030000F910895CF93DF939C01EB0190E006C0B0
:10404000E92FF0E0E750FD4F10829F5F9923C4F7FE
:104050001092F8021092F702309345042093440422
:104060001092C303F8DDF5DC209731F0DF93CF9396
:104070000E94D32A0F900F9089E092E09F938F9334
:104080000E94BF2A85E69EE09F938F930E94D32AC9
:104090008FE092E09F938F930E94BF2A60915F040C
:1040A000709160048EE390E00E94832A0F900F903D
:1040B0000F900F900F900F90DF91CF910895CF93B5
:1040C000DF93C82F6CDC833009F46AC0843009F4B4
:1040D00069C0811168C0C930B1F1CD3021F0C8305C
:1040E00009F03DC01CC0CDE5D4E06A817B818AE047
:1040F00090E00E94832A31DD20DF1092C303ABDD04
:104100008FE092E09F938F930E94BF2A6A817B8108
:104110008EE390E00E94832A0F900F9044C080911C
:10412000C303882339F081508093C30381E0B0DC5E
:1041300092DD39C060915F047091600487E090E087
:104140000E94832A30C00BDE81112DC060915F0474
:104150007091600487E090E00E94832A24C0C032FE
:1041600010F1E091C303EF3790F481E08E0F80935C
:10417000C303F0E0EC53FC4FC0836DDD60915F043E
:10418000709160048C2F90E00E94832A0CC0609193
:104190005F047091600487E090E00E94832A03C06E
:1041A0009CDE01C0B7DEDF91CF910895AF92BF9240
:1041B000CF92DF92EF92FF920F931F93CF93DF93F3
:1041C000E82E5B013CDDF12C00E08091F50290913E
:1041D000F602892B39F48091E6028823B1F1ADDD36
:1041E00068DDF3CF8091F3029091F402892BA1F462
:1041F0002AC0E12FF0E0EE0FFF1FE951FD4F808153
:104200009181F7DC8091EB029091EC020E943E2AB2
:104210000196D80E1F5F02C0D12C10E08091E602FB
:10422000811738F70D1508F0D02E8091EF0290918C
:10423000F0020E943E2A182FF81608F01F2D39DDD3
:10424000F12E0D2DC2CF0FDDC0CFF9DCC12C809136
:10425000F5029091F602892B51F48091E6028823B1
:1042600009F4A4C06ADD25DDCC24C394F0CF80918D
:10427000F3029091F402892B09F494C08091E70233
:104280009091E802B6DCEE20A1F0F50180819181E9
:10429000FC0101900020E9F73197AF01481B590B51
:1042A0006091EB027091EC020E945F2A892B09F069
:1042B00077C0E1100BC0CC2049F060915F04709191
:1042C00060048AE090E00E94832AC12C10E0D12C87
:1042D00022C0ED2DF0E0EE0FFF1FE951FD4F808170
:1042E000918187DCCBEED2E089818F9388818F9397
:1042F0000E94D32A60915F047091600480E290E094
:104300000E94832A888199810E943E2A0196180F73
:10431000D3940F900F908091E6028D15D0F609C0CE
:1043200060915F047091600480E290E00E94832AB3
:104330001F5F1017A8F3CBEED2E08D818F938C8195
:104340008F930E94D32A8C819D810E943E2A182F30
:104350000F900F9009C060915F047091600480E23B
:1043600090E00E94832A1F5F1F15A8F380E29EE061
:104370009F938F930E94D32AEBEEF2E087818F9375
:1043800086818F930E94D32A60915F0470916004AC
:104390008AE090E00E94832A0F900F900F900F9078
:1043A00088DC55CF60DCCC24C39451CF80E090E012
:1043B000DF91CF911F910F91FF90EF90DF90CF9001
:1043C000BF90AF9008950F931F93CF93DF93EB01AE
:1043D0000091E602800F01E0080F10E014C0E02F0A
:1043E000F0E0EE0FFF1FE558FC4FBE018081918188
:1043F0000E94352A892B71F0CE010E943E2A019637
:10440000C80FD91F1F5FCE010E943E2A892B39F7A2
:104410008FEF01C0812FDF91CF911F910F910895F0
:10442000EF92FF920F931F93CF93DF9300D0CDB7FE
:10443000DEB7E62EF42E0091E602800F01E0080FB1
:1044400010E0000F111F05581C4F40E050E0BE0166
:104450006F5F7F4FF801808191812ED6F801208116
:104460003181E981FA812E173F07C9F0208121119E
:1044700018C00E2D10E020E030E0601771078207B1
:10448000930788F00F2D10E020E030E006171707A3
:104490002807390750F06093590481E007C080E095
:1044A00005C080E003C080E001C080E00F900F9065
:1044B000DF91CF911F910F91FF90EF900895CF92D0
:1044C000DF92EF92FF920F931F93CF93DF9300D071
:1044D000CDB7DEB77B016A010091E602800F01E0F3
:1044E000080F10E0000F111F05581C4F40E050E06E
:1044F000BE016F5F7F4FF80180819181DDD5F801AA
:1045000020813181E981FA812E173F07C1F0208196
:10451000211117C0870120E030E060177107820782
:10452000930788F0E12CF12CC616D706E806F906A9
:1045300060F070935A046093590481E007C080E0F2
:1045400005C080E003C080E001C080E00F900F90C4
:10455000DF91CF911F910F91FF90EF90DF90CF905F
:1045600008958F929F92AF92BF92CF92DF92EF9277
:10457000FF920F931F93CF93DF9300D0CDB7DEB799
:104580006A017B01480159010091E602800F01E0B8
:10459000080F10E0000F111F05581C4F40E050E0BD
:1045A000BE016F5F7F4FF8018081918185D5F80151
:1045B00020813181E981FA812E173F07B9F02081EE
:1045C000211116C06C157D058E059F0598F0861685
:1045D0009706A806B90680F06093590470935A04B0
:1045E00080935B0490935C0481E007C080E005C089
:1045F00080E003C080E001C080E00F900F90DF9169
:10460000CF911F910F91FF90EF90DF90CF90BF90CF
:10461000AF909F908F9008950F931F93CF93DF9348
:1046200000D0CDB7DEB70091E602800F01E0080FA1
:1046300010E0000F111F05581C4FBE016F5F7F4F28
:10464000F80180819181F5D3F80120813181E981E0
:10465000FA812E173F0769F0208121110CC0609369
:10466000590470935A0480935B0490935C0481E036
:1046700003C080E001C080E00F900F90DF91CF91E8
:104680001F910F910895837011F481E0089580E0E7
:104690000895CF93E62FF0E0E55AF04FC4916230D1
:1046A00019F4F1DF8111CF5F8C2FCF9108950F9313
:1046B0001F93CF93DF93EEE4F4E085818F5F8583D2
:1046C0008C3308F1158284818F5F84838C33D8F01A
:1046D000148283818F5F83838831A8F0EF01138276
:1046E00011810081612F802FD4DF9A819F5F9A838F
:1046F000891748F481E08A831F5F19831D3018F001
:1047000089830F5F0883DF91CF911F910F910895E7
:10471000FC013581FB012581321320C0FC0134816D
:10472000FB01248132131CC0FC013381FB01238176
:10473000321318C0FC013281FB012281321314C0F4
:10474000FC013181FB012181321310C0FC019081F9
:10475000FB018081981761F080E0089580E0089562
:1047600080E0089580E0089580E0089580E0089555
:1047700081E008959CDF80914704882399F180FFB0
:1047800006C02091530490914D0429132BC081FF42
:1047900006C02091520490914C04291323C082FF3B
:1047A00006C02091510490914B0429131BC083FF34
:1047B00006C02091500490914A04291313C084FF2D
:1047C00006C020914F049091490429130BC085FF26
:1047D00006C090914E0480914804981303C081E074
:1047E0008093460408950F931F93CF93DF9300D0D7
:1047F00000D000D0CDB7DEB78C0186E0F801AEE482
:10480000B4E001900D928A95E1F786E0EEE4F4E0E1
:10481000DE01119601900D928A95E1F7BE016F5F5E
:104820007F4FC80175DF882341F326960FB6F894B1
:10483000DEBF0FBECDBFDF91CF911F910F910895C5
:104840000F931F93CF93DF9300D000D000D0CDB74C
:10485000DEB78C0186E0EEE4F4E0D80101900D9221
:104860008A95E1F786E0EEE4F4E0DE01119601902E
:104870000D928A95E1F7BE016F5F7F4FC80148DF57
:10488000882341F326960FB6F894DEBF0FBECDBF46
:10489000DF91CF911F910F910895FC01108281E06B
:1048A000818382831382148215820895CF93DF93CC
:1048B00000D000D000D0CDB7DEB7109247041092E0
:1048C0004604CE010196E9DFCE0101968CDF2696E3
:1048D0000FB6F894DEBF0FBECDBFDF91CF91089524
:1048E0000F931F93CF93DF93FC0180818436E0F414
:1048F00061819FEF960F9C30C8F402810023C1F0C4
:10490000EF0110E0C6DE082E000C990B801791070E
:104910008CF08B81883180F48C818C3378F48D819C
:104920008C3370F080E00DC080E00BC080E009C0E7
:1049300080E007C080E005C080E003C080E001C0E7
:1049400081E0DF91CF911F910F910895FC01558176
:10495000448133812281918180811F925F931F92D4
:104960004F931F923F931F922F931F929F931F92DB
:104970008F9387E39FE09F938F9315D68DB79EB754
:104980000E960FB6F8949EBF0FBE8DBF0895A1E29C
:104990001A2EAA1BBB1BFD010DC0AA1FBB1FEE1FB9
:1049A000FF1FA217B307E407F50720F0A21BB30B04
:1049B000E40BF50B661F771F881F991F1A9469F780
:1049C00060957095809590959B01AC01BD01CF01DC
:1049D0000895052E97FB16F400940FD057FD05D0CF
:1049E000D6DF07FC02D046F408C0509540953095BC
:1049F00021953F4F4F4F5F4F08959095809570954B
:104A000061957F4F8F4F9F4F0895EE0FFF1F0590C9
:104A1000F491E02D0994A29FB001B39FC001A39F20
:104A2000700D811D1124911DB29F700D811D1124E7
:104A3000911D0895F0DFA59F900DB49F900DA49F48
:104A4000800D911D112408952F923F924F925F92F5
:104A50006F927F928F929F92AF92BF92CF92DF928E
:104A6000EF92FF920F931F93CF93DF93CDB7DEB7F3
:104A7000CA1BDB0B0FB6F894DEBF0FBECDBF099487
:104A80002A88398848885F846E847D848C849B84DE
:104A9000AA84B984C884DF80EE80FD800C811B81EC
:104AA000AA81B981CE0FD11D0FB6F894DEBF0FBE1B
:104AB000CDBFED0108955058BB27AA270ED01CC1C9
:104AC0000DD130F012D120F031F49F3F11F41EF4DB
:104AD00002C10EF4E095E7FBF8C0E92F1ED180F388
:104AE000BA17620773078407950718F071F49EF5EB
:104AF00036C10EF4E0950B2EBA2FA02D0B01B90193
:104B000090010C01CA01A0011124FF27591B99F043
:104B1000593F50F4503E68F11A16F040A22F232F4F
:104B2000342F4427585FF3CF469537952795A7959F
:104B3000F0405395C9F77EF41F16BA0B620B730B46
:104B4000840BBAF09150A1F0FF0FBB1F661F771FB7
:104B5000881FC2F70EC0BA0F621F731F841F48F46C
:104B6000879577956795B795F7959E3F08F0B3CFF2
:104B70009395880F08F09927EE0F979587950895DC
:104B80000CD0BAC0B2D040F0A9D030F021F45F3FD1
:104B900019F09BC05111E4C09EC0BFD098F3992377
:104BA000C9F35523B1F3951B550BBB27AA276217F1
:104BB0007307840738F09F5F5F4F220F331F441F36
:104BC000AA1FA9F333D00E2E3AF0E0E830D091506E
:104BD0005040E695001CCAF729D0FE2F27D0660F5B
:104BE000771F881FBB1F261737074807AB07B0E89A
:104BF00009F0BB0B802DBF01FF2793585F4F2AF0B0
:104C00009E3F510568F061C0ABC05F3FECF3983E3A
:104C1000DCF3869577956795B795F7959F5FC9F70C
:104C2000880F911D9695879597F90895E1E0660F95
:104C3000771F881FBB1F621773078407BA0720F00E
:104C4000621B730B840BBA0BEE1F88F7E095089577
:104C5000E89409C097FB3EF4909580957095619516
:104C60007F4F8F4F9F4F9923A9F0F92F96E9BB27CC
:104C70009395F695879577956795B795F111F8CF48
:104C8000FAF4BB0F11F460FF1BC06F5F7F4F8F4FB3
:104C90009F4F16C0882311F096E911C0772321F0A9
:104CA0009EE8872F762F05C0662371F096E8862F41
:104CB00070E060E02AF09A95660F771F881FDAF798
:104CC000880F9695879597F9089597F99F6780E8DB
:104CD00070E060E008959FEF80EC089500240A944E
:104CE0001616170618060906089500240A941216C7
:104CF0001306140605060895092E0394000C11F4FA
:104D0000882352F0BB0F40F4BF2B11F460FF04C0A6
:104D10006F5F7F4F8F4F9F4F089557FD9058440FFF
:104D2000551F59F05F3F71F04795880F97FB991F0A
:104D300061F09F3F79F087950895121613061406C7
:104D4000551FF2CF4695F1DF08C016161706180654
:104D5000991FF1CF86957105610508940895E8942F
:104D6000BB2766277727CB0197F908950BD0C4CFCF
:104D7000B5DF28F0BADF18F0952309F0A6CFABCF46
:104D80001124EECFCADFA0F3959FD1F3950F50E029
:104D9000551F629FF001729FBB27F00DB11D639FED
:104DA000AA27F00DB11DAA1F649F6627B00DA11D93
:104DB000661F829F2227B00DA11D621F739FB00D39
:104DC000A11D621F839FA00D611D221F749F3327A9
:104DD000A00D611D231F849F600D211D822F762F42
:104DE0006A2F11249F5750408AF0E1F088234AF03F
:104DF000EE0FFF1FBB1F661F771F881F915050408B
:104E0000A9F79E3F510570F060CFAACF5F3FECF34A
:104E1000983EDCF3869577956795B795F795E79576
:104E20009F5FC1F7FE2B880F911D9695879597F987
:104E30000895A0E0B0E0EEE1F7E20CCEEC016B01EA
:104E40006115710519F0FB01918380837E01FFEFED
:104E5000EF1AFF0A0881802F90E0F6D2892B11F01B
:104E6000E701F4CF0D3239F47E0182E0E80EF11C47
:104E7000098111E008C00B3229F47E0192E0E90EAD
:104E8000F11C098110E0E701219743E050E06CEA52
:104E900070E0CE01FCD2892BB9F4239645E050E0B6
:104EA00067EA70E0CE01F3D2892B09F42596C1148C
:104EB000D10419F0F601D183C0831111F0C060E074
:104EC00070E080E89FE7F4C043E050E064EA70E0FF
:104ED000CE01DDD2892B59F4C114D10409F4E4C008
:104EE000F2E0EF0EF11CF601F182E082DDC020E07D
:104EF00030E0A901C0E0D0E0F70180EDA82EA00EBF
:104F000089E08A1528F1912F9260B92E812F88703F
:104F100012FF04C0811123C0219621C08111219765
:104F2000A5E0B0E087DDDC01CB01880F991FAA1F47
:104F3000BB1F9C01AD012A0D311D411D511D28399A
:104F400089E93807480789E1580748F0166006C024
:104F50009EEFA9120AC013FD40C01860B12E8FEF5A
:104F6000E81AF80A00811B2DC7CF802F8F7D85346A
:104F7000A1F580818D3211F4106106C08B3221F0D1
:104F8000319661E070E004C08181329662E070E0A9
:104F900080538A3018F0E61BF70B1FC060E070E00A
:104FA00060389CE079075CF4DB01AA0FBB1FAA0FF5
:104FB000BB1F6A0F7B1F660F771F680F711D31962D
:104FC000DF0111978C9180538A3050F314FF03C096
:104FD000719561957109C60FD71F11FF08C0C114E3
:104FE000D10429F0CF010197F60191838083CA0192
:104FF000B9012EDE212F2370233019F04B015C0103
:1050000006C04B015C01B7FAB094B7F8B09420E049
:1050100030E0A901C501B4015ED3882309F43CC086
:10502000D7FF06C0D195C195D10903EC10E002C0AD
:105030000BED10E06801F8E1CF1AD10890E2E92EFB
:10504000F12CCE15DF056CF0F801259135914591D5
:105050005491C501B4018ADE4B015C01CE19DF0910
:10506000F0CF04501109F594E7940C151D0549F78C
:105070008A2D880F8B2D881F8F3F41F020E030E074
:10508000A901C501B40127D3811106C082E290E0D5
:105090009093640480936304C501B40109C060E087
:1050A00070E080E89FEF04C060E070E080EC9FE774
:1050B000CDB7DEB7ECE0EACCA0E0B0E0E1E6F8E2A4
:1050C000C4CC5C016B017A016115710519F0FB011B
:1050D00091838083E114F10429F0C701029783973B
:1050E00008F0C6C0E5012196F5011081812F90E0FE
:1050F000ABD1892B11F05E01F5CF1D3229F4219639
:10510000F501118101E007C01B3221F4E50122966F
:10511000F501118100E0E114F104B1F0F0E1EF16C6
:10512000F10429F4AEC010E3E114F10401F12AE026
:10513000E216F104A9F180E1E816F10471F0E8E06B
:10514000EE16F104F1F413C0103339F588818F7D28
:10515000883549F7198122960260F0E1EF2EF12C93
:1051600088248A94982CA82CAFE0BA2E1FC078E02F
:10517000E72EF12C88248A94982CA82CEFE1BE2EDF
:1051800015C06FEF7FEFCB0197010F2C000C440B84
:10519000550BFDDB49015A0109C08AE0E82EF12CCC
:1051A00069E9862E982CA82C69E1B62E40E060E0D3
:1051B00070E0CB0127010F2C000C66087708FE0178
:1051C00050ED352E310E29E0231570F42FEB210F11
:1051D0002A3118F439EC332E06C02FE9210F2A3179
:1051E00028F529EA322E310E232D30E02E153F0509
:1051F000ECF44F3FC1F086169706A806B90680F07A
:10520000A301920184D5232D30E040E050E0620FED
:10521000731F841F951F621773078407950710F487
:105220004FEF01C041E021961081C9CFC114D104D4
:1052300051F0442311F0219703C001FF04C02297CD
:10524000F601D183C08300FF07C0909580957095CB
:1052500061957F4F8F4F9F4F4F3F79F482E290E0EF
:1052600090936404809363043FEF2FEF9FEF0DC092
:1052700040E030E020E090E008C0462F372F282F94
:1052800004C0103309F069CF61CF642F732F822FD0
:10529000CDB7DEB7E1E1F5CB283008F027E03327C2
:1052A000DA01990F311D87FD916000966105710546
:1052B00039F432602E5F3D9330E32A95E1F708958B
:1052C0009F3F30F080387105610509F03C5F3C5F1D
:1052D0003D93913008F08068911DDF93CF931F9329
:1052E0000F93FF92EF92192F987F9695E92F96953D
:1052F0009695E90FFF27E75CFE4F99273327EE24A9
:10530000FF24A701E70105900894079428F4360FBD
:10531000E71EF81E491F511D660F771F881F991F32
:105320000694A1F70590079428F4E70EF81E491F8C
:10533000561FC11D770F881F991F661F0694A1F77E
:105340000590079428F4F80E491F561FC71FD11D5A
:10535000880F991F661F771F0694A1F70590079481
:1053600020F4490F561FC71FD81F990F661F771FBC
:10537000881F0694A9F784911095177041F0D6956F
:10538000C79557954795F794E7941A95C1F7EFEDB0
:10539000F0E068941590159135916591959105907F
:1053A0007FE27395E118F10A430B560BC90BD00944
:1053B000C0F7E10CF11E431F561FC91FD01D7EF41C
:1053C000703311F48A95E6CFE894015030F0080F5D
:1053D0000AF40027021708F4202F2395022F7A33AE
:1053E00028F079E37D932A95E9F710C07D932A95FB
:1053F00089F6069497956795379517951794E11850
:10540000F10A430B560BC90BD00998F023957E91F6
:1054100073957A3308F070E37C932013B8F77E918C
:1054200070617D9330F0839571E37D9370E32A95ED
:10543000E1F71124EF90FF900F911F91CF91DF9131
:10544000992787FD909508959111FCC3803219F03A
:1054500089508550D0F70895FB01DC0102C005900A
:105460000D9241505040D8F70895FB01DC018D9119
:10547000059080190110D9F3990B0895FC0105904E
:105480000020E9F7809590958E0F9F1F0895FB01EE
:10549000DC014150504088F08D9181341CF08B35F7
:1054A0000CF4805E659161341CF06B350CF4605E29
:1054B000861B611171F3990B0895881BFCCFFB01CA
:1054C000DC014150504030F08D910590801919F465
:1054D0000020B9F7881B990B0895FC0105906150D5
:1054E00070400110D8F7809590958E0F9F1F0895FA
:1054F000FC016150704001900110D8F780959095A3
:105500008E0F9F1F08950F931F93CF93DF93FB017F
:10551000238121FD03C08FEF9FEF2CC022FF16C017
:1055200046815781248135814217530744F4A08175
:10553000B1819D012F5F3F4F318320838C93268162
:1055400037812F5F3F4F3783268314C08B01EC01D7
:10555000FB010084F185E02D0995892BE1F6D80146
:1055600016968D919C911797019617969C938E9302
:105570001697CE01DF91CF911F910F910895A0E072
:10558000B0E0E4ECFAE270CAAE014B5F5F4FFA01A3
:1055900061917191AF0180915F04909160040E94CC
:1055A000D207E2E07DCAA0E0B0E0E8EDFAE25ACA34
:1055B000AE01495F5F4FDA016D917D91AD010DE55F
:1055C00014E0F80182819381DC0113962C911397EA
:1055D000286013962C930E94D207D8011296ED9161
:1055E000FC9113972381277F2383E4E057CAAEE021
:1055F000B0E0ECEFFAE238CA85E08C838B899C89B5
:105600009A838983AE01495E5F4F6D897E89CE01A1
:10561000019616D22E96E2E043CAFA01AA27283054
:1056200051F1203181F1E8946F936E7F6E5F7F4F6F
:105630008F4F9F4FAF4FB1E03ED0B4E03CD0670FEB
:10564000781F891F9A1FA11D680F791F8A1F911D3E
:10565000A11D6A0F711D811D911DA11D20D009F48E
:1056600068943F912AE0269F11243019305D3193D0
:10567000DEF6CF010895462F4770405D4193B3E0B9
:105680000FD0C9F7F6CF462F4F70405D4A3318F060
:10569000495D31FD4052419302D0A9F7EACFB4E011
:1056A000A6959795879577956795BA95C9F70097C9
:1056B0006105710508959B01AC010A2E069457956A
:1056C000479537952795BA95C9F7620F731F841FC1
:1056D000951FA01D089503D008F481E00895990F47
:1056E0000008550FAA0BE0E8FEEF16161706E807AC
:1056F000F907C0F012161306E407F50798F0621BCD
:10570000730B840B950B39F40A2661F0232B242BA1
:10571000252B21F408950A2609F4A140A6958FEFC0
:10572000811D811D089520FD09C0FC0123FD05C0D8
:1057300022FF02C07383628351834083089544FD36
:1057400017C046FD17C0AB01BC01DA01FB01AA0F6F
:10575000BB1FEE1FFF1F1094D1F74A0F5B1F6E1F78
:105760007F1FCB01BA01660F771F881F991F09C0E1
:1057700033E001C034E0660F771F881F991F315056
:10578000D1F7620F711D811D911D08950F931F9315
:10579000CF93DF938C01C80163D2EC0197FD06C063
:1057A00053DE892BC1F7B801CE0198D2CE01DF912B
:1057B000CF911F910F9108958F929F92AF92BF92B8
:1057C000EF92FF920F931F93CF93DF938C01D62F0D
:1057D0007A01B22E45D29C0133272B32310531F0AC
:1057E0002D32310559F48B2D8068B82ED15011F42B
:1057F00080E061C0C80134D297FDFACFCB2DCD7FB8
:105800002B2D2073F9F48033E9F4AA24AA94AD0E69
:1058100009F43EC0C80124D297FD3AC09C012F7DF7
:1058200033272835310541F4C264D25089F1C801CB
:1058300017D297FF07C02CC0B6FE02C0C26001C0DD
:10584000C261DA2D812C912C540120ED280F2830D3
:1058500078F0C4FF03C0B80141D217C02A3040F02D
:10586000C6FFF9CF2F7D3FEE320F3630A0F727501D
:105870004C2FC501B40163DF4B015C01C260D15004
:1058800051F0C801EDD197FFE0CFC1FD04C0B0CF0A
:10589000812C912C5401C7FF08C0B094A09490941F
:1058A0008094811C911CA11CB11C2C2FB501A4015A
:1058B000C70139DF81E0DF91CF911F910F91FF90F8
:1058C000EF90BF90AF909F908F900895A0E2B0E0CE
:1058D000EBE6FCE2BCC85C01962E7A01F9018E0170
:1058E0000F5F1F4F680180E2D8011D928A95E9F78A
:1058F000D50113968C9080E090E0612C712C30E003
:1059000061E070E083FC259183FE21918F01522E8E
:10591000211103C080E090E090C02E3511F4009773
:1059200051F1432F50E0481759073CF42D3559F1F8
:105930002D3219F4772009F103C0772009F468C0EB
:10594000452D469546954695D601A40FB11D452D8A
:1059500047708B0102C0000F111F4A95E2F7A801A2
:105960005C91452B4C93651459F0561410F45394E4
:10597000E7CF5A94E5CF31E004C07724739401C097
:10598000712C0196BFCF772019F08E8180628E83B3
:10599000311103C08824839417C0F6019E012F5D46
:1059A0003F4F8081809581932E173F07D1F7F2CF2B
:1059B000E114F10429F0D7018C93F70131967F01AE
:1059C0009A94812C9920E9F0C5014AD197FD17C01E
:1059D000FC01FF2723E0F595E7952A95E1F7EC0D0B
:1059E000FD1D208130E0AC014770552702C0359580
:1059F00027954A95E2F720FDDBCFB5016FD18110E5
:105A000089CFE114F10411F0D7011C92C80115C02F
:105A1000422F469546954695D601A40FB11D422FBB
:105A200047708B0102C0000F111F4A95E2F7A801D1
:105A30005C91452B4C93622EA4CFA096EFE023C837
:105A4000A0E0B0E0E5E2FDE202C86C01EB015A0122
:105A5000FC0117821682512CF601E380FE01E3FC63
:105A60008591E3FE8191182FEF01882309F4E0C0AE
:105A700090E0EADC892B19F0C60188DEEDCF153203
:105A800041F4FE01E3FC1591E3FE1191EF011532A3
:105A900071F4C601E5D097FDC9C0412F50E09C01CB
:105AA000332724173507C1F2B60118D1C1C01A3205
:105AB00039F4E3FC1591E3FE1191EF0101E001C01F
:105AC00000E0F12C20ED210F2A3078F402606F2DD8
:105AD00070E080E090E040E232DEF62EFE01E3FC72
