:020000040800F2
:1000000000500020812F0008D12F0008D12F0008B8
:1000100000000000000000000000000000000000E0
:10002000000000000000000000000000D12F0008C8
:100030000000000000000000D12F00082D0A000879
:10004000D12F0008D12F0008D12F0008D12F000890
:10005000D12F0008D12F0008D12F0008D12F000880
:10006000D12F0008D12F0008D12F0008D12F000870
:10007000D12F0008D12F0008D12F0008D12F000860
:10008000D12F0008D12F0008D12F00080000000058
:10009000D12F0008D12F0008D12F0008D12F000840
:1000A000D12F0008D12F0008D12F0008750A0008B1
:1000B000D12F0008D12F000800000000BD02000869
:0C00C000F8B5C046F8BC08BC9E4670476E
:1000D00010B5064C2378002B07D1054B002B02D01E
:1000E000044800E000BF0123237010BDF801002088
:1000F00000000000E0310008044B10B5002B03D0D5
:100100000349044800E000BF10BDC04600000000E5
:10011000FC010020E0310008E0230D4A1B061168B5
:1001200090B5C818A02300AFDB0198420ED8094B48
:1001300009481B681C180948844207D8002408484D
:10014000046081F3088807498A601847BD4690BD5E
:10015000004000080440000800C0FFF7FFBF010096
:100160001C0D002000ED00E00122014B1A707047C9
:10017000090600208023F7B50D001B05D218CC1806
:10018000531800900193019B9C4200D1F7BDF823C6
:10019000611B1B06104EC918009B402259183000E5
:1001A00002F0E6FF01230D4FBB62630602D120007F
:1001B00002F0F6FF0A4B9C4208D140223100094868
:1001C00002F0D6FF01234034BB61DCE731002000A0
:1001D00002F0FEFFF6E7C04654020020001C00506B
:1001E000004000081402002037B50421274C28489D
:1001F000E26A0A43E262E36A0B400193019B00F06A
:10020000C4FB8022236DD2041340224D2CD02A68D7
:10021000214B9A4231D100232B6000F0A3FA00F069
:100220000DFC1E491E4800F06BFC01221D4B9A611B
:1002300002F0BEFF00F04AF81B4A1378002B23D0CF
:100240001A491B4802F0C4FF02F0BAFF00F078FA26
:100250001E2000F08DFBBFF34F8F164B164ADA605D
:10026000BFF34F8FC046FDE78022216D12040A4381
:1002700022652B60FFF750FFCDE72B608023DB0268
:10028000013B002BFCD1F5E730BFD6E70010024060
:10029000EC3100081C0D0020DC719BA569010008F1
:1002A00075010008001C00500906002014020020FF
:1002B0000040000800ED00E00400FA0510B5024817
:1002C00000F05EFF10BDC046A808002010B50F4C1E
:1002D00000220F49200002F07FFA002800D0FEE73C
:1002E0000C49200002F092FA002800D0FEE70A49EB
:1002F000200001F0B1FE002800D0FEE7200002F04F
:100300008EFA002800D0FEE710BDC0460C06002083
:10031000000000207400002050000020094B0268FB
:1003200010B59A420DD18023074A1B04916B1F2000
:100330000B4393630022110000F0D0FD1F2000F05A
:10034000F7FD10BD005C0040001002408C2310B58A
:100350009B00C1184033C05802F07CFA10BD4B011D
:10036000C318FC331A6C9C2310B59B00C05802F0D4
:10037000A3FA10BD4B01C318DA6B9C2310B59B0088
:10038000C05802F0DDFA10BD9C2310B59B00C05888
:1003900002F07AFB10BD836870B50400022B00D018
:1003A000FEE79C25AD000121405902F056FB605943
:1003B00002F029FB70BD00009C2310B504009B00D7
:1003C000C05802F04DFBA369002B04D00623024A5B
:1003D00011690B43136110BD00ED00E0836910B596
:1003E000002B04D00621054A13698B4313619C231B
:1003F0009B00C05802F040FB10BDC04600ED00E07D
:100400009C2370B5050018489B00C550174BA626C5
:10041000036008234360063B836003610023B6004A
:10042000A8518361C361036200F08CFD041E00D0FB
:10043000FEE7020001001823A85901F046F9A85967
:1004400022005823802101F040F9A8592200982366
:10045000812101F03AF9A859D8232200012101F0A5
:1004600034F9200070BDC046A8080020005C0040A0
:10047000A6239B00C05810B500F0D0FD022303282E
:1004800001D8024B1B5C180010BDC046F8310008B3
:1004900010B514001A002300A624A400005900F08F
:1004A000E2FD0223032801D8014B1B5C180010BD9C
:1004B000F8310008A6239B00C05810B500F003FED9
:1004C0000223032801D8024B1B5C180010BDC04654
:1004D000F8310008A6239B00C05810B501F0F3F8CE
:1004E0000223032801D8024B1B5C180010BDC04634
:1004F000F8310008A6239B00C05810B501F082F81F
:100500000223032801D8024B1B5C180010BDC04613
:10051000F8310008A6239B00C05810B501F0A7F8D9
:100520000223032801D8024B1B5C180010BDC046F3
:10053000F8310008A6234AB29B00C358002A06DA05
:100540007F22114049015B182A331878704749010E
:100550005B182B33FF33F8E7A6239B00C05810B578
:1005600000F06FFD0223032801D8024B1B5C18002A
:1005700010BDC046F831000810B5A624A4000059EB
:1005800000F0E7FD0223032801D8024B1B5C180092
:1005900010BDC046F831000810B5A624A4000059CB
:1005A00000F0B5FD0223032801D8024B1B5C1800A4
:1005B00010BDC046F8310008A62310B59B00C058F6
:1005C00000F0C0FD10BD00000048704794020020FC
:1005D00070470000122301480B8070471C00002068
:1005E000042301480B8070473000002030B50025FF
:1005F000013AD2B252008B1CD218040FE3B2092C7C
:1006000007D830330B704D70023100018A42F4D1AB
:1006100030BD3733F6E700001A2370B50B800B4B63
:100620000B4C18680B4B1B68C01800280BD00A4BEA
:10063000A11C08221D68FFF7D9FF210004221231F6
:100640002800FFF7D3FF200070BDC0465000F81F00
:10065000340000205800F81F5400F81F10B5044C57
:100660000A000448210002F038FC200010BDC046FA
:100670001C0B00201532000810B5044C0A00044879
:10068000210002F02AFC200010BDC0461C0B0020F7
:100690001F32000810B5044C0A000448210002F083
:1006A0001CFC200010BDC0461C0B0020FC310008C3
:1006B00010B5044C0A000448210002F00EFC200092
:1006C00010BDC0461C0B00200732000800207047F8
:1006D00080235B020B6080239B0000201380704707
:1006E0000020704710B50800110000F0FDFA00204E
:1006F00010BD10B50800110000F00CFA002010BD6C
:100700000020704700207047054B82B09A6B02436F
:100710009A639B6B18400190019B02B07047C046E2
:1007200000100240054B82B0DA6A0243DA62DB6AEB
:1007300018400190019B02B07047C0460010024073
:1007400010B51020FFF7E0FF1F22044B9A62044A05
:10075000DA62082219680A431A6010BD00100040CE
:10076000FFFF0000F7B501268020664C664D636BE5
:10077000400533436363636B33400193019BFFF791
:10078000C3FF2B68B34333432B602B68334200D144
:10079000FEE780225D4B5E4F1968120139400A4323
:1007A0001A602268164326601E00042322681A423B
:1007B000FCD06368574A1A4080235B01134363608F
:1007C0000123A2681343A3608023534A9B01116A4B
:1007D0000B4313620223A2681A42FCD0802000055A
:1007E000FFF792FF4D4B4E491A6890200A40202196
:1007F0000A431A605A68C00510404A4A02435A60C8
:100800004022186802431A601A6811431960802355
:1008100032685B001A433260226D17402765226DF3
:100820001343236580239B00226D1A42FCD0236D65
:100830003D4A1A4080235B02134323658023226DC7
:10084000DB0213432365E368384A1A408823DB033D
:100850001343E360802322685B04134323608023F7
:100860009B0422681A42FCD0F022E3689343E360C1
:10087000E3682F4A1340E360E3682E4A13400322E3
:10088000E360E3681343E3600C23E6681E400C2E2C
:10089000FBD1294801F0D0FA0322E36C01209343F5
:1008A000E364E36C254AB343E364E36C13408022C2
:1008B000E364E36CD2041343E36440232A681343E4
:1008C0002B60FFF72FFF0220FFF72CFF0420FFF71C
:1008D00029FF0820FFF726FF8020FFF723FF184895
:1008E00000F094F8174800F091F8174800F08EF8DF
:1008F000164800F08BF8164800F088F8FFF720FF44
:10090000F7BDC046001002400020024000700040C9
:10091000FFE7FFFFFFE0FFFF00000140006C004029
:10092000FFC0FFFF7FBB2220FFFFFCFFFFFF02FF96
:10093000FFF8FFFFFFC7FFFF0048E801FFCFFFFF01
:10094000583200087832000898320008B83200089F
:10095000D83200080122054BD8625A611968114348
:10096000196019681142FCD17047C0460010004060
:1009700070B5FA250400AD00002C00D170BD280030
:10098000013CFFF7E7FFA4B2F6E70123F0B50779D2
:100990000324BB401900B9404C43E443057A026884
:1009A0004D43D66826403543D560C57996684D439A
:1009B00026403543956086795568BE409D43354352
:1009C0005560457A002D14D09361867A072F12D88E
:1009D0000B00BB40BB400F275F437343156ABD4309
:1009E0002B4313624079136841431C40214311603B
:1009F000F0BD9362E9E70F271B0A5B435B435F434C
:100A00007343556ABD432B435362EBE702690368A6
:100A1000DA6082685A60C2689A6042695A61826983
:100A20001A62C2695A6242681A607047024A1368C1
:100A3000013313607047C04604050020C021094AF5
:100A4000094B0A485360036A09061B021B0A0B4341
:100A5000036200239360073313608022044B120665
:100A60001A60704710E000E0FF7C000000ED00E03D
:100A700000E100E0F7B51F4D2C68E3699B0610D537
:100A80006B46616AE269C9B2D97101231A4203D186
:100A9000E269DB181A4201D0236202E0164800F036
:100AA000C9F98026236833420ED0E36933420BD064
:100AB0006B46DF1D3900114800F0CEF9002810D038
:100AC0003B78A3620023AB7140222368134207D016
:100AD000E369134204D00123AB712368934323607D
:100AE000F7BD2368B3432360402322681343236088
:100AF000EAE7C046080500205C050020100500203C
:100B0000024B1860024B19607047C046A8050020D0
:100B1000AC0500208022F8B592000D0000210400F1
:100B200002F02FFB002D0CD13E226A49200002F07A
:100B30001FFBFF2355225B00E254674B9218E254DF
:100B4000F8BD7E2D22D86B1E3E2B00D93F3B002BDB
:100B50000FD001201B0260491A1F4042FC338A4219
:100B600002D811D0551D2580013202349342F6D1AE
:100B7000E6E7F0222100FF2022700A31621C8A423F
:100B8000E7D010700132FAE72080EDE7822D48D8D7
:100B90007F2DD5D1200023004E4A0B302B325F3DF4
:100BA0001178002934D00132197001338342F7D112
:100BB00028230125494FE3722E01331FF8582034B2
:100BC000002827D002F0E5FA030A6377030C2077A8
:100BD000A377000E0135ABB2A3761B0AE376404B38
:100BE0002100E0779E19202023000B313278002A63
:100BF00015D001361A7001339942F7D167224D237F
:100C000052422274637422766376042DD4D197E71E
:100C10001D70CAE7042320776077A377DAE718709E
:100C2000E9E72B00833B012B0CD82C4A1B01D3187E
:100C3000DD68280002F0ADFA29000200200002F071
:100C400097FA7DE7274B853D2902994200D977E73E
:100C5000552222700F3A6270143AA2702532227126
:100C6000063A62710C32A271BF3AE2710A0A6273EB
:100C70000A0CA2730A0EE273012262742A0A6275D8
:100C80002A0C0023A2750A260222200025752D0EAB
:100C900023726372A372E37223732374A374E374E5
:100CA00023766276A376E37623776377A377E37779
:100CB000E670E575FE32203002F05AFAFE2330224B
:100CC0005B00E254E4188E3BFF3B6370BE3BA370B5
:100CD000E67035E7F8320008FF01000038330008FD
:100CE00028330008FFFF01004278037812021A43FC
:100CF000837810B51B041A43C37804001B06134302
:100D0000424A934200D080E04279037912021A43AA
:100D100083791B041A43C3791B0613433C4A93424D
:100D200073D1FE22FE23FF325B00825CC35C1202A1
:100D30001A43FF235B00C35C1B041A43354BC35C9F
:100D40001B061343344A93425FD1037ADB0724D452
:100D5000437C027C1B021343827C12041343C27C3B
:100D600012061A4380235B009A4216D1437B017B13
:100D70001B020B43817B09040B43C17B090619430A
:100D8000CBB2002B09D1254B2548CB18834204D880
:100D90002000244B20301B689847627E237E12027D
:100DA0001A43A37E1B041A43E37E1B0613432CD075
:100DB0001D4A1E4811688B4206D0834201D8002983
:100DC00001D001235B421360617D237D0902194339
:100DD000A37D1B041943E37D1B060B43834214D8F8
:100DE0000721D8080B4006399940CBB21118087A70
:100DF00003420AD103430B725368013353601268F4
:100E0000934202D30A4B1B68984710BD5546320ADD
:100E100057515D9EFF010000306FB10A00C0FFFF17
:100E2000FFBF0100A8050020B005002063020000FC
:100E3000AC05002030B5C4880200631C80889BB2DA
:100E4000834280411589034000209D4203D01068F1
:100E500001550120D38030BD10B50389C48802003C
:100E600000209C420BD01068C35C01200B701389DA
:100E7000918801339BB28B4289410B40138110BD95
:100E80008022104B520019680A431A60DA680E4932
:100E90000A40DA601A680D490A4001211A609A680E
:100EA0008A439A601A680A490A401A60DA6809494E
:100EB0000A40DA6000221A618022074B12059A600C
:100EC0007047C046001002400C40FF88F6FFF6FE57
:100ED000FFFFFBFFFFFF02FF00ED00E030B5FF2545
:100EE00003242A00C3B21C40E400A2408901294027
:100EF000D243A14000280BDA0F200340083B0A48E8
:100F00009B089B001B18D86902401143D96130BD72
:100F1000064B80088000C018C0239B00C4582240A4
:100F20001143C150F3E7C04600ED00E000E100E0EE
:100F30001F2318401E3B8340014A13607047C04680
:100F400000E100E0F0B5040087B0012600282BD0B6
:100F5000314D435DDBB2002B04D18A2292008354D1
:100F6000FFF7DCF903232068635500F0F5FB00234D
:100F70000126180061688B4219D30023180099429A
:100F800026D823006A46103343CB43C203CB03C2A7
:100F9000E3686168A268206800F0E8FB0123061E90
:100FA00029D002221E006255300007B0F0BD5A0160
:100FB000A218170029373E70013F3B70D386F870A6
:100FC0009063D0639A1C520101331051DBB2D2E717
:100FD0005A01A21816002A36FF363070FC32013E44
:100FE0003370F070D06310641A000A32520101337A
:100FF0001051DBB2C3E7621DD0776355E369012B63
:1010000002D1200000F089FB236A012BCCD1200003
:1010100000F074FBC8E7C0462902000070B58A25BD
:10102000AD00435D04000220012B09D0012320689C
:10103000635500F0E4FD206800F084FB002060555B
:1010400070BD70B58A25AD00435D04000220012B00
:1010500008D001236355631DD977206800F0C8FDCF
:101060000020605570BD70B5072604000E40700169
:1010700049B2251800291EDA010001202831611823
:10108000293528700A614A780E70CB70002A00D08A
:10109000CE81022B01D100230B718A25AD00635D47
:1010A0000220012B06D001232068635500F074FB59
:1010B0000020605570BD01002931FF312A356118CB
:1010C000FF350020DDE770B504000720084043012C
:1010D00049B2E218002913DA2833E1180123293232
:1010E0008A251370AD000870635D0220012B06D0C5
:1010F00001232068635500F08BFC0020605570BD13
:101100002933FF332A32E118FF320023E8E7F8B52C
:10111000072421404C0106193700FC377B6433005B
:1011200000252A332936FF33FF36BD643A641D702B
:10113000317021002931FF314118006800F082FD33
:101140002800F8BD072319400A31490140184068BA
:10115000704770B5072421404D01441923640026CF
:101160002300E26301226664293328341A70217057
:10117000290028314118006800F064FD300070BD7E
:10118000F7B50400006800F042FD8027030400D595
:10119000D9E0206800F03BFD43050CD52368A74942
:1011A0000633DA8F20000A40DA87FFF7F4F80021CF
:1011B0002000FFF746FF206800F029FD430405D515
:1011C00023689F490633DA8F0A40DA87206800F0E7
:1011D0001EFD830405D523689A490633DA8F0A4039
:1011E000DA87206800F013FDC3041CD504212368AE
:1011F0000233DA8F8A43DA87DA8F49188A43DA872B
:1012000098239B00E25C012A04D100212000E154D4
:1012100000F097FA2000FFF7E1F823688A490633C7
:10122000DA8F0A40DA87206800F0F1FC030515D553
:1012300008222068854D831CD98F0A43DA87811DD7
:10124000CA8F2A40CA870422D98F0A43DA8700F05E
:10125000DEFCC30402D42000FFF7AEF8206800F0E3
:10126000D6FC8025284220D0982023688000991D34
:10127000CA8FAA43CA87225C002A00D0B1E10421A8
:101280009A1CD58F54332943D1870821D58F294300
:10129000D18701213C2221541B8820009B08134048
:1012A00099229200A35000F04CFA206800F0AFFCA5
:1012B000830508D5236866490633DA8F20000A4083
:1012C000DA87FFF761F8206800F0A1FCC30505D5B7
:1012D000236860490633DA8F0A40DA87F7BD0F26A4
:1012E000D18F89B20E4000D0C6E010231940038888
:1012F00000292FD1584A1340802212021343038041
:10130000030050331A88230028331B78DB00C018F1
:10131000524B8018C0180388E26B9B059B0D6364D9
:10132000D318E3632000FFF725F8631DDA7F002A56
:1013300009D0206C002806D18022D97F1143226871
:101340004C321180D8772068821DD38F1BB2002BBE
:10135000C5DB1EE79BB21A0521D5030050331A885E
:1013600094235B00E35C8C21DB00C3189B183C4A90
:1013700089009B1822001B8829329B059B0DFF3298
:10138000D3616118D28800F03BFD2268354913888B
:1013900020000B403B431380FEF7D8FFD3E71BB27E
:1013A000002BD0DA03882F4A250013403B430380EB
:1013B000030050331A8894235B00E35C2935DB007B
:1013C000C3189B18264AFF359B181B889B059B0D4D
:1013D000EB6107D0EA88696900F012FD6B69EA6980
:1013E0009B186B6100212000FEF7B9FF21681C4AA1
:1013F0000B0050331B888A18D2182B69002B06D19A
:10140000138819481840194B0343138007E03D2BFC
:101410000FD8012558082B40C018800210800B8877
:10142000134A1A40C0239B015340124A13430B80B6
:1014300089E75B099B020D48E6E7C046FFFBFFFF1B
:10144000FFBFFFFFFFDFFFFFFFEFFFFFFFF7FFFF24
:10145000FFFDFFFFFFFEFFFF0F8FFFFF02040000F5
:10146000060400008F0F0000FF83FFFF0080FFFFD6
:101470008FBFFFFF80800000B300C2180093138865
:101480009BB200936B4600215B5E002B3CDA138815
:10149000564905000B403B4313807301E3181A00C3
:1014A0003532FF32117850350C3A002956D1127876
:1014B0002988D20052184E49121852181588AD05C5
:1014C000AD0D08D01A00FC331900FE32128E2B002D
:1014D000096C00F095FC710163181800FC30826CF7
:1014E000019352198264026C436C521902649C4647
:1014F000002B02D0C06B854267D261182931FF31C1
:1015000009782000FEF72BFF009B3B4200D11AE731
:101510002368B20099180A88364876010240802074
:101520000002A61902430A8031001A002831087807
:1015300050321288C0001B189B182F4A20009B189D
:101540001A88F36B9205920D72649A18336CF263E9
:101550000978002B42D1FEF70DFFF4E612789100D6
:10156000411809888C46D1006246520420D52A8849
:1015700082185218204952181588AD05AD0D08D0B3
:101580001A00FE32528EFC3319002B00096C00F059
:1015900037FC7301E3182933FF331A78236892006C
:1015A0009A18138815490B4015490B43138092E78D
:1015B0002A88821852180E4952181588AD05AD0DAB
:1015C000E7D01A00FE32928EDDE7019B200029331E
:1015D000FF3319786346FFF79AFD95E7FFF7B9FDEA
:1015E000B1E62000FEF7E8FE5FE6C0468F0F000080
:1015F000060400000F8FFFFF020400008F8FFFFF23
:10160000C080000070B50400072563680D4001200C
:101610009D4220D84BB2002B1EDA6B011900E31853
:10162000283129336118187001238A268B700D70B8
:10163000B600A25D02209A420DD0A355206800F0AA
:101640007DFA002D05D18C239B00E118206800F065
:10165000E2FA0020A05570BD4B0119000022E318EA
:1016600029312A33FF31FF3361181A70DCE770B576
:1016700004000F2362680B40012093421AD807250B
:101680000D406B0149B2E218002914DA28332932DF
:10169000E11810700D7000268A258E70AD00635D14
:1016A0000220012B06D001232068635500F064FA64
:1016B0003000665570BD2933FF33E11800232A320C
:1016C000FF321370E6E70020704710B50C060BD50B
:1016D0000724214049012831411898B2002A07D136
:1016E0000A73C880002010BD49012931FF31F3E79A
:1016F00001221B0C0A7308814B81F3E79B21012215
:101700000368890042505833198800200A431A8020
:10171000022219880A431A807047036801009A2040
:10172000012210B5800098240A500020A40008551A
:10173000543319880A431A80022219880A431A80EE
:1017400010BD70470230C38F024A1343C387002085
:101750007047C04680BF00000230C38F024A13406A
:10176000C38700207047C0467F40000084B00393C9
:101770000123029200220191811CCB87831D5030EE
:10178000CA87DA870280CB8F02480343CB871000D9
:1017900004B0704780BF0000F7B50D788E4AAD00E9
:1017A00045192C88030014400122C87800920328B0
:1017B00008D801F019FC024B05488022920014431E
:1017C000002200921E00854A854F1443A4B22C804B
:1017D0000D785036AC001C1920883840284310433F
:1017E00080B220800D7B08783C00002D00D069E09D
:1017F000C000C018CD88019048786D086D000028A1
:1018000029D03488019820188024E400001905802C
:101810000878800018180488640604D504882740D6
:10182000704C274307800878C97880001B186E48E1
:1018300001290DD019880840202141400A4392B265
:1018400000981A80FEBDC022D200B8E78022FBE7D4
:1018500019880140F2E7378801983818634FC0199A
:10186000058008783588C000614EC018801940197D
:101870000D69002D06D105885E4E2E405E4D354324
:10188000058007E03D2D19D801276E083D407619E7
:10189000B602068008788000181805886D0404D503
:1018A00005882C40554D2C43048009785448890004
:1018B0005B1819880840C0218901BEE76D09AD0297
:1018C0004D4EDCE78000181805883D404D4F3D43E4
:1018D000058008783588C00040198025C018ED00C3
:1018E00040190D896D086D00058035883E4E0878D9
:1018F000B4468026C00040193C4DC01840194D899F
:10190000F6016D086D00058008784D788000181884
:10191000002D2DD10588354204D00588374E25404D
:10192000354305800878384E8000181805886D0604
:1019300004D5058825403543ADB205800878800080
:10194000181805882C402643B6B206800C782C481F
:10195000A4001C1925880540C02080016840104360
:1019600080B220800978604689005B18198870E78A
:101970000788264D374204D0068826402E43B6B24B
:1019800006800878800018180688760604D5068830
:10199000144F26403E4306800878800018180688B9
:1019A00034402543ADB205800878CC788000181803
:1019B000012C0DD064460588254020246C4014433A
:1019C000A4B2048009780E4889005B18198840E7A2
:1019D000654604882C40F2E78F89FFFF8080FFFF77
:1019E0008F8FFFFFC0800000BF8FFFFF0404000047
:1019F00006040000FF83FFFF0080FFFF80C000009F
:101A00008FBFFFFF80810000C080FFFF80C0FFFF0D
:101A1000F0B50B780D7B9B004C78C3183F4A002D26
:101A200021D1002C10D01C88640605D51C883C4DA3
:101A30002C403C4D2C431C800B783B499B00C0182C
:101A400003880B401A433FE01C88640405D51C88BA
:101A5000334D2C40354D2C431C800B7834499B0072
:101A6000C0180388EDE780262D4D2F4FF601002C7E
:101A70002ED11C88344204D01C882C4E2C40344378
:101A80001C800B782B4C9B00C3181E88760604D54F
:101A90001E882E402643B6B21E800B789B00C318CA
:101AA0001E8835402C43A4B21C800C78204DA40025
:101AB000041923882B4013439BB223800B789B008F
:101AC000C01803881F403A4392B202800020F0BD44
:101AD0001C88344205D01E88174C2E402643B6B2CF
:101AE0001E800B789B00C3181E88740604D51E88C0
:101AF0000C4C2E4026431E800B780F4C9B00C318C5
:101B00001E8835402C43A4B21C800B789B00C31860
:101B10001C8827401743BFB21F809EE78080FFFFCD
:101B20008F8FFFFFC0800000BF8FFFFF80C00000CD
:101B30008FBFFFFFC080FFFF80C0FFFF0B780B4A05
:101B40009B00C0184B78002B09D003880849194026
:101B500010234B4013439BB203800020704703883F
:101B60000449194080235B01F3E7C0468080FFFFF2
:101B7000BF8FFFFF8FBFFFFF30B50B784C789B0006
:101B8000C318154A002C15D01C88640605D51C887E
:101B9000124D2C40124D2C431C800B7811499B0098
:101BA000C0180388194030234B4013439BB2038075
:101BB000002030BD1C88640405D51C88074D2C40CE
:101BC000094D2C431C800B7808499B00C0180388E2
:101BD0001940C0239B01E7E78080FFFF8F8FFFFF45
:101BE000C0800000BF8FFFFF80C000008FBFFFFFDD
:101BF000002902D180234C300380002070478022CE
:101C000058300388120213430380002070470630C7
:101C1000C08F80B270470020704730B58024E40048
:101C20001219013380185B08401A4418002B00D1A8
:101C300030BD4A780D7812022A432280013B0231DE
:101C4000F3E70000F8B5050048780E008B690C69D1
:101C50000A7B012858D1A34222D91B1B8B612F007C
:101C60007169A4B25037002A1ED1F28823002800DF
:101C7000FFF7D3FF33783A88DB009B18564AEB18FE
:101C80009B181C803378554A9B00ED182B881A400E
:101C900030235340524A002013439BB22B80F8BD9F
:101CA00000211C00B161DAE733789A00AA18108885
:101CB000DA00430617D53B889B184A4A5B199B18E4
:101CC0001C80728923002800FFF7A7FF7278337801
:101CD000002A10D19B00EB1843491A880A40434957
:101CE0000A431A80CEE73B889B183B4A5B199B1836
:101CF0001C803289E6E7012AC4D19B00EB183A49DF
:101D00001A880A403A49EBE7A3421DD91B1B8B6195
:101D10003178002A1CD12B0050331A88314BC9006E
:101D2000EB189B185B18002C3CD11A8831491140E4
:101D3000314A0A431A803378304A9B00ED182B88C9
:101D40001A40C0239B01A4E700211C00B161DFE71A
:101D5000002817D12B0050331A881F4BC900EB18ED
:101D60009B185B18002C05D11A8822491140224A81
:101D70000A4306E03D2C12D8012162082140521886
:101D800092021A8072783378002A19D12A005032D0
:101D90001188144ADB00AA185218D318C3E7610946
:101DA0008902E4E73D2C05D8012162080C40121994
:101DB0009202BFE76409104AA40214431C80BAE7E8
:101DC000012AB8D12A0050321288DB009B18054A3C
:101DD000EB189B18F2E7C04602040000BF8FFFFF1C
:101DE0008080FFFF060400008F8FFFFFC08000008F
:101DF00080C00000FF83FFFF0080FFFF8FBFFFFF59
:101E0000F0B58025ED0052195C08801826000A0004
:101E1000471ABD18002E07D1640000190919DB0705
:101E200001D503880B70F0BD2D88013E15702D0A79
:101E300055700232EDE70000014B18607047C04654
:101E4000700000202023038000487047CC00002051
:101E50002023038000487047AC000020202303802B
:101E600000487047F80000200A23038000487047AC
:101E7000EC00002070B50600037C0400FC36002B4B
:101E80001FD1802302229B000121FEF701FB0125C7
:101E90008023F5659B00022281212000FEF7F8FADD
:101EA0009B20E5628000FEF78FFBA4239B00E0509F
:101EB0000223002803D0200000F0FAF800231800C5
:101EC00070BD0125402302220121FEF7E1FAF565EC
:101ED0004023E0E770B504000121FEF7EBFA230090
:101EE0000025A426FC33DD6581212000FEF7E2FAFF
:101EF000B6002000E56200F00AF9A059A84202D01D
:101F0000FEF766FBA551002070BDA423F0B59B0031
:101F100085B0C65802AB0D00991D002360220B80CE
:101F20002B7804001A4030D0202A04D16A78FE2A87
:101F300008D0FF2A1CD02000290000F0C4FF022096
:101F400005B0F0BD6A880192002AF4D1EF88012F14
:101F5000F1D15BB2002BEEDAA5239B00C3589B693D
:101F600098473A0031003060200000F0D3FF0AE0CB
:101F70006A88002ADFD1EE88002EDCD15BB2002B0C
:101F8000D9DB00F0B4F80020DAE768780B28D2D863
:101F900001F020F8061DD1D1D1D1D1D1D1D10D156B
:101FA0009D239B00E35C0222032BDDD0C3E79D232E
:101FB0009B00E35C032BBED1311D0122D4E79D239E
:101FC0009B00E35C032BB6D1AB787360DBE7297928
:101FD0002000FEF77FFA29792000FEF76BFA0F2226
:101FE0001423A9880A405343E318090615D5002293
:101FF0009A61237C93420DD1802302329B00812180
:102000002000FEF745FA0123E3622979200000F061
:1020100037F9B8E740230222F1E70022FC339A6443
:10202000237C93420BD1802302329B0001212000AC
:10203000FEF72EFA23000122FC33DA65E5E74023A0
:102040000222F3E710B500F089F8002010BD10B5AA
:1020500000F0A2F8002010BD002902D0A5239B00AB
:10206000C15000207047A42370B59B00C458783B32
:10207000E35C0500002B0AD185239B00E358002B6D
:1020800005D0637A002B02D10121FEF733FA8121BA
:102090002800FEF72FFA637A022B08D183239B00D6
:1020A000E218EE3BFF3B01212800FEF775FA70BDF8
:1020B000A4239B0070B5C55804000020343B288140
:1020C000E8523833E3581B68984701212000FEF797
:1020D00001FA81212000FEF7FDF983239B00EA1815
:1020E000EE3BFF3B01212000FEF756FA70BDA42312
:1020F0009B00C258913B10B5FF3B13810D33FF335A
:10210000D218EE3BFF3B0121FEF746FA10BDA42397
:1021100000229B00C3581A7270470000A4239B0042
:1021200070B50D4AC458643BE2500C33E1540023AF
:1021300023728B239B00E21881210D230500FEF7FB
:102140001BFA83239B00E218EE3B2800FF3B012192
:10215000FEF722FA70BDC04655534253A42310B572
:102160009B00C35804001A7A022A04D002D300212B
:10217000042A09D910BD064A06499A18595C00F08C
:10218000ADF801210028F5DA2000FFF7C7FFF1E7DD
:102190001B02000019020000F8B5A427BF00C459B3
:1021A0000500237A002B02D0012B57D0F8BD8423E1
:1021B00085269B00E258B6002033E250A259043332
:1021C000E2500121FEF7F8F9294A1F280DD1832199
:1021D0008900284B6158994207D1A15C012904D894
:1021E000254BE35C013B0F2B0BD9A15C202305227F
:1021F000280000F0D9FA022363722800FFF733FFAA
:10220000D4E71E4B2800E21800F068F8237A002873
:1022100006DA052BF1D101212800FFF77FFFC5E782
:10222000013B022BC2D96389191EF5D02200E9595E
:102230000C328C5918009C4200D2A3B28D26B600F5
:102240008C59201A88518E20002480000C540420C0
:10225000087281212800FEF78FF9A7E7074BE218E3
:10226000034BE15C00F03AF800289FDAD3E7C04660
:1022700019020000555342431A0200001B020000DD
:10228000A42310B59B00C458637A022B05D1812189
:10229000FEF730F90023637210BD49B20029FBDA62
:1022A000012BF9D00121FFF739FFF5E7A42330B561
:1022B0008F259B00C258084CAD00135DD800101844
:1022C0004155002101330435DBB24155042B01D0C7
:1022D000135530BD1155FCE75D020000F0B51378D1
:1022E00087B00500009117001E2B16D01BD8122BAB
:1022F00000D1EFE00CD8002B00D199E0032B00D1E6
:10230000B6E0012405212800FFF7D0FF6442ACE0CD
:102310001A2B00D109E11B2BF3D1A42300249B002D
:10232000EB585C81A1E0282B00D159E127D8232B61
:1023300000D11AE1252BE4D1A4239B00C658A24B5F
:10234000F2180233F1183433C35800985B68984789
:10235000041E00D021E198239B00F358013B1A0E84
:1023600032731A0C7273F3731A0A974BB273F35ADF
:1023700030821A0AF3740823B274738175E02F2B2C
:1023800000D1F8E15A2B00D1DFE02A2BB9D1A423E8
:102390009B00C658337A002B00D0A3E186239B0014
:1023A000F35C7F2B4BD8A524A400035900989B68AD
:1023B0009847002800D0F0E02B590098DB68984738
:1023C000041E00D0E9E0FB78BA781B0213433A7987
:1023D000120413437A7912061A43992312BA9B0006
:1023E000F2503B7AF9791B020B439A215BBA9BB2FC
:1023F000890073502831685830394158D2188A42C0
:102400001DD8714AB25A534385229200B258934262
:1024100015D10122327280229200934200D913001A
:1024200032009BB20C3201212800FEF7B5F81CE007
:10243000A4239B00C6587C3BF758002F04D00521ED
:102440002800FFF733FF0DE0A5239B00C358009839
:102450009B689847041E07D002212800FFF726FF3B
:1024600005233372002400E07081200007B0F0BD26
:10247000A4239B00C2580024130011000C331E310A
:102480001C7001338B42FBD17023972013734F498B
:10249000643BD3748000135C515C994211D08F254A
:1024A000D9005118AD004D5D01339573484DDBB235
:1024B0004D5D15769025AD00495D5176042B07D012
:1024C0001354122353813B79122BCBD85381C9E784
:1024D0001454F6E7A4239B00C2587B78DB070BD586
:1024E0000723538100233B4C19198879D118013BEC
:1024F0008874D91DF8D1B5E7A52324219B00C358C2
:102500000098DB69414359180B793C790533201C4D
:102510009C4200D9181C83B25081002BA2D0013BF1
:102520009BB2CC5CD0180473F7E7A4239B00C2587D
:10253000082353810023284C1919C879D118013B6D
:10254000C87419000831F7D18CE7A4239B00C25846
:10255000082353810023214C1919C879D118013B54
:10256000C87419000831F7D17CE7A4239B00C45834
:102570000021230022000C331832197001339A42D3
:10258000FBD104AB9E1CA5239B00EB5832005B687B
:1025900005A900989847002801D0022150E7082398
:1025A000E373059B6075013B1A0E22741A0C62746A
:1025B000E3741A0A022323753388A274E3751A0A96
:1025C0000C23A27563814DE75E0200005D020000EE
:1025D00041020000323400082A3400082234000886
:1025E000A426B6008459237A002B36D186239B007B
:1025F000E35C7F2B00D822E7A5239B00C3580098FB
:102600009B6898470028C8D1FB78BA781B0213430F
:102610003A79A859120413437A7912061A43992376
:1026200012BA9B00E2503B7AF9791B020B439A21C4
:102630005BBA9BB28900635008394158D2188A426C
:1026400000D9FCE602222272564AA25A534385223E
:102650009200A2589A4200D0F1E6A42280239A2048
:102660009200AE589B004F4A63818000B15A3758A0
:1026700002924F439F4200D91F00330038000C33B1
:10268000019300F0C5FCA5229200AA5883B21269FA
:102690000199140099229200B2580098A04700288E
:1026A00001DA0421CCE6BBB2019A81212800FDF7B2
:1026B00063FF029B3800F15A00F0AAFC99229200B5
:1026C000B3581B18B3509A239B00F258141AF450B5
:1026D000343BF258D71BF750002C00D0C2E603233E
:1026E0003372C2E69A232F4F9B00F15BF358039796
:1026F0004B4301938023019A9B009A4200D9019396
:10270000330001980C33029300F082FCA522992437
:102710009200AA58A400526983B217000299325954
:102720000098B8470028BCDB039B0198F75A390092
:1027300000F06EFC335901991A1832519A22920016
:10274000B3581C1AB450343AB3585B1AB350002C27
:1027500004D121002800FFF7E1FC86E680237C43BA
:102760009B009C4200D91C00A3B2029A01212800C0
:10277000FDF712FF76E6A4239B00C25802207C7866
:10278000044000D05BE69A212C3B89005158D35875
:102790005B189821890051588B4200D94FE654812B
:1027A00063E6C0465E020000A42330B58F259B007F
:1027B000C158084CAD000B5DD800081842550022E6
:1027C00001330435DBB24255042B01D00B5530BD2B
:1027D0000A55FCE75D02000010B50223002813D063
:1027E000A3239B00C458002C01D00024C45000290E
:1027F00002D0A2239B00C1509D2301219B00C15404
:102800000270FDF7FDFD0023180010BD0223002912
:1028100003D0A3239B00C15000231800704710B5BC
:10282000FDF726FE002010BDA3239B00C35810B562
:10283000002B01D1022010BD1B6898470028FAD058
:10284000F8E7A32310B59B00C3585B6898470020A6
:1028500010BD0000A0239B0070B5C518040028001F
:1028600000F01DFB9B2301229B00E250114BE25A1A
:10287000163BE2501033E15C1F230B40012B0FD0BD
:10288000002B07D0022B10D07F2320009943FDF7A7
:1028900031FE03E02900200000F010F9002070BD97
:1028A0002900200000F03EFAF8E72900200000F09F
:1028B00063FAF3E78602000070B5040015000029F2
:1028C00030D19B239B00C258032A23D102004132FE
:1028D000FF32D368106983420BD91B1AD36082B2CE
:1028E000984200D99AB22900200000F029FB002567
:1028F00016E0A3239B00E3581B69002B06D09D2202
:102900009200A25C032A01D120009847200000F029
:102910001FFBECE70D00052A02D1E150FDF7EAFDAF
:10292000280070BDA3239B00C35802259B69002B80
:10293000F6D09D229200825C032AF1D19847D6E717
:10294000F8B50D0004001100002D4BD19B239B0016
:10295000C358022B3FD1026A466AB24212D9921B77
:10296000026292B200F0E4FA2B002A002900200053
:10297000FDF712FE9E239B00E25C0020012A00D19D
:10298000E054F8BDC7693100380000F0C7FB0D1EE8
:102990000CD1BE420AD89C26B600A3599F4205D24C
:1029A0000A00200000F0C4FAA551DDE7A3239B0034
:1029B000E358DB68002B06D09D229200A25C032A1C
:1029C00001D12000984780212000FDF793FD2000D1
:1029D00000F0CAFACEE704229343CBD18021FDF761
:1029E00089FDC7E7A3239B00C35802205B69002B26
:1029F000C7D09D229200A25C032AC2D129002000E8
:102A000098470020BDE7002270B504001100402364
:102A1000FDF73EFD230001254026FC339D645E65E5
:102A20008021330000222000FDF732FD9D2300218C
:102A30009B00A5616662E554083BE150103361607C
:102A4000E1501433E3588B4205D0A3239B00E35895
:102A500020005B689847002070BD0174002070471B
:102A60009D239B00C15C034A81540422C254002070
:102A70007047C04675020000024BC25C013BC25465
:102A800000207047750200009D2310B59B00C35CB9
:102A9000032B06D1A3239B00C358DB69002B00D076
:102AA0009847002010BD10B504008021FDF722FDDD
:102AB00000212000FDF71EFD10BD000060220B78F4
:102AC00073B5134004000D00202B14D0402B12D0FE
:102AD000002B00D094E04878092800D990E000F05D
:102AE0008DFAEE000C018F0004018F0081001300AD
:102AF0008F00D800A200A3239B00E35829009B6805
:102B000020009847002076BD4B88180A0138062817
:102B100076D800F069FA0425347575505B00A2235D
:102B20006A469B00E358207C1B68911D98476B46C2
:102B30009E1D318800290CD0EA88002A09D00B1C80
:102B4000914200D9131C01009AB22000338000F09A
:102B5000E1F9EB88002BD5D1200000F0F9F9D1E79D
:102B6000A323227C9B00E358002A06D19B6A6A4675
:102B7000901D984702234370D9E7DB6AF7E7D8B284
:102B800005283DD8A2229200237CA25800F02CFAFE
:102B900003090B0D0F115268694618000631904762
:102BA000C5E79268F8E7D268F6E71269F4E7526978
:102BB000F2E79269F0E7237C002B21D1A3236A4638
:102BC0009B00E358901D5B6B9847B0E7237C002B7C
:102BD00016D1A3236A469B00E358901D1B6B9847B0
:102BE0000723C8E78B88002B0AD1CB88002B07D19D
:102BF0004E887F2E04D89D25AD00635D032B03D145
:102C00002000FFF750FF7DE7444BF1B2E154200074
:102C1000FDF7A2FC200000F09BF90223002E00D15A
:102C2000012363556EE789783D4D29700129E7D866
:102C30009D239B00E25C022A09D0032A15D02000C4
:102C4000FFF731FF29782000FFF7FBFD5AE7002945
:102C500000D181E7012103226160E2542000FFF7E7
:102C6000E3FD022800D077E7CAE7002906D1022257
:102C70002000E2546160FFF7E4FD6DE7616801291F
:102C800000D169E7C9B22000FFF7DBFD2978616058
:102C9000E4E7CA88012AB3D19D239B00E35C002BA3
:102CA000AED0022B06D9211D032BA9D1200000F0A4
:102CB00031F927E700232100A3600831F6E79D23BF
:102CC0009B00E35C013B022B9AD8CB88022B97D167
:102CD000013BE3609F239B00E358002B01D00323BB
:102CE000E360210002220C31E0E74B88012B00D089
:102CF00008E79F229200A3502EE79D239B00E35CF0
:102D0000013B022B00D97BE74B88012B00D0F9E671
:102D10009F2300229B00E2501EE7C046760200007F
:102D20000806002060220B7870B5134004000D00E7
:102D3000202B03D0402B01D0002B19D19D239B00C9
:102D4000E35C013B022B13D82B79012B10D8A32372
:102D50009B00E35829009B6820009847EB88002BD4
:102D600004D1002802D1200000F0F2F8002070BD4C
:102D70002000FFF798FEF9E70A780B00602170B594
:102D80000A400400202A17D0402A15D0002A0FD16B
:102D900098885A78C1B2012A26D0002A3ED0032A48
:102DA00006D19D229200A25C022A2DD0032A0CD0CB
:102DB0002000FFF778FE06E0A3229200A258190037
:102DC000926820009047002070BD5A88002A07D1E1
:102DD0004A0605D0DB88002B02D12000FDF78AFBD4
:102DE000200000F0B5F8EEE79D229200A25C022AD6
:102DF0000AD0032ADCD15B88002BE4D14B06EFD04C
:102E00002000FDF787FBEBE74B06D1D02000FDF754
:102E100071FB80212000FDF76DFBD4E79D239B0013
:102E2000E35C022B17D0032BC2D10F2214230A40DC
:102E30005A43A21800061ED59269002AB8D07F25F1
:102E40000D4001355D437F2365190B401ED12B607A
:102E5000022229000BE04B06AAD121004131FF31AB
:102E6000030601D52D39FF39002302220B60200013
:102E700000F050F8A7E7FC32926C002A00D197E7E7
:102E80007F250D405D434135FF35DCE72000FDF730
:102E900051FB002801D00123D9E72860D8E70B783F
:102EA00003704B784370CA788B7812029B1843806A
:102EB0004A790B7912029B188380CA798B791202A6
:102EC0009B18C380704710B504008021FDF712FBEA
:102ED00000212000FDF70EFB10BD002330B5984205
:102EE00001D130BD2B00C45C5D1C002CFAD1DBB2DB
:102EF00001335B0013800B7003234B70013B05789B
:102F0000002DEED05A1CCD54D2B202330130DBB2C8
:102F10008C54F4E713009B2210B5022492008450D5
:102F20000A00C36103620021FDF726FB002010BDEB
:102F300010B513000A000021FDF71EFB002010BD94
:102F400010B513000A000021FDF726FB002010BD7C
:102F50009B2304229B0010B5C25000231A001900C5
:102F6000FDF70AFB002010BD9B2305229B0010B536
:102F7000C25000231A001900FDF70EFB002010BDFF
:102F80000D488546002103E00C4B5B58435004314B
:102F90000B480C4B42189A42F6D30B4A02E000232E
:102FA00013600432094B9A42F9D3FDF769FF00F030
:102FB000BBF8FDF719F9FEE7005000204434000883
:102FC00000000020F8010020F80100201C0D002066
:102FD000FEE7000002B4714649084900095649005D
:102FE0008E4402BC7047C04602B47146490849008D
:102FF000095C49008E4402BC7047C04603B4714668
:10300000490840004900095A49008E4403BC7047F2
:10301000002243088B4274D303098B425FD3030A17
:103020008B4244D3030B8B4228D3030C8B420DD32A
:10303000FF22090212BA030C8B4202D312120902B8
:1030400065D0030B8B4219D300E0090AC30B8B42F6
:1030500001D3CB03C01A5241830B8B4201D38B03A4
:10306000C01A5241430B8B4201D34B03C01A524149
:10307000030B8B4201D30B03C01A5241C30A8B428C
:1030800001D3CB02C01A5241830A8B4201D38B0277
:10309000C01A5241430A8B4201D34B02C01A52411B
:1030A000030A8B4201D30B02C01A5241CDD2C3098D
:1030B0008B4201D3CB01C01A524183098B4201D309
:1030C0008B01C01A524143098B4201D34B01C01AF4
:1030D000524103098B4201D30B01C01A5241C3086C
:1030E0008B4201D3CB00C01A524183088B4201D3DB
:1030F0008B00C01A524143088B4201D34B00C01AC7
:103100005241411A00D20146524110467047FFE732
:1031100001B5002000F006F802BDC0460029F7D036
:1031200076E770477047C04670B500260C4D0D4CD1
:10313000641BA410A64209D10026FCF7C1FF0A4D6A
:103140000A4C641BA410A64205D170BDB300EB5815
:1031500098470136EEE7B300EB5898470136F2E79F
:103160003C3400083C3400083C340008403400087B
:10317000002310B59A4200D110BDCC5CC454013379
:10318000F8E703001218934200D170471970013319
:10319000F9E70023C25C0133002AFBD1581E7047B7
:1031A00001B40248844601BC604700BF71010020A1
:1031B00001B40248844601BC604700BF19010020E9
:1031C00001B40248844601BC604700BF4D010020A5
:1031D00001B40248844601BC604700BFB101002031
:0C31E000F8B5C046F8BC08BC9E4670471D
:1031EC00000800500801000000010000000201026C
:1031FC004D534320436F6E666967004D534320491E
:10320C006E74657266616365005049434F4E4F4D55
:10321C0049580053544D3332204D6173732053740D
:10322C006F7261676500008002021F000000505839
:10323C002020202020204845524F202020202020D4
:10324C00202020202020302E3031000000000050A3
:10325C00A0C3E82B00000000000000084A281064FE
:10326C000402000000440000400400000004005070
:10327C009F1A5AA9000300008008A088004105206D
:10328C00441700000000000044000000000800503B
:10329C00007FA1F00000000000200000A900440500
:1032AC00000100000000000044000000000C005071
:1032BC0010000000000000000000000000000000F2
:1032CC00040000000000000000000000001C005082
:1032DC0001000000000000000000000004000000DD
:1032EC00000000000000000000000000EB3C9055C6
:1032FC004632205546322000020101000240007E79
:10330C003EF03F0001000100000000000000000042
:10331C00800029420042004845524F2D424F4F54E5
:10332C00200046415431362020200000494E464FA3
:10333C005F55463254585400E2330008494E444518
:10334C005820202048544D006833000843555252F1
:10335C00454E542055463200000000003C21646F5D
:10336C0063747970652068746D6C3E0A3C68746D8A
:10337C006C3E3C626F64793E3C7363726970743E60
:10338C000A6C6F636174696F6E2E7265706C616329
:10339C0065282268747470733A2F2F7069636F6E8E
:1033AC006F6D69782E636F6D2F66776C69622F690C
:1033BC006E6465782E68746D6C22293B0A3C2F7301
:1033CC0063726970743E3C2F626F64793E3C2F6867
:1033DC00746D6C3E0A0055463220426F6F746C6FF0
:1033EC006164657220312E302E3020460D0A4D6FEF
:1033FC0064656C3A2050582D4845524F0D0A426F67
:10340C006172642D49443A2053544D33324C303759
:10341C003252420D0A0000060000000000000000BD
:10342C00000000000000000000030080830000008A
:04343C00F90000088B
:04344000D1000008AF
:10344400D5050008E10500085D06000879060008B6
:103454001906000895060008B106000812010002CA
:103464000000004083042A57000201020301000007
:10347400040309041A030000000000000000000017
:103484000000000000000000000000000000000038
:10349400CD060008D106000805070008010700084A
:1034A400F3060008E5060008E106000832320008C9
:1034B40000002000751E0008D51E00080B1F000820
:1034C4000000000000000000452000084F20000814
:1034D400000000000000000000000000451E00087D
:1034E400511E00085D1E0008691E00080902200024
:1034F400010104C032090400000208065005070552
:10350400810240000007050102400000090220007A
:10351400010104C032090400000208065005070531
:103524008102000200070501020002000A060002EF
:10353400000000400100000009072000010104C050
:103544003209040000020806500507058102400004
:103554000007050102400000EFF3108272B6064B2B
:103564000649D9600649D9600649196106491961B5
:1035740082F310887047C04600200240EFCDAB892B
:1035840005040302BFAE9D8C16151413EFF31082CD
:1035940072B60221054B58680143596001215868ED
:1035A4000143596082F310887047C04600200240EE
:1035B40010B5EFF3108172B682220B4B92005C6857
:1035C40022435A6000220260013298691042FCD101
:1035D40002229869104200D09A615A680348024056
:1035E4005A6081F3108810BD00200240F7FDFFFFF0
:1035F40030B5EFF3108472B681220D4BD2005D68B2
:103604002A435A600A00403220C905609142FBD126
:10361400012299691142FCD102229969114200D018
:103624009A615A6803490A405A6084F3108830BD8D
:0836340000200240F7FBFFFF3C
:0400000508002F813F
:00000001FF
