:020000040800F2
:100000000060002015010008650100086501000876
:1000100000000000000000000000000000000000E0
:100020000000000000000000000000006501000862
:1000300000000000000000006501000865010008E4
:1000400065010008650100086501000865010008F8
:1000500065010008650100086501000865010008E8
:1000600065010008650100086501000865010008D8
:1000700065010008650100086501000865010008C8
:100080006501000800000000000000006501000894
:100090000000000065010008650100086501000816
:1000A0006501000865010008650100086501000898
:1000B00065010008000000000000000000000000D2
:0C00C000F8B5C046F8BC08BC9E4670476E
:1000CC0010B5064C2378002B07D1054B002B02D022
:1000DC00044800E000BF0123237010BD0400002081
:1000EC000000000040040008044B10B5002B03D0A6
:1000FC000349044800E000BF10BDC04600000000EA
:10010C0008000020400400080D48854600F060F906
:10011C00002103E00B4B5B58435004310A480B4B56
:10012C0042189A42F6D30A4A02E0002313600432C2
:10013C00084B9A42F9D300F059F900F01BF8FEE78E
:10014C0000600020C0040008000000200400002013
:10015C000400002020000020FEE742790123934098
:10016C000168486902001A401204834313438B61EF
:10017C007047000010B500F0F9F8A023DB05202231
:10018C009A6105E03E2000F007F90548FFF7E5FF0E
:10019C00044B1B699B04F5D5FA2000F0FDF8F4E73D
:1001AC004C0400080008005010B584B0424B1A6C87
:1001BC0001210A431A641A6C0A400292029ADA6B01
:1001CC00802040050243DA63DA6B02400192019A07
:1001DC003A4802680724A2430A4302601968802245
:1001EC0052000A431A6001E0002A09D1324B196807
:1001FC008023DB000A001A401942F5D00122F3E7F4
:10020C002D4B58682E4908408021C9010143596083
:10021C0019682C480140196018688021C9030143F2
:10022C00196001E0002B09D1234B186880210904C7
:10023C0003000B400842F5D01300F3E71E490A6E89
:10024C00012002430A6601E0002808D11A4A126E06
:10025C000221080010401142F6D01800F4E7164BAA
:10026C00D96D194A1140802252000A43DA65DA6BC3
:10027C008021C9000A43DA63DA6B0A400392039ABD
:10028C00D96D802212020A43DA659A680F490A4036
:10029C009A609A680E490A409A609A6807218A43C4
:1002AC009A60054B9B6838221A42FAD1094800F033
:1002BC0097F804B010BDC046001002400020024068
:1002CC00FF80FFFFFFC7FFFFFFFCFFFFFFF0FFFFFB
:1002DC00FF8FFFFF006CDC0200B585B0114B596B32
:1002EC00012211435963596B0A400392039A596BCB
:1002FC00022211435963596B0A400292029A596BBC
:10030C000422114359635B6B1A400192019B06480E
:10031C0000F04EF8054800F04BF8054800F048F89E
:10032C0005B000BD001002409804000878040008D5
:10033C005804000882B00A4B1A6C802109020A4347
:10034C001A641B6C0B400193019B064B2F229A6283
:10035C00054ADA621A6808210A431A6002B070472B
:10036C000010024000200040FFFF000010B5FFF716
:10037C001BFFFFF7B1FFFFF7DDFF10BD054BD86288
:10038C00012159611A680A431A60024B1B68DB078A
:10039C00FBD470470020004010B5040005E0FA20A3
:1003AC008000FFF7EBFF013CA4B2002CF7D110BD8D
:1003BC0003680269DA6082685A60C2689A604269AE
:1003CC005A6182691A62C2695A6242681A6070473D
:1003DC00024B802212059A607047C04600ED00E087
:1003EC00014B18607047C0460000002070B5002615
:1003FC000C4C0D4D641BA410A64209D10026FFF72E
:10040C0059FE0A4C0A4D641BA410A64205D170BDBE
:10041C00B300EB5898470136EEE7B300EB5898471A
:10042C000136F2E7B8040008B8040008BC04000860
:04043C00B8040008F8
:0C044000F8B5C046F8BC08BC9E467047EA
:10044C0000000050000501000000000000080050F2
:10045C00FCFFF7F3000200000000000000000004A5
:10046C00000200000000000000000000000400502A
:10047C00FFFFFFFF00000000000000000000000074
:10048C000000000000000000000000000000005010
:10049C00AFF7BFEA000000000000C00B40000024D2
:0C04AC00040000000044000000A00A0052
:0404B800F500000843
:0404BC00CD00000867
:0404C000001BB70066
:0400000508000115D9
:00000001FF
