:020000040800F2
:1000000000500020BD7F00080D8000080D80000812
:1000100000000000000000000000000000000000E0
:100020000000000000000000000000000D8000083B
:1000300000000000000000000D8000089D35000851
:100040000D8000080D8000080D8000080D8000085C
:100050000D8000080D8000080D8000080D8000084C
:100060000D8000080D8000080D8000080D8000083C
:100070000D8000080D800008813600080D80000802
:100080000D8000080D8000082122000800000000FB
:100090000D8000080D8000080D8000080D8000080C
:1000A0000D8000080D8000080D80000861360008F2
:1000B000713600080D80000800000000BD20000817
:0C00C000F8B5C046F8BC08BC9E4670476E
:1000CC0010B5064C2378002B07D1054B002B02D022
:1000DC00044800E000BF0123237010BD380300204A
:1000EC0000000000E8A10008044B10B5002B03D061
:1000FC000349044800E000BF10BDC04600000000EA
:10010C003C030020E8A1000870B586B0002401254E
:10011C0002F07CFA03F046FA02F042FF03F0B2FA66
:10012C0003F058F802F0C8FCE1220823290052021F
:10013C00019500943F4803F0FFFA03F0A1FC01F095
:10014C00BFFF29003C223C4802F0C2FC3B4803F0B4
:10015C000BFAFF223A4E0300290002920194FD3A59
:10016C000094300003F04CF8300004F0D9FD354811
:10017C0003F0FAF90322344E030000920221029498
:10018C000194300003F03CF8300004F09FFB2F4842
:10019C0003F0EAF92E4E022104220300029401948A
:1001AC000094300003F02CF8300004F0F5FB04F060
:1001BC00FDFBFA20274B00019D6102F0B3FB64208C
:1001CC0005F0D6FB02F0E4FB8022234B52019A622D
:1001DC0005F08CF840208026204D6B782A78C01AC8
:1001EC00B61AC10F0918F00F6D688019491040102C
:1001FC00C0B2C9B20094019505F01BFA05F058F88D
:10020C00174C200003F09AFD164B1A78002A04D0E4
:10021C00002220001A7003F091FD17256D44280070
:10022C0003F08AFC002802D0287803F0B3FD30BF1D
:10023C00EAE7C046FC180020D418002040787D0165
:10024C00DC180020002D3101041B0020408AF7012E
:10025C00EC180020001C0050000400504C00002042
:10026C00F4A10008001900200122014B1A707047FC
:10027C000019002010B504000A2802D10D20FFF748
:10028C00F9FF2100014803F095FB10BDFC1800207C
:10029C00BFF34F8F034B044ADA60BFF34F8FC04656
:1002AC00FDE7C04600ED00E00400FA05002170B542
:1002BC001A4A0500080004F04BF8194B002818D016
:1002CC00184B1C88012D09D8FA25AD00002C0FD035
:1002DC002800013C02F00AFBA4B2F7E71249012006
:1002EC0003F0D2FF002806D1FA25AD00002C0FD167
:1002FC000023180070BD0D4B0128FAD1FA25AD0072
:10030C00002CF5D02800013C02F0FEFAA4B2F7E76D
:10031C002800013C02F0EAFAA4B2E7E7FFFF000074
:10032C000CA40008F821002025A300082EA4000826
:10033C00002170B5104A0600080004F009F80F4BB4
:10034C00002814D00E4C2588012E12D90A4A64219B
:10035C00012003F0FDFF0B4B002808D0208802F091
:10036C00E1FA280002F0D0FA02F012FB0023180088
:10037C0070BDFA200001F2E71027000044A300082A
:10038C00F82100206CA30008094910B506310020A3
:10039C0003F07AFF002803D0012805D0054802E0BD
:1003AC000122054B9A6110BD034B98620020FAE7BD
:1003BC0025A300080CA50008001C0050F0B589B05E
:1003CC0005930EAB1B78170003930FAB1B780F2410
:1003DC00029311AB1B8820260693130C92B2009249
:1003EC000A0001001A4807F0EDFE01231A000299D9
:1003FC0007938A40013A0492039AA51A4D43039B32
:10040C00A34219DC059BA34216DB069B079A2341EA
:10041C002E20134205D03B00EB40049A1340109A57
:10042C00D05C07F0E9FE300007F0E6FEA30705D02C
:10043C00029B013CED1AE2E73000F2E7300007F0D6
:10044C00DBFE002CF4D10A2007F0D6FE09B0F0BD7B
:10045C00A9AA0008F0B5364B85B0170002260A6829
:10046C00029300230D000196009303970F3331493B
:10047C000400FFF7A3FF304B0121029300236A68AD
:10048C0001910093200003970F332C49FFF796FF3F
:10049C002B4BAA680293002301960093200003972C
:1004AC000F332849FFF78AFF274BEA680293002392
:1004BC0001960093200003970F332449FFF77EFF2A
:1004CC0001210023224E2A690296019100932000FB
:1004DC0003970F331F49FFF771FF012100236A694E
:1004EC00029601910093200003970F331A49FFF7EE
:1004FC0065FF0426002319492A6A02910093200003
:10050C000397019607331649FFF758FF134B6A6A96
:10051C000293082313490093200007330397019695
:10052C00FFF74CFF0A2007F067FE05B0F0BDC04690
:10053C008CA9000884A9000899A9000891A90008B1
:10054C00A4A900089CA90008B1A90008A9A9000841
:10055C00BEA90008B6A90008C1A90008D1A90008C5
:10056C00C9A90008E2A90008F8B52C4C60792668E6
:10057C002779032827D807F04FFD021B1D22284896
:10058C0007F020FE237A012B1FD0022B21D001254E
:10059C006379BD40002B1ED133692B4031209D4225
:1005AC0000D0302007F028FE0A2007F025FE09E0D5
:1005BC001C48E5E7A17A1C4807F004FEE2E71B485B
:1005CC0007F08EFEF8BD1A48FAE71A4807F0FAFD54
:1005DC00DDE71948FAE7A379002B0BD0012B0DD0DE
:1005EC00164807F0EFFDE07903280CD807F014FD4E
:1005FC0008101214124807F0E5FDF1E71148FAE76C
:10060C00114807F0DFFD6379012BCDD17369C4E785
:10061C000E48F6E70E48F4E70E48F2E754030020C4
:10062C00EAA90008F1A90008F9A90008FFA9000827
:10063C0006AA00081AAA000823AA000843AA000860
:10064C002CAA000837AA00084AAA00084FAA0008DA
:10065C005BAA000857AA0008F7B506000F001400A3
:10066C000193019BE5B29D4203D90A2007F0C4FD1A
:10067C00F7BD22003100064807F0A4FD2A0039001E
:10068C00044802F095F90134FFF76EFFE9E7C04624
:10069C0061AA000854030020F7B50F7804000E007F
:1006AC00284D002F3DD0080007F070FF032838D8E4
:1006BC00012819D138003038234D062831D807F0DD
:1006CC00ABFC3C04080A0C0F11000522A021C90543
:1006DC0022E00122FAE70022F8E703221B491BE083
:1006EC000222FBE70122F9E70022701C01A908F0A5
:1006FC008BF8019B02001B78154D002B11D10F2894
:10070C000FD830786138072819D807F07BFCDF0444
:10071C00E70C181818110F49D2B2200002F048F952
:10072C0000252800FEBD0C4D022AFAD10B49F3E737
:10073C000B4D012AF5D80B49EEE70622C6E70A4D08
:10074C00EFE7C04613A9000887A80008000800506E
:10075C00C4A800080004005068A90008000C005050
:10076C00A3A80008001C005063A8000870B50A4D2F
:10077C0009682800FFF790FF041E0BD101232A798A
:10078C00064893402A6812691A40934200D10448E3
:10079C0007F0A6FD200070BD5403002038C30008EC
:1007AC00BBA6000870B50E4C0D0020000968FFF7C1
:1007BC0073FF00280CD16B681B78302B03D0312BC6
:1007CC0007D0084804E00123227993402268936201
:1007DC0070BD01232279934022689361F8E7C046EB
:1007EC0054030020A1A6000870B5124C060009683D
:1007FC002000FFF751FF051E16D1012E18D90E4906
:10080C00022003F041FD002803D001280ED00B4D2F
:10081C000AE001232372002320006371A371E371AA
:10082C006372A37202F007F9280070BD0223F1E78E
:10083C002072F0E754030020EBA50008F2A5000895
:10084C00F8B51E4C07000E0020000968FFF724FFC6
:10085C00051E1FD173681B78302B03D0312B1BD096
:10086C00174D17E06072022F19D91649B06807F0BE
:10087C0083FE00281FD10123A371032F12D1002363
:10088C002372012363710233E37100232000A372EE
:10089C0002F0D1F82800F8BD01236372E3E70023CE
:1008AC00A371ECE70849F06807F066FE0123002805
:1008BC00E6D0064DEEE7064DECE7C04654030020AB
:1008CC00A1A6000852A6000855A6000832A60008EA
:1008DC0012A6000870B50D682949280007F04CFED7
:1008EC00041E20D1A02102000F23C9056120FFF7AF
:1008FC00B3FE0F23220023496220FFF7ADFE0F2326
:10090C00220021496320FFF7A7FE02231F491A008A
:10091C006420FFF7A1FE012322001D496820FFF788
:10092C009BFE200070BD1B49280007F025FE041E0D
:10093C001DD1194807F0D4FCA021184AC905412043
:10094C00FFF788FD154A0F494220FFF783FD134A34
:10095C000D494320FFF77EFD02220C494420FFF78E
:10096C0079FD03220A494820FFF774FDD9E72900D5
:10097C000B48FFF791FE041ED3D1FFF7F5FDD0E72E
:10098C0058A600080004005000080050000C00504D
:10099C00001C00505CA6000861A60008FFFF0000C8
:1009AC005403002010B5032449434C4351430368BE
:1009BC00A3430B43036010BD7FB500217F220800C9
:1009CC0003F092FC164B002827D00121154C102265
:1009DC000800267803F088FC134B00281DD02578DE
:1009EC00124C3100200002F0BDFA03232A006946A4
:1009FC00200002F0B5F90E4B00280ED0002405E0C3
:100A0C006B460C48195D07F0DDFB0134E3B2AB42D9
:100A1C00F6D30A2007F0F0FB0023180004B070BDD9
:100A2C00FCAA0008F8210020D0AA0008D418002045
:100A3C00F5AA00081AAB00080021F0B57F2285B09A
:100A4C000600080003F050FC174D002822D00124AA
:100A5C00164F3B780193E0B2864210D8144C0199A2
:100A6C002000013E02F07EFAF2B2032302A920001C
:100A7C0002F06CF80025A8420CD10E4D0AE0FF22C2
:100A8C00002103F031FC631C051E06D121000A482D
:100A9C0007F098FB280005B0F0BD04AA14193A78A9
:100AAC00093C22701C00D6E7FCAA0008F8210020A3
:100ABC00D4180020F5AA0008A8AB0008802110B5B6
:100ACC00064C022220004900FFF76CFF0222802115
:100ADC0020009140FFF766FF10BDC0460004005097
:100AEC000122802110B5064C91402000FFF75AFFDF
:100AFC008021012289002000FFF754FF10BDC04661
:100B0C000004005037B51B4CFFF7EAFF2269D305F0
:100B1C0002D4194807F0E4FB23699B0502D417485B
:100B2C0007F0DEFBFFF7CAFF0024E1B2802C01D1F5
:100B3C0000203EBD124D280002F014FA00220323BF
:100B4C001100280002F002F8002803D021000D4803
:100B5C0007F038FB6946032301220731280002F015
:100B6C00FFF8002803D02100074807F02BFB0134C5
:100B7C00DBE7C046000400505BAB00086BAB000821
:100B8C00D418002098AB0008A0AB000810B5134C8B
:100B9C00FFF7A6FF124807F015FB23691148DB0588
:100BAC0000D5114807F09CFB104807F00BFB23699C
:100BBC000C489B0500D50C4807F092FB2369DB051C
:100BCC0002D40B4807F08CFB23699B0502D409481F
:100BDC0007F086FBFFF772FF002010BD00040050E9
:100BEC00C2AA000838C30008BBA60008C9AA00089E
:100BFC005BAB00086BAB0008F8B580260E4DFFF719
:100C0C006FFF2B697600334212D0FA270824BF00FD
:100C1C003800AE62013C01F069FEE4B2AE6138000E
:100C2C0001F064FE002CF3D1FFF748FF2000F8BD63
:100C3C00FFF744FF0148FAE70004005020AB00081E
:100C4C00F0B50D00002185B007007F22080003F0ED
:100C5C004BFB002806D17F21164807F0B3FA002081
:100C6C0005B0F0BD144E3F223378002101200393D0
:100C7C0003F03AFB002802D13F211048EDE7032F87
:100C8C0015D9EB681B78312B11D0692B04D00C488B
:100C9C00302BE5D1012300E00223A9683278094802
:100CAC000091039904F012FD04F002FBD7E7002336
:100CBC00F3E7C0463EAE0008F82100205AAE00080B
:100CCC000CAE000844000020F7B50E000021070010
:100CDC007F22080003F008FB002805D17F211B4868
:100CEC0007F070FA0020FEBD194D3F222B78002131
:100CFC000120009303F0F8FA002802D13F21154897
:100D0C00EEE72B78802201210220019303F0ECFA0C
:100D1C00002802D180211048E2E7032F13D9F36891
:100D2C001B78312B0FD0692B04D00C48302BDAD127
:100D3C00012300E002232A780199009804F0DFFBDC
:100D4C0004F0B6FACEE70023F5E7C0463EAE000845
:100D5C00F82100205AAE000860AD00080CAE000867
:100D6C00F0B50E00002187B007007F22080003F0C9
:100D7C00BBFA041E06D17F21224807F023FA20007B
:100D8C0007B0F0BD204D3F222B78002101200393AA
:100D9C0003F0AAFA041E02D13F211C48EDE72B7880
:100DAC00802201210220049303F09EFA041E02D13A
:100DBC0080211748E1E72B7840220121032005937D
:100DCC0003F092FA041E02D140211248D5E7042FF9
:100DDC0016D933691B78312B12D0692B04D00E4CE9
:100DEC00302BCCD1012200E002222B780499009206
:100DFC000398059A04F06DFB002404F059FABEE741
:100E0C000022F2E73EAE0008F82100205AAE00089E
:100E1C0060AD00087CAD00080CAE0008F0B50E000B
:100E2C00002187B007007F22080003F05DFA041E42
:100E3C0006D17F21224807F0C5F9200007B0F0BD8C
:100E4C00204D3F222B7800210120039303F04CFA14
:100E5C00041E02D13F211C48EDE72B788022012192
:100E6C000220049303F040FA041E02D1802117489B
:100E7C00E1E72B78402201210320059303F034FA9B
:100E8C00041E02D140211248D5E7042F16D933692C
:100E9C001B78312B12D0692B04D00E4C302BCCD1BB
:100EAC00012200E002222B78049900920398059A03
:100EBC0004F0EDFA002404F0FBF9BEE70022F2E79F
:100ECC003EAE0008F82100205AAE000860AD0008C4
:100EDC007CAD00080CAE0008F0B50E00002187B008
:100EEC0007007F22080003F0FFF9041E06D17F21C2
:100EFC00224807F067F9200007B0F0BD204D3F22D3
:100F0C002B7800210120039303F0EEF9041E02D18B
:100F1C003F211C48EDE72B787F220021022004930F
:100F2C0003F0E2F9041E02D17F211748E1E72B7888
:100F3C003F2200210320059303F0D6F9041E02D1B1
:100F4C003F211248D5E7042F16D933691B78312B72
:100F5C0012D0692B04D00E4C302BCCD1012200E0E6
:100F6C0002222B78049900920398059A04F014FA43
:100F7C00002404F09DF9BEE70022F2E798AD0008CA
:100F8C00F8210020B5AD0008D2AD0008EFAD000887
:100F9C000CAE000810B504F09FF904F089F900209C
:100FAC0010BD0000F7B50E00002107007F220800DD
:100FBC0003F09AF9002805D17F21144807F002F9B3
:100FCC000020FEBD124D3F222B7800210120019301
:100FDC0003F08AF9002802D13F210E48EEE7022FD8
:100FEC0012D9B3681B78312B0ED0692B04D00A4868
:100FFC00302BE6D1012200E002222978019804F07E
:10100C0079F904F055F9DBE70022F6E73EAE00086B
:10101C00F82100205AAE00080CAE000810B50A49A1
:10102C00002003F031F9002803D0012806D007482E
:10103C0003E08022064B52019A6210BD8022044BC1
:10104C0052019A610020F8E758AD00080CA5000881
:10105C00000400500122F8B5524204000F00012098
:10106C00002103F0A9F9002806D101211C484942AE
:10107C0007F0A8F80020F8BD3B681A4E1B783568BD
:10108C006C2B1ED0772B19D01748622BF3D1022C66
:10109C00F0D02000FF22002103F026F93378013C28
:1010AC002B70E4B20135F2E72000104A002103F066
:1010BC004FF93388013C2B80E4B20235022CF3D17A
:1010CC00D8E701277F42022CD4D020003A0000211F
:1010DC0003F072F93368013C2B60E4B20435F2E79B
:1010EC002DB10008F8210020E0B00008FFFF00003F
:1010FC00F7B5012201900E0052420021012003F0AD
:10110C005BF9002806D101211F48494207F05AF823
:10111C000020FEBD1D4D019B2F680124022B08D918
:10112C0010222100022003F0DFF8031E1848F0D033
:10113C002C7833681B786C2B1AD0772B15D0E419CC
:10114C00622B07D01348E4E7397813480A0007F0FC
:10115C0039F80137A742F7D1DAE739880F480A0086
:10116C0007F030F8013C0237E4B2002CF5D1CFE7A0
:10117C003D00002CCCD002CD09480A00013C07F000
:10118C0021F8E4B2F5E7C0462DB10008F8210020A3
:10119C009EB00008E0B00008BDB00008C8B0000860
:1011AC00D3B000080122002170B55242080003F0B0
:1011BC0003F9002806D101210F48494207F002F833
:1011CC00002070BD802201210C4C92000800266882
:1011DC0003F0BEF8002803D1802109488900EDE70F
:1011EC002588084C31002A00200006F0D9FF290080
:1011FC00200003F015F9E3E72DB10008F8210020D9
:10120C0078B0000801190020F0B50E260C0089B04A
:10121C0004AD6E4403AF009533003A0015492068C5
:10122C0007F034F9162312226B4400936A4405AB81
:10123C001149606807F02AF93B8806AC23703388A3
:10124C00200063702B88A3706B465B8AE3706B463F
:10125C009B8A23716B46DB8A637104F03DFB074B61
:10126C00002803D0200001F0C5FE0023180009B0AF
:10127C00F0BDC046C8B200085DD0000898B20008A6
:10128C0007B5684601F02CFF684604F043FB0A20C2
:10129C0006F0B2FF00200EBD70B5144B002800D034
:1012AC000B68134D1900280006F0D0FD114A0028D8
:1012BC000BD0100070BD637A002B0DD020000930CC
:1012CC0006F080FF0A2006F097FF0B4C2800210047
:1012DC0006F0FBFD0028EED0280006F0EDFD030023
:1012EC00581E8341054A5B421A40E2E733B50008B9
:1012FC006003002035B50008BC0500204FB5000880
:10130C000122002110B55242080003F055F80028C4
:10131C0006D101210A48494206F054FF002010BDB5
:10132C00084B094C1968200003F072FE031E074895
:10133C00F5D080212000890003F072F8EEE7C0465A
:10134C0089B50008F8210020011900206AB50008B1
:10135C00434BF7B51D698023424E1D407DD103F0F0
:10136C00E5FC414E002878D0404C200003F0BCFD39
:10137C003F4E002871D021783E4806F023FFA2781A
:10138C0061783D4806F01EFF3C4806F01BFF6319D0
:10139C00D878013506F030FF052DF8D10A2006F07B
:1013AC002BFF0F22217A36480A40090906F00AFF62
:1013BC00A37A617A1B020B43E17A324809040B438E
:1013CC00217B0906194306F0FDFEA37B617B1A09FC
:1013DC0009071B071B0F090E1943FA23DB00C91859
:1013EC00294806F0EFFE200003F0A0FD274E002850
:1013FC0033D021782648890906F0E4FE6178254827
:10140C0006F0E0FEA178244806F0DCFEE1782348E3
:10141C0006F0D8FE617922480907090F06F0D2FEC2
:10142C00200003F0C7FD4102090D1E4806F0CAFE5C
:10143C001D4F012239001D4806F0E2FC1C4E051E12
:10144C000BD101AA2100380006F064FD2E00002803
:10145C0003D12100174806F0B5FE3000FEBDC04692
:10146C0000040050ABB30008C7B3000801190020FA
:10147C00EBB3000812B4000829B4000837B4000814
:10148C0046B400085AB400086CB400085CB30008F9
:10149C0085B4000892B40008AFB40008CCB40008BE
:1014AC00E8B4000808B500081DB500088C0300203E
:1014BC008EB300081EB50008F7B507000C00002C11
:1014CC003FD080231F4E5B003088221C1B1A9BB21E
:1014DC009C4200D91A1C93B20093002807D11A4BD6
:1014EC0019880F23194202D1090903F0F7FA6B4648
:1014FC00154D1B78327829883800019303F0C6FA11
:10150C00002101203388009AD3189BB233802A889B
:10151C000E4EFF2B0AD8002902D00A492A800B80D4
:10152C00009BFF18019BE41AE4B2C8E7013B0132AF
:10153C00FF3B92B29BB20100B242EAD901492A8028
:10154C000B80F7BDD6050020D8050020FF07000052
:10155C00F7B506000D00002D01D1012033E01A4B28
:10156C002C1C1A8880235B009B1A9BB29D4200D9CD
:10157C001C1C164FA4B2E3B23988D2B230000193CE
:10158C0003F07BFA12483A88078800200E490B8832
:10159C00E3189BB20B80FF2B09D8002802D00B80DC
:1015AC000A4B1A80019B3619ED1AEDB2D3E7013BB9
:1015BC000132FF3B92B29BB20120BA42EBD9002020
:1015CC000B80024B1A80FEBDD6050020D8050020EA
:1015DC00D405002070B5051E2FD000217F220800F5
:1015EC0002F0B6FE002805D17F21164806F0EAFD70
:1015FC00002070BD144E3488022D21D17F22002191
:10160C00012002F0A5FE002802D17F210F48EDE752
:10161C0035882A0021000E4806F0D4FD2100002058
:10162C00013403F05BFAA4B22E2006F0E5FDA542CE
:10163C00F4D2084806F054FEDAE704007F25E8E708
:10164C002500E6E777B60008F82100209EB60008D2
:10165C00C3B60008D4B6000837B501AC200003F0BF
:10166C007DFAA37862782178284806F0ABFD8021BA
:10167C002748890006F0A6FD80212648090106F0BE
:10168C00A1FD80212448490006F09CFD80212348BF
:10169C0006F098FD224806F023FE03F095F90400AD
:1016AC000100204806F08EFD072121404B1E994178
:1016BC001D4806F087FD062121404B1E99411B4811
:1016CC0006F080FD0521012521404B1E994118484B
:1016DC0006F078FDA1082940164806F073FD032199
:1016EC0021404B1E9941144806F06CFD61082940BD
:1016FC00124806F067FD21001148294006F062FDF2
:10170C000021104806F05EFD00203EBDDAB6000850
:10171C0006B7000814B7000820B7000835B7000852
:10172C0042B7000852B7000862B700086FB700084C
:10173C007CB7000889B7000896B70008A3B7000863
:10174C00B0B70008BDB700080021F0B51E4A85B03F
:10175C000700080002F0FCFD002806D11A491B48BE
:10176C0006F030FD002005B0F0BD194EFF22338885
:10177C0000210120019302F0EBFD002802D1FF2192
:10178C001448EDE702243588A742EBD9FF2200214B
:10179C00200002F0A9FD002802D121000E48DFE74D
:1017AC0002ABD81D3378EAB20135037001990123DD
:1017BC00ADB203F06BF9FF2D02D9611E0748CFE7DC
:1017CC000134E4B2E0E7C046FF070000B9B80008F6
:1017DC00F8210020D9B80008A8AB0008FAB8000816
:1017EC00002110B50B4A080002F0B2FD002805D10B
:1017FC000849094806F0E6FC002010BD074C084BD0
:10180C002000198803F032F980212000490002F0F1
:10181C0007FEF1E7FF070000B9B800080119002026
:10182C00F8210020002170B5114A080002F0C4FD17
:10183C00002805D10E490F4806F0C4FC002070BDED
:10184C0001210D4CFF220800266802F081FD0028C2
:10185C0002D1FF210948EFE72588094C310020000F
:10186C002A0003F0D7F82900200002F0D9FDE5E7A3
:10187C00FFFF0700CAB70008F8210020EDB70008E9
:10188C000119002070B50400051E2ED00021184A45
:10189C00080002F05DFD002805D11549154806F039
:1018AC0091FC002070BD144E3588012C1DD9104AB6
:1018BC000021012002F04CFD002802D10C490F48F8
:1018CC00EDE734880E4806F00BFD80220D4992009E
:1018DC000B691340FCD10C4A0C4815800C4A14803F
:1018EC000C4A138002F022FFDBE7014CEAE7C0460A
:1018FC00FF07000013B80008F821002039B80008D1
:10190C005DB8000800080050D80500205D150008DF
:10191C00D4050020D605002010B500281FD00021CA
:10192C00104A080002F014FD002805D10D490E489C
:10193C0006F048FC002010BD0C4B1C880C4806F02F
:10194C00CFFC80220B4992000B691340FCD10A4A50
:10195C000A4814800A4A138002F080FEEAE7040069
:10196C00ECE7C046FF07000013B80008F821002080
:10197C0034B9000800080050D8050020C514000830
:10198C00D605002070B50500002486B0E0B2AC424C
:10199C000FD1032302AE0093320023003100114813
:1019AC0001F058FD0025A54216D10A2006F024FCB2
:1019BC0009E0FF22002102F097FC002806D121004B
:1019CC00094806F0FFFB002006B070BD074B1A78E3
:1019DC0002ABE2540134D9E7715D054806F0F2FB25
:1019EC000135E0E7E8050020A8AB0008F82100204D
:1019FC00C2BC000837B505000024E0B2AC4206D1E9
:101A0C000023220069460B4801F08CFC09E0FF2200
:101A1C00002102F069FC002805D12100064806F0DF
:101A2C00D1FB00203EBD6A46044B1B78A354013405
:101A3C00E3E7C046E8050020A8AB0008F821002029
:101A4C0030B5102285B00121002002F04DFC0E4B68
:101A5C0000280FD00D4B69461D780D4800232A0035
:101A6C0001F0ACFC0024E3B29D4206D80A2006F03B
:101A7C00C3FB0023180005B030BD6B460548195D4B
:101A8C0006F0A0FB0134EEE7D0AA0008F8210020F4
:101A9C00E8050020C2BC0008F0B5050087B00F00B7
:101AAC00002822D00B681B78312B1CD03D4C322BDC
:101ABC0016D1303B0593012D19D979683A48FEF7B8
:101ACC00EBFD041E0CD1022D16D00100374A02206A
:101ADC0002F072FC002811D13449354806F072FB33
:101AEC00200007B0F0BD0123E4E7012305932E4A43
:101AFC00304B13CB13C2002426001BE02E4B18686E
:101B0C0001F032FD0600032D14D0FB682B4C187825
:101B1C0030380328E4D806F07FFA3F023B3D01241D
:101B2C00042D07D02649042002F0AEFB002835D046
:101B3C00012835D1002501231B4A03211779106890
:101B4C00BB408361BB40594302688A431343036023
:101B5C001C4B1B78002B02D01B4801F097FB002775
:101B6C0000940297019533003A000599164801F04C
:101B7C0047FB164CB842B3D0300001F003FD010016
:101B8C00134806F01FFB01230E4A3C001370A7E715
:101B9C000224C5E70324C3E70024C1E70125CAE7F3
:101BAC000C4C9DE7E7BB0008DC0500200024F4008A
:101BBC007EBC000878BE0008F821002003BC000899
:101BCC00D7BB0008F8050020E805002048BC000839
:101BDC00A1BC000826BC0008114910B50931002031
:101BEC0002F052FB041E03D001280FD00D480CE06C
:101BFC00012318000C4A1179126888402100906268
:101C0C0022000A4801F08EFB002010BD064B1A7909
:101C1C001B68944000229C6111000223F1E7C0462E
:101C2C00D7BB00080CA50008DC050020E805002047
:101C3C0070B505000024E0B2AC420AD0FF220021AE
:101C4C0002F052FB661C002805D12100054806F065
:101C5C00B9FA002070BD044B0448197801F0AAFEB3
:101C6C003400E8E7A8AB0008F8210020FC050020B0
:101C7C00F0B50B6885B01B7807000D00322B13D024
:101C8C002F48342B0ED1303B96212E4A490001208F
:101C9C00029302F091FB002808D12A492A4806F049
:101CAC0091FA002005B0F0BD0223EDE7022F28D9F0
:101CBC00AB681B78382B06D0392B12D02348372B26
:101CCC00F0D1072600E00826032F37D0EB681B78ED
:101CDC006E2B14D06F2B06D01D48652BE2D102243D
:101CEC0002E00926F0E70124042F0CD02B691B78A5
:101CFC00312B08D00225322B06D01648D2E700240F
:101D0C00F2E7002408260125134B144F1B6803939C
:101D1C00134B1B78002B02D0380001F0E3FD33008D
:101D2C0001950094039A0299380001F005FD031EF9
:101D3C000C48B7D001230A4A1370B2E70024E2E73B
:101D4C0090BE000880841E0056BF0008ACBE000880
:101D5C00CCBE000802BF0008F8210020FC050020C2
:101D6C00000600201FBF00087FB50D0000210600F3
:101D7C002C4A080002F0ECFA2B4B002842D02B4BDB
:101D8C006D681C88297800290DD1032E14D128499F
:101D9C00022002F079FA012837D0002808D0022856
:101DAC0035D0244B2EE02448013501F003FEE9E741
:101DBC000D21214801F0FEFDFA2189004C43200041
:101DCC00F530FF3006F03CF9010001A803F0B2FD3C
:101DDC00012401A803F0B7FD00280FD16B46DD1CD0
:101DEC002900154801F01EFE0028F2D028780D2895
:101DFC0015D8124B2200C3409A4310D10A2006F08A
:101E0C00FBF90023180004B070BD0A21D1E70A4D7C
:101E1C000D21280001F0CEFD0A212800CAE706F0AA
:101E2C00EBF9D6E7FFFF00003EC00008F8210020C8
:101E3C0084BE0008EBBF0008FC0500200124000054
:101E4C000021F0B510228BB00700080002F04CFA0C
:101E5C002A4C002841D02A4E2A4A337800210120EE
:101E6C00009302F075FA284C002836D002253388EE
:101E7C000193AF4226D8FA21019889004843F530E6
:101E8C00FF3006F0DDF8010003A803F053FD002439
:101E9C0003A803F058FD00280BD106AB19191B48F9
:101EAC0001F0C0FD0028F3D00134009BE4B2A34242
:101EBC00EED80025EBB29C4219D80A2006F09CF90A
:101ECC0000240AE0FF220021280002F00DFA041E73
:101EDC0006D129000E4806F075F920000BB0F0BDB4
:101EEC0031780A48013501F065FDEDB2C1E706AB6A
:101EFC00E95C084806F066F90135DBE778BF0008B5
:101F0C00F8210020FFFF00003EC00008FC05002067
:101F1C00A8AB0008C2BC0008002130B5102289B063
:101F2C00080002F0E1F91E4B00282ED01D4C1E4A71
:101F3C0000210120257802F00BFA1C4B002824D03C
:101F4C00FA21208889004843F530FF3006F078F8F4
:101F5C00010001A803F0EEFC002401A803F0F3FC3F
:101F6C0000280AD104AB1919114801F05BFD0028B7
:101F7C00F3D00134E4B2A542EFD80025EBB29C4279
:101F8C0006D80A2006F038F90023180009B030BD35
:101F9C0004ABE95C074806F015F90135EEE7C046DD
:101FAC00C6BF0008F8210020FFFF00009FBF0008FB
:101FBC00FC050020C2BC000873B58025AD00104B99
:101FCC001C692C4004D10A2006F016F9200076BDBD
:101FDC006B46DC1D200001F0AFFD0A4E002803D03B
:101FEC002178300001F0E6FC2100300001F01AFDF0
:101FFC000028E4D0207801F0A7FD0028FAD0DEE715
:10200C0000080050FC05002013B56B469C1D2000F9
:10201C0002F0AEFF0123002803D02388581E834111
:10202C00DBB2180016BD10B502F080FE03000120D3
:10203C005840C0B210BD10B508001100DAB21C0037
:10204C0003F01CF8001B431E9841C0B210BD10B524
:10205C0008001100DAB21C0003F0AAF8001B431EA2
:10206C009841C0B210BD10B501F066FD10BD10B5A1
:10207C000400200001F068FD0028FAD010BD00001B
:10208C00FA2189004843F53010B5FF3005F0D8FF30
:10209C000100024803F04EFC10BDC046141B00208A
:1020AC0010B5024803F04FFC10BDC046141B0020B5
:1020BC0010B5024804F0A0F910BDC046C41D0020A4
:1020CC0010B5094C00220949200004F0A3FD084971
:1020DC00200004F0B9FD0749200004F04DFD20005C
:1020EC0004F0BBFD10BDC046201B002010000020DA
:1020FC005800002000000020096810B589B201F0DA
:10210C002BFD054C0549200004F04AFD200004F08D
:10211C0069FD002010BDC046201B0020441D00207E
:10212C0010B5222804D14B88DB0701D5FEF79CF8AB
:10213C00002010BD80220121064BD202DA67064A2C
:10214C00002013688B431360044A1F31936B8B433D
:10215C009363704704E100E000140040001002405B
:10216C0013B5194C00221949200004F00EFD184932
:10217C00200004F015FD2020164AC424916BA40005
:10218C0001439163936B144A03400193019B134BDE
:10219C0013489A62802219680A431A600422DA6290
:1021AC00104A115908408021C90301431151802163
:1021BC00C90211600122D96800201143D960196845
:1021CC000A431A6016BDC046201B0020841D002047
:1021DC00441D002000100240FF7C00000014004051
:1021EC00FFFF00FF00E100E00A00862110B5084C5B
:1021FC00890003006058043941580120002906D198
:10220C001900200004F0C1FC200004F0D0FC10BD2B
:10221C00201B00208623022170B50F4E9B00F35823
:10222C000E4A49421161002B14D0852292009B5812
:10223C00002B0FD10A4C4231200001F097FC051EF7
:10224C0008D002002100300004F09FFC290020007F
:10225C00FFF7CAFF70BDC046201B002000140040D1
:10226C00841D0020094B026810B59A420DD18023C1
:10227C00074A1B04916B1F200B4393630022110030
:10228C0003F0B8FB1F2003F0DFFB10BD005C004027
:10229C000010024001008B2310B59B00ED31FF3183
:1022AC00C05804F0F5FC10BD1C234B43C318FC3381
:1022BC00DA698B2310B59B00C05804F01DFD10BDCE
:1022CC001C234B43C3189A6B8B2310B59B00C0582F
:1022DC0004F04CFD10BD8B2310B59B00C05804F0CE
:1022EC00D4FD10BD70B58B240500A400012100594C
:1022FC0004F0B6FD285904F08FFD70BD8B2310B58A
:10230C0004009B00C05804F0AEFDA369002B04D060
:10231C000623024A11690B43136110BD00ED00E066
:10232C00836910B5002B04D00621054A13698B4331
:10233C0013618B239B00C05804F0A0FD10BDC04658
:10234C0000ED00E08B2370B505001C489B00C550C8
:10235C001B4B882603600823022243600023B6002F
:10236C00A8518260C36002618361C361036203F0A0
:10237C0075FB041E00D0FEE7020001001823A859CB
:10238C0004F0BCFAA85922005823802104F0B6FAB4
:10239C00A8592200C023812104F0B0FA8823A8593F
:1023AC0022005B00012104F0A9FA8023A8595B00EC
:1023BC002200822104F0A2FA200070BDC41D00206E
:1023CC00005C004088239B00C05810B503F09AFBBA
:1023DC000223032801D8024B1B5C180010BDC04619
:1023EC00C1C2000810B514001A0023008824A400F0
:1023FC00005903F0A7FB0223032801D8014B1B5CF7
:10240C00180010BDC1C2000888239B00C05810B52D
:10241C0003F0F0FC0223032801D8024B1B5C1800CC
:10242C0010BDC046C1C2000888239B00C05810B51F
:10243C0003F030FE0223032801D8024B1B5C18006A
:10244C0010BDC046C1C2000888239B00C05810B5FF
:10245C0003F068FE0223032801D8024B1B5C180012
:10246C0010BDC046C1C2000888239B00C35848B2A7
:10247C001C22002806DA7F2001404A439B182A338D
:10248C00187870474A439B18FF33D87AF9E7000055
:10249C0088239B00C05810B503F03DFB0223032892
:1024AC0001D8024B1B5C180010BDC046C1C200080D
:1024BC0010B58824A400005903F0A6FE02230328BB
:1024CC0001D8024B1B5C180010BDC046C1C20008ED
:1024DC0010B58824A400005903F03AFD0223032808
:1024EC0001D8024B1B5C180010BDC046C1C20008CD
:1024FC00882310B59B00C05803F0C2FD10BD00002E
:10250C000048704704060020704700001223014861
:10251C000B8070472C000020042301480B8070476F
:10252C004000002010B5044C0A000448210004F0BF
:10253C0071FE200010BDC046F41F0020DEC2000852
:10254C0010B5044C0A000448210004F063FE20007E
:10255C0010BDC046F41F0020E8C2000810B5044CA2
:10256C000A000448210004F055FE200010BDC046AE
:10257C00F41F0020F9C2000810B5044C0A000448EE
:10258C00210004F047FE200010BDC046F41F0020BF
:10259C00C5C2000810B5044C0A000448210004F020
:1025AC0039FE200010BDC046F41F0020D0C2000828
:1025BC00054B82B09A6B02439A639B6B1840019057
:1025CC00019B02B07047C04600100240054B82B020
:1025DC00DA6A0243DA62DB6A18400190019B02B0AE
:1025EC007047C0460010024010B51020FFF7E0FF06
:1025FC001F22044B9A62044ADA62082219680A43C1
:10260C001A6010BD00100040FFFF0000F7B5012656
:10261C008020824C824D636B400533436363636B54
:10262C0033400193019BFFF7C3FF2B68B343334344
:10263C002B602B68334200D1FEE78022794B7A4F16
:10264C001968120139400A431A6022681643266041
:10265C001E00042322681A42FCD06368734A1A4095
:10266C0080235B01134363600123A2681343A360BF
:10267C0080236F4A9B01116A0B4313620223A268E9
:10268C001A42FCD080200005FFF792FF694B6A4983
:10269C001A6890200A4020210A431A605A68C00523
:1026AC001040664A02435A604022186802431A607E
:1026BC001A6811431960802332685B001A43326038
:1026CC00226D17402765226D1343236580239B00E1
:1026DC00226D1A42FCD0236D594A1A4080235B02AA
:1026EC00134323658023226DDB0213432365E368C8
:1026FC00544A1A408823DB031343E3608023226887
:10270C005B041343236080239B0422681A42FCD091
:10271C00F022E3689343E360E3684B4A1340E360C1
:10272C00E3684A4A13400322E360E3681343E3601F
:10273C000C23E6681E400C2EFBD1454804F01CF916
:10274C000322E36C01209343E364E36C414AB343FB
:10275C00E364E36C13408022E364E36CD204134320
:10276C00E36440232A6813432B60FFF72FFF0220FA
:10277C00FFF72CFF0420FFF729FF0820FFF726FFA7
:10278C008020FFF723FFA022334BD2058021D3609A
:10279C0000230905536091608121890051618820D3
:1027AC008821C000C901116250622C48106082203F
:1027BC002B4AC001D060C020800050602948906036
:1027CC002948506144201362506228481060284AFE
:1027DC002848D0608020800153609060A020C00009
:1027EC0050618020800410625162234910201160D6
:1027FC000421224AD3605360936051611362536287
:10280C0010601F4AD160536093605361136253622E
:10281C0001331360FFF7E8FEF7BDC046001002401D
:10282C000020024000700040FFE7FFFFFFE0FFFFC9
:10283C0000000140006C0040FFC0FFFF7FBB222066
:10284C00FFFFFCFFFFFF02FFFFF8FFFFFFC7FFFFCB
:10285C000048E801FFCFFFFF4A281064A0C3E82B13
:10286C00000400508008A088441700009F1A5AA941
:10287C0000080050A9004405006FA1F0000C0050A6
:10288C00001C0050013800B5032806D805F0C4FB25
:10289C000206090D4022064B9A6200BD054B04222C
:1028AC00FAE78022024BD200F6E7014BF7E7C0466D
:1028BC0000040050000C0050013800B5032806D865
:1028CC0005F0AAFB0206090D4022064B9A6100BDD9
:1028DC00054B0422FAE78022024BD200F6E7014BAB
:1028EC00F7E7C04600040050000C00500122054BD5
:1028FC00D8625A6119681143196019681142FCD1E8
:10290C007047C0460010004070B5FA250400AD00B9
:10291C00002C00D170BD2800013CFFF7E7FFA4B2EA
:10292C00F6E7000070B505000220FFF741FE4023DA
:10293C00144CFF33A3622268BF3B13432360124B3A
:10294C006A0000209A4206D8A021890069430F48EA
:10295C0005F076FB013873230221A269E0629A43E9
:10296C00236A8B43236238231343A3610123226A16
:10297C001A43226222681A4322606269134363611C
:10298C0070BDC04600040040A08601000048E8016C
:10299C000121054A13688B431360044A4918936B51
:1029AC008B4393637047C046000400400010024004
:1029BC00F7B50124944023009340050000930323B2
:1029CC002A711700009A08685A430E0010402960BB
:1029DC000099019205F034FB687170682100204069
:1029EC0005F02EFB019BA871B0680099184005F00A
:1029FC0027FB019BE871F0680099184005F020FB5B
:102A0C007369287223409C420ED101236B72072FED
:102A1C000CD80099306AB940B9400F234B43184089
:102A2C0005F00EFBA872F7BD0023EFE7210A49431E
:102A3C00706A4943F1E70123F0B507790324BB40E1
:102A4C001900B9404C43E443057A02684D43D668FB
:102A5C0026403543D560C57996684D4326403543AD
:102A6C00956086795568BE409D4335435560457ADF
:102A7C00002D14D09361867A072F12D80B00BB401F
:102A8C00BB400F275F437343156ABD432B4313624F
:102A9C004079136841431C4021431160F0BD93629F
:102AAC00E9E70F271B0A5B435B435F437343556A9C
:102ABC00BD432B435362EBE70122034B1A71034ACC
:102ACC001A6000225A7170472408002000540040FC
:102ADC00F7B5002805D1174A9321174802F0C2FE1A
:102AEC00FEE70024046001291DD1144C02716379A6
:102AFC00002B13D18025AD03AC46114E2268B76B69
:102B0C002F43B763B56B664635400195019D0D4D5E
:102B1C00136053601561156829431160013304601B
:102B2C006371012005E00448074AA62102F09AFED1
:102B3C002000FEBD3AC3000806C30008240800208C
:102B4C0000100240372E302049C30008F7B5019120
:102B5C00002806D18121764A4900764802F082FE8F
:102B6C00FEE70468002C06D18321734A49007148A2
:102B7C0002F078FEFEE76579002D06D108216F4A38
:102B8C00FF316C4802F06EFEFEE7007945B2002D75
:102B9C0006DA0A216A4AFF31664802F063FEFEE754
:102BAC002468012A1ED806252B421BD06568654E69
:102BBC0035406560644E002A19D0802567686D0227
:102BCC0037403D43656009252B4213D110208027E7
:102BDC0084467F008020A5690002054047D15B4AEE
:102BEC00B02112E0802566686D043543E1E7656825
:102BFC003540E7E7012780211F40A5690902002F16
:102C0C0008D00D420CD09521514A4900494802F098
:102C1C0029FE2AE00D4003D134214C4AFF31F5E75F
:102C2C0065684000AD0AAD02284360606068494D9C
:102C3C002840802560606068AD0128436060002FEB
:102C4C0004D080200002A7690742FCD060682842AB
:102C5C00FCD11020A5690542B8D0E3691843802344
:102C6C00E0611B02A2691A42FCD1002045E0E92573
:102C7C00A0696D002842FAD038420ED0B821E36921
:102C8C00354A1F43E76149002A4802F0EBFD8023D7
:102C9C001B02A2691A42FCD1E7E7654628420FD015
:102CAC006246BF21E36949001A43E26121482B4A7D
:102CBC0002F0D8FD80231B02A2691A42FCD1D4E792
:102CCC00850707D5002A05D00199013A0D78013105
:102CDC00A5620191450601D5002A0BD0000600D44F
:102CEC0078E7002A06D080206568400235402843EA
:102CFC0060606FE79B0701D40120FEBD8020A569B1
:102D0C000002054002D1114AB02187E78023626896
:102D1C00DB01134363602023A2691A42FCD0E269F1
:102D2C001343E36180231B02A2691A42FCD1E3E73F
:102D3C003AC3000806C300080DC300081EC30008F0
:102D4C0075C30008FFFFFFFEFFFF00FFBAC30008BA
:102D5C008EC30008FFFBFFFFCAC30008D8C30008DE
:102D6C00F7B50191002806D1D221704AFF31704885
:102D7C0002F078FDFEE70468002C06D1D6216D4ADE
:102D8C00FF316B4802F06EFDFEE76579002D06D130
:102D9C00EB21694A4900664802F064FDFEE70079C0
:102DAC0045B2002D06DAEC21644A4900604802F075
:102DBC0059FDFEE72468012A3AD806252B4237D064
:102DCC0065685F4E354065605E4E002A35D08025C3
:102DDC0067686D0237403D43656009252B422FD152
:102DEC0080200627000284461F406046A5690540E6
:102DFC0063D0D425A0692842FCD0450707D5002A0A
:102E0C0005D00199656A013A0D70013101911025C7
:102E1C00284255D0E3694C4A1D43E5614B4944486F
:102E2C0002F020FD80231B02A2691A42FCD142E071
:102E3C00802566686D043543C5E765683540CBE78A
:102E4C00012780211F40A5690902002F08D00D42DF
:102E5C000BD0FA213E4AFF31354802F003FD2AE03F
:102E6C000D4002D13B4A3C49F6E765684000AD0A8B
:102E7C00AD022843802560606068ED002843802502
:102E8C0060606068AD0128436060002F04D0802032
:102E9C000002A7690742FCD060682842FCD11020D0
:102EAC00A56905429CD0E36918438023E0611B02AD
:102EBC00A2691A42FCD100201CE0264A2749CBE724
:102ECC00450601D5002A12D000068ED5012A0CD158
:102EDC00002F03D060681A4D284060608020656820
:102EEC0040023540284360607FE7002AF6D19B07FB
:102EFC0001D40120FEBD8025A0692D02054002D120
:102F0C00144A1749A8E780236268DB011343636006
:102F1C002023A2691A42FCD0E2691343E3618023A7
:102F2C001B02A2691A42FCD1E3E7C0463AC300086F
:102F3C0006C300080DC300081EC3000875C30008B3
:102F4C00FFFFFFFEFFFF00FF66C300084902000001
:102F5C008EC30008BAC30008020200002E02000053
:102F6C007602000010B5002805D1084A0849094826
:102F7C0002F078FCFEE74BB2002B05DA064A074953
:102F8C00044802F06FFCFEE7017110BD3AC3000863
:102F9C009102000006C300087DC3000893020000E4
:102FAC00114B12481A6D82421CD0CA225A62773ACF
:102FBC005A62543ADA604132D9681142FCD0FE218F
:102FCC001A69C9030A43FF211A611A69D20BD20389
:102FDC000A431A61064A5A6000221A60813ADA6082
:102FEC00596218657047C04600280040FECA0000B0
:102FFC0001810000F7B5050002F06EFC00286BD0D3
:10300C00CA23364C6362773B6362543BE3604133C3
:10301C00E2681A42FCD02F78AB780A2138006E781F
:10302C00009305F00DF80A2103013800019305F017
:10303C008DF8019B30005918C9B20B040A21019379
:10304C0004F0FEFF0A210701300005F07FF87F181D
:10305C00019BFFB200980A213F021F4304F0F0FFCE
:10306C000A210601009805F071F87618F6B237437C
:10307C006760EF780A21380004F0E2FF0A210301AF
:10308C0038002E796D79009305F060F8009B3000C4
:10309C005918C9B20B040A21009304F0D1FF0A217C
:1030AC000701300005F052F87F18009BFFB20A218F
:1030BC003F0228001F4304F0C3FF0A210601280029
:1030CC0005F044F881237618F6B25B42374327604B
:1030DC00E3608133FF336362F7BDC04600280040D4
:1030EC0070B51C4B1A6859681C68A242FAD10A23A5
:1030FC000F240D0CEDB22E095E43254075190E0AF6
:10310C00F6B20570F506ED0F5D432640AD1945701E
:10311C000325C9B20E092E405E4321407118160CCE
:10312C00F6B2817031092940594326408919160A93
:10313C00F6B2C1700435310929405943264089192A
:10314C00D2B2017111090D406B4322409B1843719F
:10315C0070BDC04600280040402302689A438A4252
:10316C0006D002689A430260016002681343036050
:10317C007047000037B5012907D0022918D0124A30
:10318C005B21124802F06EFB37BD802510496D01A2
:10319C004C6B2C434C634B6B2B400093009B40239C
:1031AC000168994301600260026813430360EBE716
:1031BC0080250749ED018C6B2C438C638B6B2B406A
:1031CC000193019BEBE7C04624C40008F3C300083D
:1031DC00001002400122064B02211A71054A1A60A6
:1031EC0000225A71044B197104495A7119607047C5
:1031FC002C0800200030014034080020003800402A
:10320C00F7B5040008A8077809A806780AA801925F
:10321C000078002C05D1184AED21184802F022FB49
:10322C00FEE700252560012923D0022919D1144D70
:10323C00013E72427241D601C122920017436A4686
:10324C00DB0012793B43334322712073A3601A00D5
:10325C002868FFF78FFF25606B79012001336B71B4
:10326C0006E080210548074A490002F0FBFA2800D5
:10327C00FEBD054DDCE7C0463AC30008F3C30008A9
:10328C003408002049C300082C08002010B5002881
:10329C0006D196211C4A49001C4802F0E3FAFEE7CD
:1032AC000268002A06D19821194A4900174802F0F1
:1032BC00D9FAFEE75379002B06D13221154AFF319A
:1032CC00124802F0CFFAFEE7013BDBB211685371F2
:1032DC00002B03D000230360012010BD40240B6899
:1032EC00A3430B601379012B07D0022BF2D10A4AAE
:1032FC000A49936B0B409363ECE7074A0849536BFD
:10330C000B405363E6E7C0463AC30008F3C300081A
:10331C00F7C3000808C4000800100240FFBFFFFFFD
:10332C00FFEFFFFFF7B505000C0001921F0000280E
:10333C0006D1B4211D4A49001D4802F093FAFEE75C
:10334C000368002B06D1B6211A4A4900184802F02E
:10335C0089FAFEE75A79002A06D16E21164AFF3106
:10336C00134802F07FFAFEE71E6881683000FFF711
:10337C00F3FEFB0702D52879FFF784FA022201211C
:10338C00019BE3189C4205D1BB0702D52879FFF7B6
:10339C0093FAF7BDB0681042FCD020783073B06857
:1033AC000842FCD0F0680134ECE7C0463AC3000890
:1033BC00F3C30008F7C3000808C40008F7B50500FC
:1033CC000C0001921F00002806D1D1211D4A490092
:1033DC001D4802F047FAFEE70368002B06D1D32103
:1033EC001A4A4900184802F03DFAFEE75A79002AB9
:1033FC0006D1A821164AFF31134802F033FAFEE732
:10340C001E6881683000FFF7A7FEFB0702D52879FC
:10341C00FFF738FA02220121019BE3189C4205D1E7
:10342C00BB0702D52879FFF747FAF7BDB068104201
:10343C00FCD0287B3073B0680842FCD0F068207058
:10344C000134EBE73AC30008F3C30008F7C30008E4
:10345C0008C40008F7B5019308AB04000F000092F4
:10346C001E78002806D1DE211F4AFF311F4802F0CA
:10347C00F9F9FEE70368002B06D1E2211C4AFF3163
:10348C001A4802F0EFF9FEE75A79002A06D1F12129
:10349C00184A4900154802F0E5F9FEE71D688168F5
:1034AC002800FFF759FEF30702D52079FFF7EAF958
:1034BC000222002394460121019A934205D1B307BD
:1034CC0002D52079FFF7F8F9F7BD6246A8681042DB
:1034DC00FBD0F85C2873A8680842FCD0E868009A16
:1034EC00D0540133E8E7C0463AC30008F3C30008E0
:1034FC00F7C3000808C4000870B5002806D1852160
:10350C00144A8900144802F0ADF9FEE70368002B59
:10351C0006D18621114A89000F4802F0A3F9FEE773
:10352C005A79002A05D10E4A0E490B4802F09AF935
:10353C00FEE740221B6885681C68C90094431C6028
:10354C003824A54329438160196019680A431A601D
:10355C0070BDC0463AC30008F3C30008F7C30008A7
:10356C0008C400081902000001000020044A8A4225
:10357C0004D90130C0B252080728F8D17047C046B0
:10358C000024F400431C0148D84070470048E8016F
:10359C0010B5034A13680133136002F023FA10BD0F
:1035AC003C080020C021094A094B0A485360036AB1
:1035BC0009061B021B0A0B430362002393600733AB
:1035CC0013608022044B12061A60704710E000E072
:1035DC00FF7C000000ED00E000E100E0014B18680A
:1035EC007047C0463C080020F7B504680500E36945
:1035FC009B0608D56B46616AE269C9B2D971012391
:10360C001A421BD023628026E36933420CD06B46EE
:10361C002800DF1D3900083002F0A0F8002815D072
:10362C003B78A3620023AB714022E369134204D0C0
:10363C000123AB71236893432360F7BD0223E26936
:10364C001A42DFD1543002F060F8DCE72368B34350
:10365C002360E9E710B50248FFF7C6FF10BDC0466E
:10366C004008002010B50248FFF7BEFF10BDC04651
:10367C00E008002010B50248FFF7B6FF10BDC046A9
:10368C008009002070B501240025194B194A1A49EC
:10369C001A601A4840225D711C719C7102F02FF85F
:1036AC0040221749174802F02AF80222164B1749F4
:1036BC001A71174A17481A6040225D719C7102F00A
:1036CC001EF840221449154802F019F80422144B34
:1036DC0014491A71144A15481A6040225D719C7184
:1036EC0002F00DF840221249124802F008F870BDA1
:1036FC0040080020003801405408002048080020F1
:10370C00A008002094080020E0080020F408002005
:10371C0000440040E8080020400900203409002043
:10372C008009002094090020004C004088090020EA
:10373C00E0090020D4090020F0B589B001930EAB4C
:10374C001B78009002930FAB1B780D00039300289D
:10375C0006D19421524AFF31524802F083F8FEE719
:10376C000024009B1C60022905D0042914D00129D7
:10377C0009D14D4F00E04D4F7C79002C0ED0B82173
:10378C004B4AFF3102E0D8214A4A4900454802F031
:10379C0069F8002009B0F0BD474FEDE701233E6802
:1037AC00BB71022D27D0042D30D09D4239D18024FD
:1037BC004249E401486B204348634B6B234005931B
:1037CC00059B3F4B5008C018110004F039FC019BBD
:1037DC0080B2F060082B2AD0092B2AD0072B23D1DA
:1037EC00384B029A012A26D0002A27D0022A2DD043
:1037FC00354A0421C5E780243049A402886B204354
:10380C0088638B6B23400693069BDAE780242B4955
:10381C002403886B204388638B6B23400793079B9F
:10382C00CFE72A4ADA21B1E7294AF321AEE72C2364
:10383C00D7E7284BD5E7C022D2001343039A012ABD
:10384C0006D0022A1CD0244A12219AE78022F3E7E0
:10385C00726822490A407260336001233268134354
:10386C003360022D13D0042D15D0012D03D18022ED
:10387C001B4B12051A600120009B1F60787189E7B1
:10388C00726816491140802292010A43E3E78022B4
:10389C00134B5205EEE78022114BD201EAE7C046EA
:1038AC003AC3000837C4000840080020E008002094
:1038BC0068C4000849C300088009002000100240B9
:1038CC000048E8012C000010B6C4000824C400080D
:1038DC009AC400082C100000CFC40008FFCFFFFFD3
:1038EC0000E100E010B5002806D1D821274AFF31AD
:1038FC00274801F0B7FFFEE70268002A06D1DC2159
:10390C00244AFF31224801F0ADFFFEE75479002C28
:10391C0007D1F021204A49001D4801F0A3FF0020E7
:10392C001CE01379022B1AD0042B1CD0012BF6D1DE
:10393C0080241A492405CC67002411680C60022BE2
:10394C0015D0042B19D0012B1BD11549154C4B6BE1
:10395C0023404B63002303600120537110BD80246E
:10396C000E496405E7E780240C49E401E3E70C49C0
:10397C000D4C8B6B23408B63ECE709490B4C8B6B29
:10398C00F8E78A210A4A8900C6E7C0463AC300080C
:10399C0037C400083CC400084EC4000804E100E031
:1039AC0000100240FFBFFFFFFFFFFDFFFFFFF7FF0F
:1039BC0024C4000870B50D00002805D1124A134923
:1039CC00134801F04FFFFEE70468002C05D1114AA3
:1039DC0011490F4801F046FFFEE76379002B05D132
:1039EC000E4A0F490A4801F03DFFFEE7200029006E
:1039FC00083001F08AFE0028F8D080232268116874
:103A0C000B43136070BDC0463AC300083902000076
:103A1C0037C400083CC400083D020000F5C400088F
:103A2C003E02000010B5002805D10E4A0E490F4881
:103A3C0001F018FFFEE70068002805D10C4A0D497B
:103A4C000A4801F00FFFFEE74379002B05D10A4A23
:103A5C000A49064801F006FFFEE7543001F07EFEED
:103A6C0010BDC0463AC300089E02000037C40008CF
:103A7C003CC40008A2020000F5C40008A302000028
:103A8C0010B58024E40022000849094801F037FEF3
:103A9C0022000849084801F032FE084B022218683F
:103AAC0000238068190004F025FC10BD380E00209E
:103ABC002C0E00202C0A0020200A00206801002077
:103ACC0010B504000A2802D10D20FFF7F9FF2100E0
:103ADC00034801F01AFE0028F9D0002010BDC046A2
:103AEC002C0E002070B50E0015000C00A31B9D427F
:103AFC0001DC280070BD2078FFF7E2FF0134F5E708
:103B0C0013B56B46DC1D2100034801F027FE00288D
:103B1C00F7D0207816BDC046200A002070B50E00E4
:103B2C0015000C00A31B9D4201DC280070BDFFF7A3
:103B3C00E7FF20700134F5E710B50100014801F0F2
:103B4C000DFE10BD200A002010B50100014801F047
:103B5C00DCFD10BD2C0E002010B50A00010002483F
:103B6C0001F0E5FD10BDC046200A002010B50A008A
:103B7C000100024801F006FE10BDC0462C0E0020CC
:103B8C00034B18604068431E9841C0B27047C04652
:103B9C00CC120020002210B5034B04481A70044BC1
:103BAC001860FFF7EDFF10BDDC13002048A50008DE
:103BBC00D413002070B50B4B0B4C1B789D00002BC5
:103BCC0005D10A4B23606059FFF7DAFF70BD013B4A
:103BDC009B00E058FFF7D4FF054B1B685B685B68E4
:103BEC006351F0E7DC130020D413002048A5000833
:103BFC00CC120020002210B5044B1A70044B1A781A
:103C0C00044B1A70FFF7C6FF10BDC046C912002046
:103C1C00D2130020C8120020F8B500250D4F3878BB
:103C2C0000F086FC0C4B1C780C4B1E5D002E0ED04D
:103C3C00300004F0E1FA0A4A6B1CDBB256557E2CBC
:103C4C0002D80134E4B200E000241D00ECE73D7022
:103C5C00F8BDC046D213002051130020D012002012
:103C6C00521300200F4B10B51A685368002B02D06A
:103C7C001468002C06D0C4210B4A0C4801F0F2FD4C
:103C8C00002010BD0A4A1178002902D0094ACB2124
:103C9C00F3E701215868084B11705860FFF770FF6B
:103CAC00EFE7C046CC12002019C5000812C5000869
:103CBC00DC1300202AC50008D41300200B4B10B5D0
:103CCC001B685C68002C06D109480A4AF02101F0F7
:103CDC00C9FD200010BD084B084A1B789B00985862
:103CEC0008309850FFF74CFFF4E7C046CC12002088
:103CFC0012C5000849C50008DC130020D4130020AD
:103D0C0010B50A4B1C78002C06D10948094AB3217E
:103D1C0001F0A8FD200010BD013CE4B21C70064B64
:103D2C00A400E058FFF72CFFF5E7C046DC13002099
:103D3C0012C5000865C50008D413002000231A0022
:103D4C0010B504000E48591C812915D10D4B1A7061
:103D5C000D4B1A700D4B1A70FFF74CFF00F0D2FB95
:103D6C00002C02D0200004F02DFA094804F0B8FA17
:103D7C003E2004F041FA10BD1B181A700B00E2E74C
:103D8C00D01200205013002051130020D213002019
:103D9C0075C50008F7B5040000F076FB032800D1C8
:103DAC0042E1042800D168E1002813D1092C00D18C
:103DBC00C8E00D2C0FD0082C00D026E1B84A13789F
:103DCC00002B00D1F0E0013B0120137000F0B0FBA0
:103DDC00FFF710FFF7BD0A2004F00EFAB04BB14EFE
:103DEC001C78B14B002C1ED13178B04A11700022D6
:103DFC0020271A55150014000120AD4E19782029E2
:103E0C004AD0002960D0232C4BD9A94D2B681B78A4
:103E1C00232B5CD10023A24A1370FFF7EBFE3E204C
:103E2C0004F0EAF9D6E73278611E1000C9B2A14D50
:103E3C00591800280DD00138C0B20F78BC462F5C41
:103E4C00BC4508D19C4F01398F42F2D197490A7079
:103E5C00CDE77F20F1E700217E2A19D80132D2B2BA
:103E6C00585C0131A854C8B2A042F5D300217F2A76
:103E7C0001D00132D1B28D4A317011700022685CD0
:103E8C000028B4D06A547F2904D00131C9B2F6E7B6
:103E9C000022E5E70021F2E721001D7001330C0040
:103EAC00ACE7222901D102000133611CA400C9B284
:103EBC00A351002A00D111E11C78222C00D10BE176
:103ECC00002CECD00133F7E7002CA3D09DE7FFF7D3
:103EDC0061FE7A4B1F687E68002E04D0784B1B78ED
:103EEC000193A34203D3774804F0FAF992E7019BBC
:103EFC0031689B00E85804F03FFB002805D13B6873
:103F0C00002B05D1FFF7AEFEE3E7FFF7D7FEE0E7A6
:103F1C00019AD04332792018C0B2824202D8727909
:103F2C00824201D26848DFE70199013189006918A2
:103F3C009847002800D16DE704F044F90A2004F0FA
:103F4C005BF967E75E4C614A23789B009B580193B1
:103F5C005F4B1F78594B1A6853681D685D4B1B7873
:103F6C009C46514BFB18674513D229780137FFB299
:103F7C0018786E1C002919D1202817D11368002B32
:103F8C0012D1FFF76FFE4D4B1B685B681D68504BE1
:103F9C001F70504B1B78BB4217D923784B4A9B00A0
:103FAC00D358019A9A42D5D1072039E70133884278
:103FBC0009D0FFF783FE002801D1FFF7FBFD444B2E
:103FCC0035001F78E5E73500CDE7354A3C00107821
:103FDC000026C01AC0B200F0ABFAA85D00280AD0C7
:103FEC007E2C08D8304B0134DB199855E4B204F020
:103FFC0003F90136F1E72A4B1C70FFF75FFE00282E
:10400C0000D0E7E6FFF7D6FDE4E61F2C00D8E1E68A
:10401C00234A13787E2BC7D8591C1170224AD454CA
:10402C00FFF7E8FD2000FBE620497F220B78002BF0
:10403C0001D0013BDAB21B4B1B78934200D1C9E68D
:10404C007F23002A01D0013AD3B21A487F24C25CE4
:10405C00002A00D1BEE6C25C002A07D17E2B01D813
:10406C000133DAB20A70FFF7D7FDB3E6002B02D0AA
:10407C00013BDBB2EFE72300EDE70C490D4A0B786F
:10408C00D05C002805D1074A12789342EAD002008E
:10409C00E4E77E2B02D80133DBB2F1E70023EFE734
:1040AC00D213002050130020521300205113002073
:1040BC0038120020D012002051130020CC12002006
:1040CC00DC13002046C600085FC60008D41300208D
:1040DC00C9120020C81200201D7001331C78BC438B
:1040EC00FBD1DCE6F0B5002685B002900391FFF71A
:1040FC0051FD0096604F3B685A68002A08D15F4B0F
:10410C001C78002C34D0FFF7FBFDFFF7D7FDF1E74F
:10411C001B68002B29D1FFF7A5FDEBE7584BA2003C
:10412C00D058FFF72DFD3B6801345B68E4B218688A
:10413C0004F02CFA01302D18EDB2504B1B78A34231
:10414C00ECD2009A2B1C954201D26B461B78DBB249
:10415C0000933B685B68986804F018FA031CC0B2C3
:10416C00B04200D2331CDEB2CFE700252C00E4E7CE
:10417C00FFF710FD0194404D2B685A68002A0AD1B4
:10418C003E4B1878002874D0FFF7BAFDFFF796FD68
:10419C0001230193EFE71B68002B67D0384B18689D
:1041AC00FFF7EEFC029B002B32D0039B1C68200017
:1041BC0004F0ECF92B6802005B682000196804F02D
:1041CC00ECF9002821D1002425002C4B1B78AB42A4
:1041DC0027D2009B9C423DD3274D2B685B68986887
:1041EC0003F0F0FF2B685B68986804F0CFF9C4B259
:1041FC00B44235D3234803F0E5FF2B685B68D868DD
:10420C0003F0E0FF0A2003F0F7FFFFF757FDB2E7DA
:10421C00019B002BD7D00A2003F0EEFF029B0193E9
:10422C00D1E7174BAA00D058FFF7AAFC124F013563
:10423C003B68EDB25B68186803F0C4FF202003F004
:10424C00DBFF3B685B68186804F0A0F901302418A8
:10425C00E4B2BAE72020013403F0CEFFE4B2B8E7B1
:10426C002020013403F0C8FFE4B2C1E7FFF7FAFCE9
:10427C008EE705B0F0BDC046CC120020DC13002048
:10428C00D413002008D00008F8B5124B0D001B7891
:10429C0000240133C018C7B2232F07D80E4EBF001D
:1042AC002B78002B08D1FF242000F8BD0B4A0C49B9
:1042BC000C4801F0D7FAFEE72900B85904F05CF974
:1042CC000028F1D0280004F061F9013401302D18D8
:1042DC00E4B2E5E7DC1300203812002085C60008A4
:1042EC00FD03000012C50008F7B5134B0F001C7836
:1042FC00160001340419E4B2232C05D90F4A1049D5
:10430C00104801F0AFFAFEE70F4DA400002201A9FE
:10431C00605904F079FA019A61590023914209D04D
:10432C0012789A4206D1874204D8864202D3074BB0
:10433C00187001231800FEBDDC13002085C6000890
:10434C001304000012C5000838120020F8210020C8
:10435C00F7B5134B0F001C78160001340419E4B2A6
:10436C00232C05D90F4A1049104801F07BFAFEE7BF
:10437C000F4DA400002201A9605904F045FA019ADE
:10438C0061590023914209D012789A4206D1874292
:10439C0004D8864202D3074B188001231800FEBDB7
:1043AC00DC13002085C600082A04000012C5000892
:1043BC0038120020F8210020F7B5134B0F001C78A1
:1043CC00160001340419E4B2232C05D90F4A104904
:1043DC00104801F047FAFEE70F4DA400002201A996
:1043EC00605904F011FA019A61590023914209D0E5
:1043FC0012789A4206D1B84204D3B04202D8074B85
:10440C00186001231800FEBDDC13002085C60008CF
:10441C004104000012C5000838120020F8210020C9
:10442C00F7B50F00102501902C00103CA74215D8B1
:10443C00F7BDBE420ED2019B1148995D03F0C2FE3E
:10444C000136AE42F5D3AC420AD30A2003F0D4FEB7
:10445C001035E9E70B4803F0B5FEF1E72600F0E76D
:10446C002020BC4205D2019B185D0300203B5F2B32
:10447C0003D803F0C1FE0134E5E72E20F9E7C0466E
:10448C00A6C60008BAA9000800B5164A1378012B75
:10449C000FD0002B05D00021022B12D0117001235C
:1044AC0005E0C3091B2802D101231370DB18180087
:1044BC0000BD02235B2801D11370F8E700211170B5
:1044CC00F5E74138117001230328F0D803F0A4FD5F
:1044DC00080204060423EAE70523E8E70623E6E7D7
:1044EC000323E4E7DD13002010B51B2003F084FE4A
:1044FC005B2003F081FE322003F07EFE4A2003F0A5
:10450C007BFE10BD002210B5084B1B201A7003F067
:10451C0073FE5B2003F070FE482003F06DFEFFF786
:10452C00E3FF6420FEF7F0F910BDC046DD13002058
:10453C0010B50400002C00D110BD082003F05CFE67
:10454C00202003F059FE013C082003F055FEE4B294
:10455C00F0E70000F0B581230020842408250C4EE0
:10456C00591E002900D1F0BD0A4AE31AD35C2A0077
:10457C001B0258400B0007B2410088B2002F01DA31
:10458C00714088B2013AD2B2002AF4D1E8E7C046B1
:10459C0021100000DE13002070B505002800FDF787
:1045AC0062FD041E03D1FDF77BFD0028F6D0200030
:1045BC0070BD0000F7B5FA208000FDF761FD002505
:1045CC006B46DF1D3800FFF7E7FF061E06D11D4ABC
:1045DC00B2211D4801F046F93000FEBDFA201B4CFB
:1045EC003B7880006355FDF74BFD002D04D13B78E3
:1045FC00042BF1D00135E3E70135852DE0D123788B
:10460C00012B06D0CD21124A0F4801F02BF90026C0
:10461C00E2E76378A2789B18FF2B02D00D4AD321D6
:10462C00F2E7FFF797FF22008332030A1278DBB21E
:10463C009A4204D184342378C0B28342CCD0064A47
:10464C009721E1E7E7C60008ADC60008DE1300209D
:10465C00EFC6000803C7000820C700080123F7B500
:10466C0000262C4D01902B7003335C1EE4B2002B02
:10467C0001D1FF2418E0002E02D14320FDF7F7FCF6
:10468C00FFF798FF071E06D1002E02D01520FDF76C
:10469C00EEFC2300E9E7204B1A78042A0AD1062005
:1046AC00FDF7E5FC002C21D0FFF784FF002825D175
:1046BC00012022E05A782B780620591E8A42E6D037
:1046CC009A4206D02021154AFF31154801F0CAF84C
:1046DC00DCE7019B8021134898470620FDF7C7FCB7
:1046EC002B783E0001332B700424D2E736210C4882
:1046FC000D4AFF3101F0B6F82000FEBD064B1B78C9
:10470C00042B02D10620FDF7B2FC013CE4B2002CD4
:10471C00CAD1CDE763140020DE130020B7C6000811
:10472C00ADC60008E1130020D2C60008F0B5012682
:10473C0085B0384B009038481E70FDF7A1FC02ABD9
:10474C00DD1D2800FFF728FF041E06D1AC21334ADB
:10475C004900334801F086F826E02B78432B1CD116
:10476C00019680212F48009B984700281FD1FA27DB
:10477C000426BF000420FDF77AFC3800FDF780FC0E
:10478C002800FFF709FF041E02D02B78062B0BD054
:10479C00013EF6B2002EEDD105E05E21224AFF313A
:1047AC001F4801F05FF80024200005B0F0BD042480
:1047BC006B461E4E1B7900273370164B1B7873709B
:1047CC00DB43B370FFF7C6FE3300020A83331A7063
:1047DC00330084331870F05D0137FDF748FC852FEA
:1047EC00F9D1FA208000FDF74BFC2800FFF7D4FE2E
:1047FC00002802D02B78062B06D0013CE4B2002C0A
:10480C00D6D10B4AC121A3E7024B024A1B780133D4
:10481C001370A6E763140020102700002AC70008B5
:10482C00ADC60008E11300204EC70008DE130020BF
:10483C00D2C6000837B56B468025D91D0870054CCB
:10484C0005482D01A562032301220068FEF76AFDCD
:10485C00A56137BD000400506414002010B5041D80
:10486C001020E4B223091843FFF7E4FF0F20204087
:10487C00FFF7E0FF10BDB02310B51843FFF7DAFFC8
:10488C0010BD000010B50A000100034803230068A6
:10489C00FEF748FD10BDC0466414002010B5A0B052
:1048AC0080220021684603F084FC00242000FFF7DE
:1048BC00E2FF01340020FFF7D1FFE4B2802168460B
:1048CC00FFF7E0FF082CF1D120B010BD224B10B542
:1048DC0018600120FEF718F83220FEF715F80120B9
:1048EC00FEF712F8A220FFF7A5FFA120FFF7A2FF09
:1048FC00C020FFF79FFF2420FFF79CFF8120FFF7CC
:10490C0099FF2820FFF796FF2C20FFF793FF5420E8
:10491C00FDF7FAFF2E20FFF78DFF2A20FDF7F4FF9D
:10492C002F20FFF787FF5420FDF7EEFFF820FFF74D
:10493C0081FFAF20FFF77EFF4020FFF77BFFA42015
:10494C00FFF778FFA620FFF775FFFFF7A7FFAF2053
:10495C00FFF770FF10BDC0466414002007B5030CB0
:10496C0001A90B708870030A03484B7003220023C3
:10497C000068FEF7D7FC07BD6C140020062307B5B2
:10498C00044801A90B700122033B0068FEF7CAFC26
:10499C0007BDC0466C1400200122024B1A70024B5A
:1049AC0018607047681400206C140020AB2307B506
:1049BC00044801A90B700122A83B0068FEF7B2FC69
:1049CC0007BDC0466C140020052337B5084D01AC5B
:1049DC002370043B28681A002100FEF7A3FC28680A
:1049EC00022301222100FEF7E9FC20783EBDC046DF
:1049FC006C14002070B5064D2C78002C06D1FFF7F6
:104A0C00E3FF0123184201D11C002B70200070BD64
:104A1C0068140020114BF7B506000D0017009942E1
:104A2C0005D90F4A8C210F4800F01CFFFEE7FFF759
:104A3C00E1FF0028FBD0032301A90B4C0B70023BB8
:104A4C001A002068FEF76EFC2800FFF787FF3A007B
:104A5C00310002232068FEF7B1FCF7BDFFFF070011
:104A6C009CC7000876C700086C140020802210B583
:104A7C0009025200FFF7CEFF10BD10B59BB2090220
:104A8C0089181A00FFF7C6FF10BD0000F0B50C0026
:104A9C00170085B000900193FFF7ACFF0028FBD006
:104AAC00FFF76CFF012302260A4D03A91A002868A0
:104ABC000E70FEF737FC2002C019FFF74FFF3300D2
:104ACC00019A00992868FEF72DFC0022024B1A70FF
:104ADC0005B0F0BD6C1400206814002037B505003B
:104AEC000C00FFF787FF0028FBD0FFF747FF012DD5
:104AFC0022D0002D08D0022D23D08421134A490046
:104B0C00134800F0AFFE37BD202201AB1A7024030E
:104B1C000123104D1A0001A92868FEF703FC2000A0
:104B2C00FFF71CFF0022022311002868FEF7FAFB96
:104B3C000022094B1A70E6E7522201AB1A70E4030B
:104B4C00E6E7D82201AB1A702404E1E77FC700081E
:104B5C0076C700086C140020681400209F2337B51A
:104B6C00050001A9064C0B709E3B1A002068FEF74D
:104B7C00D9FB2900022303222068FEF71FFC37BD56
:104B8C006C1400201FB5002302A90870054800937F
:104B9C0003AC013322000068FEF75CFC207804B003
:104BAC0010BDC0467814002010B5FF20FFF7EAFFB7
:104BBC0010BD70B504004518FFF7F6FF20700134E6
:104BCC00AC42F9D170BD0000002210B5044802239C
:104BDC0011000068FEF7A6FBFFF7E6FF10BDC0460C
:104BEC007814002010B50A4CFFF7DEFFFF280DD01B
:104BFC00013C6420A4B2FDF779FE002CF4D10548E9
:104C0C00054ABA2100F02EFE200010BD0120FCE761
:104C1C0088130000B8C700088FCA000843B270B5EB
:104C2C0005000E00002B12DA00213720FFF7F6FFEB
:104C3C000123020004009A4307D00300CD21214A2E
:104C4C00214800F00FFE200070BD7F231D40FFF7B0
:104C5C00BBFF00221D48012311000068FEF762FB18
:104C6C00FFF7C0FFFF240028EDD040202843FFF7BA
:104C7C0089FF300EFFF786FF300CC0B2FFF782FFC2
:104C8C00300AC0B2FFF77EFFF0B2FFF77BFF002DBA
:104C9C0004D0082D14D0FFF787FF02E09520FFF712
:104CAC0071FF0825FFF780FF04000306CBD5013DFB
:104CBC00EDB2002DF6D10C210300054AFF31BFE700
:104CCC008720ECE740CA0008B8C700087814002019
:104CDC005BCA0008F8B5FA2406000F00A400FFF721
:104CEC0063FF0500FF280ED1013C6420A4B2FDF740
:104CFC00FDFD002CF3D12C21074AFF31074800F0B1
:104D0C00B1FD2800F8BD39003000FFF752FFFFF766
:104D1C004BFFFFF749FFF4E71FCA0008B8C70008AC
:104D2C00014B18607047C04678140020F8B500237A
:104D3C005D4A5E4F5E4813703C68FEF715FC01003F
:104D4C002000FEF7D9FBFA208000FDF7CFFD0A24E6
:104D5C00013CE4B2FFF728FF002CF9D164340021A8
:104D6C000800FFF75BFF0300012800D173E0013C52
:104D7C00E4B2002CF3D14F4A88210AE0A2214E4A1A
:104D8C00FF314E4800F06EFDEB78AA2B05D0A62122
:104D9C004B4AFF31494800F065FDFFF715FF002035
:104DAC00F8BDFA24A4008021A920C905FFF736FF1D
:104DBC00002821D101003A20FFF730FF031E17D144
:104DCC0004212800FFF7F5FE2B785B060ED5032394
:104DDC00354A3C4813703C68FEF7C6FB01002000C6
:104DEC00FEF78AFBFFF7F0FE0120D9E70223EFE77D
:104DFC00EB21354A4900CDE7FA20013C8000A4B2F2
:104E0C00FDF774FD002CCED1F121304A49002B481E
:104E1C0000F028FDC1E700213B20FFF7FFFE030057
:104E2C00012802D02A4AF821E4E7FA24A40026003B
:104E3C000021A920FFF7F2FE051E2AD0013C30000C
:104E4C00A4B2FDF753FD002CF2D12B00214A2249CC
:104E5C00A0E70123BCE7D52108204900FFF7DEFEBF
:104E6C000128D8D11D4D04212800FFF7A2FEAB78F4
:104E7C00012B00D082E7EB78AA2B00D084E700212D
:104E8C003B20FFF7CBFE030001288AD0104AB0214B
:104E9C007FE7802110208900FFF7C0FE031ED8D0C9
:104EAC000F4A104976E7C046701400207814002091
:104EBC00801A060087C90008BAC80008B8C70008DD
:104ECC00E1C8000840787D0133C90008B9C9000861
:104EDC0009C90008E5C90008090200007114002086
:104EEC005DC900081202000070B5002105000A20FF
:104EFC00FFF794FE00280AD08B210300094A890091
:104F0C00094800F0AFFCFFF75FFE002070BD1021D8
:104F1C002800FFF7DFFEFE28F5D1FFF755FE012034
:104F2C00F4E7C04667C80008B8C7000870B5002190
:104F3C0005000920FFF772FE00280AD09221030019
:104F4C00094A8900094800F08DFCFFF73DFE00205E
:104F5C0070BD10212800FFF7BDFEFE28F5D1FFF72C
:104F6C0033FE0120F4E7C04691C80008B8C700081A
:104F7C0070B5002105000D20FFF750FE040003065C
:104F8C000AD599210300094A0948890000F06AFCF6
:104F9C00FFF71AFE002070BDFFF706FE2402201852
:104FAC002880FFF711FE0120F5E7C046BEC70008B8
:104FBC00B8C700083F2203780100934319D18079C8
:104FCC00CB7980079B00000DC0180B7A4A799B099E
:104FDC00C318887A1207497AC009120F1218890768
:104FEC000232490F5218D2B20133093A93401800D9
:104FFC0070470020402BFBD1CB79487A9B060130BF
:10500C009B0A1B18087A000218180002F0E700002F
:10501C00144B70B51B780500002B05D1124A1349AF
:10502C00134800F01FFCFEE7032B00D049021120AF
:10503C00FFF7F4FD002809D003000E4A0E490C4876
:10504C0000F010FCFFF7C0FD002070BD802128008F
:10505C008900FFF73FFEFE28F4D1FFF7B5FD0120D4
:10506C00F3E7C04670140020E8C70008B202000045
:10507C00B8C7000813C80008C1020000F8B51F4BE0
:10508C0006001B781500002B05D11D4A1D491E4832
:10509C0000F0E8FBFEE7002A04D0012A04D1FFF758
:1050AC00B7FF05002800F8BD032B00D049021220E1
:1050BC00FFF7B4FD041E16D18027BF003900300065
:1050CC00FFF708FEFE2806D1802301349B00E4B2D2
:1050DC00F618A542F2D100210C20FFF79FFD250008
:1050EC00FFF772FDDEE7BE210300084A890006487F
:1050FC0000F0B8FB0025FFF767FDD3E77014002024
:10510C00E8C70008D9020000B8C700083DC800086D
:10511C00204B70B51B780400002B05D11E4A1F498B
:10512C001F4800F09FFBFEE7032B00D0490218201C
:10513C00FFF774FD031E09D0C9211A4A89001848CB
:10514C0000F090FBFFF740FD002070BDFFF74AFD1B
:10515C00FF23002812D0FE20FFF714FD80239B00B4
:10516C00E51820780134FFF70DFDAC42F9D1FFF7BB
:10517C001BFDFFF719FDFFF717FD03001F221A4057
:10518C00052A02D0084A0949D9E7FFF71DFD01207D
:10519C00DBE7C04670140020E8C7000815030000C8
:1051AC00B8C70008B9CA0008E3CA00082F030000FA
:1051BC00364BF7B51B7805001400002B06D1D02117
:1051CC00334A8900334800F04DFBFEE7002A04D037
:1051DC00012A04D1FFF79CFF04002000FEBD032B25
:1051EC0000D049021920FFF719FD002809D003004F
:1051FC00294A2A49274800F035FB0024FFF7E4FC34
:10520C00EBE721009720FFF709FD071E03D00300F1
:10521C00234A2449EEE7FFF7E5FCFF23002815D0CD
:10522C00FC20FFF7AFFC80232E009B00EB180193B2
:10523C003078FFF7A7FC019B0136B342F8D1FFF79A
:10524C00B3FCFFF7B1FCFFF7AFFC03001F221A40C1
:10525C00052A0CD0144A15490E4800F003FB002116
:10526C000C20FFF7DBFC3C00FFF7AEFCB5E780231E
:10527C0001379B00FFB2ED18BC42CCD1FFF7B2FC5A
:10528C00FD20FFF77FFCFFF79FFCA6E770140020C2
:10529C00E8C70008B8C7000800CB00085F0300008F
:1052AC002ACB00086A030000E3CA00087703000059
:1052BC0010B50024E0B2FFF7DEFA0020FFF7CEFABB
:1052CC00044BE001C01880210134FFF7DBFA082CF5
:1052DC00F0D110BD7C140020802210B5D20000212A
:1052EC00014802F066FF10BD7C14002010B5FFF7DA
:1052FC00F3FF10BD43B210B5002B08DB3F2906D8D5
:10530C00CB08012A0FD0002A02D0022A15D010BDDA
:10531C000F4ADB01D31807221140063A8A40195C68
:10532C000A431A54F3E70A4CDB01E3180724214023
:10533C008A40195C91431954E9E7054ADB01D318FB
:10534C0007221140063A8A40195C4A40E9E7C046F8
:10535C007C140020F8B504000E001F001218D5B202
:10536C00AC4200D1F8BD20003A0031000134FFF707
:10537C00C1FFE4B2F4E7F8B506000C001F005218A8
:10538C00D5B2AC4200D1F8BD21003A003000013456
:10539C00FFF7B0FFE4B2F4E7F0B587B01D000CAB3B
:1053AC001B7807000C001600049390420DD1A94203
:1053BC0001D92C000D0001352A1BD2B2049B21000F
:1053CC003800FFF7D8FF07B0F0BDA9420CD19042CE
:1053DC0001D9170006000136F21BD2B2049B210042
:1053EC003800FFF7B7FFEEE7831ADBB20293904267
:1053FC0002D2131ADBB20293631BDBB20193AC42F1
:10540C0002D22B1BDBB201930123019A0593029B61
:10541C0093420BD31300029A02932B0035001E000B
:10542C0023003C001F00002301920593AC4205D9D8
:10543C003B0037001E0023002C001D00019B009731
:10544C005B08DBB20393A542BDD3059B049A002BEA
:10545C0018D021000098FFF74DFF039B029A9B1A6E
:10546C009BB21AB20392002A09DA009AB7420CD204
:10547C000132D2B20092019A9B181BB203930134F1
:10548C00E4B2E0E700992000E5E7013AF1E7F7B56F
:10549C000E0004001500019308AB1F783B00FFF7CA
:1054AC0059FF019B2A00591E71183B002000C9B2FC
:1054BC00FFF750FF3B003100019A2000FFF75BFF24
:1054CC00681E20183B003100C0B2019AFFF753FF51
:1054DC00F7BDF7B505000C0016005B1808AADBB287
:1054EC0017780193019B9C4200D1F7BD21003B0032
:1054FC00320028000134FFF72DFFE4B2F2E7F0B5DB
:10550C0015001C0093B20122D21A5B0089B05B42D9
:10551C0001911BB2691802920793C9B22BB22200F7
:10552C0000900493FFF7E6FE009B2200E818C0B23F
:10553C000199FFF7DFFE019B2200591BC9B20098AD
:10554C00FFF7D8FE009B2200581BC0B20199FFF751
:10555C00D1FE0023049A934201DB09B0F0BD029AFC
:10556C00002A0CDB049A013A12B20492079A023216
:10557C0092B211B207910299521812B202920133EF
:10558C009BB2029A06935B0001339B181BB20293E9
:10559C006B461B7E0593059A009B9F186B46019AE0
:1055AC001B7CFFB29E18F6B2310038002200039328
:1055BC00FFF7A0FE009B059A31009D1AEDB2280062
:1055CC002200FFF797FE019B039A38009E1AF6B251
:1055DC0031002200FFF78EFE310028002200FFF779
:1055EC0089FE039B009A9F18019B059AFFB29E1897
:1055FC00F6B2310022003800FFF77CFE009B039AC4
:10560C0031009D1AEDB222002800FFF773FE019BBA
:10561C00059A38009E1AF6B222003100FFF76AFE96
:10562C00220031002800FFF765FE6B4618229B5EB6
:10563C0090E7F0B507000D0085B002920AAA127827
:10564C005B18DBB203920093009BAB4223D0029B0E
:10565C003E00DB19DBB20193802410E00B9B1B781E
:10566C00234204D0039A29003000FFF743FE64085C
:10567C0003D10B9B803401330B930136F6B2019BA3
:10568C009E42EBD1803C631E9C410B9B01351B1948
:10569C000B93EDB2D8E705B0F0BDF7B50D001100D6
:1056AC001E0008AB1F7844682278002A00D1F7BD91
:1056BC004378BA4202D00133E418F5E7013402789A
:1056CC00019400962800FFF7B4FFF0E7F7B5060049
:1056DC000D0014001F00089B1B78002B00D1F7BD98
:1056EC00089A0093013208923B00290022003000F6
:1056FC00FFF7D3FF33780133ED18EDB2EBE700235E
:10570C0001608280C3800381704730B5C488020079
:10571C00631C80889BB28342804115890340002022
:10572C009D4203D0106801550120D38030BDF0B5E7
:10573C000024A7B2A24201D13800F0BDC6888588EA
:10574C00731C9BB2AB42AD412B4005899D42F3D0FB
:10575C000D5D07680134BD55C380EAE710B50389B8
:10576C00C488020000209C420BD01068C35C01204E
:10577C000B701389918801339BB28B4289410B408A
:10578C00138110BD70B50024A5B2A24201D128002E
:10579C0070BD0389C6889E42F9D00568EB5C0B5539
:1057AC000389858801339BB2AB42AD412B40038109
:1057BC000134E9E710B504002078002800D110BDB1
:1057CC000134FAF757FDF7E710B5074C02000B0050
:1057DC002000402103F058F8230000223F33200022
:1057EC001A70FFF7E7FF10BD7C1800200FB407B547
:1057FC0004A901C90191FFF7E7FF03B008BC04B08D
:10580C001847000070B50D00160004281DD141305A
:10581C00FAF730FD2020FAF72DFDFDF7DFFE0E4CD8
:10582C000E490200200002F011FE230000223F333B
:10583C0020001A70FFF7BEFF2020FAF71BFD320084
:10584C0029000748FFF7D2FF70BD022801D155305F
:10585C00DEE74920DCE7C0467C180020FDCF0008BD
:10586C0003D000080CB437B506AC20CC0A000100FC
:10587C000420FFF7C7FF280021000194FFF7A4FFC5
:10588C000A20FAF7F7FC37BC08BC02B01847000036
:10589C0010B5632805D90C4A90210C48FFF7E2FF9C
:1058AC00FEE74B1E0B2B05D9094A91210748FFF740
:1058BC00D9FFFEE7074B5B5C022903D1820701D1BC
:1058CC000133DBB258B210BD15D000080CD0000863
:1058DC0020D000083ED0000870B5050000780024E8
:1058EC00632815D869784B1E0B2B11D8AE78A642BD
:1058FC000ED0FFF7CDFF86420ADCEB78172B07D8CA
:10590C002B793B2B04D83B226B799A426441E4B24D
:10591C00200070BD1FB544798378427801780294D9
:10592C0004790194C0780090014802F04BFC1FBD33
:10593C004BD0000810B581600400FDF74FFE012329
:10594C006060237010BD037870B50400002B02D189
:10595C000025280070BD0125022BFAD0FDF73EFE74
:10596C006368C01AA3689842F2D302232370F0E74D
:10597C001FB5010001A8FFF7DDFF01A8FFF7E3FF4A
:10598C000028FAD005B000BD8022104B52001968D7
:10599C000A431A60DA680E490A40DA601A680D493F
:1059AC000A4001211A609A688A439A601A680A4967
:1059BC000A401A60DA6809490A40DA6000221A6162
:1059CC008022074B12059A607047C04600100240B7
:1059DC000C40FF88F6FFF6FEFFFFFBFFFFFF02FF08
:1059EC0000ED00E0024A1368013313607047C046B3
:1059FC000022002030B5FF2503242A00C3B21C402E
:105A0C00E400A24089012940D243A14000280BDACE
:105A1C000F200340083B0A489B089B001B18D869C1
:105A2C0002401143D96130BD064B80088000C0187C
:105A3C00C0239B00C45822401143C150F3E7C04619
:105A4C0000ED00E000E100E01F2318401E3B834006
:105A5C00014A13607047C04600E100E070B50400D5
:105A6C000125002837D0EA25FF35435DDBB2002B3A
:105A7C0004D1F42252008354FCF7F4FB03230022DC
:105A8C00635523001100012660682833904224D10D
:105A9C000021230008000933FF338A4226D100225B
:105AAC0001202368991C9E1D5033C887CA87F28732
:105ABC001A80134BCB87631DDA77E36960558342F9
:105ACC0002D1200000F043FF236A0025012B02D1F4
