:020000040800F2
:1020000000500020C9A6000819A7000819A7000859
:1020100000000000000000000000000000000000C0
:1020200000000000000000000000000019A70008E8
:10203000000000000000000019A70008855A0008F1
:1020400019A7000819A7000819A7000819A7000870
:1020500019A7000819A7000819A7000819A7000860
:1020600019A7000819A7000819A7000819A7000850
:1020700019A7000819A70008695B000819A700083C
:1020800019A7000819A700087D44000800000000F7
:1020900019A7000819A7000819A7000819A7000820
:1020A00019A7000819A7000819A70008495B00082C
:1020B000595B000819A70008000000001943000838
:0C20C000F8B5C046F8BC08BC9E4670474E
:1020CC0010B5064C2378002B07D1054B002B02D002
:1020DC00044800E000BF0123237010BD380300202A
:1020EC0000000000F4C80008044B10B5002B03D00E
:1020FC000349044800E000BF10BDC04600000000CA
:10210C003C030020F4C8000870B586B000240125FB
:10211C0002F0A6FB03F0BAFC03F0B6F903F026FDBF
:10212C0003F0CCFA02F012FF02F070FD02F012FE86
:10213C00E12208232900520201950094434803F040
:10214C006FFD03F011FF02F0E9F83C222900404832
:10215C0002F008FF29003F4802F064FD29003E48C8
:10216C0002F004FE3D4803F073FCFF223C4E0300DA
:10217C00290002920194FD3A0094300003F0B4FA65
:10218C00300005F063F8374803F062FC0322364E4A
:10219C0003000092022102940194300003F0A4FA8F
:1021AC00300004F029FE314803F052FC304E02217D
:1021BC0004220300029401940094300003F094FA7A
:1021CC00300004F07FFE04F087FEFA20294B00015A
:1021DC009D6102F0D1FC642002F0C0FC02F006FD0F
:1021EC008022254B52019A6205F020FB402080266C
:1021FC00224D6B782A78C01AB61AC10F0918F00F45
:10220C006D68801949104010C0B2C9B20094019594
:10221C0005F0AFFC05F0ECFA194C200004F002F8C4
:10222C00184B1A78002A04D0002220001A7003F0F0
:10223C00F9FF17256D44280003F0F2FE002802D0A8
:10224C00287804F025F830BFEAE7C04620190020B2
:10225C00F01800200C190020F818002040787D019F
:10226C00FC180020002D3101281B0020408AF701AA
:10227C0010190020001C0050000400504C000020DD
:10228C0000C90008241900200122014B1A70704764
:10229C002419002010B504000A2802D10D20FFF7E4
:1022AC00F9FF2100014803F0F9FD10BD20190020B1
:1022BC00BFF34F8F034B044ADA60BFF34F8FC04616
:1022CC00FDE7C04600ED00E00400FA05002170B502
:1022DC001A4A0500080004F0C5FA194B002818D05A
:1022EC00184B1C88012D09D8FA25AD00002C0FD0F5
:1022FC002800013C02F024FCA4B2F7E712490120AB
:10230C0004F04CFA002806D1FA25AD00002C0FD1B0
:10231C000023180070BD0D4B0128FAD1FA25AD0031
:10232C00002CF5D02800013C02F018FCA4B2F7E711
:10233C002800013C02F004FCA4B2E7E7FFFF000018
:10234C0018CB0008D822002031CA00083ACB00086C
:10235C00002170B5104A0600080004F083FA0F4BF8
:10236C00002814D00E4C2588012E12D90A4A64215B
:10237C00012004F077FA0B4B002808D0208802F0DB
:10238C00FBFB280002F0EAFB02F030FC00231800F3
:10239C0070BDFA200001F2E71027000050CA0008B7
:1023AC00D822002078CA0008094910B5063100204F
:1023BC0004F0F4F9002803D0012805D0054802E008
:1023CC000122054B9A6110BD034B98620020FAE77D
:1023DC0031CA000818CC0008001C0050F0B50C687D
:1023EC0087B0237806003D4D002B60D0200008F00C
:1023FC0053FC03285BD801284CD100210322080090
:10240C0004F0FCF9364D002851D0364B0E241B78C5
:10241C00022B05D0073C032B02D00834012B49D1E9
:10242C00012E49D9304A0021012004F01BFA2F4D0E
:10243C0000283CD02B4B1D88FA21890008006843EA
:10244C00F530FF3008F082F9294F0100380005F013
:10245C002FFD00262100274802F044FC0190019B2F
:10246C00254826495843264BC01808F06FF90290AE
:10247C00002D06D0731C31002248039308F028FA73
:10248C00039E029A0199204808F022FA002D1BD1D4
:10249C0000250CE0601C002205A908F03BFD059B03
:1024AC001A4D1B78002B02D1C4B21228B8D92800BF
:1024BC0007B0F0BD0824B3E70025BDE78022144B1C
:1024CC0092001B691342E3D0380005F0FAFC002897
:1024DC00F4D0380005F00AFDBCE7C04607CE000872
:1024EC00ECCD0008D822002060EA000038CE0008AD
:1024FC00540300200C190020E40C0000FF0F000016
:10250C00FF07000063CE000868CE0008C5CD0008A8
:10251C0000080050F7B5002847D00021274A0800D2
:10252C0004F0A0F9264B002846D0264B1C88FA2133
:10253C00890008006043F530FF3008F007F9224DA0
:10254C000100280005F0B4FC002680231F4F012059
:10255C00BB6102F003FB09211D4802F0C3FB030021
:10256C0080221C48BA6258431B4B1C49C01808F007
:10257C00EDF801970090002C05D03100771C18481D
:10258C0008F0A6F93E006B461648198808F0A0F929
:10259C00002C10D08027BF00280005F092FC0028EA
:1025AC0005D0280005F0A2FCCFE70400BFE7019B93
:1025BC001B693B42F0D100231800FEBD60EA00000D
:1025CC0038CE0008D8220020540300200008005008
:1025DC000C190020C8190000FF070000FF0F0000B5
:1025EC0063CE00086DCE0008002110B5074A080024
:1025FC0004F038F9064B002806D0064B00211A8847
:10260C00054802F0E7FB0023180010BDFF0F000087
:10261C00C5CE0008D8220020F8180020F0B589B0EB
:10262C0005930EAB1B78170003930FAB1B780F248D
:10263C00029311AB1B8820260693130C92B20092C6
:10264C000A0001001A4808F043F901231A00029904
:10265C0007938A40013A0492039AA51A4D43039BAF
:10266C00A34219DC059BA34216DB069B079A234168
:10267C002E20134205D03B00EB40049A1340109AD5
:10268C00D05C08F03FF9300008F03CF9A30705D006
:10269C00029B013CED1AE2E73000F2E7300008F053
:1026AC0031F9002CF4D10A2008F02CF909B0F0BD56
:1026BC00BDD30008F0B5364B85B0170002260A686A
:1026CC00029300230D000196009303970F333149B9
:1026DC000400FFF7A3FF304B0121029300236A682B
:1026EC0001910093200003970F332C49FFF796FFBD
:1026FC002B4BAA68029300230196009320000397AA
:10270C000F332849FFF78AFF274BEA68029300230F
:10271C0001960093200003970F332449FFF77EFFA7
:10272C0001210023224E2A69029601910093200078
:10273C0003970F331F49FFF771FF012100236A69CB
:10274C00029601910093200003970F331A49FFF76B
:10275C0065FF0426002319492A6A02910093200080
:10276C000397019607331649FFF758FF134B6A6A14
:10277C000293082313490093200007330397019613
:10278C00FFF74CFF0A2008F0BDF805B0F0BDC046BD
:10279C00A0D2000898D20008ADD20008A5D200083B
:1027AC00B8D20008B0D20008C5D20008BDD20008CB
:1027BC00D2D20008CAD20008D5D20008E5D200084F
:1027CC00DDD20008F6D20008F8B52C4C60792668EA
:1027DC002779032827D807F0A5FF021B1D222848BC
:1027EC0008F076F8237A012B1FD0022B21D001257B
:1027FC006379BD40002B1ED133692B4031209D42A3
:10280C0000D0302008F07EF80A2008F07BF809E0B0
:10281C001C48E5E7A17A1C4808F05AF8E2E71B4887
:10282C0008F0E4F8F8BD1A48FAE71A4808F050F82E
:10283C00DDE71948FAE7A379002B0BD0012B0DD05B
:10284C00164808F045F8E07903280CD807F06AFF21
:10285C0008101214124808F03BF8F1E71148FAE797
:10286C00114808F035F86379012BCDD17369C4E7B1
:10287C000E48F6E70E48F4E70E48F2E76003002036
:10288C00FED2000805D300080DD3000813D30008AE
:10289C001AD300082ED3000837D3000857D30008EA
:1028AC0040D300084BD300085ED3000863D3000864
:1028BC006FD300086BD30008F7B506000F001400A7
:1028CC000193019BE5B29D4203D90A2008F01AF846
:1028DC00F7BD22003100064807F0FAFF2A00390044
:1028EC00044802F0ABFA0134FFF76EFFE9E7C0468B
:1028FC0075D3000860030020F7B50F7804000E00B4
:10290C00284D002F3DD0080008F0C6F9032838D810
:10291C00012819D138003038234D062831D807F05A
:10292C0001FF3C04080A0C0F11000522A021C90567
:10293C0022E00122FAE70022F8E703221B491BE000
:10294C000222FBE70122F9E70022701C01A908F022
:10295C00E1FA019B02001B78154D002B11D10F28B9
:10296C000FD830786138072819D807F0D1FEDF046A
:10297C00E70C181818110F49D2B2200002F05EFAB9
:10298C0000252800FEBD0C4D022AFAD10B49F3E7B5
:10299C000B4D012AF5D80B49EEE70622C6E70A4D86
:1029AC00EFE7C04627D200089BD100080008005072
:1029BC00D8D10008000400507CD20008000C005054
:1029CC00B7D10008001C005077D1000870B50A4D33
:1029DC0009682800FFF790FF041E0BD101232A7908
:1029EC00064893402A6812691A40934200D1044861
:1029FC0007F0FCFF200070BD60030020F8EC00081D
:102A0C00D0CF000870B50E4C0D0020000968FFF700
:102A1C0073FF00280CD16B681B78302B03D0312B43
:102A2C0007D0084804E0012322799340226893627E
:102A3C0070BD01232279934022689361F8E7C04668
:102A4C0060030020B6CF000870B5124C0600096870
:102A5C002000FFF751FF051E16D1012E18D90E4983
:102A6C00022003F09BFE002803D001280ED00B4D52
:102A7C000AE001232372002320006371A371E37128
:102A8C006372A37202F01DFA280070BD0223F1E7F5
:102A9C002072F0E76003002000CF000807CF000889
:102AAC00F8B51E4C07000E0020000968FFF724FF44
:102ABC00051E1FD173681B78302B03D0312B1BD014
:102ACC00174D17E06072022F19D91649B06808F03B
:102ADC00D9F800281FD10123A371032F12D1002391
:102AEC002372012363710233E37100232000A3726C
:102AFC0002F0E7F92800F8BD01236372E3E7002335
:102B0C00A371ECE70849F06808F0BCF80123002831
:102B1C00E6D0064DEEE7064DECE7C046600300201C
:102B2C00B6CF000867CF00086ACF000847CF00086F
:102B3C0027CF000870B50D682949280008F0A2F8C5
:102B4C00041E20D1A02102000F23C9056120FFF72C
:102B5C00B3FE0F23220023496220FFF7ADFE0F23A3
:102B6C00220021496320FFF7A7FE02231F491A0008
:102B7C006420FFF7A1FE012322001D496820FFF706
:102B8C009BFE200070BD1B49280008F07BF8041E3A
:102B9C001DD1194807F02AFFA021184AC905412068
:102BAC00FFF788FD154A0F494220FFF783FD134AB2
:102BBC000D494320FFF77EFD02220C494420FFF70C
:102BCC0079FD03220A494820FFF774FDD9E7290053
:102BDC000B48FFF791FE041ED3D1FFF7F5FDD0E7AC
:102BEC006DCF00080004005000080050000C00508D
:102BFC00001C005071CF000876CF0008FFFF0000CA
:102C0C006003002010B5032449434C43514303682F
:102C1C00A3430B43036010BD7FB500217F22080046
:102C2C0003F0ECFD164B002827D00121154C102287
:102C3C000800267803F0E2FD134B00281DD0257800
:102C4C00124C3100200002F001FC03232A006946DB
:102C5C00200002F0E3FA0E4B00280ED0002405E011
:102C6C006B460C48195D07F033FE0134E3B2AB42FE
:102C7C00F6D30A2007F046FE0023180004B070BDFE
:102C8C0010D40008D8220020E4D30008F01800204B
:102C9C0009D400082ED400080021F0B57F2285B09D
:102CAC000600080003F0AAFD174D002822D00124CD
:102CBC00164F3B780193E0B2864210D8144C019920
:102CCC002000013E02F0C2FBF2B2032302A9200055
:102CDC0002F086F90025A8420CD10E4D0AE0FF2225
:102CEC00002103F08BFD631C051E06D121000A4850
:102CFC0007F0EEFD280005B0F0BD04AA14193A78CF
:102D0C00093C22701C00D6E710D40008D822002001
:102D1C00F018002009D40008BCD40008802110B59C
:102D2C00064C022220004900FFF76CFF0222802192
:102D3C0020009140FFF766FF10BDC0460004005014
:102D4C000122802110B5064C91402000FFF75AFF5C
:102D5C008021012289002000FFF754FF10BDC046DE
:102D6C000004005037B51B4CFFF7EAFF2269D3056E
:102D7C0002D4194807F03AFE23699B0502D4174880
:102D8C0007F034FEFFF7CAFF0024E1B2802C01D11A
:102D9C0000203EBD124D280002F058FB00220323F8
:102DAC001100280002F01CF9002803D021000D4866
:102DBC0007F08EFD6946032301220731280002F03B
:102DCC002DFA002803D02100074807F081FD0134BB
:102DDC00DBE7C046000400506FD400087FD4000825
:102DEC00F0180020ACD40008B4D4000810B5134C73
:102DFC00FFF7A6FF124807F06BFD23691148DB05AE
:102E0C0000D5114807F0F2FD104807F061FD236969
:102E1C000C489B0500D50C4807F0E8FD2369DB0541
:102E2C0002D40B4807F0E2FD23699B0502D4094844
:102E3C0007F0DCFDFFF772FF002010BD000400500E
:102E4C00D6D30008F8EC0008D0CF0008DDD300087A
:102E5C006FD400087FD40008F8B580260E4DFFF71C
:102E6C006FFF2B697600334212D0FA270824BF007B
:102E7C003800AE62013C01F063FEE4B2AE61380092
:102E8C0001F05EFE002CF3D1FFF748FF2000F8BDE7
:102E9C00FFF744FF0148FAE70004005034D400085F
:102EAC00F0B50D00002185B007007F22080003F06B
:102EBC00A5FC002806D17F21164807F009FD00204B
:102ECC0005B0F0BD144E3F2233780021012003934E
:102EDC0003F094FC002802D13F211048EDE7032FAA
:102EEC0015D9EB681B78312B11D0692B04D00C4809
:102EFC00302BE5D1012300E00223A9683278094880
:102F0C000091039904F082FE04F072FCD7E70023D1
:102F1C00F3E7C04652D70008D82200206ED700082D
:102F2C0020D7000844000020F7B50E000021070050
:102F3C007F22080003F062FC002805D17F211B488A
:102F4C0007F0C6FC0020FEBD194D3F222B78002156
:102F5C000120009303F052FC002802D13F211548B8
:102F6C00EEE72B78802201210220019303F046FC2E
:102F7C00002802D180211048E2E7032F13D9F3680F
:102F8C001B78312B0FD0692B04D00C48302BDAD1A5
:102F9C00012300E002232A780199009804F04FFDE8
:102FAC0004F026FCCEE70023F5E7C04652D7000814
:102FBC00D82200206ED7000874D6000820D700084D
:102FCC00F0B50E00002187B007007F22080003F047
:102FDC0015FC041E06D17F21224807F079FC200045
:102FEC0007B0F0BD204D3F222B7800210120039328
:102FFC0003F004FC041E02D13F211C48EDE72B78A2
:10300C00802201210220049303F0F8FB041E02D15C
:10301C0080211748E1E72B784022012103200593FA
:10302C0003F0ECFB041E02D140211248D5E7042F1B
:10303C0016D933691B78312B12D0692B04D00E4C66
:10304C00302BCCD1012200E002222B780499009283
:10305C000398059A04F0DDFC002404F0C9FBBEE7DC
:10306C000022F2E752D70008D82200206ED70008C1
:10307C0074D6000890D6000820D70008F0B50E00D2
:10308C00002187B007007F22080003F0B7FB041E65
:10309C0006D17F21224807F01BFC200007B0F0BDB1
:1030AC00204D3F222B7800210120039303F0A6FB37
:1030BC00041E02D13F211C48EDE72B788022012110
:1030CC000220049303F09AFB041E02D180211748BE
:1030DC00E1E72B78402201210320059303F08EFBBE
:1030EC00041E02D140211248D5E7042F16D93369AA
:1030FC001B78312B12D0692B04D00E4C302BCCD139
:10310C00012200E002222B78049900920398059A80
:10311C0004F05DFC002404F06BFBBEE70022F2E738
:10312C0052D70008D82200206ED7000874D60008A9
:10313C0090D6000820D70008F0B50E00002187B00B
:10314C0007007F22080003F059FB041E06D17F21E3
:10315C00224807F0BDFB200007B0F0BD204D3F22F8
:10316C002B7800210120039303F048FB041E02D1AD
:10317C003F211C48EDE72B787F220021022004938D
:10318C0003F03CFB041E02D17F211748E1E72B78AA
:10319C003F2200210320059303F030FB041E02D1D3
:1031AC003F211248D5E7042F16D933691B78312BF0
:1031BC0012D0692B04D00E4C302BCCD1012200E064
:1031CC0002222B78049900920398059A04F084FB50
:1031DC00002404F00DFBBEE70022F2E7ACD6000899
:1031EC00D8220020C9D60008E6D6000803D700086C
:1031FC0020D7000810B504F00FFB04F0F9FA0020FA
:10320C0010BD0000F7B50E00002107007F2208005A
:10321C0003F0F4FA002805D17F21144807F058FB7D
:10322C000020FEBD124D3F222B780021012001937E
:10323C0003F0E4FA002802D13F210E48EEE7022FFA
:10324C0012D9B3681B78312B0ED0692B04D00A48E5
:10325C00302BE6D1012200E002222978019804F0FB
:10326C00E9FA04F0C5FADBE70022F6E752D70008CA
:10327C00D82200206ED7000820D7000810B50A49C4
:10328C00002003F08BFA002803D0012806D0074851
:10329C0003E08022064B52019A6210BD8022044B3F
:1032AC0052019A610020F8E76CD6000818CC00088F
:1032BC00000400500122F8B5524204000F00012016
:1032CC00002103F003FB002806D101211C484942D0
:1032DC0007F0FEFA0020F8BD3B681A4E1B783568E3
:1032EC006C2B1ED0772B19D01748622BF3D1022CE4
:1032FC00F0D02000FF22002103F080FA3378013C4B
:10330C002B70E4B20135F2E72000104A002103F0E3
:10331C00A9FA3388013C2B80E4B20235022CF3D19C
:10332C00D8E701277F42022CD4D020003A0000219C
:10333C0003F0CCFA3368013C2B60E4B20435F2E7BD
:10334C0041DA0008D8220020F4D90008FFFF000061
:10335C00F7B5012201900E0052420021012003F02A
:10336C00B5FA002806D101211F48494207F0B0FAEE
:10337C000020FEBD1D4D019B2F680124022B08D996
:10338C0010222100022003F039FA031E1848F0D055
:10339C002C7833681B786C2B1AD0772B15D0E4194A
:1033AC00622B07D01348E4E7397813480A0007F07A
:1033BC008FFA0137A742F7D1DAE739880F480A00AC
:1033CC0007F086FA013C0237E4B2002CF5D1CFE7C6
:1033DC003D00002CCCD002CD09480A00013C07F07E
:1033EC0077FAE4B2F5E7C04641DA0008D8220020AB
:1033FC00B2D90008F4D90008D1D90008DCD90008EA
:10340C00E7D900080122002170B55242080003F0F0
:10341C005DFA002806D101210F48494207F058FAFD
:10342C00002070BD802201210C4C920008002668FF
:10343C0003F018FA002803D1802109488900EDE730
:10344C002588084C31002A00200007F02FFA2900AB
:10345C00200003F06FFAE3E741DA0008D8220020DD
:10346C008CD9000825190020F0B50E260C0089B067
:10347C0004AD6E4403AF009533003A001549206843
:10348C0007F08AFB162312226B4400936A4405ABA7
:10349C001149606807F080FB3B8806AC23703388C9
:1034AC00200063702B88A3706B465B8AE3706B46BD
:1034BC009B8A23716B46DB8A637104F0CBFC074B50
:1034CC00002803D0200002F009F80023180009B0EE
:1034DC00F0BDC046DCDB00088DFA0008ACDB000850
:1034EC0007B5684602F070F8684604F0D1FC0A2073
:1034FC0007F008FA00200EBD70B5144B002800D060
:10350C000B68134D1900280007F026F8114A002803
:10351C000BD0100070BD637A002B0DD02000093049
:10352C0007F0D6F90A2007F0EDF90B4C2800210022
:10353C0007F051F80028EED0280007F043F80300FC
:10354C00581E8341054A5B421A40E2E747DE0008F9
:10355C006C03002049DE0008C805002063DE00086B
:10356C000122002110B55242080003F0AFF90028E7
:10357C0006D101210A48494207F0AAF9002010BDE2
:10358C00084B094C1968200003F0E0FF031E0748A4
:10359C00F5D080212000890003F0CCF9EEE7C0467D
:1035AC009DDE0008D8220020251900207EDE0008B0
:1035BC00424BF7B51D698023414E1D407CD103F071
:1035CC004BFE404E002877D03F4C200003F022FFEA
:1035DC003E4E002870D021783D4807F079F9A2784A
:1035EC0061783C4807F074F93B4807F071F96319AE
:1035FC00D878013507F086F9052DF8D10A2007F0A7
:10360C0081F90F22217A35480A40090907F060F93F
:10361C00A37A617A1B020B43E17A314809040B430C
:10362C00217B0906194307F053F9A37B617B1A0927
:10363C0009071B071B0F090E1943FA23DB00C918D6
:10364C00284807F045F9200003F006FF264E002815
:10365C0032D021782548890907F03AF96178244855
:10366C0007F036F9A178234807F032F9E1782248BF
:10367C0007F02EF9617921480907090F07F028F99D
:10368C00200003F035FFC10A1D4807F021F91D4F3A
:10369C00012239001C4806F039FF1C4E051E0BD1C7
:1036AC0001AA2100380006F0BBFF2E00002803D130
:1036BC002100174807F00CF93000FEBD0004005043
:1036CC00BFDC0008DBDC000825190020FFDC00084B
:1036DC0026DD00083DDD00084BDD00085ADD000842
:1036EC006EDD000880DD000870DC000899DD000844
:1036FC00A6DD0008C3DD0008E0DD0008FCDD0008E5
:10370C001CDE000831DE000898030020A2DC000853
:10371C0032DE0008F7B507000C00002C3FD08023E8
:10372C001F4E5B003088221C1B1A9BB29C4200D996
:10373C001A1C93B20093002807D11A4B19880F2337
:10374C00194202D1090903F05FFC6B46154D1B7839
:10375C00327829883800019303F02EFC00210120D7
:10376C003388009AD3189BB233802A880E4EFF2BD5
:10377C000AD8002902D00A492A800B80009BFF1826
:10378C00019BE41AE4B2C8E7013B0132FF3B92B261
:10379C009BB20100B242EAD901492A800B80F7BDE5
:1037AC00E2050020E4050020FF070000F7B5060045
:1037BC000D00002D01D1012033E01A4B2C1C1A886E
:1037CC0080235B009B1A9BB29D4200D91C1C164F98
:1037DC00A4B2E3B23988D2B23000019303F0E3FB18
:1037EC0012483A88078800200E490B88E3189BB2D0
:1037FC000B80FF2B09D8002802D00B800A4B1A80B3
:10380C00019B3619ED1AEDB2D3E7013B0132FF3BB8
:10381C0092B29BB20120BA42EBD900200B80024B32
:10382C001A80FEBDE2050020E4050020E005002022
:10383C0070B5051E2FD000217F22080003F012F86E
:10384C00002805D17F21164807F042F8002070BDF2
:10385C00144E3488022D21D17F220021012003F047
:10386C0001F8002802D17F210F48EDE735882A00A6
:10387C0021000E4807F02CF821000020013403F041
:10388C00C3FBA4B22E2007F03DF8A542F4D20848A1
:10389C0007F0ACF8DAE704007F25E8E72500E6E757
:1038AC008BDF0008D8220020B2DF0008D7DF000829
:1038BC00E8DF000837B501AC200003F0E5FBA37886
:1038CC0062782178284807F003F88021274889007E
:1038DC0006F0FEFF80212648090106F0F9FF802141
:1038EC002448490006F0F4FF8021234806F0F0FF3D
:1038FC00224807F07BF803F0FDFA04000100204891
:10390C0006F0E6FF072121404B1E99411D4806F0A9
:10391C00DFFF062121404B1E99411B4806F0D8FFC2
:10392C000521012521404B1E9941184806F0D0FF76
:10393C00A1082940164806F0CBFF032121404B1E5D
:10394C009941144806F0C4FF61082940124806F05A
:10395C00BFFF21001148294006F0BAFF0021104892
:10396C0006F0B6FF00203EBDEEDF00081AE00008AE
:10397C0028E0000834E0000849E0000856E00008A0
:10398C0066E0000876E0000883E0000890E000089C
:10399C009DE00008AAE00008B7E00008C4E00008B9
:1039AC00D1E000080021F0B51E4A85B007000800E0
:1039BC0002F058FF002806D11A491B4806F088FF70
:1039CC00002005B0F0BD194EFF22338800210120E4
:1039DC00019302F047FF002802D1FF211448EDE7C4
:1039EC0002243588A742EBD9FF220021200002F0E7
:1039FC0005FF002802D121000E48DFE702ABD81DDD
:103A0C003378EAB20135037001990123ADB203F0AA
:103A1C00D3FAFF2D02D9611E0748CFE70134E4B277
:103A2C00E0E7C046FF070000CDE10008D8220020E7
:103A3C00EDE10008BCD400080EE20008002110B52E
:103A4C000B4A080002F00EFF002805D1084909486E
:103A5C0006F03EFF002010BD074C084B20001988D3
:103A6C0003F09AFA80212000490002F063FFF1E78D
:103A7C00FF070000CDE1000825190020D822002006
:103A8C00002170B5114A080002F020FF002805D172
:103A9C000E490F4806F01CFF002070BD01210D4C93
:103AAC00FF220800266802F0DDFE002802D1FF216B
:103ABC000948EFE72588094C310020002A0003F063
:103ACC003FFA2900200002F035FFE5E7FFFF070071
:103ADC00DEE00008D822002001E1000825190020B2
:103AEC0070B50400051E2ED00021184A080002F003
:103AFC00B9FE002805D11549154806F0E9FE00204D
:103B0C0070BD144E3588012C1DD9104A002101209E
:103B1C0002F0A8FE002802D10C490F48EDE73488CA
:103B2C000E4806F063FF80220D4992000B6913408A
:103B3C00FCD10C4A0C4815800C4A14800C4A13809A
:103B4C0003F08AF8DBE7014CEAE7C046FF07000008
:103B5C0027E10008D82200204DE1000871E100089F
:103B6C0000080050E4050020B9370008E0050020EB
:103B7C00E205002010B500281FD00021104A0800D3
:103B8C0002F070FE002805D10D490E4806F0A0FE8B
:103B9C00002010BD0C4B1C880C4806F027FF80221F
:103BAC000B4992000B691340FCD10A4A0A48148055
:103BBC000A4A138002F0DCFFEAE70400ECE7C04697
:103BCC00FF07000027E10008D822002048E2000887
:103BDC0000080050E405002021370008E205002011
:103BEC0070B50500002486B0E0B2AC420FD10323BF
:103BFC0002AE0093320023003100114801F09EFE0A
:103C0C000025A54216D10A2006F07CFE09E0FF2211
:103C1C00002102F0F3FD002806D12100094806F02E
:103C2C0057FE002006B070BD074B1A7802ABE25469
:103C3C000134D9E7715D054806F04AFE0135E0E72D
:103C4C00F4050020BCD40008D8220020D6E50008DA
:103C5C0037B505000024E0B2AC4206D100232200A7
:103C6C0069460B4801F0D2FD09E0FF22002102F069
:103C7C00C5FD002805D12100064806F029FE0020CC
:103C8C003EBD6A46044B1B78A3540134E3E7C0469F
:103C9C00F4050020BCD40008D822002030B5102236
:103CAC0085B00121002002F0A9FD0E4B00280FD099
:103CBC000D4B69461D780D4800232A0001F0F2FDDA
:103CCC000024E3B29D4206D80A2006F01BFE002316
:103CDC00180005B030BD6B460548195D06F0F8FDBF
:103CEC000134EEE7E4D30008D8220020F4050020CC
:103CFC00D6E50008F0B5050087B00F00002822D0EB
:103D0C000B681B78312B1CD03D4C322B16D1303B21
:103D1C000593012D19D979683A48FEF7EDFD041E7B
:103D2C000CD1022D16D00100374A022002F0CEFD34
:103D3C00002811D13449354806F0CAFD200007B0DF
:103D4C00F0BD0123E4E7012305932E4A304B13CB3E
:103D5C0013C2002426001BE02E4B186801F078FEDD
:103D6C000600032D14D0FB682B4C18783038032830
:103D7C00E4D806F0D7FC3F023B3D0124042D07D0CC
:103D8C002649042002F00AFD002835D0012835D13F
:103D9C00002501231B4A032117791068BB4083615E
:103DAC00BB40594302688A43134303601C4B1B7886
:103DBC00002B02D01B4801F0DDFC00270094029779
:103DCC00019533003A000599164801F08DFC164C0C
:103DDC00B842B3D0300001F049FE0100134806F0A0
:103DEC0077FD01230E4A3C001370A7E70224C5E7B8
:103DFC000324C3E70024C1E70125CAE70C4C9DE767
:103E0C00FBE40008E80500200024F40092E500081B
:103E1C008CE70008D822002017E50008EBE4000826
:103E2C0004060020F40500205CE50008B5E5000858
:103E3C003AE50008114910B50931002002F0AEFC3A
:103E4C00041E03D001280FD00D480CE001231800EC
:103E5C000C4A1179126888402100906222000A48AD
:103E6C0001F0D4FC002010BD064B1A791B6894405D
:103E7C0000229C6111000223F1E7C046EBE400082C
:103E8C0018CC0008E8050020F405002070B50500EA
:103E9C000024E0B2AC420AD0FF22002102F0AEFCBA
:103EAC00661C002805D12100054806F011FD0020F4
:103EBC0070BD044B0448197801F0F0FF3400E8E7BA
:103ECC00BCD40008D822002008060020F0B50B68EE
:103EDC0085B01B7807000D00322B13D02F48342BE4
:103EEC000ED1303B96212E4A49000120029302F05C
:103EFC00EDFC002808D12A492A4806F0E9FC0020EC
:103F0C0005B0F0BD0223EDE7022F28D9AB681B7872
:103F1C00382B06D0392B12D02348372BF0D107265B
:103F2C0000E00826032F37D0EB681B786E2B14D0DB
:103F3C006F2B06D01D48652BE2D1022402E0092626
:103F4C00F0E70124042F0CD02B691B78312B08D0FF
:103F5C000225322B06D01648D2E70024F2E70024C3
:103F6C0008260125134B144F1B680393134B1B7826
:103F7C00002B02D0380001F029FF3300019500948A
:103F8C00039A0299380001F04BFE031E0C48B7D07F
:103F9C0001230A4A1370B2E70024E2E7A4E7000801
:103FAC0080841E006AE80008C0E70008E0E700080B
:103FBC0016E80008D8220020080600200C06002075
:103FCC0033E800087FB50D00002106002C4A0800DC
:103FDC0002F048FC2B4B002842D02B4B6D681C8800
:103FEC00297800290DD1032E14D12849022002F082
:103FFC00D5FB012837D0002808D0022835D0244B17
:10400C002EE02448013501F049FFE9E70D21214854
:10401C0001F044FFFA2189004C432000F530FF30B9
:10402C0006F094FB010001A803F042FF012401A853
:10403C0003F047FF00280FD16B46DD1C2900154803
:10404C0001F064FF0028F2D028780D2815D8124B07
:10405C002200C3409A4310D10A2006F053FC0023DF
:10406C00180004B070BD0A21D1E70A4D0D212800BB
:10407C0001F014FF0A212800CAE706F043FCD6E73A
:10408C00FFFF000052E90008D822002098E7000842
:10409C00FFE8000808060020012400000021F0B50C
:1040AC0010228BB00700080002F0A8FB2A4C002855
:1040BC0041D02A4E2A4A337800210120009302F085
:1040CC00D1FB284C002836D0022533880193AF420F
:1040DC0026D8FA21019889004843F530FF3006F0C4
:1040EC0035FB010003A803F0E3FE002403A803F052
:1040FC00E8FE00280BD106AB19191B4801F006FF8E
:10410C000028F3D00134009BE4B2A342EED8002582
:10411C00EBB29C4219D80A2006F0F4FB00240AE00A
:10412C00FF220021280002F069FB041E06D12900A1
:10413C000E4806F0CDFB20000BB0F0BD31780A48DC
:10414C00013501F0ABFEEDB2C1E706ABE95C084806
:10415C0006F0BEFB0135DBE78CE80008D822002016
:10416C00FFFF000052E9000808060020BCD400083C
:10417C00D6E50008002130B5102289B0080002F005
:10418C003DFB1E4B00282ED01D4C1E4A0021012049
:10419C00257802F067FB1C4B002824D0FA212088DC
:1041AC0089004843F530FF3006F0D0FA010001A831
:1041BC0003F07EFE002401A803F083FE00280AD140
:1041CC0004AB1919114801F0A1FE0028F3D00134F9
:1041DC00E4B2A542EFD80025EBB29C4206D80A20E7
:1041EC0006F090FB0023180009B030BD04ABE95C6D
:1041FC00074806F06DFB0135EEE7C046DAE800082B
:10420C00D8220020FFFF0000B3E8000808060020B9
:10421C00D6E5000873B58025AD00104B1C692C4009
:10422C0004D10A2006F06EFB200076BD6B46DC1D27
:10423C00200001F0F5FE0A4E002803D02178300052
:10424C0001F02CFE2100300001F060FE0028E4D0CB
:10425C00207801F0EDFE0028FAD0DEE700080050CF
:10426C000806002013B56B469C1D200003F01EF9B8
:10427C000123002803D02388581E8341DBB2180089
:10428C0016BD10B502F0E8FF030001205840C0B283
:10429C0010BD10B508001100DAB21C0003F08CF947
:1042AC00001B431E9841C0B210BD10B50800110090
:1042BC00DAB21C0003F01CFA001B431E9841C0B27A
:1042CC0010BD10B501F0ACFE10BD10B504002000FF
:1042DC0001F0AEFE0028FAD010BD0000FA218900D2
:1042EC004843F53010B5FF3006F030FA01000248B3
:1042FC0003F0DEFD10BDC046381B002010B502488F
:10430C0003F0DFFD10BDC046381B002010B502487D
:10431C0003F07CFF10BDC046601E002010B5094C98
:10432C0000220949200004F06BFF0849200004F02A
:10433C0081FF0749200004F014FF200004F083FFE4
:10434C0010BDC046441B0020100000205800002067
:10435C0000000020096810B589B201F071FE054C0F
:10436C000549200004F011FF200004F031FF00206B
:10437C0010BDC046441B0020E01D002010B52228B3
:10438C0004D14B88DB0701D5FDF77EFF002010BD63
:10439C0080220121064BD202DA67064A00201368FC
:1043AC008B431360044A1F31936B8B4393637047A9
:1043BC0004E100E0001400400010024013B5194C59
:1043CC0000221949200004F0D5FE1849200004F001
:1043DC00DCFE2020164AC424916BA4000143916397
:1043EC00936B144A03400193019B134B13489A623D
:1043FC00802219680A431A600422DA62104A1159A1
:10440C0008408021C903014311518021C902116068
:10441C000122D96800201143D96019680A431A6037
:10442C0016BDC046441B0020201E0020E01D0020AD
:10443C0000100240FF7C000000140040FFFF00FF52
:10444C0000E100E00A00A42110B5084C890003002B
:10445C0060587C3941580120002906D119002000F0
:10446C0004F088FE200004F097FE10BD441B0020D1
:10447C00A423022170B50F4E9B00F3580E4A4942FB
:10448C001161002B14D0852292009B58002B0FD168
:10449C000A4C4231200001F0DDFD051E08D002005F
:1044AC002100300004F066FE29002000FFF7CAFF4F
:1044BC0070BDC046441B002000140040201E00208C
:1044CC00094B026810B59A420DD18023074A1B0490
:1044DC00916B1F200B4393630022110003F044FDEA
:1044EC001F2003F06BFD10BD005C0040001002406B
:1044FC008C2310B59B00C1184033C05804F0BEFE8D
:10450C0010BD4B01C318FC331A6C9C2310B59B00D7
:10451C00C05804F0E5FE10BD4B01C318DA6B9C23A8
:10452C0010B59B00C05804F01FFF10BD9C2310B5A4
:10453C009B00C05804F0BCFF10BD70B59C24050056
:10454C00A4000121005904F09CFF285904F06FFFCE
:10455C0070BD00009C2310B504009B00C05804F0F3
:10456C0093FFA369002B04D00623024A11690B4365
:10457C00136110BD00ED00E0836910B5002B04D071
:10458C000621054A13698B4313619C239B00C05879
:10459C0004F086FF10BDC04600ED00E09C2370B512
:1045AC0005001C489B00C5501B4BA6260360082326
:1045BC00022243600023B600A8518260C3600261EE
:1045CC008361C361036203F003FD041E00D0FEE7A8
:1045DC00020001001823A85904F0BBF8A8592200C6
:1045EC005823802104F0B5F8A8592200C02381215A
:1045FC0004F0AFF88823A85922005B00012104F0D5
:10460C00A8F88023A8595B002200822104F0A1F8AD
:10461C00200070BD601E0020005C0040A6239B00A3
:10462C00C05810B503F040FD0223032801D8024BFB
:10463C001B5C180010BDC046D5EB000810B514006B
:10464C001A002300A624A400005903F052FD0223F3
:10465C00032801D8014B1B5C180010BDD5EB0008DA
:10466C00A6239B00C05810B503F073FD022303284A
:10467C0001D8024B1B5C180010BDC046D5EB0008DE
:10468C00A6239B00C05810B504F002F8022303289F
:10469C0001D8024B1B5C180010BDC046D5EB0008BE
:1046AC00A6239B00C05810B504F027F8022303285A
:1046BC0001D8024B1B5C180010BDC046D5EB00089E
:1046CC00A6234AB29B00C358002A06DA7F22114067
:1046DC0049015B182A331878704749015B182B3352
:1046EC00FF33F8E7A6239B00C05810B503F0EFFC8E
:1046FC000223032801D8024B1B5C180010BDC046D6
:10470C00D5EB000810B5A624A400005903F067FDF2
:10471C000223032801D8024B1B5C180010BDC046B5
:10472C00D5EB000810B5A624A400005903F035FD04
:10473C000223032801D8024B1B5C180010BDC04695
:10474C00D5EB0008A62310B59B00C05803F040FD24
:10475C0010BD000000487047100600207047000094
:10476C00122301480B8070472C00002004230148C1
:10477C000B8070474000002010B5044C0A00044820
:10478C00210005F0BEF8200010BDC046D42000204A
:10479C00F2EB000810B5044C0A000448210005F0A7
:1047AC00B0F8200010BDC046D4200020FCEB00085F
:1047BC0010B5044C0A000448210005F0A2F82000B2
:1047CC0010BDC046D420002007EC000810B5044CE6
:1047DC000A000448210005F094F8200010BDC046E2
:1047EC00D4200020D9EB000810B5044C0A00044872
:1047FC00210005F086F8200010BDC046D420002012
:10480C00E4EB0008054B82B09A6B02439A639B6BF6
:10481C0018400190019B02B07047C0460010024046
:10482C00054B82B0DA6A0243DA62DB6A1840019007
:10483C00019B02B07047C0460010024010B510201A
:10484C00FFF7E0FF1F22044B9A62044ADA62082247
:10485C0019680A431A6010BD00100040FFFF0000E9
:10486C00F7B501268020824C824D636B40053343A3
:10487C006363636B33400193019BFFF7C3FF2B68AA
:10488C00B34333432B602B68334200D1FEE78022C5
:10489C00794B7A4F1968120139400A431A60226821
:1048AC00164326601E00042322681A42FCD063685B
:1048BC00734A1A4080235B01134363600123A2688F
:1048CC001343A36080236F4A9B01116A0B4313624D
:1048DC000223A2681A42FCD080200005FFF792FF49
:1048EC00694B6A491A6890200A4020210A431A60D1
:1048FC005A68C0051040664A02435A604022186844
:10490C0002431A601A6811431960802332685B00F5
:10491C001A433260226D17402765226D13432365BD
:10492C0080239B00226D1A42FCD0236D594A1A40F9
:10493C0080235B02134323658023226DDB02134328
:10494C002365E368544A1A408823DB031343E3606E
:10495C00802322685B041343236080239B0422681A
:10496C001A42FCD0F022E3689343E360E3684B4ABD
:10497C001340E360E3684A4A13400322E360E368B0
:10498C001343E3600C23E6681E400C2EFBD1454814
:10499C0004F096FA0322E36C01209343E364E36C86
:1049AC00414AB343E364E36C13408022E364E36C59
:1049BC00D2041343E36440232A6813432B60FFF7AC
:1049CC002FFF0220FFF72CFF0420FFF729FF082000
:1049DC00FFF726FF8020FFF723FFA022334BD205E1
:1049EC008021D360002309055360916081218900E7
:1049FC00516188208821C000C901116250622C4885
:104A0C00106082202B4AC001D060C0208000506012
:104A1C00294890602948506144201362506228480C
:104A2C001060284A2848D060802080015360906034
:104A3C00A020C00050618020800410625162234984
:104A4C00102011600421224AD3605360936051619D
:104A5C001362536210601F4AD160536093605361BC
:104A6C001362536201331360FFF7E8FEF7BDC046D3
:104A7C00001002400020024000700040FFE7FFFFE2
:104A8C00FFE0FFFF00000140006C0040FFC0FFFF93
:104A9C007FBB2220FFFFFCFFFFFF02FFFFF8FFFFA1
:104AAC00FFC7FFFF0048E801FFCFFFFF4A28106453
:104ABC00A0C3E82B000400508008A0884417000015
:104ACC009F1A5AA900080050A9004405006FA1F0D4
:104ADC00000C0050001C0050013800B5032806D80B
:104AEC0005F020FE0206090D4022064B9A6200BD1D
:104AFC00054B0422FAE78022024BD200F6E7014B69
:104B0C00F7E7C04600040050000C0050013800B517
:104B1C00032806D805F006FE0206090D4022064BB6
:104B2C009A6100BD054B0422FAE78022024BD200A9
:104B3C00F6E7014BF7E7C04600040050000C0050AC
:104B4C000122054BD8625A61196811431960196822
:104B5C001142FCD17047C0460010004070B5FA25D8
:104B6C000400AD00002C00D170BD2800013CFFF703
:104B7C00E7FFA4B2F6E7000070B505000220FFF7CE
:104B8C0041FE4023164CFF33A3622268BF3B134304
:104B9C002360144B6A0000209A4206D8A021890099
:104BAC006943114805F0D2FD01387322E062A36914
:104BBC0093431A00302313430222A361236A9343C5
:104BCC0023620823A2691343A3610123226A1A43B7
:104BDC00226222681A43226062691343636170BDCA
:104BEC0000040040A08601000048E8010121054AAC
:104BFC0013688B431360044A4918936B8B4393637C
:104C0C007047C04600040040001002400122034BD4
:104C1C001A71034A1A6000225A717047300800203A
:104C2C000024014073B5002805D1274AAE2127483E
:104C3C0003F0D7F8FEE70024046001293CD180265C
:104C4C002349B6004D6B234C354323684D634A6BA7
:104C5C00C02132400192019A1A6909060A431A616D
:104C6C009A681D491140802252050A4307219A6017
:104C7C005A698A43110002220A4318215A61DA68E0
:104C8C008A43DA6080229D68144912060D402A433B
:104C9C000D009A609A68002AFCDB01221A60996860
:104CAC0029401143996019681142FCD0046001201D
:104CBC0063790133637176BD0448094ABC2103F062
:104CCC0090F82000F7E7C04648EC000814EC000808
:104CDC000010024030080020E8FFFF6FE8FFFF7F64
:104CEC0057EC000810B5002806D18821144A490059
:104CFC00144803F076F8FEE70368002B06D18A21EE
:104D0C00114A49000F4803F06CF8FEE75A79002A63
:104D1C0006D116210D4AFF310A4803F062F8FEE76E
:104D2C0001228A401B680A499A629A680A40042147
:104D3C000A439A609A680A42FCD1186C80B210BD82
:104D4C0048EC000814EC00081BEC00082CEC0008E4
:104D5C00E8FFFF7F0122034B1A71034A1A600022FD
:104D6C005A7170473808002000740040F7B50028CD
:104D7C0005D1134A8621134803F033F8FEE70024CB
:104D8C000460012914D180270F4C104BA66BBF0572
:104D9C003E431D68A663A26B3A400192019A2A68B1
:104DAC000A432A60036008005A7901325A71FEBD29
:104DBC000448074A942103F014F82000F7E7C04692
:104DCC0048EC000874EC0008001002403808002081
:104DDC0057EC000810B5002805D1134AE5211348FB
:104DEC0002F0FFFFFEE70368002B05D1104AE92112
:104DFC000E4802F0F6FFFEE75879002805D10D4A5F
:104E0C00EA210A4802F0EDFFFEE71B68002907D0F3
:104E1C00012907D0084AF921044802F0E2FF00E01A
:104E2C009A6010BD5A61FCE748EC000874EC00086D
:104E3C007BEC00088CEC0008A8EC0008F7B501240A
:104E4C009440230093400500009303232A7117001C
:104E5C00009A08685A430E0010402960009901928C
:104E6C0005F074FC687170682100204005F06EFC40
:104E7C00019BA871B0680099184005F067FC019B74
:104E8C00E871F0680099184005F060FC73692872AD
:104E9C0023409C420ED101236B72072F0CD8009932
:104EAC00306AB940B9400F234B43184005F04EFC13
:104EBC00A872F7BD0023EFE7210A4943706A494302
:104ECC00F1E70123F0B507790324BB401900B94081
:104EDC004C43E443057A02684D43D668264035437B
:104EEC00D560C57996684D432640354395608679E3
:104EFC005568BE409D4335435560457A002D14D00E
:104F0C009361867A072F12D80B00BB40BB400F274A
:104F1C005F437343156ABD432B4313624079136897
:104F2C0041431C4021431160F0BD9362E9E70F2718
:104F3C001B0A5B435B435F437343556ABD432B437F
:104F4C005362EBE780690004C00F70470122034BEA
:104F5C001A71034A1A6000225A71704740080020E7
:104F6C0000540040F7B5002805D1174A9321174883
:104F7C0002F037FFFEE70024046001291DD1144C18
:104F8C0002716379002B13D18025AD03AC46114E11
:104F9C002268B76B2F43B763B56B664635400195F6
:104FAC00019D0D4D13605360156115682943116007
:104FBC00013304606371012005E00448074AA6210F
:104FCC0002F00FFF2000FEBD48EC0008C6EC000804
:104FDC004008002000100240372E302057EC00080B
:104FEC00F0B585B00700029116000193002806D198
:104FFC0081217D4A49007D4802F0F3FEFEE70368FB
:10500C00002B06D183217A4A4900784802F0E9FE48
:10501C00FEE75A79002A06D10821764AFF317348F7
:10502C0002F0DFFEFEE702797F2A06D90A21724AD6
:10503C00FF316E4802F0D5FEFEE71C68012E1ED82B
:10504C000623019A1A421AD063686C4A13406360B3
:10505C00002E19D06A4B62681A4080235B021343FE
:10506C0063600923019A1A4212D180277F00200025
:10507C00FFF768FF002853D1624AB02114E0802367
:10508C0062685B041343E2E763685D4A1340E7E739
:10509C000123019A20001A4003920AD0FFF752FF15
:1050AC0000280ED09521584A4900504802F099FE2C
:1050BC0034E0FFF747FF002803D13421514AFF3178
:1050CC00F3E7802562683B79920A92025B001343F6
:1050DC00636063684D4AAD011340636063682B43A2
:1050EC006360039B002B04D02000FFF72BFF0028EC
:1050FC00FAD063682B42FCD11023A2691A42B4D0B7
:10510C00A821E26949001343E361414A374802F0A0
:10511C0053FE2000FFF716FF0028FAD1002047E0CD
:10512C00E922A36952001342FAD03B420ED0B821B7
:10513C00E369384A1F43E76149002C4802F051FEED
:10514C002000FFF7FFFE0028FAD1E7E710221342F8
:10515C000ED0BF21E36949001A43E26123482E4A6D
:10516C0002F03FFE2000FFF7EDFE0028FAD1D5E754
:10517C009A0708D5002E06D0029A013E1278A26238
:10518C00029A013202925A0601D5002E0CD01B064F
:10519C0000D46CE7002E07D06268194B1A408023AC
:1051AC005B021343636062E7019B9B0702D40120FF
:1051BC0005B0F0BD2000FFF7C5FE002802D1114A52
:1051CC00B0217CE780236268DB01134363602023FA
:1051DC00A2691A42FCD0E2691343E3612000FFF795
:1051EC00B1FE0028FAD1E2E748EC0008C6EC000852
:1051FC00CDEC0008DEEC000825ED0008FFFFFFFEFB
:10520C00FFFF00FF6AED00083EED0008FFFBFFFF0B
:10521C007AED000896ED0008A4ED0008F0B585B015
:10522C000700029116000193002806D1D221774A7B
:10523C00FF31774802F0D5FDFEE70368002B06D15D
:10524C00D621744AFF31724802F0CBFDFEE75A7941
:10525C00002A06D1EB21704A49006D4802F0C1FDCD
:10526C00FEE702797F2A06D9EC216C4A490068488E
:10527C0002F0B7FDFEE71C68012E1DD80623019A2B
:10528C001A4219D06368664A13406360002E18D026
:10529C00644B62681A4080235B02134363600923EA
:1052AC00019A1A4211D104272000FFF74BFE002867
:1052BC0052D15D4A5D4915E0802362685B0413435B
:1052CC00E3E76368574A1340E8E70123019A20009B
:1052DC001A4003920AD0FFF735FE00280DD0FA21B0
:1052EC00534AFF314A4802F07CFD33E0FFF72AFEB7
:1052FC00002802D14C4A4F49F4E762683B79920A84
:10530C0092025B0013438022802563606368D200A5
:10531C00134363606368AD012B436360039B002BF5
:10532C0004D02000FFF70EFE0028FAD063682B4251
:10533C00FCD11023A2691A42B5D0E2693E4913434D
:10534C00E3613E4A324802F037FD2000FFF7FAFDD8
:10535C000028FAD100203DE0D422A3691342FBD0EF
:10536C003B4208D0002E06D00299626A013E0A70B8
:10537C000A0001320292102213420DD0E369304927
:10538C001A43E26122482F4A02F02BFD2000FFF75E
:10539C00D9FD0028FAD1DDE75A0601D5002E15D02B
:1053AC001B0681D5012E0FD10623019A1A4203D078
:1053BC0063681B4A1340636062681A4B1A4080236F
:1053CC005B02134363606FE7002EF5D1019B9B07D3
:1053DC0002D4012005B0F0BD2000FFF7B3FD00287A
:1053EC0002D1114A18497DE780236268DB0113431F
:1053FC0063602023A2691A42FCD0E2691343E36183
:10540C002000FFF79FFD0028FAD1E2E748EC0008E6
:10541C00C6EC0008CDEC0008DEEC000825ED000819
:10542C00FFFFFFFEFFFF00FF6AED00082E020000E9
:10543C003EED0008020200001E020000FAEC00081B
:10544C004902000016ED00087602000010B5002895
:10545C0005D1084A0849094802F0C3FCFEE74BB2E3
:10546C00002B05DA064A0749044802F0BAFCFEE7AD
:10547C00017110BD48EC000891020000C6EC000858
:10548C002DED000893020000114B12481A6D824258
:10549C001CD0CA225A62773A5A62543ADA604132C4
:1054AC00D9681142FCD0FE211A69C9030A43FF21B5
:1054BC001A611A69D20BD2030A431A61064A5A605E
:1054CC0000221A60813ADA60596218657047C0464A
:1054DC0000280040FECA000001810000F7B505005D
:1054EC0002F0B8FC00286BD0CA23364C6362773BC1
:1054FC006362543BE3604133E2681A42FCD02F787C
:10550C00AB780A2138006E78009305F01FF90A2158
:10551C0003013800019305F09FF9019B30005918E5
:10552C00C9B20B040A21019305F010F90A210701F5
:10553C00300005F091F97F18019BFFB200980A2109
:10554C003F021F4305F002F90A210601009805F0FD
:10555C0083F97618F6B237436760EF780A21380082
:10556C0005F0F4F80A21030138002E796D790093C7
:10557C0005F072F9009B30005918C9B20B040A21CE
:10558C00009305F0E3F80A210701300005F064F9F7
:10559C007F18009BFFB20A213F0228001F4305F031
:1055AC00D5F80A210601280005F056F98123761852
:1055BC00F6B25B4237432760E3608133FF336362AB
:1055CC00F7BDC0460028004070B51C4B1A685968DE
:1055DC001C68A242FAD10A230F240D0CEDB22E093D
:1055EC005E43254075190E0AF6B20570F506ED0FEF
:1055FC005D432640AD1945700325C9B20E092E40F6
:10560C005E4321407118160CF6B2817031092940A5
:10561C00594326408919160AF6B2C170043531096E
:10562C002940594326408919D2B2017111090D4004
:10563C006B4322409B18437170BDC046002800404C
:10564C00402302689A438A4206D002689A43026059
:10565C0001600268134303607047000037B50129ED
:10566C0007D0022918D0124A5B21124802F0B9FB6C
:10567C0037BD802510496D014C6B2C434C634B6B33
:10568C002B400093009B402301689943016002600A
:10569C00026813430360EBE780250749ED018C6B2F
:1056AC002C438C638B6B2B400193019BEBE7C04627
:1056BC00F3ED0008BFED0008001002400122064B7C
:1056CC0002211A71054A1A6000225A71044B197191
:1056DC0004495A7119607047480800200030014095
:1056EC005008002000380040F7B5040008A80778DF
:1056FC0009A806780AA801920078002C05D1184A4E
:10570C00ED21184802F06DFBFEE70025256001290C
:10571C0023D0022919D1144D013E72427241D60197
:10572C00C122920017436A46DB0012793B43334394
:10573C0022712073A3601A002868FFF78FFF256081
:10574C006B79012001336B7106E080210548074A13
:10575C00490002F046FB2800FEBD054DDCE7C046C3
:10576C0048EC0008BFED00085008002057EC00087A
:10577C004808002010B5002806D196211C4A490083
:10578C001C4802F02EFBFEE70268002A06D1982185
:10579C00194A4900174802F024FBFEE75379002B05
:1057AC0006D13221154AFF31124802F01AFBFEE7EE
:1057BC00013BDBB211685371002B03D00023036053
:1057CC00012010BD40240B68A3430B601379012BFF
:1057DC0007D0022BF2D10A4A0A49936B0B40936310
:1057EC00ECE7074A0849536B0B405363E6E7C046A6
:1057FC0048EC0008BFED0008C6ED0008D7ED000826
:10580C0000100240FFBFFFFFFFEFFFFFF7B50500E1
:10581C000C0001921F00002806D1B4211D4A49003A
:10582C001D4802F0DEFAFEE70368002B06D1B62114
:10583C001A4A4900184802F0D4FAFEE75A79002AAD
:10584C0006D16E21164AFF31134802F0CAFAFEE760
:10585C001E6881683000FFF7F3FEFB0702D528793C
:10586C00FFF73AF902220121019BE3189C4205D172
:10587C00BB0702D52879FFF749F9F7BDB06810428C
:10588C00FCD020783073B0680842FCD0F06801344A
:10589C00ECE7C04648EC0008BFED0008C6ED000878
:1058AC00D7ED0008F7B505000C0001921F00002889
:1058BC0006D1D1211D4A49001D4802F092FAFEE79B
:1058CC000368002B06D1D3211A4A4900184802F06C
:1058DC0088FAFEE75A79002A06D1A821164AFF3128
:1058EC00134802F07EFAFEE71E6881683000FFF76D
:1058FC00A7FEFB0702D52879FFF7EEF8022201215B
:10590C00019BE3189C4205D1BB0702D52879FFF710
:10591C00FDF8F7BDB0681042FCD0287B3073B0683E
:10592C000842FCD0F06820700134EBE748EC00082A
:10593C00BFED0008C6ED0008D7ED0008F7B50193E0
:10594C0008AB04000F0000921E78002806D1DE215F
:10595C001F4AFF311F4802F044FAFEE70368002B90
:10596C0006D1E2211C4AFF311A4802F03AFAFEE74E
:10597C005A79002A06D1F121184A4900154802F03B
:10598C0030FAFEE71D6881682800FFF759FEF3071F
:10599C0002D52079FFF7A0F80222002394460121BA
:1059AC00019A934205D1B30702D52079FFF7AEF8DF
:1059BC00F7BD6246A8681042FBD0F85C2873A86853
:1059CC000842FCD0E868009AD0540133E8E7C0469E
:1059DC0048EC0008BFED0008C6ED0008D7ED000844
:1059EC0070B5002806D18521144A8900144802F0AC
:1059FC00F8F9FEE70368002B06D18621114A8900CD
:105A0C000F4802F0EEF9FEE75A79002A05D10E4A4A
:105A1C000E490B4802F0E5F9FEE740221B68856849
:105A2C001C68C90094431C603824A5432943816039
:105A3C00196019680A431A6070BDC04648EC00082A
:105A4C00BFED0008C6ED0008D7ED000819020000F4
:105A5C0001000020044A8A4204D90130C0B2520825
:105A6C000728F8D17047C0460024F400431C0148B5
:105A7C00D84070470048E80110B5034A1368013359
:105A8C00136002F069FA10BD58080020C021094AC1
:105A9C00094B0A485360036A09061B021B0A0B4395
:105AAC00036200239360073313608022044B1206B9
:105ABC001A60704710E000E0FF7C000000ED00E091
:105ACC0000E100E0014B18687047C0465808002000
:105ADC00F7B504680500E3699B0610D56B46616A4F
:105AEC00E269C9B2D97101231A4203D1E269DB1808
:105AFC001A4201D0236202E0543002F0A6F880264C
:105B0C00E36933420CD06B462800DF1D39000830A6
:105B1C0002F0C4F800280DD03B78A3620023AB71CF
:105B2C004022E369134204D00123AB7123689343F1
:105B3C002360F7BD2368B3432360F1E710B5024837
:105B4C00FFF7C6FF10BDC0465C08002010B5024828
:105B5C00FFF7BEFF10BDC046FC08002010B5024880
:105B6C00FFF7B6FF10BDC0469C09002070B501249C
:105B7C000025194B194A1A491A601A4840225D71BE
:105B8C001C719C7102F05BF840221749174802F017
:105B9C0056F80222164B17491A71174A17481A6001
:105BAC0040225D719C7102F04AF84022144915485C
:105BBC0002F045F80422144B14491A71144A154882
:105BCC001A6040225D719C7102F039F84022124932
:105BDC00124802F034F870BD5C0800200038014017
:105BEC007008002064080020BC080020B0080020C9
:105BFC00FC0800201009002000440040040900208B
:105C0C005C090020500900209C090020B0090020EC
:105C1C00004C0040A4090020FC090020F0090020E1
:105C2C00F0B589B001930EAB1B78009002930FABCB
:105C3C001B780D000393002806D19421524AFF31A2
:105C4C00524802F0CEF8FEE70024009B1C600229AB
:105C5C0005D0042914D0012909D14D4F00E04D4F36
:105C6C007C79002C0ED0B8214B4AFF3102E0D821B0
:105C7C004A4A4900454802F0B4F8002009B0F0BD8A
:105C8C00474FEDE701233E68BB71022D27D0042D51
:105C9C0030D09D4239D180244249E401486B2043E5
:105CAC0048634B6B23400593059B3F4B5008C01832
:105CBC00110004F04BFD019B80B2F060082B2AD040
:105CCC00092B2AD0072B23D1384B029A012A26D034
:105CDC00002A27D0022A2DD0354A0421C5E780247A
:105CEC003049A402886B204388638B6B2340069356
:105CFC00069BDAE780242B492403886B20438863B6
:105D0C008B6B23400793079BCFE72A4ADA21B1E735
:105D1C00294AF321AEE72C23D7E7284BD5E7C0223D
:105D2C00D2001343039A012A06D0022A1CD0244A1B
:105D3C0012219AE78022F3E7726822490A407260C6
:105D4C0033600123326813433360022D13D0042DCA
:105D5C0015D0012D03D180221B4B12051A60012096
:105D6C00009B1F60787189E7726816491140802288
:105D7C0092010A43E3E78022134B5205EEE780229F
:105D8C00114BD201EAE7C04648EC000806EE0008C9
:105D9C005C080020FC08002037EE000857EC0008D7
:105DAC009C090020001002400048E8012C00001063
:105DBC0085EE0008F3ED000869EE00082C100000D9
:105DCC009EEE0008FFCFFFFF00E100E010B50028B9
:105DDC0006D1D821274AFF31274802F002F8FEE706
:105DEC000268002A06D1DC21244AFF31224801F046
:105DFC00F8FFFEE75479002C07D1F021204A490026
:105E0C001D4801F0EEFF00201CE01379022B1AD084
:105E1C00042B1CD0012BF6D180241A492405CC6705
:105E2C00002411680C60022B15D0042B19D0012B07
:105E3C001BD11549154C4B6B23404B63002303605E
:105E4C000120537110BD80240E496405E7E78024BE
:105E5C000C49E401E3E70C490D4C8B6B23408B633D
:105E6C00ECE709490B4C8B6BF8E78A210A4A89004D
:105E7C00C6E7C04648EC000806EE00080BEE00082A
:105E8C001DEE000804E100E000100240FFBFFFFF20
:105E9C00FFFFFDFFFFFFF7FFF3ED000870B50D00EE
:105EAC00002805D1124A1349134801F09AFFFEE766
:105EBC000468002C05D1114A11490F4801F091FFDB
:105ECC00FEE76379002B05D10E4A0F490A4801F011
:105EDC0088FFFEE720002900083001F0B6FE0028FC
:105EEC00F8D08023226811680B43136070BDC04644
:105EFC0048EC00083902000006EE00080BEE000822
:105F0C003D020000C4EE00083E02000010B500285F
:105F1C0005D10E4A0E490F4801F063FFFEE70068F9
:105F2C00002805D10C4A0D490A4801F05AFFFEE73A
:105F3C004379002B05D10A4A0A49064801F051FF62
:105F4C00FEE7543001F0AAFE10BDC04648EC000834
:105F5C009E02000006EE00080BEE0008A2020000F4
:105F6C00C4EE0008A302000010B58024E400220057
:105F7C000849094801F063FE22000849084801F06D
:105F8C005EFE084B0222186800238068190004F09A
:105F9C0037FD10BD540E0020480E0020480A00208A
:105FAC003C0A00206801002010B504000A2802D128
:105FBC000D20FFF7F9FF2100034801F046FE0028F1
:105FCC00F9D0002010BDC046480E002070B50E0060
:105FDC0015000C00A31B9D4201DC280070BD20782D
:105FEC00FFF7E2FF0134F5E713B56B46DC1D21002A
:105FFC00034801F053FE0028F7D0207816BDC046A8
:10600C003C0A002070B50E0015000C00A31B9D422D
:10601C0001DC280070BDFFF7E7FF20700134F5E7C5
:10602C0010B50100014801F039FE10BD3C0A0020FA
:10603C0010B50100014801F008FE10BD480E00200B
:10604C0010B50A000100024801F011FE10BDC04657
:10605C003C0A002010B50A000100024801F032FE93
:10606C0010BDC046480E0020034B18604068431E0C
:10607C009841C0B27047C046E8120020002210B50B
:10608C00034B04481A70044B1860FFF7EDFF10BD6A
:10609C00F813002054CC0008F013002070B50B4B03
:1060AC000B4C1B789D00002B05D10A4B23606059CB
:1060BC00FFF7DAFF70BD013B9B00E058FFF7D4FF00
:1060CC00054B1B685B685B686351F0E7F8130020B5
:1060DC00F013002054CC0008E8120020002210B568
:1060EC00044B1A70044B1A78044B1A70FFF7C6FF56
:1060FC0010BDC046E5120020EE130020E412002073
:10610C00F8B500250D4F387800F09CFC0C4B1C7832
:10611C000C4B1E5D002E0ED0300004F0F3FB0A4A2F
:10612C006B1CDBB256557E2C02D80134E4B200E075
:10613C0000241D00ECE73D70F8BDC046EE130020B6
:10614C006D130020EC1200206E1300200F4B10B5C5
:10615C001A685368002B02D01468002C06D0C42196
:10616C000B4A0C4801F03DFE002010BD0A4A117884
:10617C00002902D0094ACB21F3E701215868084BCA
:10618C0011705860FFF770FFEFE7C046E81200206F
:10619C00E8EE0008E1EE0008F8130020F9EE000824
:1061AC00F01300200B4B10B51B685C68002C06D15B
:1061BC0009480A4AF02101F014FE200010BD084BDA
:1061CC00084A1B789B00985808309850FFF74CFFF2
:1061DC00F4E7C046E8120020E1EE000818EF0008D2
:1061EC00F8130020F013002010B50A4B1C78002C7B
:1061FC0006D10948094AB32101F0F3FD200010BD76
:10620C00013CE4B21C70064BA400E058FFF72CFFD5
:10621C00F5E7C046F8130020E1EE000834EF000863
:10622C00F013002000231A0010B504001148591C6B
:10623C0081291BD1104B1A70104B1A70104B1A700D
:10624C00FFF74CFF00F0E8FB002C02D0200004F01C
:10625C003FFB0C4804F03CFB0B4804F0C7FB0B481D
:10626C0004F036FB3E2004F04DFB10BD1B181A70D9
:10627C000B00DCE7EC1200206C1300206D130020E7
:10628C00EE13002044EF00084AEF00081BF0000852
:10629C00F7B5040000F082FB032800D149E1042883
:1062AC0000D16FE1002813D1092C00D1CFE00D2CC7
:1062BC000FD0082C00D02DE1B84A1378002B00D158
:1062CC00F7E0013B0120137000F0BCFBFFF706FF69
:1062DC00F7BD0A2004F016FBB04BB14E1C78B14B45
:1062EC00002C1ED13178B04A1170002220261A558C
:1062FC00100014000127AD4D197820294AD000292F
:10630C0060D0232C4BD9A94B1B681B78232B5CD159
:10631C000023A24A1370FFF7E1FE3E2004F0F2FACC
:10632C00D6E73278611E1000C9B2A14D5918002869
:10633C000DD00138C0B20F78BC462F5CBC4508D1DB
:10634C009C4F01398F42F2D197490A70CDE77F20DB
:10635C00F1E700217E2A19D80132D2B2585C013102
:10636C00A854C8B28442F5D800217F2A01D001324A
:10637C00D1B28D4A317011700022685C0028B4D003
:10638C006A547F2904D00131C9B2F6E70022E5E74F
:10639C000021F2E72100187001330C00ACE7222930
:1063AC0001D13A000133611CA400C9B26351002A27
:1063BC0000D11CE11C78222C00D116E1002CECD071
:1063CC000133F7E7002CA3D09DE7FFF757FE7A4B7C
:1063DC001F687E68002E03D0784B1D78A54203D32E
:1063EC00774804F003FB93E7704AAB003168985888
:1063FC0004F048FC002805D13B68002B05D1FFF7C1
:10640C00A5FEE4E7FFF7CEFEE1E7EB43E4183379B2
:10641C00E4B2A34202D87379A34201D26948E0E7FF
:10642C00694804F055FA614B691C8900C918624B24
:10643C0020001B681B689847002804D004F048FA19
:10644C000A2004F05FFA614804F042FA60E75B4C02
:10645C005F4A23789B009B5801935E4B1F78564BE9
:10646C001A6853681D685C4B1B789C464D4BFB1897
:10647C00674513D229780137FFB218786E1C0029B2
:10648C0019D1202817D11368002B12D1FFF75EFE0B
:10649C00494B1B685B681D684E4B1F704E4B1B783D
:1064AC00BB4217D923784A4A9B00D358019A9A4287
:1064BC00D5D1072032E70133884209D0FFF772FEAD
:1064CC00002801D1FFF7EAFD424B35001F78E5E7C4
:1064DC003500CDE7314A3C0010780026C01AC0B216
:1064EC0000F0B0FAA85D00280AD07E2C08D82D4BFD
:1064FC000134DB199855E4B204F004FA0136F1E7E3
:10650C00264B1C70FFF74EFE002800D0E0E6FFF78C
:10651C00C5FDDDE61F2C00D8DAE6204A13787E2B69
:10652C00C7D8591C11701F4AD454FFF7D7FD20004F
:10653C00F4E61D497F220B78002B01D0013BDAB227
:10654C00174B1B78934200D1C2E67F23002A01D05F
:10655C00013AD3B216487F24C25C002A00D1B7E6B8
:10656C00C25C002A07D17E2B01D80133DAB20A7043
:10657C00FFF7C6FDACE6002B02D0013BDBB2EFE728
:10658C002300EDE708490A4A0B78D05C002825D196
:10659C00034A12789342EAD00200E4E7EE1300209B
:1065AC006C1300206E1300206D1300205412002079
:1065BC00EC1200206D130020E8120020F8130020CC
:1065CC0020F0000839F0000844EF00081BF0000828
:1065DC00F0130020E5120020E41200207E2B02D8DC
:1065EC000133DBB2D1E70023CFE7187001331C78FD
:1065FC00B443FBD1D1E6C046F0B5002685B002907D
:10660C000391FFF73BFD0096604F3B685A68002AE8
:10661C0008D15F4B1C78002C34D0FFF7E5FDFFF759
:10662C00C1FDF1E71B68002B29D1FFF78FFDEBE7CC
:10663C00584BA200D058FFF717FD3B6801345B683C
:10664C00E4B2186804F028FB01302D18EDB2504B61
:10665C001B78A342ECD2009A2B1C954201D26B46BC
:10666C001B78DBB200933B685B68986804F014FB02
:10667C00031CC0B2B04200D2331CDEB2CFE70025FF
:10668C002C00E4E7FFF7FAFC0194404D2B685A68A4
:10669C00002A0AD13E4B1878002874D0FFF7A4FDCD
:1066AC00FFF780FD01230193EFE71B68002B67D0F8
:1066BC00384B1868FFF7D8FC029B002B32D0039B99
:1066CC001C68200004F0E8FA2B6802005B682000CC
:1066DC00196804F0E8FA002821D1002425002C4B7D
:1066EC001B78AB4227D2009B9C423DD3274D2B6895
:1066FC005B68986804F0ECF82B685B68986804F0A9
:10670C00CBFAC4B2B44235D3234804F0E1F82B6879
:10671C005B68D86804F0DCF80A2004F0F3F8FFF7A3
:10672C0041FDB2E7019B002BD7D00A2004F0EAF818
:10673C00029B0193D1E7174BAA00D058FFF794FCAA
:10674C00124F01353B68EDB25B68186804F0C0F875
:10675C00202004F0D7F83B685B68186804F09CFABA
:10676C0001302418E4B2BAE72020013404F0CAF84E
:10677C00E4B2B8E72020013404F0C4F8E4B2C1E775
:10678C00FFF7E4FC8EE705B0F0BDC046E812002030
:10679C00F8130020F013002038FA0008F8B5124B5B
:1067AC000D001B7800240133C018C7B2232F07D863
:1067BC000E4EBF002B78002B08D1FF242000F8BD13
:1067CC000B4A0C490C4801F00CFBFEE72900B859A8
:1067DC0004F058FA0028F1D0280004F05DFA0134D6
:1067EC0001302D18E4B2E5E7F81300205412002014
:1067FC005FF0000811040000E1EE0008F7B5134B40
:10680C000F001C78160001340419E4B2232C05D9AE
:10681C000F4A1049104801F0E4FAFEE70F4DA400AE
:10682C00002201A9605904F075FB019A61590023FB
:10683C00914209D012789A4206D1874204D88642F6
:10684C0002D3074B187001231800FEBDF81300206B
:10685C005FF0000827040000E1EE0008541200204D
:10686C00D8220020F7B5134B0F001C78160001340A
:10687C000419E4B2232C05D90F4A1049104801F031
:10688C00B0FAFEE70F4DA400002201A9605904F0F4
:10689C0041FB019A61590023914209D012789A4226
:1068AC0006D1874204D8864202D3074B18800123B5
:1068BC001800FEBDF81300205FF000083E04000035
:1068CC00E1EE000854120020D8220020F7B5134B3B
:1068DC000F001C78160001340419E4B2232C05D9DE
:1068EC000F4A1049104801F07CFAFEE70F4DA40046
:1068FC00002201A9605904F00DFB019A6159002393
:10690C00914209D012789A4206D1B84204D3B042CF
:10691C0002D8074B186001231800FEBDF8130020A5
:10692C005FF0000855040000E1EE0008541200204E
:10693C00D8220020F7B50F00102501902C00103C38
:10694C00A74215D8F7BDBE420ED2019B1148995DE6
:10695C0003F0BEFF0136AE42F5D3AC420AD30A2097
:10696C0003F0D0FF1035E9E70B4803F0B1FFF1E776
:10697C002600F0E72020BC4205D2019B185D0300E5
:10698C00203B5F2B03D803F0BDFF0134E5E72E203D
:10699C00F9E7C04680F00008CED2000800B5164AD0
:1069AC001378012B0FD0002B05D00021022B12D015
:1069BC001170012305E0C3091B2802D101231370B8
:1069CC00DB18180000BD02235B2801D11370F8E717
:1069DC0000211170F5E74138117001230328F0D81C
:1069EC0003F0A0FE080204060423EAE70523E8E707
:1069FC000623E6E70323E4E7F913002010B51B2078
:106A0C0003F080FF5B2003F07DFF322003F07AFF60
:106A1C004A2003F077FF10BD002210B5084B1B2055
:106A2C001A7003F06FFF5B2003F06CFF482003F03B
:106A3C0069FFFFF7E3FF6420FEF790F810BDC04636
:106A4C00F913002010B50400002C00D110BD082053
:106A5C0003F058FF202003F055FF013C082003F001
:106A6C0051FFE4B2F0E70000F0B58123002084244C
:106A7C0008250C4E591E002900D1F0BD0A4AE31A14
:106A8C00D35C2A001B0258400B0007B2410088B2AD
:106A9C00002F01DA714088B2013AD2B2002AF4D147
:106AAC00E8E7C04621100000FA13002070B505007D
:106ABC002800FDF706FC041E03D1FDF71FFC00287F
:106ACC00F6D0200070BD0000F7B5FA208000FDF76D
:106ADC0005FC00256B46DF1D3800FFF7E7FF061E9F
:106AEC0006D11D4AB2211D4801F07BF93000FEBDD4
:106AFC00FA201B4C3B7880006355FDF7EFFB002D13
:106B0C0004D13B78042BF1D00135E3E70135852D19
:106B1C00E0D12378012B06D0CD21124A0F4801F089
:106B2C0060F90026E2E76378A2789B18FF2B02D06D
:106B3C000D4AD321F2E7FFF797FF22008332030AB5
:106B4C001278DBB29A4204D184342378C0B28342E7
:106B5C00CCD0064A9721E1E7DBF0000887F000086B
:106B6C00FA130020E3F00008F7F0000814F1000815
:106B7C000123F0B5314E04243370002385B002900C
:106B8C000193019B013CE4B2002B02D14320FDF7A1
:106B9C009CFBFFF799FF051E039004D1019B002B72
:106BAC0022D015201EE0264F3B78042B0ED1062058
:106BBC00FDF78BFB002C3BD19C21224A490022483B
:106BCC0001F00FF90025280005B0F0BD33787A7874
:106BDC00591E8A420BD18D211B481C4A490001F0D9
:106BEC00EBF80620FDF771FB002CCAD1E4E79A42C2
:106BFC0006D09121164A4900134801F0F2F8D0E76B
:106C0C00029B8021134898470620FDF75EFB3378E2
:106C1C00042401333370039B0193B2E7FFF754FF55
:106C2C000028D0D03B78042B02D10620FDF74DFB79
:106C3C00013CE4B2FF2CF1D1C5E7C0467F14002023
:106C4C00FA130020C6F0000887F0000891F0000845
:106C5C00ABF00008FD130020F0B5012685B0384BD1
:106C6C00009038481E70FDF739FB02ABDD1D280083
:106C7C00FFF71CFF041E06D15C21334AFF31334859
:106C8C0001F0AFF826E02B78432B1CD10196802124
:106C9C002F48009B984700281FD1FA270426BF00D5
:106CAC000420FDF712FB3800FDF718FB2800FFF756
:106CBC00FDFE041E02D02B78062B0BD0013EF6B243
:106CCC00002EEDD105E0B021224A49001F4801F009
:106CDC0088F80024200005B0F0BD04246B461E4E3D
:106CEC001B7900273370164B1B787370DB43B37022
:106CFC00FFF7BAFE3300020A83331A703300843371
:106D0C001870F05D0137FDF7E0FA852FF9D1FA2004
:106D1C008000FDF7E3FA2800FFF7C8FE002802D038
:106D2C002B78062B06D0013CE4B2002CD6D10B4AB2
:106D3C008621A3E7024B024A1B7801331370A6E7A6
:106D4C007F140020102700001EF1000887F00008B7
:106D5C00FD13002042F10008FA130020C6F00008D1
:106D6C0037B56B468025D91D0870054C05482D019B
:106D7C00A562032301220068FEF748FDA56137BD1B
:106D8C00000400508014002010B5041D1020E4B243
:106D9C0023091843FFF7E4FF0F202040FFF7E0FF23
:106DAC0010BDB02310B51843FFF7DAFF10BD00007B
:106DBC0010B50A000100034803230068FEF726FD06
:106DCC0010BDC0468014002010B5A0B08022002158
:106DDC00684603F074FD00242000FFF7E2FF013445
:106DEC000020FFF7D1FFE4B280216846FFF7E0FFF7
:106DFC00082CF1D120B010BD224B10B51860012029
:106E0C00FDF7ACFE3220FDF7A9FE0120FDF7A6FE32
:106E1C00A220FFF7A5FFA120FFF7A2FFC020FFF7DC
:106E2C009FFF2420FFF79CFF8120FFF799FF28206C
:106E3C00FFF796FF2C20FFF793FF5420FDF78EFEF3
:106E4C002E20FFF78DFF2A20FDF788FE2F20FFF75D
:106E5C0087FF5420FDF782FEF820FFF781FFAF205B
:106E6C00FFF77EFF4020FFF77BFFA420FFF778FFA2
:106E7C00A620FFF775FFFFF7A7FFAF20FFF770FF06
:106E8C0010BDC0468014002007B5030C01A90B707F
:106E9C008870030A03484B70032200230068FEF736
:106EAC00B5FC07BD88140020062307B5044801A9CA
:106EBC000B700122033B0068FEF7A8FC07BDC0461F
:106ECC00881400200122024B1A70024B1860704784
:106EDC008414002088140020AB2307B5044801A9B2
:106EEC000B700122A83B0068FEF790FC07BDC04662
:106EFC0088140020052337B5084D01AC2370043BE2
:106F0C0028681A002100FEF781FC28680223012260
:106F1C002100FEF7C7FC20783EBDC0468814002037
:106F2C0070B5064D2C78002C06D1FFF7E3FF01233A
:106F3C00184201D11C002B70200070BD841400205D
:106F4C00114BF7B506000D001700994205D90F4AF1
:106F5C008C210F4800F045FFFEE7FFF7E1FF00280A
:106F6C00FBD0032301A90B4C0B70023B1A002068C9
:106F7C00FEF74CFC2800FFF787FF3A003100022394
:106F8C002068FEF78FFCF7BDFFFF070090F10008AB
:106F9C006AF1000888140020802210B50902520002
:106FAC00FFF7CEFF10BD10B59BB2090289181A006D
:106FBC00FFF7C6FF10BD0000F0B50C00170085B040
:106FCC0000900193FFF7ACFF0028FBD0FFF76CFF9C
:106FDC00012302260A4D03A91A0028680E70FEF739
:106FEC0015FC2002C019FFF74FFF3300019A0099DE
:106FFC002868FEF70BFC0022024B1A7005B0F0BD9E
:10700C00881400208414002037B505000C00FFF70D
:10701C0087FF0028FBD0FFF747FF012D22D0002D62
:10702C0008D0022D23D08421134A4900134800F0C4
:10703C00D8FE37BD202201AB1A7024030123104D5A
:10704C001A0001A92868FEF7E1FB2000FFF71CFFDE
:10705C000022022311002868FEF7D8FB0022094BFE
:10706C001A70E6E7522201AB1A70E403E6E7D82265
:10707C0001AB1A702404E1E773F100086AF100080F
:10708C0088140020841400209F2337B5050001A923
:10709C00064C0B709E3B1A002068FEF7B7FB2900CC
:1070AC00022303222068FEF7FDFB37BD8814002065
:1070BC001FB5002302A908700548009303AC0133E7
:1070CC0022000068FEF73AFC207804B010BDC046E0
:1070DC009414002010B5FF20FFF7EAFF10BD70B527
:1070EC0004004518FFF7F6FF20700134AC42F9D1CB
:1070FC0070BD0000002210B5044802231100006886
:10710C00FEF784FBFFF7E6FF10BDC0469414002089
:10711C0010B50A4CFFF7DEFFFF280DD0013C6420B0
:10712C00A4B2FDF70DFD002CF4D10548054ABA2197
:10713C0000F057FE200010BD0120FCE78813000072
:10714C00ACF10008AAF4000843B270B505000E00BB
:10715C00002B12DA00213720FFF7F6FF0123020083
:10716C0004009A4307D00300CD21214A214800F0A6
:10717C0038FE200070BD7F231D40FFF7BBFF0022AF
:10718C001D48012311000068FEF740FBFFF7C0FF0C
:10719C00FF240028EDD040202843FFF789FF300E54
:1071AC00FFF786FF300CC0B2FFF782FF300AC0B287
:1071BC00FFF77EFFF0B2FFF77BFF002D04D0082D08
:1071CC0014D0FFF787FF02E09520FFF771FF082529
:1071DC00FFF780FF04000306CBD5013DEDB2002D77
:1071EC00F6D10C210300054AFF31BFE78720ECE7FD
:1071FC005BF40008ACF100089414002076F400084D
:10720C00F8B5FA2406000F00A400FFF763FF050091
:10721C00FF280ED1013C6420A4B2FDF791FC002C98
:10722C00F3D12C21074AFF31074800F0DAFD280082
:10723C00F8BD39003000FFF752FFFFF74BFFFFF7A7
:10724C0049FFF4E73AF40008ACF10008014B186070
:10725C007047C04694140020F8B500235D4A5E4F79
:10726C005E4813703C68FEF7F3FB01002000FEF74C
:10727C00B7FBFA208000FDF763FC0A24013CE4B262
:10728C00FFF728FF002CF9D1643400210800FFF728
:10729C005BFF0300012800D173E0013CE4B2002C39
:1072AC00F3D14F4A88210AE0A2214E4AFF314E48C1
:1072BC0000F097FDEB78AA2B05D0A6214B4AFF31A5
:1072CC00494800F08EFDFFF715FF0020F8BDFA24A9
:1072DC00A4008021A920C905FFF736FF002821D181
:1072EC0001003A20FFF730FF031E17D104212800BC
:1072FC00FFF7F5FE2B785B060ED50323354A3C4889
:10730C0013703C68FEF7A4FB01002000FEF768FB3D
:10731C00FFF7F0FE0120D9E70223EFE7EB21354A16
:10732C004900CDE7FA20013C8000A4B2FDF708FC2F
:10733C00002CCED1F121304A49002B4800F051FDF0
:10734C00C1E700213B20FFF7FFFE0300012802D01C
:10735C002A4AF821E4E7FA24A40026000021A920F7
:10736C00FFF7F2FE051E2AD0013C3000A4B2FDF757
:10737C00E7FB002CF2D12B00214A2249A0E7012384
:10738C00BCE7D52108204900FFF7DEFE0128D8D143
:10739C001D4D04212800FFF7A2FEAB78012B00D075
:1073AC0082E7EB78AA2B00D084E700213B20FFF783
:1073BC00CBFE030001288AD0104AB0217FE7802140
:1073CC0010208900FFF7C0FE031ED8D00F4A1049C9
:1073DC0076E7C0468C14002094140020801A060016
:1073EC00A2F30008D5F20008ACF10008FCF200088A
:1073FC0040787D014EF30008D4F3000824F3000814
:10740C0000F40008090200008D14002078F3000835
:10741C001202000070B5002105000A20FFF794FE4F
:10742C0000280AD08B210300094A8900094800F082
:10743C00D8FCFFF75FFE002070BD10212800FFF77D
:10744C00DFFEFE28F5D1FFF755FE0120F4E7C0461C
:10745C005BF20008ACF1000870B5002105000920B2
:10746C00FFF772FE00280AD0922103000B4A890014
:10747C000B4800F0B6FCFFF73DFE002070BD10215C
:10748C002800FFF7BDFE0300FE2802D0054A06497E
:10749C00EEE7FFF72FFE0120F0E7C04685F200086B
:1074AC00ACF10008AEF200085102000070B50021EA
:1074BC0005000D20FFF748FE0400030609D5030064
:1074CC00084A0948094900F08CFCFFF713FE00201C
:1074DC0070BDFFF7FFFD240220182880FFF70AFE7D
:1074EC000120F5E7B2F10008ACF100086B020000D6
:1074FC003F2203780100934319D18079CA79800720
:10750C009200000D10430A7A4B7992090243887A53
:10751C001B07497AC0091B0F1B1889070233490F37
:10752C005B18DBB20132093B9A4010007047002017
:10753C00402BFBD1087A4B7A000201330343C87904
:10754C008006800A18438002F0E70000144B70B5E7
:10755C001B780500002B05D1124A1349134800F083
:10756C0040FCFEE7032B00D049021120FFF7ECFD95
:10757C00002809D003000E4A0E490C4800F031FCDB
:10758C00FFF7B8FD002070BD802128008900FFF7AF
:10759C0037FEFE28F4D1FFF7ADFD0120F3E7C0461E
:1075AC008C140020DCF10008BB020000ACF10008D8
:1075BC0007F20008CA020000F8B51F4B06001B7842
:1075CC001500002B05D11D4A1D491E4800F009FC71
:1075DC00FEE7002A04D0012A04D1FFF7B7FF05000B
:1075EC002800F8BD032B00D049021220FFF7ACFD98
:1075FC00041E16D18027BF0039003000FFF700FEB3
:10760C00FE2806D1802301349B00E4B2F618A54273
:10761C00F2D100210C20FFF797FD2500FFF76AFD42
:10762C00DEE70300084A0949064800F0DAFB0025AA
:10763C00FFF760FDD4E7C0468C140020DCF1000895
:10764C00E2020000ACF1000831F200080103000076
:10765C00204B70B51B780400002B05D11E4A1F4926
:10766C001F4800F0BEFBFEE7032B00D04902182098
:10767C00FFF76AFD031E08D01A4A1B49184800F090
:10768C00B0FBFFF737FD002070BDFFF741FDFF2376
:10769C00002812D0FE20FFF70BFD80239B00E5187D
:1076AC0020780134FFF704FDAC42F9D1FFF712FD4D
:1076BC00FFF710FDFFF70EFD03001F221A40052AED
:1076CC0003D0CE21094A8900D8E7FFF713FD01202A
:1076DC00DAE7C0468C140020DCF100081E03000021
:1076EC00ACF10008D4F400082D030000FEF40008EF
:1076FC00374BF7B51B7805001400002B05D1354A24
:10770C003549364800F06DFBFEE7002A04D0012A0B
:10771C0004D1FFF79DFF04002000FEBD032B00D019
:10772C0049021920FFF710FD00280AD0DA210300C6
:10773C002B4A8900294800F054FB0024FFF7DAFC9F
:10774C00EAE721009720FFF7FFFC071E03D0030098
:10775C00244A2549EEE7FFF7DBFCFF23002815D070
:10776C00FC20FFF7A5FC80232E009B00EB18019357
:10777C003078FFF79DFC019B0136B342F8D1FFF73F
:10778C00A9FCFFF7A7FCFFF7A5FC03001F221A407A
:10779C00052A0DD0E021154A8900104800F021FB84
:1077AC0000210C20FFF7D0FC3C00FFF7A3FCB3E753
:1077BC00802301379B00FFB2ED18BC42CBD1FFF701
:1077CC00A7FCFD20FFF774FCFFF794FCA4E7C04670
:1077DC008C140020DCF1000849030000ACF1000817
:1077EC001BF5000845F5000873030000FEF40008C3
:1077FC0010B50024E0B2FFF7D4FA0020FFF7C4FA6A
:10780C00044BE001C01880210134FFF7D1FA082C99
:10781C00F0D110BD98140020802210B5D2000021A8
:10782C00014803F04CF810BD9814002010B5FFF778
:10783C00F3FF10BD43B210B5002B08DB3F2906D86F
:10784C00CB08012A0FD0002A02D0022A15D010BD75
:10785C000F4ADB01D31807221140063A8A40195C03
:10786C000A431A54F3E70A4CDB01E31807242140BE
:10787C008A40195C91431954E9E7054ADB01D31896
:10788C0007221140063A8A40195C4A40E9E7C04693
:10789C0098140020F8B504000E001F001218D5B281
:1078AC00AC4200D1F8BD20003A0031000134FFF7A2
:1078BC00C1FFE4B2F4E7F8B506000C001F00521843
:1078CC00D5B2AC4200D1F8BD21003A0030000134F1
:1078DC00FFF7B0FFE4B2F4E7F0B587B01D000CABD6
:1078EC001B7807000C001600049390420DD1A9429E
:1078FC0001D92C000D0001352A1BD2B2049B2100AA
:10790C003800FFF7D8FF07B0F0BDA9420CD1904268
:10791C0001D9170006000136F21BD2B2049B2100DC
:10792C003800FFF7B7FFEEE7831ADBB20293904201
:10793C0002D2131ADBB20293631BDBB20193AC428B
:10794C0002D22B1BDBB201930123019A0593029BFC
:10795C0093420BD31300029A02932B0035001E00A6
:10796C0023003C001F00002301920593AC4205D973
:10797C003B0037001E0023002C001D00019B0097CC
:10798C005B08DBB20393A542BDD3059B049A002B85
:10799C0018D021000098FFF74DFF039B029A9B1A09
:1079AC009BB21AB20392002A09DA009AB7420CD29F
:1079BC000132D2B20092019A9B181BB2039301348C
:1079CC00E4B2E0E700992000E5E7013AF1E7F7B50A
:1079DC000E0004001500019308AB1F783B00FFF765
:1079EC0059FF019B2A00591E71183B002000C9B297
:1079FC00FFF750FF3B003100019A2000FFF75BFFBF
:107A0C00681E20183B003100C0B2019AFFF753FFEB
:107A1C00F7BDF7B505000C0016005B1808AADBB221
:107A2C0017780193019B9C4200D1F7BD21003B00CC
:107A3C00320028000134FFF72DFFE4B2F2E7F0B575
:107A4C0015001C0093B20122D21A5B0089B05B4274
:107A5C0001911BB2691802920793C9B22BB2220092
:107A6C0000900493FFF7E6FE009B2200E818C0B2DA
:107A7C000199FFF7DFFE019B2200591BC9B2009848
:107A8C00FFF7D8FE009B2200581BC0B20199FFF7EC
:107A9C00D1FE0023049A934201DB09B0F0BD029A97
:107AAC00002A0CDB049A013A12B20492079A0232B1
:107ABC0092B211B207910299521812B2029201338A
:107ACC009BB2029A06935B0001339B181BB2029384
