:020000040800F2
:1000000000500020198300086983000869830008F4
:1000100000000000000000000000000000000000E0
:1000200000000000000000000000000069830008DC
:10003000000000000000000069830008013900088A
:1000400069830008698300086983000869830008E0
:1000500069830008698300086983000869830008D0
:1000600069830008698300086983000869830008C0
:100070006983000869830008E5390008698300087E
:1000800069830008698300083D240008000000001F
:100090006983000869830008698300086983000890
:1000A000698300086983000869830008C53900086E
:1000B000D53900086983000800000000D922000833
:0C00C000F8B5C046F8BC08BC9E4670476E
:1000CC0010B5064C2378002B07D1054B002B02D022
:1000DC00044800E000BF0123237010BD380300204A
:1000EC000000000044A50008044B10B5002B03D001
:1000FC000349044800E000BF10BDC04600000000EA
:10010C003C03002044A5000870B586B000240125EE
:10011C0002F08AFB03F0F8FB03F0F4F803F064FC44
:10012C0003F00AFA02F07AFE02F050FDE1220823F5
:10013C002900520201950094414803F0AFFC03F0F2
:10014C0051FE02F0CBF83C2229003E4802F072FE30
:10015C0029003D4802F046FD3C4803F0B7FBFF2266
:10016C003B4E0300290002920194FD3A00943000AA
:10017C0003F0F8F9300004F085FF364803F0A6FBD5
:10018C000322354E030000920221029401943000A8
:10019C0003F0E8F9300004F04BFD304803F096FB17
:1001AC002F4E02210422030002940194009430008B
:1001BC0003F0D8F9300004F0A1FD04F0A9FDFA20F9
:1001CC00284B00019D6102F0BBFC642002F0AAFCEC
:1001DC0002F0ECFC8022244B52019A6205F038FAB2
:1001EC0040208026214D6B782A78C01AB61AC10F90
:1001FC000918F00F6D68801949104010C0B2C9B2CF
:10020C000094019505F0C7FB05F004FA184C20008A
:10021C0003F046FF174B1A78002A04D00022200066
:10022C001A7003F03DFF17256D44280003F036FECD
:10023C00002802D0287803F05FFF30BFEAE7C04601
:10024C0014190020E81800200019002040787D01C6
:10025C00F0180020002D31011C1B0020408AF701F2
:10026C0004190020001C0050000400504C00002019
:10027C0050A50008181900200122014B1A70704774
:10028C001819002010B504000A2802D10D20FFF720
:10029C00F9FF2100014803F03FFD10BD14190020A7
:1002AC00BFF34F8F034B044ADA60BFF34F8FC04646
:1002BC00FDE7C04600ED00E00400FA05002170B532
:1002CC001A4A0500080004F0F5F9194B002818D05B
:1002DC00184B1C88012D09D8FA25AD00002C0FD025
:1002EC002800013C02F010FCA4B2F7E712490120EF
:1002FC0004F07CF9002806D1FA25AD00002C0FD1B2
:10030C000023180070BD0D4B0128FAD1FA25AD0061
:10031C00002CF5D02800013C02F004FCA4B2F7E755
:10032C002800013C02F0F0FBA4B2E7E7FFFF00005D
:10033C0068A700081022002081A600088AA70008E0
:10034C00002170B5104A0600080004F0B3F90F4BF9
:10035C00002814D00E4C2588012E12D90A4A64218B
:10036C00012004F0A7F90B4B002808D0208802F0DC
:10037C00E7FB280002F0D6FB02F018FC0023180063
:10038C0070BDFA200001F2E710270000A0A60008BB
:10039C0010220020C8A60008094910B5063100201B
:1003AC0004F024F9002803D0012805D0054802E008
:1003BC000122054B9A6110BD034B98620020FAE7AD
:1003CC0081A6000868A80008001C0050F0B50C6855
:1003DC0087B0237806003D4D002B60D0200008F03C
:1003EC0083FA03285BD801284CD100210322080092
:1003FC0004F02CF9364D002851D0364B0E241B78C6
:10040C00022B05D0073C032B02D00834012B49D119
:10041C00012E49D9304A0021012004F04BF92F4D0F
:10042C0000283CD02B4B1D88FA218900080068431A
:10043C00F530FF3007F0B2FF294F0100380005F00E
:10044C002BFC00262100274802F02CFC0190019B7C
:10045C00254826495843264BC01807F09FFF0290A9
:10046C00002D06D0731C31002248039308F058F875
:10047C00039E029A0199204808F052F8002D1BD1D6
:10048C0000250CE0601C002205A908F06BFB059B05
:10049C001A4D1B78002B02D1C4B21228B8D92800EF
:1004AC0007B0F0BD0824B3E70025BDE78022144B4C
:1004BC0092001B691342E3D0380005F0F6FB0028CC
:1004CC00F4D0380005F006FCBCE7C0464FAA000883
:1004DC0034AA00081022002060EA000080AA00085C
:1004EC005403002000190020E40C0000FF0F000052
:1004FC00FF070000ABAA0008B0AA00080DAA00086C
:10050C0000080050F7B5002847D00021274A080002
:10051C0004F0D0F8264B002846D0264B1C88FA2134
:10052C00890008006043F530FF3007F037FF224D9B
:10053C000100280005F0B0FB002680231F4F01208E
:10054C00BB6102F0EFFA09211D4802F0ABFB03007E
:10055C0080221C48BA6258431B4B1C49C01807F038
:10056C001DFF01970090002C05D03100771C184816
:10057C0007F0D6FF3E006B461648198807F0D0FFEF
:10058C00002C10D08027BF00280005F08EFB00281F
:10059C0005D0280005F09EFBCFE70400BFE7019BC8
:1005AC001B693B42F0D100231800FEBD60EA00003D
:1005BC0080AA0008102200205403002000080050DC
:1005CC0000190020C8190000FF070000FF0F0000F1
:1005DC00ABAA0008B5AA0008F0B589B005930EAB1C
:1005EC001B78170003930FAB1B780F24029311ABEE
:1005FC001B8820260693130C92B200920A0001006D
:10060C001A4807F08DFF01231A00029907938A40BC
:10061C00013A0492039AA51A4D43039BA34219DC99
:10062C00059BA34216DB069B079A23412E201342FF
:10063C0005D03B00EB40049A1340109AD05C07F0B5
:10064C0089FF300007F086FFA30705D0029B013C11
:10065C00ED1AE2E73000F2E7300007F07BFF002CE8
:10066C00F4D10A2007F076FF09B0F0BD9DAF000869
:10067C00F0B5364B85B0170002260A6802930023AA
:10068C000D000196009303970F3331490400FFF7D7
:10069C00A3FF304B0121029300236A680191009360
:1006AC00200003970F332C49FFF796FF2B4BAA68BA
:1006BC000293002301960093200003970F332849DF
:1006CC00FFF78AFF274BEA680293002301960093F9
:1006DC00200003970F332449FFF77EFF01210023ED
:1006EC00224E2A69029601910093200003970F3342
:1006FC001F49FFF771FF012100236A6902960191DE
:10070C000093200003970F331A49FFF765FF042667
:10071C00002319492A6A029100932000039701963D
:10072C0007331649FFF758FF134B6A6A02930823E5
:10073C00134900932000073303970196FFF74CFFF2
:10074C000A2007F007FF05B0F0BDC04680AE0008D8
:10075C0078AE00088DAE000885AE000898AE000893
:10076C0090AE0008A5AE00089DAE0008B2AE000821
:10077C00AAAE0008B5AE0008C5AE0008BDAE0008B4
:10078C00D6AE0008F8B52C4C60792668277903287A
:10079C0027D807F0EFFD021B1D22284807F0C0FEEA
:1007AC00237A012B1FD0022B21D001256379BD4068
:1007BC00002B1ED133692B4031209D4200D03020BC
:1007CC0007F0C8FE0A2007F0C5FE09E01C48E5E763
:1007DC00A17A1C4807F0A4FEE2E71B4807F02EFFA5
:1007EC00F8BD1A48FAE71A4807F09AFEDDE71948EF
:1007FC00FAE7A379002B0BD0012B0DD0164807F08C
:10080C008FFEE07903280CD807F0B4FD0810121401
:10081C00124807F085FEF1E71148FAE7114807F096
:10082C007FFE6379012BCDD17369C4E70E48F6E7DF
:10083C000E48F4E70E48F2E760030020DEAE000835
:10084C00E5AE0008EDAE0008F3AE0008FAAE000805
:10085C000EAF000817AF000837AF000820AF000834
:10086C002BAF00083EAF000843AF00084FAF0008A5
:10087C004BAF0008F7B506000F0014000193019B65
:10088C00E5B29D4203D90A2007F064FEF7BD2200B1
:10089C003100064807F044FE2A003900044802F0F3
:1008AC0039FA0134FFF76EFFE9E7C04655AF00088F
:1008BC0060030020F7B50F7804000E00284D002FC0
:1008CC003DD0080008F010F8032838D8012819D1B9
:1008DC0038003038234D062831D807F04BFD3C0446
:1008EC00080A0C0F11000522A021C90522E00122E3
:1008FC00FAE70022F8E703221B491BE00222FBE780
:10090C000122F9E70022701C01A908F02BF9019BC8
:10091C0002001B78154D002B11D10F280FD8307801
:10092C006138072819D807F01BFDDF04E70C1818ED
:10093C0018110F49D2B2200002F0ECF90025280062
:10094C00FEBD0C4D022AFAD10B49F3E70B4D012ADF
:10095C00F5D80B49EEE70622C6E70A4DEFE7C0468D
:10096C0007AE00087BAD000800080050B8AD0008C9
:10097C00000400505CAE0008000C005097AD00085D
:10098C00001C005057AD000870B50A4D09682800CE
:10099C00FFF790FF041E0BD101232A7906489340E0
:1009AC002A6812691A40934200D1044807F046FEA7
:1009BC00200070BD600300208CC80008B0AB00089C
:1009CC0070B50E4C0D0020000968FFF773FF00286E
:1009DC000CD16B681B78302B03D0312B07D0084817
:1009EC0004E00123227993402268936270BD0123B5
:1009FC002279934022689361F8E7C0466003002097
:100A0C0096AB000870B5124C060009682000FFF781
:100A1C0051FF051E16D1012E18D90E49022003F0E4
:100A2C00E5FD002803D001280ED00B4D0AE0012370
:100A3C002372002320006371A371E3716372A372AC
:100A4C0002F0ABF9280070BD0223F1E72072F0E749
:100A5C0060030020E0AA0008E7AA0008F8B51E4CC5
:100A6C0007000E0020000968FFF724FF051E1FD1A8
:100A7C0073681B78302B03D0312B1BD0174D17E02C
:100A8C006072022F19D91649B06807F023FF0028AD
:100A9C001FD10123A371032F12D100232372012331
:100AAC0063710233E37100232000A37202F075F925
:100ABC002800F8BD01236372E3E70023A371ECE780
:100ACC000849F06807F006FF01230028E6D0064D20
:100ADC00EEE7064DECE7C0466003002096AB00083D
:100AEC0047AB00084AAB000827AB000807AB00086F
:100AFC0070B50D682949280007F0ECFE041E20D1C2
:100B0C00A02102000F23C9056120FFF7B3FE0F23BC
:100B1C00220023496220FFF7ADFE0F23220021495A
:100B2C006320FFF7A7FE02231F491A006420FFF77A
:100B3C00A1FE012322001D496820FFF79BFE200027
:100B4C0070BD1B49280007F0C5FE041E1DD11948B5
:100B5C0007F074FDA021184AC9054120FFF788FD54
:100B6C00154A0F494220FFF783FD134A0D494320D4
:100B7C00FFF77EFD02220C494420FFF779FD03228A
:100B8C000A494820FFF774FDD9E729000B48FFF705
:100B9C0091FE041ED3D1FFF7F5FDD0E74DAB000855
:100BAC000004005000080050000C0050001C0050C5
:100BBC0051AB000856AB0008FFFF0000600300209B
:100BCC0010B5032449434C4351430368A3430B43DF
:100BDC00036010BD7FB500217F22080003F036FDB5
:100BEC00164B002827D00121154C1022080026781E
:100BFC0003F02CFD134B00281DD02578124C31002E
:100C0C00200002F061FB03232A006946200002F059
:100C1C0059FA0E4B00280ED0002405E06B460C4808
:100C2C00195D07F07DFC0134E3B2AB42F6D30A2028
:100C3C0007F090FC0023180004B070BDF0AF000862
:100C4C0010220020C4AF0008E8180020E9AF00080B
:100C5C000EB000080021F0B57F2285B00600080018
:100C6C0003F0F4FC174D002822D00124164F3B78DA
:100C7C000193E0B2864210D8144C01992000013E39
:100C8C0002F022FBF2B2032302A9200002F010F9B9
:100C9C000025A8420CD10E4D0AE0FF22002103F0E2
:100CAC00D5FC631C051E06D121000A4807F038FC50
:100CBC00280005B0F0BD04AA14193A78093C22703A
:100CCC001C00D6E7F0AF000810220020E818002026
:100CDC00E9AF00089CB00008802110B5064C022238
:100CEC0020004900FFF76CFF022280212000914078
:100CFC00FFF766FF10BDC0460004005001228021A2
:100D0C0010B5064C91402000FFF75AFF80210122BC
:100D1C0089002000FFF754FF10BDC04600040050AE
:100D2C0037B51B4CFFF7EAFF2269D30502D41948EB
:100D3C0007F084FC23699B0502D4174807F07EFC5E
:100D4C00FFF7CAFF0024E1B2802C01D100203EBD88
:100D5C00124D280002F0B8FA0022032311002800DB
:100D6C0002F0A6F8002803D021000D4807F0D8FBAC
:100D7C006946032301220731280002F0A3F9002859
:100D8C0003D02100074807F0CBFB0134DBE7C0465A
:100D9C00000400504FB000085FB00008E8180020B5
:100DAC008CB0000894B0000810B5134CFFF7A6FFE8
:100DBC00124807F0B5FB23691148DB0500D5114833
:100DCC0007F03CFC104807F0ABFB23690C489B0573
:100DDC0000D50C4807F032FC2369DB0502D40B4824
:100DEC0007F02CFC23699B0502D4094807F026FC6C
:100DFC00FFF772FF002010BD00040050B6AF0008D2
:100E0C008CC80008B0AB0008BDAF00084FB000089C
:100E1C005FB00008F8B580260E4DFFF76FFF2B6909
:100E2C007600334212D0FA270824BF003800AE6295
:100E3C00013C01F069FEE4B2AE61380001F064FEE1
:100E4C00002CF3D1FFF748FF2000F8BDFFF744FF5B
:100E5C000148FAE70004005014B00008F0B50D008A
:100E6C00002185B007007F22080003F0EFFB00286B
:100E7C0006D17F21164807F053FB002005B0F0BDCA
:100E8C00144E3F22337800210120039303F0DEFB44
:100E9C00002802D13F211048EDE7032F15D9EB684C
:100EAC001B78312B11D0692B04D00C48302BE5D199
:100EBC00012300E00223A9683278094800910399C4
:100ECC0004F0B6FD04F0A6FBD7E70023F3E7C04619
:100EDC0032B30008102200204EB3000800B3000803
:100EEC0044000020F7B50E00002107007F22080007
:100EFC0003F0ACFB002805D17F211B4807F010FB49
:100F0C000020FEBD194D3F222B78002101200093BB
:100F1C0003F09CFB002802D13F211548EEE72B780B
:100F2C00802201210220019303F090FB002802D1C2
:100F3C0080211048E2E7032F13D9F3681B78312B7B
:100F4C000FD0692B04D00C48302BDAD1012300E0F0
:100F5C0002232A780199009804F083FC04F05AFBD0
:100F6C00CEE70023F5E7C04632B30008102200207C
:100F7C004EB3000854B2000800B30008F0B50E00E0
:100F8C00002187B007007F22080003F05FFB041EDE
:100F9C0006D17F21224807F0C3FA200007B0F0BD2C
:100FAC00204D3F222B7800210120039303F04EFBB0
:100FBC00041E02D13F211C48EDE72B788022012131
:100FCC000220049303F042FB041E02D18021174837
:100FDC00E1E72B78402201210320059303F036FB37
:100FEC00041E02D140211248D5E7042F16D93369CB
:100FFC001B78312B12D0692B04D00E4C302BCCD15A
:10100C00012200E002222B78049900920398059AA1
:10101C0004F011FC002404F0FDFABEE70022F2E714
:10102C0032B30008102200204EB3000854B200085E
:10103C0070B2000800B30008F0B50E00002187B0B4
:10104C0007007F22080003F001FB041E06D17F215C
:10105C00224807F065FA200007B0F0BD204D3F2272
:10106C002B7800210120039303F0F0FA041E02D127
:10107C003F211C48EDE72B788022012102200493AC
:10108C0003F0E4FA041E02D180211748E1E72B7823
:10109C00402201210320059303F0D8FA041E02D14B
:1010AC0040211248D5E7042F16D933691B78312B10
:1010BC0012D0692B04D00E4C302BCCD1012200E085
:1010CC0002222B78049900920398059A04F091FB64
:1010DC00002404F09FFABEE70022F2E732B30008C6
:1010EC00102200204EB3000854B2000870B2000861
:1010FC0000B30008F0B50E00002187B007007F2276
:10110C00080003F0A3FA041E06D17F21224807F041
:10111C0007FA200007B0F0BD204D3F222B780021AC
:10112C000120039303F092FA041E02D13F211C48C4
:10113C00EDE72B787F2200210220049303F086FA3E
:10114C00041E02D17F211748E1E72B783F220021B2
:10115C000320059303F07AFA041E02D13F211248B2
:10116C00D5E7042F16D933691B78312B12D0692B94
:10117C0004D00E4C302BCCD1012200E002222B7873
:10118C00049900920398059A04F0B8FA002404F02C
:10119C0041FABEE70022F2E78CB2000810220020D0
:1011AC00A9B20008C6B20008E3B2000800B30008F8
:1011BC0010B504F043FA04F02DFA002010BD000025
:1011CC00F7B50E00002107007F22080003F03EFA5D
:1011DC00002805D17F21144807F0A2F90020FEBD9C
:1011EC00124D3F222B7800210120019303F02EFA9F
:1011FC00002802D13F210E48EEE7022F12D9B36826
:10120C001B78312B0ED0692B04D00A48302BE6D139
:10121C00012200E002222978019804F01DFA04F062
:10122C00F9F9DBE70022F6E732B3000810220020C0
:10123C004EB3000800B3000810B50A49002003F0B3
:10124C00D5F9002803D0012806D0074803E08022F6
:10125C00064B52019A6210BD8022044B52019A61D6
:10126C000020F8E74CB2000868A800080004005001
:10127C000122F8B5524204000F000120002103F0B6
:10128C004DFA002806D101211C48494207F048F9C3
:10129C000020F8BD3B681A4E1B7835686C2B1ED0AD
:1012AC00772B19D01748622BF3D1022CF0D02000E9
:1012BC00FF22002103F0CAF93378013C2B70E4B211
:1012CC000135F2E72000104A002103F0F3F93388CE
:1012DC00013C2B80E4B20235022CF3D1D8E7012774
:1012EC007F42022CD4D020003A00002103F016FAE1
:1012FC003368013C2B60E4B20435F2E721B60008F8
:10130C0010220020D4B50008FFFF0000F7B5012221
:10131C0001900E0052420021012003F0FFF9002839
:10132C0006D101211F48494207F0FAF80020FEBD02
:10133C001D4D019B2F680124022B08D9102221007E
:10134C00022003F083F9031E1848F0D02C78336880
:10135C001B786C2B1AD0772B15D0E419622B07D085
:10136C001348E4E7397813480A0007F0D9F8013735
:10137C00A742F7D1DAE739880F480A0007F0D0F80E
:10138C00013C0237E4B2002CF5D1CFE73D00002C34
:10139C00CCD002CD09480A00013C07F0C1F8E4B2F8
:1013AC00F5E7C04621B600081022002092B50008CF
:1013BC00D4B50008B1B50008BCB50008C7B5000825
:1013CC000122002170B55242080003F0A7F9002851
:1013DC0006D101210F48494207F0A2F8002070BD48
:1013EC00802201210C4C92000800266803F062F95F
:1013FC00002803D1802109488900EDE72588084C95
:10140C0031002A00200007F079F82900200003F0B1
:10141C00B9F9E3E721B60008102200206CB50008EA
:10142C0019190020F0B50E260C0089B004AD6E44DD
:10143C0003AF009533003A001549206807F0D4F942
:10144C00162312226B4400936A4405AB1149606861
:10145C0007F0CAF93B8806AC237033882000637010
:10146C002B88A3706B465B8AE3706B469B8A237157
:10147C006B46DB8A637104F0E1FB074B002803D059
:10148C00200001F069FF0023180009B0F0BDC04630
:10149C00BCB7000888D500088CB7000807B56846AB
:1014AC0001F0D0FF684604F0E7FB0A2007F052F881
:1014BC0000200EBD70B5144B002800D00B68134DE6
:1014CC001900280006F070FE114A00280BD01000FD
:1014DC0070BD637A002B0DD02000093007F020F886
:1014EC000A2007F037F80B4C2800210006F09BFE71
:1014FC000028EED0280006F08DFE0300581E834114
:10150C00054A5B421A40E2E727BA00086C03002048
:10151C0029BA0008C805002043BA0008012200219E
:10152C0010B55242080003F0F9F8002806D1012149
:10153C000A48494206F0F4FF002010BD084B094C44
:10154C001968200003F016FF031E0748F5D0802110
:10155C002000890003F016F9EEE7C0467DBA0008BA
:10156C0010220020191900205EBA0008434BF7B571
:10157C001D698023424E1D407DD103F089FD414EF3
:10158C00002878D0404C200003F060FE3F4E00282D
:10159C0071D021783E4806F0C3FFA27861783D48AF
:1015AC0006F0BEFF3C4806F0BBFF6319D878013546
:1015BC0006F0D0FF052DF8D10A2006F0CBFF0F2244
:1015CC00217A36480A40090906F0AAFFA37A617A03
:1015DC001B020B43E17A324809040B43217B0906B9
:1015EC00194306F09DFFA37B617B1A0909071B07B2
:1015FC001B0F090E1943FA23DB00C918294806F002
:10160C008FFF200003F044FE274E002833D02178B2
:10161C002648890906F084FF6178254806F080FF8A
:10162C00A178244806F07CFFE178234806F078FF87
:10163C00617922480907090F06F072FF200003F0B8
:10164C006BFE4102090D1E4806F06AFF1D4F012278
:10165C0039001D4806F082FD1C4E051E0BD101AA57
:10166C002100380006F004FE2E00002803D12100D2
:10167C00174806F055FF3000FEBDC0460004005070
:10168C009FB80008BBB8000819190020DFB8000883
:10169C0006B900081DB900082BB900083AB90008B2
:1016AC004EB9000860B9000850B8000879B90008B4
:1016BC0086B90008A3B90008C0B90008DCB9000855
:1016CC00FCB9000811BA00089803002082B8000881
:1016DC0012BA0008F7B507000C00002C3FD080238D
:1016EC001F4E5B003088221C1B1A9BB29C4200D9F7
:1016FC001A1C93B20093002807D11A4B19880F2398
:10170C00194202D1090903F09BFB6B46154D1B785E
:10171C00327829883800019303F06AFB00210120FC
:10172C003388009AD3189BB233802A880E4EFF2B35
:10173C000AD8002902D00A492A800B80009BFF1886
:10174C00019BE41AE4B2C8E7013B0132FF3B92B2C1
:10175C009BB20100B242EAD901492A800B80F7BD45
:10176C00E2050020E4050020FF070000F7B50600A5
:10177C000D00002D01D1012033E01A4B2C1C1A88CE
:10178C0080235B009B1A9BB29D4200D91C1C164FF8
:10179C00A4B2E3B23988D2B23000019303F01FFB3C
:1017AC0012483A88078800200E490B88E3189BB230
:1017BC000B80FF2B09D8002802D00B800A4B1A8013
:1017CC00019B3619ED1AEDB2D3E7013B0132FF3B19
:1017DC0092B29BB20120BA42EBD900200B80024B93
:1017EC001A80FEBDE2050020E4050020E005002083
:1017FC0070B5051E2FD000217F22080002F05AFF81
:10180C00002805D17F21164806F08AFE002070BD05
:10181C00144E3488022D21D17F220021012002F0A8
:10182C0049FF002802D17F210F48EDE735882A00B7
:10183C0021000E4806F074FE21000020013403F054
:10184C00FFFAA4B22E2006F085FEA542F4D2084879
:10185C0006F0F4FEDAE704007F25E8E72500E6E76A
:10186C006BBB00081022002092BB0008B7BB00081D
:10187C00C8BB000837B501AC200003F021FBA378EE
:10188C0062782178284806F04BFE80212748890091
:10189C0006F046FE80212648090106F041FE802113
:1018AC002448490006F03CFE8021234806F038FE0F
:1018BC00224806F0C3FE03F039FA04000100204868
:1018CC0006F02EFE072121404B1E99411D4806F0C3
:1018DC0027FE062121404B1E99411B4806F020FE95
:1018EC000521012521404B1E9941184806F018FE90
:1018FC00A1082940164806F013FE032121404B1E77
:10190C009941144806F00CFE61082940124806F073
:10191C0007FE21001148294006F002FE0021104864
:10192C0006F0FEFD00203EBDCEBB0008FABB000851
:10193C0008BC000814BC000829BC000836BC000810
:10194C0046BC000856BC000863BC000870BC00080C
:10195C007DBC00088ABC000897BC0008A4BC000829
:10196C00B1BC00080021F0B51E4A85B00700080084
:10197C0002F0A0FE002806D11A491B4806F0D0FD43
:10198C00002005B0F0BD194EFF2233880021012044
:10199C00019302F08FFE002802D1FF211448EDE7DD
:1019AC0002243588A742EBD9FF220021200002F047
:1019BC004DFE002802D121000E48DFE702ABD81DF6
:1019CC003378EAB20135037001990123ADB203F00B
:1019DC000FFAFF2D02D9611E0748CFE70134E4B29C
:1019EC00E0E7C046FF070000ADBD00081022002054
:1019FC00CDBD00089CB00008EEBD0008002110B55C
:101A0C000B4A080002F056FE002805D10849094887
:101A1C0006F086FD002010BD074C084B20001988ED
:101A2C0003F0D6F980212000490002F0ABFEF1E76B
:101A3C00FF070000ADBD000819190020102200207E
:101A4C00002170B5114A080002F068FE002805D18B
:101A5C000E490F4806F064FD002070BD01210D4CAD
:101A6C00FF220800266802F025FE002802D1FF2183
:101A7C000948EFE72588094C310020002A0003F0C3
:101A8C007BF92900200002F07DFEE5E7FFFF07004F
:101A9C00BEBC000810220020E1BC0008191900206F
:101AAC0070B50400051E2ED00021184A080002F063
:101ABC0001FE002805D11549154806F031FD00201E
:101ACC0070BD144E3588012C1DD9104A00210120FF
:101ADC0002F0F0FD002802D10C490F48EDE73488E4
:101AEC000E4806F0ABFD80220D4992000B691340A5
:101AFC00FCD10C4A0C4815800C4A14800C4A1380FB
:101B0C0002F0C6FFDBE7014CEAE7C046FF07000026
:101B1C0007BD0008102200202DBD000851BD000893
:101B2C0000080050E405002079170008E0050020AB
:101B3C00E205002010B500281FD00021104A080033
:101B4C0002F0B8FD002805D10D490E4806F0E8FC5E
:101B5C00002010BD0C4B1C880C4806F06FFD802239
:101B6C000B4992000B691340FCD10A4A0A481480B5
:101B7C000A4A138002F024FFEAE70400ECE7C046AF
:101B8C00FF07000007BD00081022002028BE000837
:101B9C0000080050E4050020E1160008E2050020D2
:101BAC0070B50500002486B0E0B2AC420FD103231F
:101BBC0002AE0093320023003100114801F0FCFD0D
:101BCC000025A54216D10A2006F0C4FC09E0FF222C
:101BDC00002102F03BFD002806D12100094806F047
:101BEC009FFC002006B070BD074B1A7802ABE25484
:101BFC000134D9E7715D054806F092FC0135E0E748
:101C0C00F40500209CB0000810220020B6C100088A
:101C1C0037B505000024E0B2AC4206D10023220007
:101C2C0069460B4801F030FD09E0FF22002102F06B
:101C3C000DFD002805D12100064806F071FC00209E
:101C4C003EBD6A46044B1B78A3540134E3E7C046FF
:101C5C00F40500209CB000081022002030B51022A2
:101C6C0085B00121002002F0F1FC0E4B00280FD0B2
:101C7C000D4B69461D780D4800232A0001F050FDDC
:101C8C000024E3B29D4206D80A2006F063FC002330
:101C9C00180005B030BD6B460548195D06F040FCD8
:101CAC000134EEE7C4AF000810220020F405002038
:101CBC00B6C10008F0B5050087B00F00002822D08F
:101CCC000B681B78312B1CD03D4C322B16D1303B82
:101CDC000593012D19D979683A48FEF7EBFD041EDE
:101CEC000CD1022D16D00100374A022002F016FD4D
:101CFC00002811D13449354806F012FC200007B0F9
:101D0C00F0BD0123E4E7012305932E4A304B13CB9E
:101D1C0013C2002426001BE02E4B186801F0D6FDE0
:101D2C000600032D14D0FB682B4C18783038032890
:101D3C00E4D806F01FFB3F023B3D0124042D07D0E5
:101D4C002649042002F052FC002835D0012835D158
:101D5C00002501231B4A032117791068BB408361BE
:101D6C00BB40594302688A43134303601C4B1B78E6
:101D7C00002B02D01B4801F03BFC0027009402977B
:101D8C00019533003A000599164801F0EBFB164C0F
:101D9C00B842B3D0300001F0A7FD0100134806F0A3
:101DAC00BFFB01230E4A3C001370A7E70224C5E7D2
:101DBC000324C3E70024C1E70125CAE70C4C9DE7C7
:101DCC00DBC00008E80500200024F40072C1000804
:101DDC006CC3000810220020F7C00008CBC000081C
:101DEC0004060020F40500203CC1000895C1000841
:101DFC001AC10008114910B50931002002F0F6FB98
:101E0C00041E03D001280FD00D480CE0012318004C
:101E1C000C4A1179126888402100906222000A480D
:101E2C0001F032FC002010BD064B1A791B6894405F
:101E3C0000229C6111000223F1E7C046CBC00008D0
:101E4C0068A80008E8050020F405002070B505001E
:101E5C000024E0B2AC420AD0FF22002102F0F6FBD3
:101E6C00661C002805D12100054806F059FB00200E
:101E7C0070BD044B0448197801F04EFF3400E8E7BC
:101E8C009CB000081022002008060020F0B50B685A
:101E9C0085B01B7807000D00322B13D02F48342B44
:101EAC000ED1303B96212E4A49000120029302F0BC
:101EBC0035FC002808D12A492A4806F031FB0020BD
:101ECC0005B0F0BD0223EDE7022F28D9AB681B78D3
:101EDC00382B06D0392B12D02348372BF0D10726BC
:101EEC0000E00826032F37D0EB681B786E2B14D03C
:101EFC006F2B06D01D48652BE2D1022402E0092687
:101F0C00F0E70124042F0CD02B691B78312B08D05F
:101F1C000225322B06D01648D2E70024F2E7002423
:101F2C0008260125134B144F1B680393134B1B7886
:101F3C00002B02D0380001F087FE3300019500948D
:101F4C00039A0299380001F0A9FD031E0C48B7D082
:101F5C0001230A4A1370B2E70024E2E784C30008A5
:101F6C0080841E004AC40008A0C30008C0C3000837
:101F7C00F6C3000810220020080600200C060020E2
:101F8C0013C400087FB50D00002106002C4A080080
:101F9C0002F090FB2B4B002842D02B4B6D681C8819
:101FAC00297800290DD1032E14D12849022002F0E2
:101FBC001DFB012837D0002808D0022835D0244B2F
:101FCC002EE02448013501F0A7FEE9E70D21214858
:101FDC0001F0A2FEFA2189004C432000F530FF30BD
:101FEC0006F0DCF9010001A803F056FE012401A85B
:101FFC0003F05BFE00280FD16B46DD1C2900154851
:10200C0001F0C2FE0028F2D028780D2815D8124B0A
:10201C002200C3409A4310D10A2006F09BFA0023F9
:10202C00180004B070BD0A21D1E70A4D0D2128001B
:10203C0001F072FE0A212800CAE706F08BFAD6E7F7
:10204C00FFFF000032C500081022002078C30008F2
:10205C00DFC4000808060020012400000021F0B5B0
:10206C0010228BB00700080002F0F0FA2A4C00286E
:10207C0041D02A4E2A4A337800210120009302F0E5
:10208C0019FB284C002836D0022533880193AF4227
:10209C0026D8FA21019889004843F530FF3006F024
:1020AC007DF9010003A803F0F7FD002403A803F059
:1020BC00FCFD00280BD106AB19191B4801F064FE7E
:1020CC000028F3D00134009BE4B2A342EED80025E3
:1020DC00EBB29C4219D80A2006F03CFA00240AE024
:1020EC00FF220021280002F0B1FA041E06D12900BB
:1020FC000E4806F015FA20000BB0F0BD31780A48F6
:10210C00013501F009FEEDB2C1E706ABE95C084808
:10211C0006F006FA0135DBE76CC40008102200203B
:10212C00FFFF000032C50008080600209CB0000824
:10213C00B6C10008002130B5102289B0080002F0A9
:10214C0085FA1E4B00282ED01D4C1E4A0021012062
:10215C00257802F0AFFA1C4B002824D0FA212088F5
:10216C0089004843F530FF3006F018F9010001A84A
:10217C0003F092FD002401A803F097FD00280AD17A
:10218C0004AB1919114801F0FFFD0028F3D00134FC
:10219C00E4B2A542EFD80025EBB29C4206D80A2047
:1021AC0006F0D8F90023180009B030BD04ABE95C87
:1021BC00074806F0B5F90135EEE7C046BAC4000889
:1021CC0010220020FFFF000093C400080806002026
:1021DC00B6C1000873B58025AD00104B1C692C40AE
:1021EC0004D10A2006F0B6F9200076BD6B46DC1D42
:1021FC00200001F053FE0A4E002803D02178300055
:10220C0001F08AFD2100300001F0BEFD0028E4D071
:10221C00207801F04BFE0028FAD0DEE700080050D1
:10222C000806002013B56B469C1D200003F052F8E5
:10223C000123002803D02388581E8341DBB21800E9
:10224C0016BD10B502F024FF030001205840C0B2A7
:10225C0010BD10B508001100DAB21C0003F0C0F874
:10226C00001B431E9841C0B210BD10B508001100F0
:10227C00DAB21C0003F04EF9001B431E9841C0B2A9
:10228C0010BD10B501F00AFE10BD10B50400200001
:10229C0001F00CFE0028FAD010BD0000FA218900D4
:1022AC004843F53010B5FF3006F078F801000248CD
:1022BC0003F0F2FC10BDC0462C1B002010B50248E8
:1022CC0003F0F3FC10BDC0462C1B002010B50248D7
:1022DC0004F040FA10BDC046DC1D002010B5094CBE
:1022EC0000220949200004F043FE0849200004F0B4
:1022FC0059FE0749200004F0EDFD200004F05BFEC0
:10230C0010BDC046381B00201000002058000020D3
:10231C0000000020096810B589B201F0CFFD054C12
:10232C000549200004F0EAFD200004F009FE00201D
:10233C0010BDC046381B00205C1D002010B52228A3
:10234C0004D14B88DB0701D5FDF796FF002010BDAB
:10235C0080220121064BD202DA67064A002013685C
:10236C008B431360044A1F31936B8B439363704709
:10237C0004E100E0001400400010024013B5194CB9
:10238C0000221949200004F0AEFD1849200004F089
:10239C00B5FD2020164AC424916BA400014391631F
:1023AC00936B144A03400193019B134B13489A629D
:1023BC00802219680A431A600422DA62104A115901
:1023CC0008408021C903014311518021C9021160C9
:1023DC000122D96800201143D96019680A431A6098
:1023EC0016BDC046381B00209C1D00205C1D002023
:1023FC0000100240FF7C000000140040FFFF00FFB3
:10240C0000E100E00A00862110B5084C89000300A9
:10241C006058043941580120002906D119002000C8
:10242C0004F061FD200004F070FD10BD381B00208D
:10243C008623022170B50F4E9B00F3580E4A494279
:10244C001161002B14D0852292009B58002B0FD1C8
:10245C000A4C4231200001F03BFD051E08D0020061
:10246C002100300004F03FFD29002000FFF7CAFFD7
:10247C0070BDC046381B0020001400409C1D00207D
:10248C00094B026810B59A420DD18023074A1B04F0
:10249C00916B1F200B4393630022110003F058FC37
:1024AC001F2003F07FFC10BD005C004000100240B8
:1024BC0001008B2310B59B00ED31FF31C05804F0A7
:1024CC0095FD10BD1C234B43C318FC33DA698B23D9
:1024DC0010B59B00C05804F0BDFD10BD1C234B4330
:1024EC00C3189A6B8B2310B59B00C05804F0ECFDFD
:1024FC0010BD8B2310B59B00C05804F074FE10BDAA
:10250C0070B58B240500A4000121005904F056FE7F
:10251C00285904F02FFE70BD8B2310B504009B00CE
:10252C00C05804F04EFEA369002B04D00623024AC7
:10253C0011690B43136110BD00ED00E0836910B508
:10254C00002B04D00621054A13698B4313618B239E
:10255C009B00C05804F040FE10BDC04600ED00E0EA
:10256C008B2370B505001C489B00C5501B4B88265F
:10257C0003600823022243600023B600A851826046
:10258C00C36002618361C361036203F015FC041E26
:10259C0000D0FEE7020001001823A85904F05CFBF0
:1025AC00A85922005823802104F056FBA859220078
:1025BC00C023812104F050FB8823A85922005B0022
:1025CC00012104F049FB8023A8595B0022008221E1
:1025DC0004F042FB200070BDDC1D0020005C0040BC
:1025EC0088239B00C05810B503F03AFC0223032843
:1025FC0001D8024B1B5C180010BDC046B5C70008C3
:10260C0010B514001A0023008824A400005903F00C
:10261C0047FC0223032801D8014B1B5C180010BD9A
:10262C00B5C7000888239B00C05810B503F090FD77
:10263C000223032801D8024B1B5C180010BDC046B6
:10264C00B5C7000888239B00C05810B503F0D0FE16
:10265C000223032801D8024B1B5C180010BDC04696
:10266C00B5C7000888239B00C05810B503F008FFBD
:10267C000223032801D8024B1B5C180010BDC04676
:10268C00B5C7000888239B00C35848B21C220028F9
:10269C0006DA7F2001404A439B182A33187870478A
:1026AC004A439B18FF33D87AF9E7000088239B0034
:1026BC00C05810B503F0DDFB0223032801D8024BF0
:1026CC001B5C180010BDC046B5C7000810B58824A7
:1026DC00A400005903F046FF0223032801D8024B43
:1026EC001B5C180010BDC046B5C7000810B5882487
:1026FC00A400005903F0DAFD0223032801D8024B91
:10270C001B5C180010BDC046B5C70008882310B567
:10271C009B00C05803F062FE10BD000000487047DB
:10272C001006002070470000122301480B807047F0
:10273C002C000020042301480B807047400000202F
:10274C0010B5044C0A000448210004F011FF2000CD
:10275C0010BDC0460C200020D2C7000810B5044C98
:10276C000A000448210004F003FF200010BDC046FD
:10277C000C200020DCC7000810B5044C0A000448EB
:10278C00210004F0F5FE200010BDC0460C200020F6
:10279C00EDC7000810B5044C0A000448210004F0F1
:1027AC00E7FE200010BDC0460C200020B9C7000871
:1027BC0010B5044C0A000448210004F0D9FE200096
:1027CC0010BDC0460C200020C4C70008054B82B0C9
:1027DC009A6B02439A639B6B18400190019B02B069
:1027EC007047C04600100240054B82B0DA6A0243C3
:1027FC00DA62DB6A18400190019B02B07047C04658
:10280C000010024010B51020FFF7E0FF1F22044B10
:10281C009A62044ADA62082219680A431A6010BDE7
:10282C0000100040FFFF0000F7B501268020824C0D
:10283C00824D636B400533436363636B3340019399
:10284C00019BFFF7C3FF2B68B34333432B602B680B
:10285C00334200D1FEE78022794B7A4F196812017E
:10286C0039400A431A602268164326601E0004236E
:10287C0022681A42FCD06368734A1A4080235B01B9
:10288C00134363600123A2681343A36080236F4A40
:10289C009B01116A0B4313620223A2681A42FCD0FB
:1028AC0080200005FFF792FF694B6A491A68902057
:1028BC000A4020210A431A605A68C0051040664A33
:1028CC0002435A604022186802431A601A68114386
:1028DC001960802332685B001A433260226D174006
:1028EC002765226D1343236580239B00226D1A42BA
:1028FC00FCD0236D594A1A4080235B021343236595
:10290C008023226DDB0213432365E368544A1A408B
:10291C008823DB031343E360802322685B041343A7
:10292C00236080239B0422681A42FCD0F022E368C7
:10293C009343E360E3684B4A1340E360E3684A4A1D
:10294C0013400322E360E3681343E3600C23E6685F
:10295C001E400C2EFBD1454804F0BCF90322E36C5D
:10296C0001209343E364E36C414AB343E364E36CB7
:10297C0013408022E364E36CD2041343E3644023EA
:10298C002A6813432B60FFF72FFF0220FFF72CFF61
:10299C000420FFF729FF0820FFF726FF8020FFF710
:1029AC0023FFA022334BD2058021D36000230905DD
:1029BC005360916081218900516188208821C00079
:1029CC00C901116250622C48106082202B4AC00150
:1029DC00D060C02080005060294890602948506128
:1029EC0044201362506228481060284A2848D0605E
:1029FC008020800153609060A020C0005061802036
:102A0C008004106251622349102011600421224A73
:102A1C00D3605360936051611362536210601F4A1C
:102A2C00D16053609360536113625362013313603E
:102A3C00FFF7E8FEF7BDC046001002400020024040
:102A4C0000700040FFE7FFFFFFE0FFFF00000140C8
:102A5C00006C0040FFC0FFFF7FBB2220FFFFFCFF8C
:102A6C00FFFF02FFFFF8FFFFFFC7FFFF0048E80171
:102A7C00FFCFFFFF4A281064A0C3E82B00040050CE
:102A8C008008A088441700009F1A5AA9000800501B
:102A9C00A9004405006FA1F0000C0050001C005070
:102AAC00013800B5032806D805F064FC0206090DB0
:102ABC004022064B9A6200BD054B0422FAE78022A5
:102ACC00024BD200F6E7014BF7E7C046000400507A
:102ADC00000C0050013800B5032806D805F04AFC5C
:102AEC000206090D4022064B9A6100BD054B0422DB
:102AFC00FAE78022024BD200F6E7014BF7E7C0461B
:102B0C0000040050000C00500122054BD8625A61A1
:102B1C0019681143196019681142FCD17047C046FD
:102B2C000010004070B5FA250400AD00002C00D157
:102B3C0070BD2800013CFFF7E7FFA4B2F6E70000E8
:102B4C0070B505000220FFF741FE4023144CFF3303
:102B5C00A3622268BF3B13432360124B6A00002020
:102B6C009A4206D8A021890069430F4805F016FC4B
:102B7C00013873230221A269E0629A43236A8B43D2
:102B8C00236238231343A3610123226A1A4322626E
:102B9C0022681A43226062691343636170BDC046A8
:102BAC0000040040A08601000048E8010121054A0C
:102BBC0013688B431360044A4918936B8B439363DC
:102BCC007047C04600040040001002400122034B35
:102BDC001A71034A1A6000225A717047300800209B
:102BEC000024014073B5002805D1274AAE2127489F
:102BFC0002F0EAFFFEE70024046001293CD18026A4
:102C0C002349B6004D6B234C354323684D634A6B07
:102C1C00C02132400192019A1A6909060A431A61CD
:102C2C009A681D491140802252050A4307219A6077
:102C3C005A698A43110002220A4318215A61DA6840
:102C4C008A43DA6080229D68144912060D402A439B
:102C5C000D009A609A68002AFCDB01221A609968C0
:102C6C0029401143996019681142FCD0046001207D
:102C7C0063790133637176BD0448094ABC2102F0C3
:102C8C00A3FF2000F7E7C0462EC80008FAC70008CB
:102C9C000010024030080020E8FFFF6FE8FFFF7FC4
:102CAC003DC8000810B5002806D18821144A4900F7
:102CBC00144802F089FFFEE70368002B06D18A2135
:102CCC00114A49000F4802F07FFFFEE75A79002AAB
:102CDC0006D116210D4AFF310A4802F075FFFEE7B6
:102CEC0001228A401B680A499A629A680A400421A8
:102CFC000A439A609A680A42FCD1186C80B210BDE3
:102D0C002EC80008FAC7000801C8000812C800083D
:102D1C00E8FFFF7FF7B501249440230093400500A2
:102D2C00009303232A711700009A08685A430E0077
:102D3C00104029600099019205F030FB68717068B1
:102D4C002100204005F02AFB019BA871B068009976
:102D5C00184005F023FB019BE871F06800991840BE
:102D6C0005F01CFB7369287223409C420ED1012391
:102D7C006B72072F0CD80099306AB940B9400F23F9
:102D8C004B43184005F00AFBA872F7BD0023EFE790
:102D9C00210A4943706A4943F1E70123F0B50779E9
:102DAC000324BB401900B9404C43E443057A026844
:102DBC004D43D66826403543D560C57996684D435A
:102DCC0026403543956086795568BE409D43354312
:102DDC005560457A002D14D09361867A072F12D84E
:102DEC000B00BB40BB400F275F437343156ABD43C9
:102DFC002B4313624079136841431C4021431160FB
:102E0C00F0BD9362E9E70F271B0A5B435B435F430B
:102E1C007343556ABD432B435362EBE70122034BCB
:102E2C001A71034A1A6000225A7170473808002040
:102E3C0000540040F7B5002805D1174A93211748D4
:102E4C0002F0C2FEFEE70024046001291DD1144CDF
:102E5C0002716379002B13D18025AD03AC46114E62
:102E6C002268B76B2F43B763B56B66463540019547
:102E7C00019D0D4D13605360156115682943116058
:102E8C00013304606371012005E00448074AA62160
:102E9C0002F09AFE2000FEBD2EC800085AC8000899
:102EAC003808002000100240372E30203DC80008A2
:102EBC00F7B50191002806D18121764A4900764860
:102ECC0002F082FEFEE70468002C06D18321734ACF
:102EDC004900714802F078FEFEE76579002D06D1B5
:102EEC0008216F4AFF316C4802F06EFEFEE7007954
:102EFC0045B2002D06DA0A216A4AFF31664802F013
:102F0C0063FEFEE72468012A1ED806252B421BD03F
:102F1C006568654E35406560644E002A19D0802581
:102F2C0067686D0237403D43656009252B4213D11C
:102F3C001020802784467F008020A5690002054070
:102F4C0047D15B4AB02112E0802566686D04354399
:102F5C00E1E765683540E7E7012780211F40A56957
:102F6C000902002F08D00D420CD09521514A49007E
:102F7C00494802F029FE2AE00D4003D134214C4A85
:102F8C00FF31F5E765684000AD0AAD02284360608B
:102F9C006068494D2840802560606068AD01284319
:102FAC006060002F04D080200002A7690742FCD08B
:102FBC0060682842FCD11020A5690542B8D0E369AD
:102FCC0018438023E0611B02A2691A42FCD1002045
:102FDC0045E0E925A0696D002842FAD038420ED0B0
:102FEC00B821E369354A1F43E76149002A4802F0DA
:102FFC00EBFD80231B02A2691A42FCD1E7E7654670
:10300C0028420FD06246BF21E36949001A43E261AE
:10301C0021482B4A02F0D8FD80231B02A2691A42D8
:10302C00FCD1D4E7850707D5002A05D00199013AD0
:10303C000D780131A5620191450601D5002A0BD00E
:10304C00000600D478E7002A06D08020656840028C
:10305C003540284360606FE79B0701D40120FEBD1B
:10306C008020A5690002054002D1114AB02187E7F2
:10307C0080236268DB01134363602023A2691A4238
:10308C00FCD0E2691343E36180231B02A2691A425C
:10309C00FCD1E3E72EC800085AC8000861C8000834
:1030AC0072C800089DC80008FFFFFFFEFFFF00FF6D
:1030BC00E2C80008B6C80008FFFBFFFFF2C8000812
:1030CC0000C90008F7B50191002806D1D221704A39
:1030DC00FF31704802F078FDFEE70468002C06D141
:1030EC00D6216D4AFF316B4802F06EFDFEE7657923
:1030FC00002D06D1EB21694A4900664802F064FDB7
:10310C00FEE7007945B2002D06DAEC21644A49004D
:10311C00604802F059FDFEE72468012A3AD80625DA
:10312C002B4237D065685F4E354065605E4E002A95
:10313C0035D0802567686D0237403D4365600925B1
:10314C002B422FD180200627000284461F40604668
:10315C00A569054063D0D425A0692842FCD0450759
:10316C0007D5002A05D00199656A013A0D70013125
:10317C0001911025284255D0E3694C4A1D43E56165
:10318C004B49444802F020FD80231B02A2691A42DD
:10319C00FCD142E0802566686D043543C5E765685F
:1031AC003540CBE7012780211F40A5690902002F7C
:1031BC0008D00D420BD0FA213E4AFF31354802F0BF
:1031CC0003FD2AE00D4002D13B4A3C49F6E7656815
:1031DC004000AD0AAD022843802560606068ED00B8
:1031EC002843802560606068AD0128436060002F33
:1031FC0004D080200002A7690742FCD060682842F6
:10320C00FCD11020A56905429CD0E36918438023AA
:10321C00E0611B02A2691A42FCD100201CE0264A84
:10322C002749CBE7450601D5002A12D000068ED5DA
:10323C00012A0CD1002F03D060681A4D2840606021
:10324C008020656840023540284360607FE7002A93
:10325C00F6D19B0701D40120FEBD8025A0692D026B
:10326C00054002D1144A1749A8E780236268DB01A4
:10327C00134363602023A2691A42FCD0E269134312
:10328C00E36180231B02A2691A42FCD1E3E7C0462A
:10329C002EC800085AC8000861C8000872C8000887
:1032AC009DC80008FFFFFFFEFFFF00FF8EC800084F
:1032BC0049020000B6C80008E2C80008020200007B
:1032CC002E0200007602000010B5002805D1084A35
:1032DC000849094802F078FCFEE74BB2002B05DAEE
:1032EC00064A0749044802F06FFCFEE7017110BD65
:1032FC002EC80008910200005AC80008A5C8000892
:10330C0093020000114B12481A6D82421CD0CA2243
:10331C005A62773A5A62543ADA604132D9681142A9
:10332C00FCD0FE211A69C9030A43FF211A611A69EC
:10333C00D20BD2030A431A61064A5A6000221A6061
:10334C00813ADA60596218657047C046002800401F
:10335C00FECA000001810000F7B5050002F06EFC0A
:10336C0000286BD0CA23364C6362773B6362543BB4
:10337C00E3604133E2681A42FCD02F78AB780A2123
:10338C0038006E78009305F009F80A210301380023
:10339C00019305F089F8019B30005918C9B20B0450
:1033AC000A21019304F0FAFF0A210701300005F00D
:1033BC007BF87F18019BFFB200980A213F021F4344
:1033CC0004F0ECFF0A210601009805F06DF8761860
:1033DC00F6B237436760EF780A21380004F0DEFF5D
:1033EC000A21030138002E796D79009305F05CF801
:1033FC00009B30005918C9B20B040A21009304F049
:10340C00CDFF0A210701300005F04EF87F18009B14
:10341C00FFB20A213F0228001F4304F0BFFF0A211C
:10342C000601280005F040F881237618F6B25B42BD
:10343C0037432760E3608133FF336362F7BDC046D7
:10344C000028004070B51C4B1A6859681C68A242D1
:10345C00FAD10A230F240D0CEDB22E095E43254040
:10346C0075190E0AF6B20570F506ED0F5D43264090
:10347C00AD1945700325C9B20E092E405E4321409B
:10348C007118160CF6B28170310929405943264047
:10349C008919160AF6B2C17004353109294059430D
:1034AC0026408919D2B2017111090D406B4322409B
:1034BC009B18437170BDC046002800404023026831
:1034CC009A438A4206D002689A43026001600268FD
:1034DC00134303607047000037B5012907D0022958
:1034EC0018D0124A5B21124802F06EFB37BD8025C2
:1034FC0010496D014C6B2C434C634B6B2B40009370
:10350C00009B4023016899430160026002681343E9
:10351C000360EBE780250749ED018C6B2C438C6332
:10352C008B6B2B400193019BEBE7C0464FC9000806
:10353C001BC90008001002400122064B02211A711F
:10354C00054A1A6000225A71044B197104495A71C8
:10355C0019607047400800200030014048080020E6
:10356C0000380040F7B5040008A8077809A80678C9
:10357C000AA801920078002C05D1184AED211848B0
:10358C0002F022FBFEE700252560012923D0022949
:10359C0019D1144D013E72427241D601C1229200E2
:1035AC0017436A46DB0012793B4333432271207385
:1035BC00A3601A002868FFF78FFF25606B79012044
:1035CC0001336B7106E080210548074A490002F07F
:1035DC00FBFA2800FEBD054DDCE7C0462EC80008EE
:1035EC001BC90008480800203DC8000840080020FE
:1035FC0010B5002806D196211C4A49001C4802F03F
:10360C00E3FAFEE70268002A06D19821194A49001C
:10361C00174802F0D9FAFEE75379002B06D1322174
:10362C00154AFF31124802F0CFFAFEE7013BDBB23C
:10363C0011685371002B03D000230360012010BDCF
:10364C0040240B68A3430B601379012B07D0022B8A
:10365C00F2D10A4A0A49936B0B409363ECE7074A91
:10366C000849536B0B405363E6E7C0462EC800086D
:10367C001BC9000822C9000833C900080010024009
:10368C00FFBFFFFFFFEFFFFFF7B505000C00019236
:10369C001F00002806D1B4211D4A49001D4802F024
:1036AC0093FAFEE70368002B06D1B6211A4A4900AB
:1036BC00184802F089FAFEE75A79002A06D16E21E1
:1036CC00164AFF31134802F07FFAFEE71E68816844
:1036DC003000FFF7F3FEFB0702D52879FFF7E0F97E
:1036EC0002220121019BE3189C4205D1BB0702D5A4
:1036FC002879FFF7EFF9F7BDB0681042FCD02078BD
:10370C003073B0680842FCD0F0680134ECE7C04676
:10371C002EC800081BC9000822C9000833C90008BC
:10372C00F7B505000C0001921F00002806D1D1212D
:10373C001D4A49001D4802F047FAFEE70368002BBA
:10374C0006D1D3211A4A4900184802F03DFAFEE787
:10375C005A79002A06D1A821164AFF31134802F0E3
:10376C0033FAFEE71E6881683000FFF7A7FEFB07FF
:10377C0002D52879FFF794F902220121019BE31865
:10378C009C4205D1BB0702D52879FFF7A3F9F7BDF9
:10379C00B0681042FCD0287B3073B0680842FCD073
:1037AC00F06820700134EBE72EC800081BC9000834
:1037BC0022C9000833C90008F7B5019308AB04000F
:1037CC000F0000921E78002806D1DE211F4AFF311F
:1037DC001F4802F0F9F9FEE70368002B06D1E2213D
:1037EC001C4AFF311A4802F0EFF9FEE75A79002A19
:1037FC0006D1F121184A4900154802F0E5F9FEE717
:10380C001D6881682800FFF759FEF30702D520795F
:10381C00FFF746F90222002394460121019A9342B4
:10382C0005D1B30702D52079FFF754F9F7BD6246ED
:10383C00A8681042FBD0F85C2873A8680842FCD03A
:10384C00E868009AD0540133E8E7C0462EC8000857
:10385C001BC9000822C9000833C9000870B500282C
:10386C0006D18521144A8900144802F0ADF9FEE70F
:10387C000368002B06D18621114A89000F4802F0FB
:10388C00A3F9FEE75A79002A05D10E4A0E490B48D6
:10389C0002F09AF9FEE740221B6885681C68C90093
:1038AC0094431C603824A54329438160196019682E
:1038BC000A431A6070BDC0462EC800081BC9000818
:1038CC0022C9000833C900081902000001000020B9
:1038DC00044A8A4204D90130C0B252080728F8D1F0
:1038EC007047C0460024F400431C0148D840704780
:1038FC000048E80110B5034A13680133136002F065
:10390C001FFA10BD50080020C021094A094B0A4873
:10391C005360036A09061B021B0A0B430362002354
:10392C009360073313608022044B12061A607047B1
:10393C0010E000E0FF7C000000ED00E000E100E0A2
:10394C00014B18687047C04650080020F7B5046852
:10395C000500E3699B0608D56B46616AE269C9B24A
:10396C00D97101231A421BD023628026E3693342AA
:10397C000CD06B462800DF1D3900083002F0A0F88F
:10398C00002815D03B78A3620023AB714022E36979
:10399C00134204D00123AB71236893432360F7BD1A
:1039AC000223E2691A42DFD1543002F060F8DCE7FE
:1039BC002368B3432360E9E710B50248FFF7C6FF5D
:1039CC0010BDC0465408002010B50248FFF7BEFFDA
:1039DC0010BDC046F408002010B50248FFF7B6FF32
:1039EC0010BDC0469409002070B501240025194B68
:1039FC00194A1A491A601A4840225D711C719C714F
:103A0C0002F02FF840221749174802F02AF8022238
:103A1C00164B17491A71174A17481A6040225D71E4
:103A2C009C7102F01EF840221449154802F019F856
:103A3C000422144B14491A71144A15481A60402276
:103A4C005D719C7102F00DF840221249124802F08F
:103A5C0008F870BD540800200038014068080020A8
:103A6C005C080020B4080020A8080020F4080020FE
:103A7C000809002000440040FC08002054090020E4
:103A8C004809002094090020A8090020004C00409F
:103A9C009C090020F4090020E8090020F0B589B049
:103AAC0001930EAB1B78009002930FAB1B780D00AB
:103ABC000393002806D19421524AFF31524802F058
:103ACC0083F8FEE70024009B1C60022905D0042922
:103ADC0014D0012909D14D4F00E04D4F7C79002CB9
:103AEC000ED0B8214B4AFF3102E0D8214A4A490096
:103AFC00454802F069F8002009B0F0BD474FEDE7EA
:103B0C0001233E68BB71022D27D0042D30D09D427D
:103B1C0039D180244249E401486B204348634B6B04
:103B2C0023400593059B3F4B5008C018110004F02F
:103B3C0035FC019B80B2F060082B2AD0092B2AD0CF
:103B4C00072B23D1384B029A012A26D0002A27D0E2
:103B5C00022A2DD0354A0421C5E780243049A4021D
:103B6C00886B204388638B6B23400693069BDAE7B4
:103B7C0080242B492403886B204388638B6B234060
:103B8C000793079BCFE72A4ADA21B1E7294AF321A9
:103B9C00AEE72C23D7E7284BD5E7C022D20013433E
:103BAC00039A012A06D0022A1CD0244A12219AE731
:103BBC008022F3E7726822490A4072603360012365
:103BCC00326813433360022D13D0042D15D0012D10
:103BDC0003D180221B4B12051A600120009B1F6031
:103BEC00787189E7726816491140802292010A4364
:103BFC00E3E78022134B5205EEE78022114BD201F2
:103C0C00EAE7C0462EC8000862C900085408002024
:103C1C00F408002093C900083DC80008940900204E
:103C2C00001002400048E8012C000010E1C9000817
:103C3C004FC90008C5C900082C100000FAC90008BB
:103C4C00FFCFFFFF00E100E010B5002806D1D8211E
:103C5C00274AFF31274801F0B7FFFEE70268002A28
:103C6C0006D1DC21244AFF31224801F0ADFFFEE7EA
:103C7C005479002C07D1F021204A49001D4801F04D
:103C8C00A3FF00201CE01379022B1AD0042B1CD0AC
:103C9C00012BF6D180241A492405CC670024116825
:103CAC000C60022B15D0042B19D0012B1BD11549FC
:103CBC00154C4B6B23404B63002303600120537165
:103CCC0010BD80240E496405E7E780240C49E4010B
:103CDC00E3E70C490D4C8B6B23408B63ECE70949F4
:103CEC000B4C8B6BF8E78A210A4A8900C6E7C04661
:103CFC002EC8000862C9000867C9000879C9000805
:103D0C0004E100E000100240FFBFFFFFFFFFFDFFDA
:103D1C00FFFFF7FF4FC9000870B50D00002805D153
:103D2C00124A1349134801F04FFFFEE70468002CB8
:103D3C0005D1114A11490F4801F046FFFEE763799E
:103D4C00002B05D10E4A0F490A4801F03DFFFEE752
:103D5C0020002900083001F08AFE0028F8D08023CA
:103D6C00226811680B43136070BDC0462EC8000852
:103D7C003902000062C9000867C900083D02000052
:103D8C0020CA00083E02000010B5002805D10E4ADA
:103D9C000E490F4801F018FFFEE70068002805D116
:103DAC000C4A0D490A4801F00FFFFEE74379002B3E
:103DBC0005D10A4A0A49064801F006FFFEE75430CD
:103DCC0001F07EFE10BDC0462EC800089E02000009
:103DDC0062C9000867C90008A202000020CA0008D6
:103DEC00A302000010B58024E40022000849094811
:103DFC0001F037FE22000849084801F032FE084B5A
:103E0C000222186800238068190004F021FC10BD00
:103E1C004C0E0020400E0020400A0020340A0020E6
:103E2C006801002010B504000A2802D10D20FFF70C
:103E3C00F9FF2100034801F01AFE0028F9D00020F8
:103E4C0010BDC046400E002070B50E0015000C00D1
:103E5C00A31B9D4201DC280070BD2078FFF7E2FF18
:103E6C000134F5E713B56B46DC1D2100034801F066
:103E7C0027FE0028F7D0207816BDC046340A002053
:103E8C0070B50E0015000C00A31B9D4201DC280030
:103E9C0070BDFFF7E7FF20700134F5E710B50100A6
:103EAC00014801F00DFE10BD340A002010B50100D0
:103EBC00014801F0DCFD10BD400E002010B50A00D9
:103ECC000100024801F0E5FD10BDC046340A002097
:103EDC0010B50A000100024801F006FE10BDC046F4
:103EEC00400E0020034B18604068431E9841C0B23E
:103EFC007047C046E0120020002210B5034B044866
:103F0C001A70044B1860FFF7EDFF10BDF013002082
:103F1C00A4A80008E813002070B50B4B0B4C1B78C1
:103F2C009D00002B05D10A4B23606059FFF7DAFF87
:103F3C0070BD013B9B00E058FFF7D4FF054B1B689D
:103F4C005B685B686351F0E7F0130020E813002016
:103F5C00A4A80008E0120020002210B5044B1A702F
:103F6C00044B1A78044B1A70FFF7C6FF10BDC046FD
:103F7C00DD120020E6130020DC120020F8B500252D
:103F8C000D4F387800F086FC0C4B1C780C4B1E5DEA
:103F9C00002E0ED0300004F0DDFA0A4A6B1CDBB2A6
:103FAC0056557E2C02D80134E4B200E000241D00EA
:103FBC00ECE73D70F8BDC046E61300206513002009
:103FCC00E4120020661300200F4B10B51A685368DA
:103FDC00002B02D01468002C06D0C4210B4A0C48CC
:103FEC0001F0F2FD002010BD0A4A1178002902D020
:103FFC00094ACB21F3E701215868084B117058602E
:10400C00FFF770FFEFE7C046E012002044CA00083B
:10401C003DCA0008F013002055CA0008E813002020
:10402C000B4B10B51B685C68002C06D109480A4A7A
:10403C00F02101F0C9FD200010BD084B084A1B7887
:10404C009B00985808309850FFF74CFFF4E7C04697
:10405C00E01200203DCA000874CA0008F0130020CA
:10406C00E813002010B50A4B1C78002C06D1094827
:10407C00094AB32101F0A8FD200010BD013CE4B2B7
:10408C001C70064BA400E058FFF72CFFF5E7C04668
:10409C00F01300203DCA000890CA0008E813002065
:1040AC0000231A0010B504000E48591C812915D1A3
:1040BC000D4B1A700D4B1A700D4B1A70FFF74CFF0D
:1040CC0000F0D2FB002C02D0200004F029FA0948A1
:1040DC0004F0B4FA3E2004F03DFA10BD1B181A701F
:1040EC000B00E2E7E41200206413002065130020AB
:1040FC00E6130020A0CA0008F7B5040000F076FB18
:10410C00032800D142E1042800D168E1002813D132
:10411C00092C00D1C8E00D2C0FD0082C00D026E1C2
:10412C00B84A1378002B00D1F0E0013B012013704A
:10413C0000F0B0FBFFF710FFF7BD0A2004F00AFAFD
:10414C00B04BB14E1C78B14B002C1ED13178B04A1B
:10415C001170002220271A55150014000120AD4EB5
:10416C00197820294AD0002960D0232C4BD9A94D8D
:10417C002B681B78232B5CD10023A24A1370FFF70A
:10418C00EBFE3E2004F0E6F9D6E73278611E100013
:10419C00C9B2A14D591800280DD00138C0B20F7802
:1041AC00BC462F5CBC4508D19C4F01398F42F2D1E3
:1041BC0097490A70CDE77F20F1E700217E2A19D8B4
:1041CC000132D2B2585C0131A854C8B2A042F5D326
:1041DC0000217F2A01D00132D1B28D4A3170117089
:1041EC000022685C0028B4D06A547F2904D00131C5
:1041FC00C9B2F6E70022E5E70021F2E721001D70C5
:10420C0001330C00ACE7222901D102000133611CFF
:10421C00A400C9B2A351002A00D111E11C78222CB0
:10422C0000D10BE1002CECD00133F7E7002CA3D02C
:10423C009DE7FFF761FE7A4B1F687E68002E04D065
:10424C00784B1B780193A34203D3774804F0F6F91B
:10425C0092E7019B31689B00E85804F03BFB002877
:10426C0005D13B68002B05D1FFF7AEFEE3E7FFF766
:10427C00D7FEE0E7019AD04332792018C0B28242CF
:10428C0002D87279824201D26848DFE70199013184
:10429C00890069189847002800D16DE704F040F9AF
:1042AC000A2004F057F967E75E4C614A23789B00BB
:1042BC009B5801935F4B1F78594B1A6853681D68C4
:1042CC005D4B1B789C46514BFB18674513D22978E4
:1042DC000137FFB218786E1C002919D1202817D18C
:1042EC001368002B12D1FFF76FFE4D4B1B685B68F8
:1042FC001D68504B1F70504B1B78BB4217D923784D
:10430C004B4A9B00D358019A9A42D5D1072039E7E2
:10431C000133884209D0FFF783FE002801D1FFF753
:10432C00FBFD444B35001F78E5E73500CDE7354AFA
:10433C003C0010780026C01AC0B200F0ABFAA85DA1
:10434C0000280AD07E2C08D8304B0134DB19985544
:10435C00E4B204F0FFF80136F1E72A4B1C70FFF7CA
:10436C005FFE002800D0E7E6FFF7D6FDE4E61F2C41
:10437C0000D8E1E6234A13787E2BC7D8591C11705C
:10438C00224AD454FFF7E8FD2000FBE620497F22A7
:10439C000B78002B01D0013BDAB21B4B1B789342FC
:1043AC0000D1C9E67F23002A01D0013AD3B21A48C2
:1043BC007F24C25C002A00D1BEE6C25C002A07D171
:1043CC007E2B01D80133DAB20A70FFF7D7FDB3E6C2
:1043DC00002B02D0013BDBB2EFE72300EDE70C49E9
:1043EC000D4A0B78D05C002805D1074A127893420D
:1043FC00EAD00200E4E77E2B02D80133DBB2F1E70E
:10440C000023EFE7E613002064130020661300205E
:10441C00651300204C120020E412002065130020CC
:10442C00E0120020F013002071CB00088ACB0008AA
:10443C00E8130020DD120020DC1200201D70013377
:10444C001C78BC43FBD1DCE6F0B5002685B00290AD
:10445C000391FFF751FD0096604F3B685A68002AA4
:10446C0008D15F4B1C78002C34D0FFF7FBFDFFF715
:10447C00D7FDF1E71B68002B29D1FFF7A5FDEBE772
:10448C00584BA200D058FFF72DFD3B6801345B68F8
:10449C00E4B2186804F028FA01302D18EDB2504B34
:1044AC001B78A342ECD2009A2B1C954201D26B468E
:1044BC001B78DBB200933B685B68986804F014FAD5
:1044CC00031CC0B2B04200D2331CDEB2CFE70025D1
:1044DC002C00E4E7FFF710FD0194404D2B685A685F
:1044EC00002A0AD13E4B1878002874D0FFF7BAFD89
:1044FC00FFF796FD01230193EFE71B68002B67D0B4
:10450C00384B1868FFF7EEFC029B002B32D0039B54
:10451C001C68200004F0E8F92B6802005B6820009E
:10452C00196804F0E8F9002821D1002425002C4B4F
:10453C001B78AB4227D2009B9C423DD3274D2B6866
:10454C005B68986803F0ECFF2B685B68986804F074
:10455C00CBF9C4B2B44235D3234803F0E1FF2B6846
:10456C005B68D86803F0DCFF0A2003F0F3FFFFF769
:10457C0057FDB2E7019B002BD7D00A2003F0EAFFCE
:10458C00029B0193D1E7174BAA00D058FFF7AAFC66
:10459C00124F01353B68EDB25B68186803F0C0FF41
:1045AC00202003F0D7FF3B685B68186804F09CF987
:1045BC0001302418E4B2BAE72020013403F0CAFF1A
:1045CC00E4B2B8E72020013403F0C4FFE4B2C1E741
:1045DC00FFF7FAFC8EE705B0F0BDC046E0120020F4
:1045EC00F0130020E813002033D50008F8B5124B67
:1045FC000D001B7800240133C018C7B2232F07D835
:10460C000E4EBF002B78002B08D1FF242000F8BDE4
:10461C000B4A0C490C4801F0D7FAFEE72900B859AF
:10462C0004F058F90028F1D0280004F05DF90134A9
:10463C0001302D18E4B2E5E7F01300204C120020F5
:10464C00B0CB0008FD0300003DCA0008F7B5134BC2
:10465C000F001C78160001340419E4B2232C05D980
:10466C000F4A1049104801F0AFFAFEE70F4DA400B5
:10467C00002201A9605904F075FA019A61590023CE
:10468C00914209D012789A4206D1874204D88642C8
:10469C0002D3074B187001231800FEBDF013002045
:1046AC00B0CB0008130400003DCA00084C120020D7
:1046BC0010220020F7B5134B0F001C7816000134A4
:1046CC000419E4B2232C05D90F4A1049104801F003
:1046DC007BFAFEE70F4DA400002201A9605904F0FB
:1046EC0041FA019A61590023914209D012789A42F9
:1046FC0006D1874204D8864202D3074B1880012387
:10470C001800FEBDF0130020B0CB00082A040000F6
:10471C003DCA00084C12002010220020F7B5134BA4
:10472C000F001C78160001340419E4B2232C05D9AF
:10473C000F4A1049104801F047FAFEE70F4DA4004C
:10474C00002201A9605904F00DFA019A6159002365
:10475C00914209D012789A4206D1B84204D3B042A1
:10476C0002D8074B186001231800FEBDF01300207F
:10477C00B0CB0008410400003DCA00084C120020D8
:10478C0010220020F7B50F00102501902C00103CD2
:10479C00A74215D8F7BDBE420ED2019B1148995DB8
:1047AC0003F0BEFE0136AE42F5D3AC420AD30A206A
:1047BC0003F0D0FE1035E9E70B4803F0B1FEF1E74A
:1047CC002600F0E72020BC4205D2019B185D0300B7
:1047DC00203B5F2B03D803F0BDFE0134E5E72E2010
:1047EC00F9E7C046D1CB0008AEAE000800B5164ABA
:1047FC001378012B0FD0002B05D00021022B12D0E7
:10480C001170012305E0C3091B2802D10123137089
:10481C00DB18180000BD02235B2801D11370F8E7E8
:10482C0000211170F5E74138117001230328F0D8ED
:10483C0003F0A0FD080204060423EAE70523E8E7D9
:10484C000623E6E70323E4E7F113002010B51B2051
:10485C0003F080FE5B2003F07DFE322003F07AFE35
:10486C004A2003F077FE10BD002210B5084B1B2028
:10487C001A7003F06FFE5B2003F06CFE482003F00F
:10488C0069FEFFF7E3FF6420FEF74CF910BDC0464C
:10489C00F113002010B50400002C00D110BD08202D
:1048AC0003F058FE202003F055FE013C082003F0D5
:1048BC0051FEE4B2F0E70000F0B58123002084241F
:1048CC0008250C4E591E002900D1F0BD0A4AE31AE6
:1048DC00D35C2A001B0258400B0007B2410088B27F
:1048EC00002F01DA714088B2013AD2B2002AF4D119
:1048FC00E8E7C04621100000F213002070B5050057
:10490C002800FDF7BEFC041E03D1FDF7D7FC0028E0
:10491C00F6D0200070BD0000F7B5FA208000FDF73E
:10492C00BDFC00256B46DF1D3800FFF7E7FF061EB8
:10493C0006D11D4AB2211D4801F046F93000FEBDDA
:10494C00FA201B4C3B7880006355FDF7A7FC002D2B
:10495C0004D13B78042BF1D00135E3E70135852DEB
:10496C00E0D12378012B06D0CD21124A0F4801F05B
:10497C002BF90026E2E76378A2789B18FF2B02D074
:10498C000D4AD321F2E7FFF797FF22008332030A87
:10499C001278DBB29A4204D184342378C0B28342B9
:1049AC00CCD0064A9721E1E712CC0008D8CB0008FE
:1049BC00F21300201ACC00082ECC00084BCC0008B7
:1049CC000123F7B500262C4D01902B7003335C1E90
:1049DC00E4B2002B01D1FF2418E0002E02D14320B9
:1049EC00FDF753FCFFF798FF071E06D1002E02D0EF
:1049FC001520FDF74AFC2300E9E7204B1A78042A1E
:104A0C000AD10620FDF741FC002C21D0FFF784FFD2
:104A1C00002825D1012022E05A782B780620591E37
:104A2C008A42E6D09A4206D02021154AFF31154819
:104A3C0001F0CAF8DCE7019B802113489847062057
:104A4C00FDF723FC2B783E0001332B700424D2E7B6
:104A5C0036210C480D4AFF3101F0B6F82000FEBD9E
:104A6C00064B1B78042B02D10620FDF70EFC013CF3
:104A7C00E4B2002CCAD1CDE777140020F213002049
:104A8C00E2CB0008D8CB0008F5130020FDCB0008C2
:104A9C00F0B5012685B0384B009038481E70FDF7F4
:104AAC00FDFB02ABDD1D2800FFF728FF041E06D11D
:104ABC00AC21334A4900334801F086F826E02B78C4
:104ACC00432B1CD1019680212F48009B984700282E
:104ADC001FD1FA270426BF000420FDF7D6FB3800AF
:104AEC00FDF7DCFB2800FFF709FF041E02D02B7832
:104AFC00062B0BD0013EF6B2002EEDD105E05E2167
:104B0C00224AFF311F4801F05FF80024200005B055
:104B1C00F0BD04246B461E4E1B7900273370164BD8
:104B2C001B787370DB43B370FFF7C6FE3300020AC9
:104B3C0083331A70330084331870F05D0137FDF73E
:104B4C00A4FB852FF9D1FA208000FDF7A7FB2800E4
:104B5C00FFF7D4FE002802D02B78062B06D0013CA0
:104B6C00E4B2002CD6D10B4AC121A3E7024B024A76
:104B7C001B7801331370A6E7771400201027000070
:104B8C0055CC0008D8CB0008F513002079CC0008D0
:104B9C00F2130020FDCB000837B56B468025D91DDC
:104BAC000870054C05482D01A562032301220068FD
:104BBC00FEF76AFDA56137BD000400507814002093
:104BCC0010B5041D1020E4B223091843FFF7E4FFCD
:104BDC000F202040FFF7E0FF10BDB02310B51843A5
:104BEC00FFF7DAFF10BD000010B50A000100034802
:104BFC0003230068FEF748FD10BDC0467814002062
:104C0C0010B5A0B080220021684603F080FC00247F
:104C1C002000FFF7E2FF01340020FFF7D1FFE4B2E0
:104C2C0080216846FFF7E0FF082CF1D120B010BDC1
:104C3C00224B10B518600120FDF774FF3220FDF7F0
:104C4C0071FF0120FDF76EFFA220FFF7A5FFA12049
:104C5C00FFF7A2FFC020FFF79FFF2420FFF79CFF68
:104C6C008120FFF799FF2820FFF796FF2C20FFF7F4
:104C7C0093FF5420FDF756FF2E20FFF78DFF2A20BF
:104C8C00FDF750FF2F20FFF787FF5420FDF74AFF59
:104C9C00F820FFF781FFAF20FFF77EFF4020FFF7E2
:104CAC007BFFA420FFF778FFA620FFF775FFFFF727
:104CBC00A7FFAF20FFF770FF10BDC046781400208F
:104CCC0007B5030C01A90B708870030A03484B70DD
:104CDC00032200230068FEF7D7FC07BD80140020D8
:104CEC00062307B5044801A90B700122033B006899
:104CFC00FEF7CAFC07BDC046801400200122024BFF
:104D0C001A70024B186070477C140020801400202D
:104D1C00AB2307B5044801A90B700122A83B00681E
:104D2C00FEF7B2FC07BDC04680140020052337B542
:104D3C00084D01AC2370043B28681A002100FEF7D3
:104D4C00A3FC2868022301222100FEF7E9FC20784D
:104D5C003EBDC0468014002070B5064D2C78002C4A
:104D6C0006D1FFF7E3FF0123184201D11C002B7081
:104D7C00200070BD7C140020114BF7B506000D000F
:104D8C001700994205D90F4A8C210F4800F01CFFDF
:104D9C00FEE7FFF7E1FF0028FBD0032301A90B4C32
:104DAC000B70023B1A002068FEF76EFC2800FFF720
:104DBC0087FF3A00310002232068FEF7B1FCF7BDF3
:104DCC00FFFF0700C7CC0008A1CC0008801400200E
:104DDC00802210B509025200FFF7CEFF10BD10B5AE
:104DEC009BB2090289181A00FFF7C6FF10BD00001C
:104DFC00F0B50C00170085B000900193FFF7ACFFE5
:104E0C000028FBD0FFF76CFF012302260A4D03A9F3
:104E1C001A0028680E70FEF737FC2002C019FFF745
:104E2C004FFF3300019A00992868FEF72DFC0022F1
:104E3C00024B1A7005B0F0BD801400207C140020C9
:104E4C0037B505000C00FFF787FF0028FBD0FFF7F4
:104E5C0047FF012D22D0002D08D0022D23D0842114
:104E6C00134A4900134800F0AFFE37BD202201ABB6
:104E7C001A7024030123104D1A0001A92868FEF7AB
:104E8C0003FC2000FFF71CFF0022022311002868FE
:104E9C00FEF7FAFB0022094B1A70E6E7522201AB2F
:104EAC001A70E403E6E7D82201AB1A702404E1E798
:104EBC00AACC0008A1CC0008801400207C1400208F
:104ECC009F2337B5050001A9064C0B709E3B1A00B9
:104EDC002068FEF7D9FB2900022303222068FEF785
:104EEC001FFC37BD801400201FB5002302A90870D9
:104EFC000548009303AC013322000068FEF75CFC0C
:104F0C00207804B010BDC0468C14002010B5FF20D2
:104F1C00FFF7EAFF10BD70B504004518FFF7F6FF68
:104F2C0020700134AC42F9D170BD0000002210B5E4
:104F3C000448022311000068FEF7A6FBFFF7E6FF0A
:104F4C0010BDC0468C14002010B50A4CFFF7DEFFD4
:104F5C00FF280DD0013C6420A4B2FDF7D5FD002C38
:104F6C00F4D10548054ABA2100F02EFE200010BDF0
:104F7C000120FCE788130000E3CC0008BACF00083E
:104F8C0043B270B505000E00002B12DA0021372059
:104F9C00FFF7F6FF0123020004009A4307D0030039
:104FAC00CD21214A214800F00FFE200070BD7F2347
:104FBC001D40FFF7BBFF00221D48012311000068B4
:104FCC00FEF762FBFFF7C0FFFF240028EDD0402066
:104FDC002843FFF789FF300EFFF786FF300CC0B275
:104FEC00FFF782FF300AC0B2FFF77EFFF0B2FFF787
:104FFC007BFF002D04D0082D14D0FFF787FF02E0B3
:10500C009520FFF771FF0825FFF780FF04000306CA
:10501C00CBD5013DEDB2002DF6D10C210300054A94
:10502C00FF31BFE78720ECE76BCF0008E3CC00082B
:10503C008C14002086CF0008F8B5FA2406000F0067
:10504C00A400FFF763FF0500FF280ED1013C64208C
:10505C00A4B2FDF759FD002CF3D12C21074AFF31E6
:10506C00074800F0B1FD2800F8BD39003000FFF70B
:10507C0052FFFFF74BFFFFF749FFF4E74ACF000859
:10508C00E3CC0008014B18607047C0468C1400201C
:10509C00F8B500235D4A5E4F5E4813703C68FEF71E
:1050AC0015FC01002000FEF7D9FBFA208000FDF76B
:1050BC002BFD0A24013CE4B2FFF728FF002CF9D1A8
:1050CC00643400210800FFF75BFF0300012800D1C6
:1050DC0073E0013CE4B2002CF3D14F4A88210AE082
:1050EC00A2214E4AFF314E4800F06EFDEB78AA2B00
:1050FC0005D0A6214B4AFF31494800F065FDFFF76A
:10510C0015FF0020F8BDFA24A4008021A920C905B0
:10511C00FFF736FF002821D101003A20FFF730FFBE
:10512C00031E17D104212800FFF7F5FE2B785B0630
:10513C000ED50323354A3C4813703C68FEF7C6FB7A
:10514C0001002000FEF78AFBFFF7F0FE0120D9E7F3
:10515C000223EFE7EB21354A4900CDE7FA20013C69
:10516C008000A4B2FDF7D0FC002CCED1F121304A46
:10517C0049002B4800F028FDC1E700213B20FFF738
:10518C00FFFE0300012802D02A4AF821E4E7FA24A2
:10519C00A40026000021A920FFF7F2FE051E2AD04C
:1051AC00013C3000A4B2FDF7AFFC002CF2D12B0077
:1051BC00214A2249A0E70123BCE7D5210820490058
:1051CC00FFF7DEFE0128D8D11D4D04212800FFF782
:1051DC00A2FEAB78012B00D082E7EB78AA2B00D093
:1051EC0084E700213B20FFF7CBFE030001288AD087
:1051FC00104AB0217FE7802110208900FFF7C0FE04
:10520C00031ED8D00F4A104976E7C04684140020FC
:10521C008C140020801A0600B2CE0008E5CD0008E0
:10522C00E3CC00080CCE000840787D015ECE00086F
:10523C00E4CE000834CE000810CF000809020000AC
:10524C008514002088CE00081202000070B50021E1
:10525C0005000A20FFF794FE00280AD08B210300DA
:10526C00094A8900094800F0AFFCFFF75FFE0020F7
:10527C0070BD10212800FFF7DFFEFE28F5D1FFF7E7
:10528C0055FE0120F4E7C04692CD0008E3CC00089F
:10529C0070B5002105000920FFF772FE00280AD026
:1052AC0092210300094A8900094800F08DFCFFF7A0
:1052BC003DFE002070BD10212800FFF7BDFEFE282A
:1052CC00F5D1FFF733FE0120F4E7C046BCCD000852
:1052DC00E3CC000870B5002105000D20FFF750FE4F
:1052EC00040003060AD599210300094A09488900DC
:1052FC0000F06AFCFFF71AFE002070BDFFF706FEF7
:10530C00240220182880FFF711FE0120F5E7C04683
:10531C00E9CC0008E3CC00083F220378010093435A
:10532C0019D18079CB7980079B00000DC0180B7ABE
:10533C004A799B09C318887A1207497AC009120F57
:10534C00121889070232490F5218D2B20133093AA6
:10535C009340180070470020402BFBD1CB79487A42
:10536C009B0601309B0A1B18087A000218180002D1
:10537C00F0E70000144B70B51B780500002B05D12D
:10538C00124A1349134800F01FFCFEE7032B00D010
:10539C0049021120FFF7F4FD002809D003000E4A42
:1053AC000E490C4800F010FCFFF7C0FD002070BD4A
:1053BC00802128008900FFF73FFEFE28F4D1FFF77B
:1053CC00B5FD0120F3E7C0468414002013CD00087E
:1053DC00B2020000E3CC00083ECD0008C102000080
:1053EC00F8B51F4B06001B781500002B05D11D4A84
:1053FC001D491E4800F0E8FBFEE7002A04D0012AF4
:10540C0004D1FFF7B7FF05002800F8BD032B00D02F
:10541C0049021220FFF7B4FD041E16D18027BF00ED
:10542C0039003000FFF708FEFE2806D18023013436
:10543C009B00E4B2F618A542F2D100210C20FFF734
:10544C009FFD2500FFF772FDDEE7BE210300084A31
:10545C008900064800F0B8FB0025FFF767FDD3E78D
:10546C008414002013CD0008D9020000E3CC0008FE
:10547C0068CD0008204B70B51B780400002B05D1BB
:10548C001E4A1F491F4800F09FFBFEE7032B00D06C
:10549C0049021820FFF774FD031E09D0C9211A4ACE
:1054AC008900184800F090FBFFF740FD002070BD0C
:1054BC00FFF74AFDFF23002812D0FE20FFF714FD52
:1054CC0080239B00E51820780134FFF70DFDAC42DA
:1054DC00F9D1FFF71BFDFFF719FDFFF717FD0300CF
:1054EC001F221A40052A02D0084A0949D9E7FFF7BA
:1054FC001DFD0120DBE7C0468414002013CD0008FD
:10550C0015030000E3CC0008E4CF00080ED000081F
:10551C002F030000364BF7B51B7805001400002B49
:10552C0006D1D021334A8900334800F04DFBFEE709
:10553C00002A04D0012A04D1FFF79CFF04002000AC
:10554C00FEBD032B00D049021920FFF719FD0028DE
:10555C0009D00300294A2A49274800F035FB0024CA
:10556C00FFF7E4FCEBE721009720FFF709FD071E8E
:10557C0003D00300234A2449EEE7FFF7E5FCFF23A1
:10558C00002815D0FC20FFF7AFFC80232E009B00D9
:10559C00EB1801933078FFF7A7FC019B0136B3425F
:1055AC00F8D1FFF7B3FCFFF7B1FCFFF7AFFC03003A
:1055BC001F221A40052A0CD0144A15490E4800F037
:1055CC0003FB00210C20FFF7DBFC3C00FFF7AEFCDB
:1055DC00B5E7802301379B00FFB2ED18BC42CCD15C
:1055EC00FFF7B2FCFD20FFF77FFCFFF79FFCA6E75F
:1055FC008414002013CD0008E3CC00082BD0000845
:10560C005F03000055D000086A0300000ED00008AC
:10561C007703000010B50024E0B2FFF7DEFA00209B
:10562C00FFF7CEFA044BE001C01880210134FFF7DC
:10563C00DBFA082CF0D110BD90140020802210B59C
:10564C00D2000021014802F062FF10BD901400202E
:10565C0010B5FFF7F3FF10BD43B210B5002B08DBFC
:10566C003F2906D8CB08012A0FD0002A02D0022AE3
:10567C0015D010BD0F4ADB01D31807221140063A92
:10568C008A40195C0A431A54F3E70A4CDB01E3180D
:10569C00072421408A40195C91431954E9E7054AD3
:1056AC00DB01D31807221140063A8A40195C4A40A4
:1056BC00E9E7C04690140020F8B504000E001F0066
:1056CC001218D5B2AC4200D1F8BD20003A0031001E
:1056DC000134FFF7C1FFE4B2F4E7F8B506000C00A3
:1056EC001F005218D5B2AC4200D1F8BD21003A00CF
:1056FC0030000134FFF7B0FFE4B2F4E7F0B587B047
:10570C001D000CAB1B7807000C0016000493904294
:10571C000DD1A94201D92C000D0001352A1BD2B2A2
:10572C00049B21003800FFF7D8FF07B0F0BDA94259
:10573C000CD1904201D9170006000136F21BD2B2EF
:10574C00049B21003800FFF7B7FFEEE7831ADBB2AA
:10575C000293904202D2131ADBB20293631BDBB2A8
:10576C000193AC4202D22B1BDBB201930123019AB1
:10577C000593029B93420BD31300029A02932B00C6
:10578C0035001E0023003C001F00002301920593EE
:10579C00AC4205D93B0037001E0023002C001D0035
:1057AC00019B00975B08DBB20393A542BDD3059B1D
:1057BC00049A002B18D021000098FFF74DFF039B93
:1057CC00029A9B1A9BB21AB20392002A09DA009A27
:1057DC00B7420CD20132D2B20092019A9B181BB282
:1057EC0003930134E4B2E0E700992000E5E7013AC5
:1057FC00F1E7F7B50E0004001500019308AB1F7814
:10580C003B00FFF759FF019B2A00591E71183B0002
:10581C002000C9B2FFF750FF3B003100019A200075
:10582C00FFF75BFF681E20183B003100C0B2019AE5
:10583C00FFF753FFF7BDF7B505000C0016005B181A
:10584C0008AADBB217780193019B9C4200D1F7BDEB
:10585C0021003B00320028000134FFF72DFFE4B299
:10586C00F2E7F0B515001C0093B20122D21A5B00CE
:10587C0089B05B4201911BB2691802920793C9B2BD
:10588C002BB2220000900493FFF7E6FE009B22004F
:10589C00E818C0B20199FFF7DFFE019B2200591BEB
:1058AC00C9B20098FFF7D8FE009B2200581BC0B26B
:1058BC000199FFF7D1FE0023049A934201DB09B052
:1058CC00F0BD029A002A0CDB049A013A12B204923F
:1058DC00079A023292B211B207910299521812B27F
:1058EC00029201339BB2029A06935B0001339B1820
:1058FC001BB202936B461B7E0593059A009B9F1867
:10590C006B46019A1B7CFFB29E18F6B23100380030
:10591C0022000393FFF7A0FE009B059A31009D1A0D
:10592C00EDB228002200FFF797FE019B039A380086
:10593C009E1AF6B231002200FFF78EFE31002800CD
:10594C002200FFF789FE039B009A9F18019B059A82
:10595C00FFB29E18F6B2310022003800FFF77CFE31
:10596C00009B039A31009D1AEDB222002800FFF72C
:10597C0073FE019B059A38009E1AF6B22200310084
:10598C00FFF76AFE220031002800FFF765FE6B4628
:10599C0018229B5E90E7F0B507000D0085B00292CF
:1059AC000AAA12785B18DBB203920093009BAB42FD
:1059BC0023D0029B3E00DB19DBB20193802410E064
:1059CC000B9B1B78234204D0039A29003000FFF76D
:1059DC0043FE640803D10B9B803401330B930136D7
:1059EC00F6B2019B9E42EBD1803C631E9C410B9B0B
:1059FC0001351B190B93EDB2D8E705B0F0BDF7B527
:105A0C000D0011001E0008AB1F7844682278002A94
:105A1C0000D1F7BD4378BA4202D00133E418F5E760
:105A2C0001340278019400962800FFF7B4FFF0E7E8
:105A3C00F7B506000D0014001F00089B1B78002B07
:105A4C0000D1F7BD089A0093013208923B0029005F
:105A5C0022003000FFF7D3FF33780133ED18EDB29D
:105A6C00EBE7002301608280C3800381704730B56F
:105A7C00C4880200631C80889BB2834280411589D4
:105A8C00034000209D4203D0106801550120D380B3
:105A9C0030BDF0B50024A7B2A24201D13800F0BD50
:105AAC00C6888588731C9BB2AB42AD412B400589DF
:105ABC009D42F3D00D5D07680134BD55C380EAE704
:105ACC0010B50389C488020000209C420BD01068DA
