:020000040800F2
:1020000000500020B9A4000809A5000809A500088F
:1020100000000000000000000000000000000000C0
:1020200000000000000000000000000009A50008FA
:10203000000000000000000009A500084D5A00083B
:1020400009A5000809A5000809A5000809A50008B8
:1020500009A5000809A5000809A5000809A50008A8
:1020600009A5000809A5000809A5000809A5000898
:1020700009A5000809A50008315B000809A50008AA
:1020800009A5000809A50008814400080000000017
:1020900009A5000809A5000809A5000809A5000868
:1020A00009A5000809A5000809A50008115B00089A
:1020B000215B000809A50008000000001D4300087E
:0C20C000F8B5C046F8BC08BC9E4670474E
:1020CC0010B5064C2378002B07D1054B002B02D002
:1020DC00044800E000BF0123237010BD380300202A
:1020EC0000000000E4C60008044B10B5002B03D020
:1020FC000349044800E000BF10BDC04600000000CA
:10210C003C030020E4C6000870B586B0002401250D
:10211C0002F0ACFB03F09EFC03F09AF903F00AFD0D
:10212C0003F0B0FA02F010FF02F072FD02F014FEA0
:10213C00E12208232900520201950094434803F040
:10214C0053FD03F0F5FE02F0EBF83C222900404869
:10215C0002F006FF29003F4802F066FD29003E48C8
:10216C0002F006FE3D4803F057FCFF223C4E0300F4
:10217C00290002920194FD3A0094300003F098FA81
:10218C00300005F031F8374803F046FC0322364E98
:10219C0003000092022102940194300003F088FAAB
:1021AC00300004F0F7FD314803F036FC304E0221CC
:1021BC0004220300029401940094300003F078FA96
:1021CC00300004F04DFE04F055FEFA20294B0001BE
:1021DC009D6102F0D7FC642002F0C6FC02F008FD01
:1021EC008022254B52019A6205F0E4FA40208026A9
:1021FC00224D6B782A78C01AB61AC10F0918F00F45
:10220C006D68801949104010C0B2C9B20094019594
:10221C0005F073FC05F0B0FA194C200003F0E6FF52
:10222C00184B1A78002A04D0002220001A7003F0F0
:10223C00DDFF17256D44280003F0D6FE002802D0E0
:10224C00287803F0FFFF30BFEAE7C04620190020D2
:10225C00F01800200C190020F818002040787D019F
:10226C00FC180020002D3101281B0020408AF701AA
:10227C0010190020001C0050000400504C000020DD
:10228C00F0C60008241900200122014B1A70704777
:10229C002419002010B504000A2802D10D20FFF7E4
:1022AC00F9FF2100014803F0DDFD10BD20190020CD
:1022BC00BFF34F8F034B044ADA60BFF34F8FC04616
:1022CC00FDE7C04600ED00E00400FA05002170B502
:1022DC001A4A0500080004F093FA194B002818D08C
:1022EC00184B1C88012D09D8FA25AD00002C0FD0F5
:1022FC002800013C02F02AFCA4B2F7E712490120A5
:10230C0004F01AFA002806D1FA25AD00002C0FD1E2
:10231C000023180070BD0D4B0128FAD1FA25AD0031
:10232C00002CF5D02800013C02F01EFCA4B2F7E70B
:10233C002800013C02F00AFCA4B2E7E7FFFF000012
:10234C0008C900081822002021C800082AC9000862
:10235C00002170B5104A0600080004F051FA0F4B2A
:10236C00002814D00E4C2588012E12D90A4A64215B
:10237C00012004F045FA0B4B002808D0208802F00D
:10238C0001FC280002F0F0FB02F032FC00231800E4
:10239C0070BDFA200001F2E71027000040C80008C9
:1023AC001822002068C80008094910B50631002021
:1023BC0004F0C2F9002803D0012805D0054802E03A
:1023CC000122054B9A6110BD034B98620020FAE77D
:1023DC0021C8000808CA0008001C0050F0B50C68A1
:1023EC0087B0237806003D4D002B60D0200008F00C
:1023FC004BFB03285BD801284CD100210322080099
:10240C0004F0CAF9364D002851D0364B0E241B78F7
:10241C00022B05D0073C032B02D00834012B49D1E9
:10242C00012E49D9304A0021012004F0E9F92F4D41
:10243C0000283CD02B4B1D88FA21890008006843EA
:10244C00F530FF3008F07AF8294F0100380005F01C
:10245C00F3FC00262100274802F046FC0190019B6A
:10246C00254826495843264BC01808F067F80290B7
:10247C00002D06D0731C31002248039308F020F97C
:10248C00039E029A0199204808F01AF9002D1BD1DD
:10249C0000250CE0601C002205A908F033FC059B0C
:1024AC001A4D1B78002B02D1C4B21228B8D92800BF
:1024BC0007B0F0BD0824B3E70025BDE78022144B1C
:1024CC0092001B691342E3D0380005F0BEFC0028D3
:1024DC00F4D0380005F0CEFCBCE7C046F7CB0008C2
:1024EC00DCCB00081822002060EA000028CC000891
:1024FC00540300200C190020E40C0000FF0F000016
:10250C00FF07000053CC000858CC0008B5CB0008DE
:10251C0000080050F7B5002847D00021274A0800D2
:10252C0004F06EF9264B002846D0264B1C88FA2165
:10253C00890008006043F530FF3007F0FFFF224DA3
:10254C000100280005F078FC002680231F4F012095
:10255C00BB6102F009FB09211D4802F0C5FB030019
:10256C0080221C48BA6258431B4B1C49C01807F008
:10257C00E5FF01970090002C05D03100771C18481E
:10258C0008F09EF83E006B461648198808F098F83B
:10259C00002C10D08027BF00280005F056FC002826
:1025AC0005D0280005F066FCCFE70400BFE7019BCF
:1025BC001B693B42F0D100231800FEBD60EA00000D
:1025CC0028CC0008182200205403002000080050DA
:1025DC000C190020C8190000FF070000FF0F0000B5
:1025EC0053CC00085DCC0008002110B5074A080048
:1025FC0004F006F9064B002806D0064B00211A8879
:10260C00054802F0E9FB0023180010BDFF0F000085
:10261C00B5CC000818220020F8180020F0B589B0BD
:10262C0005930EAB1B78170003930FAB1B780F248D
:10263C00029311AB1B8820260693130C92B20092C6
:10264C000A0001001A4808F03BF801231A0002990D
:10265C0007938A40013A0492039AA51A4D43039BAF
:10266C00A34219DC059BA34216DB069B079A234168
:10267C002E20134205D03B00EB40049A1340109AD5
:10268C00D05C08F037F8300008F034F8A30705D018
:10269C00029B013CED1AE2E73000F2E7300008F053
:1026AC0029F8002CF4D10A2008F024F809B0F0BD68
:1026BC00ADD10008F0B5364B85B0170002260A687C
:1026CC00029300230D000196009303970F333149B9
:1026DC000400FFF7A3FF304B0121029300236A682B
:1026EC0001910093200003970F332C49FFF796FFBD
:1026FC002B4BAA68029300230196009320000397AA
:10270C000F332849FFF78AFF274BEA68029300230F
:10271C0001960093200003970F332449FFF77EFFA7
:10272C0001210023224E2A69029601910093200078
:10273C0003970F331F49FFF771FF012100236A69CB
:10274C00029601910093200003970F331A49FFF76B
:10275C0065FF0426002319492A6A02910093200080
:10276C000397019607331649FFF758FF134B6A6A14
:10277C000293082313490093200007330397019613
:10278C00FFF74CFF0A2007F0B5FF05B0F0BDC046BF
:10279C0090D0000888D000089DD0000895D0000883
:1027AC00A8D00008A0D00008B5D00008ADD0000813
:1027BC00C2D00008BAD00008C5D00008D5D0000897
:1027CC00CDD00008E6D00008F8B52C4C607926680E
:1027DC002779032827D807F09DFE021B1D222848C5
:1027EC0007F06EFF237A012B1FD0022B21D001257D
:1027FC006379BD40002B1ED133692B4031209D42A3
:10280C0000D0302007F076FF0A2007F073FF09E0B4
:10281C001C48E5E7A17A1C4807F052FFE2E71B4889
:10282C0007F0DCFFF8BD1A48FAE71A4807F048FF32
:10283C00DDE71948FAE7A379002B0BD0012B0DD05B
:10284C00164807F03DFFE07903280CD807F062FE2C
:10285C0008101214124807F033FFF1E71148FAE799
:10286C00114807F02DFF6379012BCDD17369C4E7B3
:10287C000E48F6E70E48F4E70E48F2E76003002036
:10288C00EED00008F5D00008FDD0000803D10008F8
:10289C000AD100081ED1000827D1000847D1000832
:1028AC0030D100083BD100084ED1000853D10008AC
:1028BC005FD100085BD10008F7B506000F001400CB
:1028CC000193019BE5B29D4203D90A2007F012FF48
:1028DC00F7BD22003100064807F0F2FE2A0039004D
:1028EC00044802F0ADFA0134FFF76EFFE9E7C04689
:1028FC0065D1000860030020F7B50F7804000E00C6
:10290C00284D002F3DD0080008F0BEF8032838D819
:10291C00012819D138003038234D062831D807F05A
:10292C00F9FD3C04080A0C0F11000522A021C90571
:10293C0022E00122FAE70022F8E703221B491BE000
:10294C000222FBE70122F9E70022701C01A908F022
:10295C00D9F9019B02001B78154D002B11D10F28C2
:10296C000FD830786138072819D807F0C9FDDF0473
:10297C00E70C181818110F49D2B2200002F060FAB7
:10298C0000252800FEBD0C4D022AFAD10B49F3E7B5
:10299C000B4D012AF5D80B49EEE70622C6E70A4D86
:1029AC00EFE7C04617D000088BCF00080008005096
:1029BC00C8CF0008000400506CD00008000C005078
:1029CC00A7CF0008001C005067CF000870B50A4D57
:1029DC0009682800FFF790FF041E0BD101232A7908
:1029EC00064893402A6812691A40934200D1044861
:1029FC0007F0F4FE200070BD60030020EEEA000832
:102A0C00C0CD000870B50E4C0D0020000968FFF712
:102A1C0073FF00280CD16B681B78302B03D0312B43
:102A2C0007D0084804E0012322799340226893627E
:102A3C0070BD01232279934022689361F8E7C04668
:102A4C0060030020A6CD000870B5124C0600096882
:102A5C002000FFF751FF051E16D1012E18D90E4983
:102A6C00022003F069FE002803D001280ED00B4D84
:102A7C000AE001232372002320006371A371E37128
:102A8C006372A37202F01FFA280070BD0223F1E7F3
:102A9C002072F0E760030020F0CC0008F7CC0008AF
:102AAC00F8B51E4C07000E0020000968FFF724FF44
:102ABC00051E1FD173681B78302B03D0312B1BD014
:102ACC00174D17E06072022F19D91649B06807F03C
:102ADC00D1FF00281FD10123A371032F12D1002392
:102AEC002372012363710233E37100232000A3726C
:102AFC0002F0E9F92800F8BD01236372E3E7002333
:102B0C00A371ECE70849F06807F0B4FF0123002833
:102B1C00E6D0064DEEE7064DECE7C046600300201C
:102B2C00A6CD000857CD00085ACD000837CD0008B7
:102B3C0017CD000870B50D682949280007F09AFFD9
:102B4C00041E20D1A02102000F23C9056120FFF72C
:102B5C00B3FE0F23220023496220FFF7ADFE0F23A3
:102B6C00220021496320FFF7A7FE02231F491A0008
:102B7C006420FFF7A1FE012322001D496820FFF706
:102B8C009BFE200070BD1B49280007F073FF041E3C
:102B9C001DD1194807F022FEA021184AC905412071
:102BAC00FFF788FD154A0F494220FFF783FD134AB2
:102BBC000D494320FFF77EFD02220C494420FFF70C
:102BCC0079FD03220A494820FFF774FDD9E7290053
:102BDC000B48FFF791FE041ED3D1FFF7F5FDD0E7AC
:102BEC005DCD00080004005000080050000C00509F
:102BFC00001C005061CD000866CD0008FFFF0000EE
:102C0C006003002010B5032449434C43514303682F
:102C1C00A3430B43036010BD7FB500217F22080046
:102C2C0003F0BAFD164B002827D00121154C1022B9
:102C3C000800267803F0B0FD134B00281DD0257832
:102C4C00124C3100200002F0E5FB03232A006946F8
:102C5C00200002F0D5FA0E4B00280ED0002405E01F
:102C6C006B460C48195D07F02BFD0134E3B2AB4207
:102C7C00F6D30A2007F03EFD0023180004B070BD07
:102C8C0000D2000818220020D4D10008F01800202F
:102C9C00F9D100081ED200080021F0B57F2285B0C2
:102CAC000600080003F078FD174D002822D00124FF
:102CBC00164F3B780193E0B2864210D8144C019920
:102CCC002000013E02F0A6FBF2B2032302A9200071
:102CDC0002F084F90025A8420CD10E4D0AE0FF2227
:102CEC00002103F059FD631C051E06D121000A4882
:102CFC0007F0E6FC280005B0F0BD04AA14193A78D8
:102D0C00093C22701C00D6E700D2000818220020D3
:102D1C00F0180020F9D10008ACD20008802110B5C1
:102D2C00064C022220004900FFF76CFF0222802192
:102D3C0020009140FFF766FF10BDC0460004005014
:102D4C000122802110B5064C91402000FFF75AFF5C
:102D5C008021012289002000FFF754FF10BDC046DE
:102D6C000004005037B51B4CFFF7EAFF2269D3056E
:102D7C0002D4194807F032FD23699B0502D4174889
:102D8C0007F02CFDFFF7CAFF0024E1B2802C01D123
:102D9C0000203EBD124D280002F03CFB0022032314
:102DAC001100280002F01AF9002803D021000D4868
:102DBC0007F086FC6946032301220731280002F044
:102DCC001FFA002803D02100074807F079FC0134D2
:102DDC00DBE7C046000400505FD200086FD2000849
:102DEC00F01800209CD20008A4D2000810B5134C97
:102DFC00FFF7A6FF124807F063FC23691148DB05B7
:102E0C0000D5114807F0EAFC104807F059FC23697B
:102E1C000C489B0500D50C4807F0E0FC2369DB054A
:102E2C0002D40B4807F0DAFC23699B0502D409484D
:102E3C0007F0D4FCFFF772FF002010BD0004005017
:102E4C00C6D10008EEEA0008C0CD0008CDD10008BC
:102E5C005FD200086FD20008F8B580260E4DFFF740
:102E6C006FFF2B697600334212D0FA270824BF007B
:102E7C003800AE62013C01F069FEE4B2AE6138008C
:102E8C0001F064FE002CF3D1FFF748FF2000F8BDE1
:102E9C00FFF744FF0148FAE70004005024D2000871
:102EAC00F0B50D00002185B007007F22080003F06B
:102EBC0073FC002806D17F21164807F001FC002086
:102ECC0005B0F0BD144E3F2233780021012003934E
:102EDC0003F062FC002802D13F211048EDE7032FDC
:102EEC0015D9EB681B78312B11D0692B04D00C4809
:102EFC00302BE5D1012300E00223A9683278094880
:102F0C000091039904F046FE04F036FCD7E7002349
:102F1C00F3E7C04642D50008182200205ED5000811
:102F2C0010D5000844000020F7B50E000021070062
:102F3C007F22080003F030FC002805D17F211B48BC
:102F4C0007F0BEFB0020FEBD194D3F222B7800215F
:102F5C000120009303F020FC002802D13F211548EA
:102F6C00EEE72B78802201210220019303F014FC60
:102F7C00002802D180211048E2E7032F13D9F3680F
:102F8C001B78312B0FD0692B04D00C48302BDAD1A5
:102F9C00012300E002232A780199009804F013FD24
:102FAC0004F0EAFBCEE70023F5E7C04642D5000863
:102FBC00182200205ED5000864D4000810D5000843
:102FCC00F0B50E00002187B007007F22080003F047
:102FDC00E3FB041E06D17F21224807F071FB200081
:102FEC0007B0F0BD204D3F222B7800210120039328
:102FFC0003F0D2FB041E02D13F211C48EDE72B78D5
:10300C00802201210220049303F0C6FB041E02D18E
:10301C0080211748E1E72B784022012103200593FA
:10302C0003F0BAFB041E02D140211248D5E7042F4D
:10303C0016D933691B78312B12D0692B04D00E4C66
:10304C00302BCCD1012200E002222B780499009283
:10305C000398059A04F0A1FC002404F08DFBBEE754
:10306C000022F2E742D50008182200205ED50008A5
:10307C0064D4000880D4000810D50008F0B50E0008
:10308C00002187B007007F22080003F085FB041E97
:10309C0006D17F21224807F013FB200007B0F0BDBA
:1030AC00204D3F222B7800210120039303F074FB69
:1030BC00041E02D13F211C48EDE72B788022012110
:1030CC000220049303F068FB041E02D180211748F0
:1030DC00E1E72B78402201210320059303F05CFBF0
:1030EC00041E02D140211248D5E7042F16D93369AA
:1030FC001B78312B12D0692B04D00E4C302BCCD139
:10310C00012200E002222B78049900920398059A80
:10311C0004F021FC002404F02FFBBEE70022F2E7B0
:10312C0042D50008182200205ED5000864D400089F
:10313C0080D4000810D50008F0B50E00002187B02F
:10314C0007007F22080003F027FB041E06D17F2115
:10315C00224807F0B5FA200007B0F0BD204D3F2201
:10316C002B7800210120039303F016FB041E02D1DF
:10317C003F211C48EDE72B787F220021022004938D
:10318C0003F00AFB041E02D17F211748E1E72B78DC
:10319C003F2200210320059303F0FEFA041E02D106
:1031AC003F211248D5E7042F16D933691B78312BF0
:1031BC0012D0692B04D00E4C302BCCD1012200E064
:1031CC0002222B78049900920398059A04F048FB8C
:1031DC00002404F0D1FABEE70022F2E79CD40008E8
:1031EC0018220020B9D40008D6D40008F3D4000863
:1031FC0010D5000810B504F0D3FA04F0BDFA002085
:10320C0010BD0000F7B50E00002107007F2208005A
:10321C0003F0C2FA002805D17F21144807F050FAB8
:10322C000020FEBD124D3F222B780021012001937E
:10323C0003F0B2FA002802D13F210E48EEE7022F2C
:10324C0012D9B3681B78312B0ED0692B04D00A48E5
:10325C00302BE6D1012200E002222978019804F0FB
:10326C00ADFA04F089FADBE70022F6E742D5000854
:10327C00182200205ED5000810D5000810B50A49A8
:10328C00002003F059FA002803D0012806D0074883
:10329C0003E08022064B52019A6210BD8022044B3F
:1032AC0052019A610020F8E75CD4000808CA0008B3
:1032BC00000400500122F8B5524204000F00012016
:1032CC00002103F0D1FA002806D101211C48494203
:1032DC0007F0F6F90020F8BD3B681A4E1B783568EC
:1032EC006C2B1ED0772B19D01748622BF3D1022CE4
:1032FC00F0D02000FF22002103F04EFA3378013C7D
:10330C002B70E4B20135F2E72000104A002103F0E3
:10331C0077FA3388013C2B80E4B20235022CF3D1CE
:10332C00D8E701277F42022CD4D020003A0000219C
:10333C0003F09AFA3368013C2B60E4B20435F2E7EF
:10334C0031D8000818220020E4D70008FFFF000045
:10335C00F7B5012201900E0052420021012003F02A
:10336C0083FA002806D101211F48494207F0A8F929
:10337C000020FEBD1D4D019B2F680124022B08D996
:10338C0010222100022003F007FA031E1848F0D087
:10339C002C7833681B786C2B1AD0772B15D0E4194A
:1033AC00622B07D01348E4E7397813480A0007F07A
:1033BC0087F90137A742F7D1DAE739880F480A00B5
:1033CC0007F07EF9013C0237E4B2002CF5D1CFE7CF
:1033DC003D00002CCCD002CD09480A00013C07F07E
:1033EC006FF9E4B2F5E7C04631D800081822002086
:1033FC00A2D70008E4D70008C1D70008CCD7000832
:10340C00D7D700080122002170B55242080003F002
:10341C002BFA002806D101210F48494207F050F938
:10342C00002070BD802201210C4C920008002668FF
:10343C0003F0E6F9002803D1802109488900EDE763
:10344C002588084C31002A00200007F027F92900B4
:10345C00200003F03DFAE3E731D8000818220020E1
:10346C007CD7000825190020F0B50E260C0089B079
:10347C0004AD6E4403AF009533003A001549206843
:10348C0007F082FA162312226B4400936A4405ABB0
:10349C001149606807F078FA3B8806AC23703388D2
:1034AC00200063702B88A3706B465B8AE3706B46BD
:1034BC009B8A23716B46DB8A637104F08FFC074B8C
:1034CC00002803D0200001F0EDFF0023180009B004
:1034DC00F0BDC046CCD9000856F800089CD90008AD
:1034EC0007B5684602F054F8684604F095FC0A20CB
:1034FC0007F000F900200EBD70B5144B002800D069
:10350C000B68134D1900280006F01EFF114A002805
:10351C000BD0100070BD637A002B0DD02000093049
:10352C0007F0CEF80A2007F0E5F80B4C2800210034
:10353C0006F049FF0028EED0280006F03BFF030000
:10354C00581E8341054A5B421A40E2E737DC00080B
:10355C006C03002039DC0008C805002053DC00088F
:10356C000122002110B55242080003F07DF9002819
:10357C0006D101210A48494207F0A2F8002010BDEB
:10358C00084B094C1968200003F0A6FF031E0748DE
:10359C00F5D080212000890003F09AF9EEE7C046AF
:1035AC008DDC000818220020251900206EDC000894
:1035BC00434BF7B51D698023424E1D407DD103F06E
:1035CC0019FE414E002878D0404C200003F0F0FE4C
:1035DC003F4E002871D021783E4807F071F8A27850
:1035EC0061783D4807F06CF83C4807F069F86319BE
:1035FC00D878013507F07EF8052DF8D10A2007F0B0
:10360C0079F80F22217A36480A40090907F058F850
:10361C00A37A617A1B020B43E17A324809040B430B
:10362C00217B0906194307F04BF8A37B617B1A0930
:10363C0009071B071B0F090E1943FA23DB00C918D6
:10364C00294807F03DF8200003F0D4FE274E00284F
:10365C0033D021782648890907F032F8617825485B
:10366C0007F02EF8A178244807F02AF8E1782348CF
:10367C0007F026F8617922480907090F07F020F8AE
:10368C00200003F0FBFE4102090D1E4807F018F85C
:10369C001D4F012239001D4806F030FE1C4E051E40
:1036AC000BD101AA2100380006F0B2FE2E00002832
:1036BC0003D12100174807F003F83000FEBDC046C7
:1036CC0000040050AFDA0008CBDA000825190020FE
:1036DC00EFDA000816DB00082DDB00083BDB0008E6
:1036EC004ADB00085EDB000870DB000860DA0008CB
:1036FC0089DB000896DB0008B3DB0008D0DB000890
:10370C00ECDB00080CDC000821DC0008980300202E
:10371C0092DA000822DC0008F7B507000C00002C38
:10372C003FD080231F4E5B003088221C1B1A9BB29B
:10373C009C4200D91A1C93B20093002807D11A4B53
:10374C0019880F23194202D1090903F02BFC6B468F
:10375C00154D1B78327829883800019303F0FAFB59
:10376C00002101203388009AD3189BB233802A8819
:10377C000E4EFF2B0AD8002902D00A492A800B8052
:10378C00009BFF18019BE41AE4B2C8E7013B01322D
:10379C00FF3B92B29BB20100B242EAD901492A80A6
:1037AC000B80F7BDE2050020E4050020FF070000B8
:1037BC00F7B506000D00002D01D1012033E01A4BA6
:1037CC002C1C1A8880235B009B1A9BB29D4200D94B
:1037DC001C1C164FA4B2E3B23988D2B2300001934C
:1037EC0003F0AFFB12483A88078800200E490B887B
:1037FC00E3189BB20B80FF2B09D8002802D00B805A
:10380C000A4B1A80019B3619ED1AEDB2D3E7013B36
:10381C000132FF3B92B29BB20120BA42EBD900209D
:10382C000B80024B1A80FEBDE2050020E40500204F
:10383C00E005002070B5051E2FD000217F22080066
:10384C0002F0DEFF002805D17F21164806F038FF74
:10385C00002070BD144E3488022D21D17F2200210E
:10386C00012002F0CDFF002802D17F210F48EDE7A7
:10387C0035882A0021000E4806F022FF2100002086
:10388C00013403F08FFBA4B22E2006F033FFA542C7
:10389C00F4D2084806F0A2FFDAE704007F25E8E737
:1038AC002500E6E77BDD000818220020A2DD0008D9
:1038BC00C7DD0008D8DD000837B501AC200003F0E7
:1038CC00B1FBA37862782178284806F0F9FE8021B4
:1038DC002748890006F0F4FE80212648090106F0ED
:1038EC00EFFE80212448490006F0EAFE802123489F
:1038FC0006F0E6FE224806F071FF03F0C9FA040058
:10390C000100204806F0DCFE072121404B1E9941A6
:10391C001D4806F0D5FE062121404B1E99411B483F
:10392C0006F0CEFE0521012521404B1E9941184879
:10393C0006F0C6FEA1082940164806F0C1FE032178
:10394C0021404B1E9941144806F0BAFE61082940EB
:10395C00124806F0B5FE21001148294006F0B0FED1
:10396C000021104806F0ACFE00203EBDDEDD000854
:10397C000ADE000818DE000824DE000839DE000824
:10398C0046DE000856DE000866DE000873DE00081E
:10399C0080DE00088DDE00089ADE0008A7DE000835
:1039AC00B4DE0008C1DE00080021F0B51E4A85B067
:1039BC000700080002F024FF002806D11A491B4812
:1039CC0006F07EFE002005B0F0BD194EFF223388B4
:1039DC0000210120019302F013FF002802D1FF21E6
:1039EC001448EDE702243588A742EBD9FF220021C9
:1039FC00200002F0D1FE002802D121000E48DFE7A2
:103A0C0002ABD81D3378EAB201350370019901235A
:103A1C00ADB203F09FFAFF2D02D9611E0748CFE724
:103A2C000134E4B2E0E7C046FF070000BDDF000848
:103A3C0018220020DDDF0008ACD20008FEDF0008F1
:103A4C00002110B50B4A080002F0DAFE002805D15F
:103A5C000849094806F034FE002010BD074C084BFD
:103A6C002000198803F066FA80212000490002F03A
:103A7C002FFFF1E7FF070000BDDF0008251900202C
:103A8C0018220020002170B5114A080002F0ECFE4B
:103A9C00002805D10E490F4806F012FE002070BD1B
:103AAC0001210D4CFF220800266802F0A9FE002817
:103ABC0002D1FF210948EFE72588094C310020008D
:103ACC002A0003F00BFA2900200002F001FFE5E7C1
:103ADC00FFFF0700CEDE000818220020F1DE0008F0
:103AEC002519002070B50400051E2ED00021184A9F
:103AFC00080002F085FE002805D11549154806F08E
:103B0C00DFFD002070BD144E3588012C1DD9104AE4
:103B1C000021012002F074FE002802D10C490F484C
:103B2C00EDE734880E4806F059FE80220D499200CC
:103B3C000B691340FCD10C4A0C4815800C4A1480BC
:103B4C000C4A138003F056F8DBE7014CEAE7C04659
:103B5C00FF07000017DF0008182200203DDF0008D7
:103B6C0061DF000800080050E4050020BD370008A4
:103B7C00E0050020E205002010B500281FD0002130
:103B8C00104A080002F03CFE002805D10D490E48F1
:103B9C0006F096FD002010BD0C4B1C880C4806F05E
:103BAC001DFE80220B4992000B691340FCD10A4A7E
:103BBC000A4814800A4A138002F0A8FFEAE70400BE
:103BCC00ECE7C046FF07000017DF000818220020B2
:103BDC0038E0000800080050E405002025370008F4
:103BEC00E205002070B50500002486B0E0B2AC42BE
:103BFC000FD1032302AE0093320023003100114891
:103C0C0001F080FE0025A54216D10A2006F072FDB7
:103C1C0009E0FF22002102F0BFFD002806D121009F
:103C2C00094806F04DFD002006B070BD074B1A7810
:103C3C0002ABE2540134D9E7715D054806F040FD52
:103C4C000135E0E7F4050020ACD200081822002072
:103C5C00C6E3000837B505000024E0B2AC4206D13B
:103C6C000023220069460B4801F0B4FD09E0FF2255
:103C7C00002102F091FD002805D12100064806F034
:103C8C001FFD00203EBD6A46044B1B78A354013433
:103C9C00E3E7C046F4050020ACD20008182200204F
:103CAC0030B5102285B00121002002F075FD0E4BBD
:103CBC0000280FD00D4B69461D780D4800232A00B3
:103CCC0001F0D4FD0024E3B29D4206D80A2006F090
:103CDC0011FD0023180005B030BD6B460548195D79
:103CEC0006F0EEFC0134EEE7D4D1000818220020D7
:103CFC00F4050020C6E30008F0B5050087B00F00FE
:103D0C00002822D00B681B78312B1CD03D4C322B59
:103D1C0016D1303B0593012D19D979683A48FEF735
:103D2C00EBFD041E0CD1022D16D00100374A0220E7
:103D3C0002F09AFD002811D13449354806F0C0FC38
:103D4C00200007B0F0BD0123E4E7012305932E4AC0
:103D5C00304B13CB13C2002426001BE02E4B1868EB
:103D6C0001F05AFE0600032D14D0FB682B4C18787A
:103D7C0030380328E4D806F0CDFB3F023B3D01244C
:103D8C00042D07D02649042002F0D6FC002835D09B
:103D9C00012835D1002501231B4A0321177910680E
:103DAC00BB408361BB40594302688A4313430360A1
:103DBC001C4B1B78002B02D01B4801F0BFFC0027CA
:103DCC0000940297019533003A000599164801F0CA
:103DDC006FFC164CB842B3D0300001F02BFE010042
:103DEC00134806F06DFC01230E4A3C001370A7E744
:103DFC000224C5E70324C3E70024C1E70125CAE771
:103E0C000C4C9DE7EBE20008E80500200024F400D0
:103E1C0082E300087CE500081822002007E3000874
:103E2C00DBE2000804060020F40500204CE3000847
:103E3C00A5E300082AE30008114910B50931002058
:103E4C0002F07AFC041E03D001280FD00D480CE0C0
:103E5C00012318000C4A11791268884021009062E5
:103E6C0022000A4801F0B6FC002010BD064B1A795E
:103E7C001B68944000229C6111000223F1E7C046AC
:103E8C00DBE2000808CA0008E8050020F405002061
:103E9C0070B505000024E0B2AC420AD0FF2200212C
:103EAC0002F07AFC661C002805D12100054806F0BA
:103EBC0007FC002070BD044B0448197801F0D2FFB8
:103ECC003400E8E7ACD200081822002008060020D5
:103EDC00F0B50B6885B01B7807000D00322B13D0A2
:103EEC002F48342B0ED1303B96212E4A490001200D
:103EFC00029302F0B9FC002808D12A492A4806F09E
:103F0C00DFFB002005B0F0BD0223EDE7022F28D91E
:103F1C00AB681B78382B06D0392B12D02348372BA3
:103F2C00F0D1072600E00826032F37D0EB681B786A
:103F3C006E2B14D06F2B06D01D48652BE2D10224BA
:103F4C0002E00926F0E70124042F0CD02B691B7822
:103F5C00312B08D00225322B06D01648D2E700248C
:103F6C00F2E7002408260125134B144F1B6803931A
:103F7C00134B1B78002B02D0380001F00BFF3300E1
:103F8C0001950094039A0299380001F02DFE031E4E
:103F9C000C48B7D001230A4A1370B2E70024E2E7B9
:103FAC0094E5000880841E005AE60008B0E500087D
:103FBC00D0E5000806E600081822002008060020BC
:103FCC000C06002023E600087FB50D00002106003A
:103FDC002C4A080002F014FC2B4B002842D02B4B2F
:103FEC006D681C88297800290DD1032E14D128491D
:103FFC00022002F0A1FB012837D0002808D00228AB
:10400C0035D0244B2EE02448013501F02BFFE9E795
:10401C000D21214801F026FFFA2189004C43200094
:10402C00F530FF3006F08AFA010001A803F004FF16
:10403C00012401A803F009FF00280FD16B46DD1CF9
:10404C002900154801F046FF0028F2D028780D28E9
:10405C0015D8124B2200C3409A4310D10A2006F007
:10406C0049FB0023180004B070BD0A21D1E70A4DAA
:10407C000D21280001F0F6FE0A212800CAE706F0FF
:10408C0039FBD6E7FFFF000042E7000818220020AA
:10409C0088E50008EFE6000808060020012400006F
:1040AC000021F0B510228BB00700080002F074FB61
:1040BC002A4C002841D02A4E2A4A3378002101206C
:1040CC00009302F09DFB284C002836D00225338843
:1040DC000193AF4226D8FA21019889004843F53064
:1040EC00FF3006F02BFA010003A803F0A5FE002414
:1040FC0003A803F0AAFE00280BD106AB19191B4824
:10410C0001F0E8FE0028F3D00134009BE4B2A34296
:10411C00EED80025EBB29C4219D80A2006F0EAFA38
:10412C0000240AE0FF220021280002F035FB041EC7
:10413C0006D129000E4806F0C3FA20000BB0F0BDE2
:10414C0031780A48013501F08DFEEDB2C1E706ABBE
:10415C00E95C084806F0B4FA0135DBE77CE60008B8
:10416C0018220020FFFF000042E70008080600208C
:10417C00ACD20008C6E30008002130B5102289B08B
:10418C00080002F009FB1E4B00282ED01D4C1E4AC5
:10419C0000210120257802F033FB1C4B002824D091
:1041AC00FA21208889004843F530FF3006F0C6F923
:1041BC00010001A803F040FE002401A803F045FE15
:1041CC0000280AD104AB1919114801F083FE00280C
:1041DC00F3D00134E4B2A542EFD80025EBB29C42F7
:1041EC0006D80A2006F086FA0023180009B030BD64
:1041FC0004ABE95C074806F063FA0135EEE7C0460C
:10420C00CAE6000818220020FFFF0000A3E6000801
:10421C0008060020C6E3000873B58025AD00104BDE
:10422C001C692C4004D10A2006F064FA200076BDEB
:10423C006B46DC1D200001F0D7FE0A4E002803D08F
:10424C002178300001F00EFE2100300001F042FE1A
:10425C000028E4D0207801F0CFFE0028FAD0DEE769
:10426C00000800500806002013B56B469C1D20006A
:10427C0003F0E2F80123002803D02388581E834161
:10428C00DBB2180016BD10B502F0B4FF030001201C
:10429C005840C0B210BD10B508001100DAB21C00B5
:1042AC0003F050F9001B431E9841C0B210BD10B56D
:1042BC0008001100DAB21C0003F0DEF9001B431EEB
:1042CC009841C0B210BD10B501F08EFE10BD10B5F6
:1042DC000400200001F090FE0028FAD010BD000070
:1042EC00FA2189004843F53010B5FF3006F026F965
:1042FC000100024803F0A0FD10BDC046381B002091
:10430C0010B5024803F0A1FD10BDC046381B0020BB
:10431C0010B5024804F0EEFA10BDC046E81D0020AE
:10432C0010B5094C00220949200004F0F1FE08499F
:10433C00200004F007FF0749200004F09BFE20003A
:10434C0004F009FF10BDC046441B002010000020E3
:10435C005800002000000020096810B589B201F057
:10436C0053FE054C0549200004F098FE200004F093
:10437C00B7FE002010BDC046441B0020681D002065
:10438C0010B5222804D14B88DB0701D5FDF77CFF43
:10439C00002010BD80220121064BD202DA67064AAA
:1043AC00002013688B431360044A1F31936B8B43BB
:1043BC009363704704E100E00014004000100240D9
:1043CC0013B5194C00221949200004F05CFE184961
:1043DC00200004F063FE2020164AC424916BA40034
:1043EC0001439163936B144A03400193019B134B5C
:1043FC0013489A62802219680A431A600422DA620E
:10440C00104A115908408021C903014311518021E0
:10441C00C90211600122D96800201143D9601968C2
:10442C000A431A6016BDC046441B0020A81D00207C
:10443C00681D002000100240FF7C000000140040AA
:10444C00FFFF00FF00E100E00A00862110B5084CD8
:10445C00890003006058043941580120002906D115
:10446C001900200004F00FFE200004F01EFE10BD09
:10447C00441B00208623022170B50F4E9B00F3587D
:10448C000E4A49421161002B14D0852292009B5890
:10449C00002B0FD10A4C4231200001F0BFFD051E4C
:1044AC0008D002002100300004F0EDFD29002000AE
:1044BC00FFF7CAFF70BDC046441B0020001400402B
:1044CC00A81D0020094B026810B59A420DD180231B
:1044DC00074A1B04916B1F200B43936300221100AE
:1044EC0003F006FD1F2003F02DFD10BD005C004005
:1044FC000010024001008B2310B59B00ED31FF3101
:10450C00C05804F043FE10BD1C234B43C318FC33AE
:10451C00DA698B2310B59B00C05804F06BFE10BDFC
:10452C001C234B43C3189A6B8B2310B59B00C058AC
:10453C0004F09AFE10BD8B2310B59B00C05804F0FC
:10454C0022FF10BD70B58B240500A4000121005979
:10455C0004F004FF285904F0DDFE70BD8B2310B568
:10456C0004009B00C05804F0FCFEA369002B04D08F
:10457C000623024A11690B43136110BD00ED00E0E4
:10458C00836910B5002B04D00621054A13698B43AF
:10459C0013618B239B00C05804F0EEFE10BDC04687
:1045AC0000ED00E08B2370B505001C489B00C55046
:1045BC001B4B882603600823022243600023B600AD
:1045CC00A8518260C36002618361C361036203F01E
:1045DC00C3FC041E00D0FEE7020001001823A859FA
:1045EC0004F00AFCA85922005823802104F004FC92
:1045FC00A8592200C023812104F0FEFB8823A8596E
:10460C0022005B00012104F0F7FB8023A8595B001A
:10461C002200822104F0F0FB200070BDE81D002078
:10462C00005C004088239B00C05810B503F0E8FCE8
:10463C000223032801D8024B1B5C180010BDC04696
:10464C00C5E9000810B514001A0023008824A40042
:10465C00005903F0F5FC0223032801D8014B1B5C25
:10466C00180010BDC5E9000888239B00C05810B580
:10467C0003F03EFE0223032801D8024B1B5C1800FA
:10468C0010BDC046C5E9000888239B00C05810B572
:10469C0003F07EFF0223032801D8024B1B5C180099
:1046AC0010BDC046C5E9000888239B00C05810B552
:1046BC0003F0B6FF0223032801D8024B1B5C180041
:1046CC0010BDC046C5E9000888239B00C35848B2FA
:1046DC001C22002806DA7F2001404A439B182A330B
:1046EC00187870474A439B18FF33D87AF9E70000D3
:1046FC0088239B00C05810B503F08BFC02230328C1
:10470C0001D8024B1B5C180010BDC046C5E900085F
:10471C0010B58824A400005903F0F4FF02230328E9
:10472C0001D8024B1B5C180010BDC046C5E900083F
:10473C0010B58824A400005903F088FE0223032836
:10474C0001D8024B1B5C180010BDC046C5E900081F
:10475C00882310B59B00C05803F010FF10BD00005B
:10476C0000487047100600207047000012230148D3
:10477C000B8070472C000020042301480B807047ED
:10478C004000002010B5044C0A000448210004F03D
:10479C00BFFF200010BDC04618200020E2E9000831
:1047AC0010B5044C0A000448210004F0B1FF2000AD
:1047BC0010BDC04618200020ECE9000810B5044CD0
:1047CC000A000448210004F0A3FF200010BDC046DD
:1047DC0018200020FDE9000810B5044C0A0004481C
:1047EC00210004F095FF200010BDC04618200020C9
:1047FC00C9E9000810B5044C0A000448210004F073
:10480C0087FF200010BDC04618200020D4E9000806
:10481C00054B82B09A6B02439A639B6B18400190D4
:10482C00019B02B07047C04600100240054B82B09D
:10483C00DA6A0243DA62DB6A18400190019B02B02B
:10484C007047C0460010024010B51020FFF7E0FF83
:10485C001F22044B9A62044ADA62082219680A433E
:10486C001A6010BD00100040FFFF0000F7B50126D4
:10487C008020824C824D636B400533436363636BD2
:10488C0033400193019BFFF7C3FF2B68B3433343C2
:10489C002B602B68334200D1FEE78022794B7A4F94
:1048AC001968120139400A431A60226816432660BF
:1048BC001E00042322681A42FCD06368734A1A4013
:1048CC0080235B01134363600123A2681343A3603D
:1048DC0080236F4A9B01116A0B4313620223A26867
:1048EC001A42FCD080200005FFF792FF694B6A4901
:1048FC001A6890200A4020210A431A605A68C005A1
:10490C001040664A02435A604022186802431A60FB
:10491C001A6811431960802332685B001A433260B5
:10492C00226D17402765226D1343236580239B005E
:10493C00226D1A42FCD0236D594A1A4080235B0227
:10494C00134323658023226DDB0213432365E36845
:10495C00544A1A408823DB031343E3608023226804
:10496C005B041343236080239B0422681A42FCD00F
:10497C00F022E3689343E360E3684B4A1340E3603F
:10498C00E3684A4A13400322E360E3681343E3609D
:10499C000C23E6681E400C2EFBD1454804F06AFA45
:1049AC000322E36C01209343E364E36C414AB34379
:1049BC00E364E36C13408022E364E36CD20413439E
:1049CC00E36440232A6813432B60FFF72FFF022078
:1049DC00FFF72CFF0420FFF729FF0820FFF726FF25
:1049EC008020FFF723FFA022334BD2058021D36018
:1049FC000023090553609160812189005161882051
:104A0C008821C000C901116250622C4810608220BC
:104A1C002B4AC001D060C0208000506029489060B3
:104A2C002948506144201362506228481060284A7B
:104A3C002848D0608020800153609060A020C00086
:104A4C005061802080041062516223491020116053
:104A5C000421224AD3605360936051611362536204
:104A6C0010601F4AD16053609360536113625362AC
:104A7C0001331360FFF7E8FEF7BDC046001002409B
:104A8C000020024000700040FFE7FFFFFFE0FFFF47
:104A9C0000000140006C0040FFC0FFFF7FBB2220E4
:104AAC00FFFFFCFFFFFF02FFFFF8FFFFFFC7FFFF49
:104ABC000048E801FFCFFFFF4A281064A0C3E82B91
:104ACC00000400508008A088441700009F1A5AA9BF
:104ADC0000080050A9004405006FA1F0000C005024
:104AEC00001C0050013800B5032806D805F012FD53
:104AFC000206090D4022064B9A6200BD054B0422AA
:104B0C00FAE78022024BD200F6E7014BF7E7C046EA
:104B1C0000040050000C0050013800B5032806D8E2
:104B2C0005F0F8FC0206090D4022064B9A6100BD07
:104B3C00054B0422FAE78022024BD200F6E7014B28
:104B4C00F7E7C04600040050000C00500122054B52
:104B5C00D8625A6119681143196019681142FCD165
:104B6C007047C0460010004070B5FA250400AD0037
:104B7C00002C00D170BD2800013CFFF7E7FFA4B268
:104B8C00F6E7000070B505000220FFF741FE402358
:104B9C00144CFF33A3622268BF3B13432360124BB8
:104BAC006A0000209A4206D8A021890069430F4868
:104BBC0005F0C4FC013873230221A269E0629A4318
:104BCC00236A8B43236238231343A3610123226A94
:104BDC001A43226222681A4322606269134363619A
:104BEC0070BDC04600040040A08601000048E801EA
:104BFC000121054A13688B431360044A4918936BCF
:104C0C008B4393637047C046000400400010024081
:104C1C000122034B1A71034A1A6000225A71704721
:104C2C00300800200024014073B5002805D1274A24
:104C3C00AE21274803F099F8FEE70024046001290F
:104C4C003CD180262349B6004D6B234C3543236859
:104C5C004D634A6BC02132400192019A1A690906D0
:104C6C000A431A619A681D491140802252050A4371
:104C7C0007219A605A698A43110002220A431821BB
:104C8C005A61DA688A43DA6080229D6814491206F8
:104C9C000D402A430D009A609A68002AFCDB012221
:104CAC001A60996829401143996019681142FCD027
:104CBC000460012063790133637176BD0448094AAD
:104CCC00BC2103F052F82000F7E7C0463EEA00088A
:104CDC000AEA00080010024030080020E8FFFF6FCD
:104CEC00E8FFFF7F4DEA000810B5002806D18821A7
:104CFC00144A4900144803F038F8FEE70368002B07
:104D0C0006D18A21114A49000F4803F02EF8FEE71C
:104D1C005A79002A06D116210D4AFF310A4803F0B0
:104D2C0024F8FEE701228A401B680A499A629A68B5
:104D3C000A4004210A439A609A680A42FCD1186C12
:104D4C0080B210BD3EEA00080AEA000811EA000829
:104D5C0022EA0008E8FFFF7F0122034B1A71034A85
:104D6C001A6000225A717047380800200074004005
:104D7C00F7B5002805D1134A8621134802F0F5FF38
:104D8C00FEE700240460012914D180270F4C104B3E
:104D9C00A66BBF053E431D68A663A26B3A40019209
:104DAC00019A2A680A432A60036008005A79013282
:104DBC005A71FEBD0448074A942102F0D6FF200028
:104DCC00F7E7C0463EEA00086AEA00080010024015
:104DDC00380800204DEA000810B5002805D1134A08
:104DEC00E521134802F0C1FFFEE70368002B05D153
:104DFC00104AE9210E4802F0B8FFFEE75879002866
:104E0C0005D10D4AEA210A4802F0AFFFFEE71B6804
:104E1C00002907D0012907D0084AF921044802F0DB
:104E2C00A4FF00E09A6010BD5A61FCE73EEA00085E
:104E3C006AEA000871EA000882EA00089EEA0008A3
:104E4C00F7B50124944023009340050000930323FD
:104E5C002A711700009A08685A430E001040296006
:104E6C000099019205F06AFB68717068210020407E
:104E7C0005F064FB019BA871B0680099184005F01F
:104E8C005DFB019BE871F0680099184005F056FB3A
:104E9C007369287223409C420ED101236B72072F39
:104EAC000CD80099306AB940B9400F234B431840D5
:104EBC0005F044FBA872F7BD0023EFE7210A494334
:104ECC00706A4943F1E70123F0B507790324BB402D
:104EDC001900B9404C43E443057A02684D43D66847
:104EEC0026403543D560C57996684D4326403543F9
:104EFC00956086795568BE409D4335435560457A2B
:104F0C00002D14D09361867A072F12D80B00BB406A
:104F1C00BB400F275F437343156ABD432B4313629A
:104F2C004079136841431C4021431160F0BD9362EA
:104F3C00E9E70F271B0A5B435B435F437343556AE7
:104F4C00BD432B435362EBE70122034B1A71034A17
:104F5C001A6000225A71704740080020005400402B
:104F6C00F7B5002805D1174A9321174802F0FDFE2A
:104F7C00FEE70024046001291DD1144C02716379F1
:104F8C00002B13D18025AD03AC46114E2268B76BB4
:104F9C002F43B763B56B664635400195019D0D4DAA
:104FAC001360536015611568294311600133046067
:104FBC006371012005E00448074AA62102F0D5FEE2
:104FCC002000FEBD3EEA0008BCEA000840080020B4
:104FDC0000100240372E30204DEA0008F7B5019141
:104FEC00002806D18121794A4900794802F0BDFE9A
:104FFC00FEE70468002C06D18321764A49007448E8
:10500C0002F0B3FEFEE76579002D06D10821724A45
:10501C00FF316F4802F0A9FEFEE7007945B2002D82
:10502C0006DA0A216D4AFF31694802F09EFEFEE75E
:10503C002468012A1ED806252B421BD06568684EB1
:10504C0035406560674E002A19D0802567686D026F
:10505C0037403D43656009252B4213D11020802732
:10506C0084467F008020A569000205404DD15E4A30
:10507C00B02112E0802566686D043543E1E7656870
:10508C003540E7E7012780211F40A5690902002F61
:10509C0008D00D420CD09521544A49004C4802F0DE
:1050AC0064FE30E00D4003D134214F4AFF31F5E767
:1050BC0065684000AD0AAD022843606060684C4DE5
:1050CC002840802560606068AD0128436060002F37
:1050DC0004D080200002A7690742FCD060682842F7
:1050EC00FCD11020A5690542B8D0A821E369414A3A
:1050FC001843E0614900364802F022FE80231B026F
:10510C00A2691A42FCD1002045E0E925A0696D0096
:10511C002842FAD038420ED0B821E369364A1F43F0
:10512C00E76149002A4802F020FE80231B02A26995
:10513C001A42FCD1E7E7654628420FD06246BF21F0
:10514C00E36949001A43E26121482C4A02F00DFE42
:10515C0080231B02A2691A42FCD1D4E7850707D52C
:10516C00002A05D00199013A0D780131A56201910F
:10517C00450601D5002A0BD0000600D472E7002AA0
:10518C0006D080206568400235402843606069E79E
:10519C009B0701D40120FEBD8020A56900020540BB
:1051AC0002D1114AB02181E780236268DB011343ED
:1051BC0063602023A2691A42FCD0E2691343E361C5
:1051CC0080231B02A2691A42FCD1E3E73EEA0008E5
:1051DC00BCEA0008C3EA0008D4EA00081BEB00088C
:1051EC00FFFFFFFEFFFF00FF60EB000834EB000841
:1051FC00FFFBFFFF70EB00088CEB00089AEB00083C
:10520C00F7B50191002806D1D221724AFF317248BC
:10521C0002F0ABFDFEE70468002C06D1D6216F4AE4
:10522C00FF316D4802F0A1FDFEE76579002D06D136
:10523C00EB216B4A4900684802F097FDFEE70079C4
:10524C0045B2002D06DAEC21664A4900624802F0AC
:10525C008CFDFEE72468012A3AD806252B4237D06C
:10526C006568614E35406560604E002A35D08025FA
:10527C0067686D0237403D43656009252B422FD18D
:10528C0080200627000284461F406046A569054021
:10529C0068D0D425A0692842FCD0450707D5002A40
:1052AC0005D00199656A013A0D7001310191102503
:1052BC0028425AD0E3694E4A1D43E5614D494648A0
:1052CC0002F053FD80231B02A2691A42FCD147E075
:1052DC00802566686D043543C5E765683540CBE7C6
:1052EC00012780211F40A5690902002F08D00D421B
:1052FC000BD0FA21404AFF31374802F036FD2FE03F
:10530C000D4002D13D4A3E49F6E765684000AD0AC2
:10531C00AD022843802560606068ED00284380253D
:10532C0060606068AD0128436060002F04D080206D
:10533C000002A7690742FCD060682842FCD110200B
:10534C00A56905429CD0E3692E4A1843E0612E49B9
:10535C00214802F0F5FC80231B02A2691A42FCD101
:10536C0000201CE0254A2949C6E7450601D5002A3C
:10537C0012D0000689D5012A0CD1002F03D0606809
:10538C00194D2840606080206568400235402843F4
:10539C0060607AE7002AF6D19B0701D40120FEBD9C
:1053AC008025A0692D02054002D1144A1849A3E7B3
:1053BC0080236268DB01134363602023A2691A42D5
:1053CC00FCD0E2691343E36180231B02A2691A42F9
:1053DC00FCD1E3E73EEA0008BCEA0008C3EA000897
:1053EC00D4EA00081BEB0008FFFFFFFEFFFF00FFE5
:1053FC000CEB00084902000034EB000860EB0008DD
:10540C0002020000F0EA00081E0200002E0200005A
:10541C007602000010B5002805D1084A0849094851
:10542C0002F0A3FCFEE74BB2002B05DA064A074953
:10543C00044802F09AFCFEE7017110BD3EEA000838
:10544C0091020000BCEA000823EB00089302000064
:10545C00114B12481A6D82421CD0CA225A62773AFA
:10546C005A62543ADA604132D9681142FCD0FE21BA
:10547C001A69C9030A43FF211A611A69D20BD203B4
:10548C000A431A61064A5A6000221A60813ADA60AD
:10549C00596218657047C04600280040FECA0000DB
:1054AC0001810000F7B5050002F098FC00286BD0D4
:1054BC00CA23364C6362773B6362543BE3604133EF
:1054CC00E2681A42FCD02F78AB780A2138006E784B
:1054DC00009305F033F80A2103013800019305F01D
:1054EC00B3F8019B30005918C9B20B040A2101937F
:1054FC0005F024F80A210701300005F0A5F87F1803
:10550C00019BFFB200980A213F021F4305F016F8D9
:10551C000A210601009805F097F87618F6B2374381
:10552C006760EF780A21380005F008F80A210301BA
:10553C0038002E796D79009305F086F8009B3000C9
:10554C005918C9B20B040A21009304F0F7FF0A2181
:10555C000701300005F078F87F18009BFFB20A2194
:10556C003F0228001F4304F0E9FF0A21060128002E
:10557C0005F06AF881237618F6B25B423743276050
:10558C00E3608133FF336362F7BDC04600280040FF
:10559C0070B51C4B1A6859681C68A242FAD10A23D0
:1055AC000F240D0CEDB22E095E43254075190E0A21
:1055BC00F6B20570F506ED0F5D432640AD1945704A
:1055CC000325C9B20E092E405E4321407118160CFA
:1055DC00F6B2817031092940594326408919160ABF
:1055EC00F6B2C17004353109294059432640891956
:1055FC00D2B2017111090D406B4322409B184371CB
:10560C0070BDC04600280040402302689A438A427D
:10561C0006D002689A43026001600268134303607B
:10562C007047000037B5012907D0022918D0124A5B
:10563C005B21124802F099FB37BD802510496D01A2
:10564C004C6B2C434C634B6B2B400093009B4023C7
:10565C000168994301600260026813430360EBE741
:10566C0080250749ED018C6B2C438C638B6B2B4095
:10567C000193019BEBE7C046E9EB0008B5EB000892
:10568C00001002400122064B02211A71054A1A60D1
:10569C0000225A71044B197104495A7119607047F0
:1056AC00480800200030014050080020003800401D
:1056BC00F7B5040008A8077809A806780AA801928B
:1056CC000078002C05D1184AED21184802F04DFB4A
:1056DC00FEE700252560012923D0022919D1144D9C
:1056EC00013E72427241D601C122920017436A46B2
:1056FC00DB0012793B43334322712073A3601A0001
:10570C002868FFF78FFF25606B79012001336B71DF
:10571C0006E080210548074A490002F026FB2800D4
:10572C00FEBD054DDCE7C0463EEA0008B5EB0008BF
:10573C00500800204DEA00084808002010B5002849
:10574C0006D196211C4A49001C4802F00EFBFEE7CC
:10575C000268002A06D19821194A4900174802F01C
:10576C0004FBFEE75379002B06D13221154AFF3199
:10577C00124802F0FAFAFEE7013BDBB211685371F2
:10578C00002B03D000230360012010BD40240B68C4
:10579C00A3430B601379012B07D0022BF2D10A4AD9
:1057AC000A49936B0B409363ECE7074A0849536B28
:1057BC000B405363E6E7C0463EEA0008B5EB000831
:1057CC00BCEB0008CDEB000800100240FFBFFFFF50
:1057DC00FFEFFFFFF7B505000C0001921F0000283A
:1057EC0006D1B4211D4A49001D4802F0BEFAFEE75D
:1057FC000368002B06D1B6211A4A4900184802F05A
:10580C00B4FAFEE75A79002A06D16E21164AFF3106
:10581C00134802F0AAFAFEE71E6881683000FFF711
:10582C00F3FEFB0702D52879FFF75CF90222012170
:10583C00019BE3189C4205D1BB0702D52879FFF7E1
:10584C006BF9F7BDB0681042FCD020783073B068AB
:10585C000842FCD0F0680134ECE7C0463EEA000890
:10586C00B5EB0008BCEB0008CDEB0008F7B5050064
:10587C000C0001921F00002806D1D1211D4A4900BD
:10588C001D4802F072FAFEE70368002B06D1D32103
:10589C001A4A4900184802F068FAFEE75A79002AB9
:1058AC0006D1A821164AFF31134802F05EFAFEE732
:1058BC001E6881683000FFF7A7FEFB0702D5287928
:1058CC00FFF710F902220121019BE3189C4205D13C
:1058DC00BB0702D52879FFF71FF9F7BDB068104256
:1058EC00FCD0287B3073B0680842FCD0F068207084
:1058FC000134EBE73EEA0008B5EB0008BCEB00080E
:10590C00CDEB0008F7B5019308AB04000F00009233
:10591C001E78002806D1DE211F4AFF311F4802F0F5
:10592C0024FAFEE70368002B06D1E2211C4AFF3162
:10593C001A4802F01AFAFEE75A79002A06D1F12128
:10594C00184A4900154802F010FAFEE71D688168F4
:10595C002800FFF759FEF30702D52079FFF7C2F8AC
:10596C000222002394460121019A934205D1B307E8
:10597C0002D52079FFF7D0F8F7BD6246A86810422F
:10598C00FBD0F85C2873A8680842FCD0E868009A41
:10599C00D0540133E8E7C0463EEA0008B5EB0008F6
:1059AC00BCEB0008CDEB000870B5002806D18521B2
:1059BC00144A8900144802F0D8F9FEE70368002B5A
:1059CC0006D18621114A89000F4802F0CEF9FEE774
:1059DC005A79002A05D10E4A0E490B4802F0C5F936
:1059EC00FEE740221B6885681C68C90094431C6054
:1059FC003824A54329438160196019680A431A6049
:105A0C0070BDC0463EEA0008B5EB0008BCEB0008D0
:105A1C00CDEB00081902000001000020044A8A4264
:105A2C0004D90130C0B252080728F8D17047C046DB
:105A3C000024F400431C0148D84070470048E8019A
:105A4C0010B5034A13680133136002F049FA10BD14
:105A5C0058080020C021094A094B0A485360036AC0
:105A6C0009061B021B0A0B430362002393600733D6
:105A7C0013608022044B12061A60704710E000E09D
:105A8C00FF7C000000ED00E000E100E0014B186835
:105A9C007047C04658080020F7B504680500E36954
:105AAC009B0608D56B46616AE269C9B2D9710123BC
:105ABC001A421BD023628026E36933420CD06B461A
:105ACC002800DF1D3900083002F0ACF8002815D092
:105ADC003B78A3620023AB714022E369134204D0EC
:105AEC000123AB71236893432360F7BD0223E26962
:105AFC001A42DFD1543002F06CF8DCE72368B34370
:105B0C002360E9E710B50248FFF7C6FF10BDC04699
:105B1C005C08002010B50248FFF7BEFF10BDC04660
:105B2C00FC08002010B50248FFF7B6FF10BDC046B8
:105B3C009C09002070B501240025194B194A1A49FB
:105B4C001A601A4840225D711C719C7102F03BF87E
:105B5C0040221749174802F036F80222164B174913
:105B6C001A71174A17481A6040225D719C7102F035
:105B7C002AF840221449154802F025F80422144B47
:105B8C0014491A71144A15481A6040225D719C71AF
:105B9C0002F019F840221249124802F014F870BDB4
:105BAC005C080020003801407008002064080020C8
:105BBC00BC080020B0080020FC08002010090020C0
:105BCC0000440040040900205C090020500900201A
:105BDC009C090020B0090020004C0040A4090020C2
:105BEC00FC090020F0090020F0B589B001930EAB40
:105BFC001B78009002930FAB1B780D0003930028C9
:105C0C0006D19421524AFF31524802F0AEF8FEE719
:105C1C000024009B1C60022905D0042914D0012902
:105C2C0009D14D4F00E04D4F7C79002C0ED0B8219E
:105C3C004B4AFF3102E0D8214A4A4900454802F05C
:105C4C0094F8002009B0F0BD474FEDE701233E6802
:105C5C00BB71022D27D0042D30D09D4239D1802428
:105C6C004249E401486B204348634B6B2340059346
:105C7C00059B3F4B5008C018110004F05FFC019BC2
:105C8C0080B2F060082B2AD0092B2AD0072B23D105
:105C9C00384B029A012A26D0002A27D0022A2DD06E
:105CAC00354A0421C5E780243049A402886B20437F
:105CBC0088638B6B23400693069BDAE780242B4981
:105CCC002403886B204388638B6B23400793079BCB
:105CDC00CFE72A4ADA21B1E7294AF321AEE72C2390
:105CEC00D7E7284BD5E7C022D2001343039A012AE9
:105CFC0006D0022A1CD0244A12219AE78022F3E70C
:105D0C00726822490A40726033600123326813437F
:105D1C003360022D13D0042D15D0012D03D1802218
:105D2C001B4B12051A600120009B1F60787189E7DC
:105D3C00726816491140802292010A43E3E78022DF
:105D4C00134B5205EEE78022114BD201EAE7C04615
:105D5C003EEA0008FCEB00085C080020FC08002070
:105D6C002DEC00084DEA00089C09002000100240B0
:105D7C000048E8012C0000107BEC0008E9EB00085F
:105D8C005FEC00082C10000094EC0008FFCFFFFF24
:105D9C0000E100E010B5002806D1D821274AFF31D8
:105DAC00274801F0E2FFFEE70268002A06D1DC2159
:105DBC00244AFF31224801F0D8FFFEE75479002C29
:105DCC0007D1F021204A49001D4801F0CEFF0020E8
:105DDC001CE01379022B1AD0042B1CD0012BF6D10A
:105DEC0080241A492405CC67002411680C60022B0E
:105DFC0015D0042B19D0012B1BD11549154C4B6B0D
:105E0C0023404B63002303600120537110BD802499
:105E1C000E496405E7E780240C49E401E3E70C49EB
:105E2C000D4C8B6B23408B63ECE709490B4C8B6B54
:105E3C00F8E78A210A4A8900C6E7C0463EEA00080C
:105E4C00FCEB000801EC000813EC000804E100E096
:105E5C0000100240FFBFFFFFFFFFFDFFFFFFF7FF3A
:105E6C00E9EB000870B50D00002805D1124A134962
:105E7C00134801F07AFFFEE70468002C05D1114AA3
:105E8C0011490F4801F071FFFEE76379002B05D132
:105E9C000E4A0F490A4801F068FFFEE7200029006E
:105EAC00083001F096FE0028F8D080232268116893
:105EBC000B43136070BDC0463EEA00083902000077
:105ECC00FCEB000801EC00083D020000BAEC0008F5
:105EDC003E02000010B5002805D10E4A0E490F48AD
:105EEC0001F043FFFEE70068002805D10C4A0D497C
:105EFC000A4801F03AFFFEE74379002B05D10A4A24
:105F0C000A49064801F031FFFEE7543001F08AFEE1
:105F1C0010BDC0463EEA00089E020000FCEB0008E3
:105F2C0001EC0008A2020000BAEC0008A302000079
:105F3C0010B58024E40022000849094801F043FE12
:105F4C0022000849084801F03EFE084B022218685E
:105F5C0000238068190004F04BFC10BD540E002087
:105F6C00480E0020480A00203C0A0020680100204E
:105F7C0010B504000A2802D10D20FFF7F9FF21000B
:105F8C00034801F026FE0028F9D0002010BDC046C1
:105F9C00480E002070B50E0015000C00A31B9D428E
:105FAC0001DC280070BD2078FFF7E2FF0134F5E733
:105FBC0013B56B46DC1D2100034801F033FE0028AD
:105FCC00F7D0207816BDC0463C0A002070B50E00F4
:105FDC0015000C00A31B9D4201DC280070BDFFF7CF
:105FEC00E7FF20700134F5E710B50100014801F01E
:105FFC0019FE10BD3C0A002010B50100014801F04B
:10600C00E8FD10BD480E002010B50A000100024842
:10601C0001F0F1FD10BDC0463C0A002010B50A008D
:10602C000100024801F012FE10BDC046480E0020CF
:10603C00034B18604068431E9841C0B27047C0467D
:10604C00E8120020002210B5034B04481A70044BD0
:10605C001860FFF7EDFF10BDF813002044CA0008CC
:10606C00F013002070B50B4B0B4C1B789D00002BD4
:10607C0005D10A4B23606059FFF7DAFF70BD013B75
:10608C009B00E058FFF7D4FF054B1B685B685B680F
:10609C006351F0E7F8130020F013002044CA000805
:1060AC00E8120020002210B5044B1A70044B1A7829
:1060BC00044B1A70FFF7C6FF10BDC046E512002056
:1060CC00EE130020E4120020F8B500250D4F3878AF
:1060DC0000F086FC0C4B1C780C4B1E5D002E0ED079
:1060EC00300004F007FB0A4A6B1CDBB256557E2CC1
:1060FC0002D80134E4B200E000241D00ECE73D704E
:10610C00F8BDC046EE1300206D130020EC120020E9
:10611C006E1300200F4B10B51A685368002B02D079
:10612C001468002C06D0C4210B4A0C4801F01DFE4B
:10613C00002010BD0A4A1178002902D0094ACB214F
:10614C00F3E701215868084B11705860FFF770FF96
:10615C00EFE7C046E8120020DEEC0008D7EC0008A0
:10616C00F8130020EFEC0008F01300200B4B10B5D7
:10617C001B685C68002C06D109480A4AF02101F022
:10618C00F4FD200010BD084B084A1B789B00985862
:10619C0008309850FFF74CFFF4E7C046E812002097
:1061AC00D7EC00080EED0008F8130020F0130020C7
:1061BC0010B50A4B1C78002C06D10948094AB321AA
:1061CC0001F0D3FD200010BD013CE4B21C70064B65
:1061DC00A400E058FFF72CFFF5E7C046F8130020A9
:1061EC00D7EC00082AED0008F013002000231A0059
:1061FC0010B504000E48591C812915D10D4B1A708D
:10620C000D4B1A700D4B1A70FFF74CFF00F0D2FBC0
:10621C00002C02D0200004F053FA094804F0DEFAF6
:10622C003E2004F067FA10BD1B181A700B00E2E751
:10623C00EC1200206C1300206D130020EE130020D4
:10624C003AED0008F7B5040000F076FB032800D106
:10625C0042E1042800D168E1002813D1092C00D1B7
:10626C00C8E00D2C0FD0082C00D026E1B84A1378CA
:10627C00002B00D1F0E0013B0120137000F0B0FBCB
:10628C00FFF710FFF7BD0A2004F034FAB04BB14E03
:10629C001C78B14B002C1ED13178B04A1170002201
:1062AC0020271A55150014000120AD4E197820290D
:1062BC004AD0002960D0232C4BD9A94D2B681B78D0
:1062CC00232B5CD10023A24A1370FFF7EBFE3E2078
:1062DC0004F010FAD6E73278611E1000C9B2A14D55
:1062EC00591800280DD00138C0B20F78BC462F5C6D
:1062FC00BC4508D19C4F01398F42F2D197490A70A5
:10630C00CDE77F20F1E700217E2A19D80132D2B2E5
:10631C00585C0131A854C8B2A042F5D300217F2AA1
:10632C0001D00132D1B28D4A317011700022685CFB
:10633C000028B4D06A547F2904D00131C9B2F6E7E1
:10634C000022E5E70021F2E721001D7001330C006B
:10635C00ACE7222901D102000133611CA400C9B2AF
:10636C00A351002A00D111E11C78222C00D10BE1A1
:10637C00002CECD00133F7E7002CA3D09DE7FFF7FE
:10638C0061FE7A4B1F687E68002E04D0784B1B7818
:10639C000193A34203D3774804F020FA92E7019BC0
:1063AC0031689B00E85804F065FB002805D13B6878
:1063BC00002B05D1FFF7AEFEE3E7FFF7D7FEE0E7D2
:1063CC00019AD04332792018C0B2824202D8727935
:1063DC00824201D26848DFE70199013189006918CE
:1063EC009847002800D16DE704F06AF90A2004F000
:1063FC0081F967E75E4C614A23789B009B580193B7
:10640C005F4B1F78594B1A6853681D685D4B1B789E
:10641C009C46514BFB18674513D229780137FFB2C4
:10642C0018786E1C002919D1202817D11368002B5D
:10643C0012D1FFF76FFE4D4B1B685B681D68504B0C
:10644C001F70504B1B78BB4217D923784B4A9B00CB
:10645C00D358019A9A42D5D1072039E701338842A3
:10646C0009D0FFF783FE002801D1FFF7FBFD444B59
:10647C0035001F78E5E73500CDE7354A3C0010784C
:10648C000026C01AC0B200F0ABFAA85D00280AD0F2
:10649C007E2C08D8304B0134DB199855E4B204F04B
:1064AC0029F90136F1E72A4B1C70FFF75FFE002833
:1064BC0000D0E7E6FFF7D6FDE4E61F2C00D8E1E6B6
:1064CC00234A13787E2BC7D8591C1170224AD454F6
:1064DC00FFF7E8FD2000FBE620497F220B78002B1C
:1064EC0001D0013BDAB21B4B1B78934200D1C9E6B9
:1064FC007F23002A01D0013AD3B21A487F24C25C10
:10650C00002A00D1BEE6C25C002A07D17E2B01D83E
:10651C000133DAB20A70FFF7D7FDB3E6002B02D0D5
:10652C00013BDBB2EFE72300EDE70C490D4A0B789A
:10653C00D05C002805D1074A12789342EAD00200B9
:10654C00E4E77E2B02D80133DBB2F1E70023EFE75F
:10655C00EE1300206C1300206E1300206D1300202E
:10656C0054120020EC1200206D130020E8120020C1
:10657C00F81300200BEE000824EE0008F0130020A6
:10658C00E5120020E41200201D7001331C78BC437E
:10659C00FBD1DCE6F0B5002685B002900391FFF745
:1065AC0051FD0096604F3B685A68002A08D15F4B3A
:1065BC001C78002C34D0FFF7FBFDFFF7D7FDF1E77B
:1065CC001B68002B29D1FFF7A5FDEBE7584BA20068
:1065DC00D058FFF72DFD3B6801345B68E4B21868B6
:1065EC0004F052FA01302D18EDB2504B1B78A34237
:1065FC00ECD2009A2B1C954201D26B461B78DBB275
:10660C0000933B685B68986804F03EFA031CC0B2C8
:10661C00B04200D2331CDEB2CFE700252C00E4E7F9
:10662C00FFF710FD0194404D2B685A68002A0AD1DF
:10663C003E4B1878002874D0FFF7BAFDFFF796FD93
:10664C0001230193EFE71B68002B67D0384B1868C8
:10665C00FFF7EEFC029B002B32D0039B1C68200042
:10666C0004F012FA2B6802005B682000196804F031
:10667C0012FA002821D1002425002C4B1B78AB42A8
:10668C0027D2009B9C423DD3274D2B685B689868B2
:10669C0004F016F82B685B68986804F0F5F9C4B23E
:1066AC00B44235D3234804F00BF82B685B68D868E8
:1066BC0004F006F80A2004F01DF8FFF757FDB2E7C6
:1066CC00019B002BD7D00A2004F014F8029B0193F5
:1066DC00D1E7174BAA00D058FFF7AAFC124F01358F
:1066EC003B68EDB25B68186803F0EAFF202004F009
:1066FC0001F83B685B68186804F0C6F9013024188F
:10670C00E4B2BAE72020013403F0F4FFE4B2B8E7B6
:10671C002020013403F0EEFFE4B2C1E7FFF7FAFCEE
:10672C008EE705B0F0BDC046E8120020F81300203B
:10673C00F013002001F80008F8B5124B0D001B787F
:10674C0000240133C018C7B2232F07D80E4EBF0048
:10675C002B78002B08D1FF242000F8BD0B4A0C49E4
:10676C000C4801F002FBFEE72900B85904F082F94D
:10677C000028F1D0280004F087F9013401302D18DD
:10678C00E4B2E5E7F8130020541200204AEE0008AA
:10679C00FD030000D7EC0008F7B5134B0F001C7875
:1067AC00160001340419E4B2232C05D90F4A104900
:1067BC00104801F0DAFAFEE70F4DA400002201A9FF
:1067CC00605904F09FFA019A61590023914209D053
:1067DC0012789A4206D1874204D8864202D3074BDC
:1067EC00187001231800FEBDF81300204AEE0008B3
:1067FC0013040000D7EC00085412002018220020CB
:10680C00F7B5134B0F001C78160001340419E4B2D1
:10681C00232C05D90F4A1049104801F0A6FAFEE7BF
:10682C000F4DA400002201A9605904F06BFA019AE3
:10683C0061590023914209D012789A4206D18742BD
:10684C0004D8864202D3074B188001231800FEBDE2
:10685C00F81300204AEE00082A040000D7EC0008C8
:10686C005412002018220020F7B5134B0F001C788F
:10687C00160001340419E4B2232C05D90F4A10492F
:10688C00104801F072FAFEE70F4DA400002201A996
:10689C00605904F037FA019A61590023914209D0EA
:1068AC0012789A4206D1B84204D3B04202D8074BB0
:1068BC00186001231800FEBDF81300204AEE0008F2
:1068CC0041040000D7EC00085412002018220020CC
:1068DC00F7B50F00102501902C00103CA74215D8DD
:1068EC00F7BDBE420ED2019B1148995D03F0E8FE44
:1068FC000136AE42F5D3AC420AD30A2003F0FAFEBD
:10690C001035E9E70B4803F0DBFEF1E72600F0E772
:10691C002020BC4205D2019B185D0300203B5F2B5D
:10692C0003D803F0E7FE0134E5E72E20F9E7C04673
:10693C006BEE0008BED0000800B5164A1378012B88
:10694C000FD0002B05D00021022B12D01170012387
:10695C0005E0C3091B2802D101231370DB181800B2
:10696C0000BD02235B2801D11370F8E700211170E0
:10697C00F5E74138117001230328F0D803F0CAFD64
:10698C00080204060423EAE70523E8E70623E6E702
:10699C000323E4E7F913002010B51B2003F0AAFE33
:1069AC005B2003F0A7FE322003F0A4FE4A2003F084
:1069BC00A1FE10BD002210B5084B1B201A7003F06D
:1069CC0099FE5B2003F096FE482003F093FEFFF740
:1069DC00E3FF6420FEF7C8F810BDC046F913002091
:1069EC0010B50400002C00D110BD082003F082FE6D
:1069FC00202003F07FFE013C082003F07BFEE4B274
:106A0C00F0E70000F0B581230020842408250C4E0B
:106A1C00591E002900D1F0BD0A4AE31AD35C2A00A2
:106A2C001B0258400B0007B2410088B2002F01DA5C
:106A3C00714088B2013AD2B2002AF4D1E8E7C046DC
:106A4C0021100000FA13002070B505002800FDF796
:106A5C003AFC041E03D1FDF753FC0028F6D02000AD
:106A6C0070BD0000F7B5FA208000FDF739FC002559
:106A7C006B46DF1D3800FFF7E7FF061E06D11D4AE7
:106A8C00B2211D4801F071F93000FEBDFA201B4CFB
:106A9C003B7880006355FDF723FC002D04D13B7837
:106AAC00042BF1D00135E3E70135852DE0D12378B6
:106ABC00012B06D0CD21124A0F4801F056F90026C1
:106ACC00E2E76378A2789B18FF2B02D00D4AD32102
:106ADC00F2E7FFF797FF22008332030A1278DBB24A
:106AEC009A4204D184342378C0B28342CCD0064A73
:106AFC009721E1E7C6EE000872EE0008FA130020B9
:106B0C00CEEE0008E2EE0008FFEE00080123F0B51F
:106B1C00314E04243370002385B002900193019B05
:106B2C00013CE4B2002B02D14320FDF7D0FBFFF770
:106B3C0099FF051E039004D1019B002B22D0152038
:106B4C001EE0264F3B78042B0ED10620FDF7BFFB31
:106B5C00002C3BD19C21224A4900224801F005F926
:106B6C000025280005B0F0BD33787A78591E8A428A
:106B7C000BD18D211B481C4A490001F0E1F806207D
:106B8C00FDF7A5FB002CCAD1E4E79A4206D091216F
:106B9C00164A4900134801F0E8F8D0E7029B80211F
:106BAC00134898470620FDF792FB337804240133F1
:106BBC003370039B0193B2E7FFF754FF0028D0D04A
:106BCC003B78042B02D10620FDF781FB013CE4B29B
:106BDC00FF2CF1D1C5E7C0467F140020FA1300202A
:106BEC00B1EE000872EE00087CEE000896EE00088C
:106BFC00FD130020F0B5012685B0384B00903848C5
:106C0C001E70FDF76DFB02ABDD1D2800FFF71CFFAE
:106C1C00041E06D15C21334AFF31334801F0A5F83C
:106C2C0026E02B78432B1CD1019680212F48009B0A
:106C3C00984700281FD1FA270426BF000420FDF72F
:106C4C0046FB3800FDF74CFB2800FFF7FDFE041E49
:106C5C0002D02B78062B0BD0013EF6B2002EEDD1D4
:106C6C0005E0B021224A49001F4801F07EF80024BB
:106C7C00200005B0F0BD04246B461E4E1B79002786
:106C8C003370164B1B787370DB43B370FFF7BAFE8F
:106C9C003300020A83331A70330084331870F05DAA
:106CAC000137FDF714FB852FF9D1FA208000FDF791
:106CBC0017FB2800FFF7C8FE002802D02B78062B04
:106CCC0006D0013CE4B2002CD6D10B4A8621A3E7B6
:106CDC00024B024A1B7801331370A6E77F14002085
:106CEC001027000009EF000872EE0008FD130020C9
:106CFC002DEF0008FA130020B1EE000837B56B46F3
:106D0C008025D91D0870054C05482D01A56203236B
:106D1C0001220068FEF75EFDA56137BD000400503E
:106D2C008014002010B5041D1020E4B22309184370
:106D3C00FFF7E4FF0F202040FFF7E0FF10BDB0236A
:106D4C0010B51843FFF7DAFF10BD000010B50A00AC
:106D5C000100034803230068FEF73CFD10BDC0464C
:106D6C008014002010B5A0B080220021684603F0EA
:106D7C009EFC00242000FFF7E2FF01340020FFF707
:106D8C00D1FFE4B280216846FFF7E0FF082CF1D177
:106D9C0020B010BD224B10B518600120FDF7E4FEA9
:106DAC003220FDF7E1FE0120FDF7DEFEA220FFF709
:106DBC00A5FFA120FFF7A2FFC020FFF79FFF242013
:106DCC00FFF79CFF8120FFF799FF2820FFF796FF24
:106DDC002C20FFF793FF5420FDF7C6FE2E20FFF763
:106DEC008DFF2A20FDF7C0FE2F20FFF787FF5420D0
:106DFC00FDF7BAFEF820FFF781FFAF20FFF77EFF0B
:106E0C004020FFF77BFFA420FFF778FFA620FFF7B9
:106E1C0075FFFFF7A7FFAF20FFF770FF10BDC0464F
:106E2C008014002007B5030C01A90B708870030AAD
:106E3C0003484B70032200230068FEF7CBFC07BD10
:106E4C0088140020062307B5044801A90B70012201
:106E5C00033B0068FEF7BEFC07BDC046881400204B
:106E6C000122024B1A70024B1860704784140020E8
:106E7C0088140020AB2307B5044801A90B7001222C
:106E8C00A83B0068FEF7A6FC07BDC046881400208E
:106E9C00052337B5084D01AC2370043B28681A0054
:106EAC002100FEF797FC2868022301222100FEF73F
:106EBC00DDFC20783EBDC0468814002070B5064D20
:106ECC002C78002C06D1FFF7E3FF0123184201D1E7
:106EDC001C002B70200070BD84140020114BF7B5E2
:106EEC0006000D001700994205D90F4A8C210F4856
:106EFC0000F03BFFFEE7FFF7E1FF0028FBD0032388
:106F0C0001A90B4C0B70023B1A002068FEF762FCC7
:106F1C002800FFF787FF3A00310002232068FEF7B4
:106F2C00A5FCF7BDFFFF07007BEF000855EF00083D
:106F3C0088140020802210B509025200FFF7CEFF02
:106F4C0010BD10B59BB2090289181A00FFF7C6FFD5
:106F5C0010BD0000F0B50C00170085B00090019337
:106F6C00FFF7ACFF0028FBD0FFF76CFF01230226D4
:106F7C000A4D03A91A0028680E70FEF72BFC20029C
:106F8C00C019FFF74FFF3300019A00992868FEF7EC
:106F9C0021FC0022024B1A7005B0F0BD88140020B1
:106FAC008414002037B505000C00FFF787FF00287C
:106FBC00FBD0FFF747FF012D22D0002D08D0022D6A
:106FCC0023D08421134A4900134800F0CEFE37BD6C
:106FDC00202201AB1A7024030123104D1A0001A9C1
:106FEC002868FEF7F7FB2000FFF71CFF00220223A6
:106FFC0011002868FEF7EEFB0022094B1A70E6E739
:10700C00522201AB1A70E403E6E7D82201AB1A70E6
:10701C002404E1E75EEF000855EF00088814002017
:10702C00841400209F2337B5050001A9064C0B7072
:10703C009E3B1A002068FEF7CDFB29000223032299
:10704C002068FEF713FC37BD881400201FB5002301
:10705C0002A908700548009303AC013322000068B4
:10706C00FEF750FC207804B010BDC04694140020EC
:10707C0010B5FF20FFF7EAFF10BD70B504004518EE
:10708C00FFF7F6FF20700134AC42F9D170BD00005F
:10709C00002210B50448022311000068FEF79AFB89
:1070AC00FFF7E6FF10BDC0469414002010B50A4C43
:1070BC00FFF7DEFFFF280DD0013C6420A4B2FDF7E2
:1070CC0045FD002CF4D10548054ABA2100F04DFECF
:1070DC00200010BD0120FCE78813000097EF00088A
:1070EC006EF2000843B270B505000E00002B12DAE8
:1070FC0000213720FFF7F6FF0123020004009A431A
:10710C0007D00300CD21214A214800F02EFE20009B
:10711C0070BD7F231D40FFF7BBFF00221D480123DC
:10712C0011000068FEF756FBFFF7C0FFFF24002894
:10713C00EDD040202843FFF789FF300EFFF786FF84
:10714C00300CC0B2FFF782FF300AC0B2FFF77EFFEF
:10715C00F0B2FFF77BFF002D04D0082D14D0FFF701
:10716C0087FF02E09520FFF771FF0825FFF780FFEE
:10717C0004000306CBD5013DEDB2002DF6D10C2158
:10718C000300054AFF31BFE78720ECE71FF2000838
:10719C0097EF0008941400203AF20008F8B5FA248E
:1071AC0006000F00A400FFF763FF0500FF280ED1B7
:1071BC00013C6420A4B2FDF7C9FC002CF3D12C21B6
:1071CC00074AFF31074800F0D0FD2800F8BD390010
:1071DC003000FFF752FFFFF74BFFFFF749FFF4E7D3
:1071EC00FEF1000897EF0008014B18607047C0468D
:1071FC0094140020F8B500235D4A5E4F5E4813706E
:10720C003C68FEF709FC01002000FEF7CDFBFA20DC
:10721C008000FDF79BFC0A24013CE4B2FFF728FF39
:10722C00002CF9D1643400210800FFF75BFF030048
:10723C00012800D173E0013CE4B2002CF3D14F4A99
:10724C0088210AE0A2214E4AFF314E4800F08DFD04
:10725C00EB78AA2B05D0A6214B4AFF31494800F008
:10726C0084FDFFF715FF0020F8BDFA24A40080214F
:10727C00A920C905FFF736FF002821D101003A20CB
:10728C00FFF730FF031E17D104212800FFF7F5FE8E
:10729C002B785B060ED50323354A3C4813703C68AB
:1072AC00FEF7BAFB01002000FEF77EFBFFF7F0FEB5
:1072BC000120D9E70223EFE7EB21354A4900CDE75E
:1072CC00FA20013C8000A4B2FDF740FC002CCED18A
:1072DC00F121304A49002B4800F047FDC1E700215D
:1072EC003B20FFF7FFFE0300012802D02A4AF821B9
:1072FC00E4E7FA24A40026000021A920FFF7F2FEFF
:10730C00051E2AD0013C3000A4B2FDF71FFC002C56
:10731C00F2D12B00214A2249A0E70123BCE7D52159
:10732C0008204900FFF7DEFE0128D8D11D4D0421AD
:10733C002800FFF7A2FEAB78012B00D082E7EB7898
:10734C00AA2B00D084E700213B20FFF7CBFE0300E3
:10735C0001288AD0104AB0217FE7802110208900B3
:10736C00FFF7C0FE031ED8D00F4A104976E7C0467F
:10737C008C14002094140020801A060066F100087A
:10738C0099F0000897EF0008C0F0000840787D01E4
:10739C0012F1000898F10008E8F00008C4F10008A8
:1073AC00090200008D1400203CF1000812020000BC
:1073BC0070B5002105000A20FFF794FE00280AD0C2
:1073CC008B210300094A8900094800F0CEFCFFF725
:1073DC005FFE002070BD10212800FFF7DFFEFE28A5
:1073EC00F5D1FFF755FE0120F4E7C04646F0000842
:1073FC0097EF000870B5002105000920FFF772FE19
:10740C0000280AD092210300094A8900094800F09B
:10741C00ACFCFFF73DFE002070BD10212800FFF7EB
:10742C00BDFEFE28F5D1FFF733FE0120F4E7C04680
:10743C0070F0000897EF000870B5002105000D20D2
:10744C00FFF750FE040003060AD599210300094AF0
:10745C000948890000F089FCFFF71AFE002070BD76
:10746C00FFF706FE240220182880FFF711FE0120EA
:10747C00F5E7C0469DEF000897EF00083F22037820
:10748C000100934319D18079CB7980079B00000DC3
:10749C00C0180B7A4A799B09C318887A1207497A63
:1074AC00C009120F121889070232490F5218D2B2B2
:1074BC000133093A9340180070470020402BFBD150
:1074CC00CB79487A9B0601309B0A1B18087A00027C
:1074DC0018180002F0E70000144B70B51B7805007B
:1074EC00002B05D1124A1349134800F03EFCFEE76D
:1074FC00032B00D049021120FFF7F4FD002809D01E
:10750C0003000E4A0E490C4800F02FFCFFF7C0FD9B
:10751C00002070BD802128008900FFF73FFEFE2867
:10752C00F4D1FFF7B5FD0120F3E7C0468C14002021
:10753C00C7EF0008B202000097EF0008F2EF000856
:10754C00C1020000F8B51F4B06001B781500002B7C
:10755C0005D11D4A1D491E4800F007FCFEE7002A14
:10756C0004D0012A04D1FFF7B7FF05002800F8BDAD
:10757C00032B00D049021220FFF7B4FD041E16D1D4
:10758C008027BF0039003000FFF708FEFE2806D127
:10759C00802301349B00E4B2F618A542F2D10021FD
:1075AC000C20FFF79FFD2500FFF772FDDEE7BE21E3
:1075BC000300084A8900064800F0D7FB0025FFF7B6
:1075CC0067FDD3E78C140020C7EF0008D902000038
:1075DC0097EF00081CF00008204B70B51B780400D6
:1075EC00002B05D11E4A1F491F4800F0BEFBFEE7C9
:1075FC00032B00D049021820FFF774FD031E09D09D
:10760C00C9211A4A8900184800F0AFFBFFF740FD6A
:10761C00002070BDFFF74AFDFF23002812D0FE208A
:10762C00FFF714FD80239B00E51820780134FFF749
:10763C000DFDAC42F9D1FFF71BFDFFF719FDFFF76C
:10764C0017FD03001F221A40052A02D0084A0949D7
:10765C00D9E7FFF71DFD0120DBE7C0468C140020A5
:10766C00C7EF00081503000097EF000898F2000818
:10767C00C2F200082F030000364BF7B51B7805004B
:10768C001400002B06D1D021334A8900334800F076
:10769C006CFBFEE7002A04D0012A04D1FFF79CFF03
:1076AC0004002000FEBD032B00D049021920FFF777
:1076BC0019FD002809D00300294A2A49274800F05F
:1076CC0054FB0024FFF7E4FCEBE721009720FFF7C5
:1076DC0009FD071E03D00300234A2449EEE7FFF7F8
:1076EC00E5FCFF23002815D0FC20FFF7AFFC80231E
:1076FC002E009B00EB1801933078FFF7A7FC019B41
:10770C000136B342F8D1FFF7B3FCFFF7B1FCFFF73A
:10771C00AFFC03001F221A40052A0CD0144A15494D
:10772C000E4800F022FB00210C20FFF7DBFC3C0094
:10773C00FFF7AEFCB5E7802301379B00FFB2ED18D5
:10774C00BC42CCD1FFF7B2FCFD20FFF77FFCFFF76A
:10775C009FFCA6E78C140020C7EF000897EF0008E9
:10776C00DFF200085F03000009F300086A03000061
:10777C00C2F200087703000010B50024E0B2FFF756
:10778C00DEFA0020FFF7CEFA044BE001C01880218E
:10779C000134FFF7DBFA082CF0D110BD981400204F
:1077AC00802210B5D2000021014802F080FF10BDEC
:1077BC009814002010B5FFF7F3FF10BD43B210B5BD
:1077CC00002B08DB3F2906D8CB08012A0FD0002A52
:1077DC0002D0022A15D010BD0F4ADB01D3180722A4
:1077EC001140063A8A40195C0A431A54F3E70A4CD2
:1077FC00DB01E318072421408A40195C914319549A
:10780C00E9E7054ADB01D31807221140063A8A4002
:10781C00195C4A40E9E7C04698140020F8B504000A
:10782C000E001F001218D5B2AC4200D1F8BD2000DA
:10783C003A0031000134FFF7C1FFE4B2F4E7F8B5C8
:10784C0006000C001F005218D5B2AC4200D1F8BD96
:10785C0021003A0030000134FFF7B0FFE4B2F4E746
:10786C00F0B587B01D000CAB1B7807000C001600A0
:10787C00049390420DD1A94201D92C000D00013581
:10788C002A1BD2B2049B21003800FFF7D8FF07B0A7
:10789C00F0BDA9420CD1904201D917000600013667
:1078AC00F21BD2B2049B21003800FFF7B7FFEEE7C2
:1078BC00831ADBB20293904202D2131ADBB2029308
:1078CC00631BDBB20193AC4202D22B1BDBB20193E4
:1078DC000123019A0593029B93420BD31300029A46
:1078EC0002932B0035001E0023003C001F000023D8
:1078FC0001920593AC4205D93B0037001E002300D2
:10790C002C001D00019B00975B08DBB20393A54282
:10791C00BDD3059B049A002B18D021000098FFF7CB
:10792C004DFF039B029A9B1A9BB21AB20392002A38
:10793C0009DA009AB7420CD20132D2B20092019A03
:10794C009B181BB203930134E4B2E0E700992000CA
:10795C00E5E7013AF1E7F7B50E00040015000193D5
:10796C0008AB1F783B00FFF759FF019B2A00591EFB
:10797C0071183B002000C9B2FFF750FF3B003100EB
:10798C00019A2000FFF75BFF681E20183B003100B6
:10799C00C0B2019AFFF753FFF7BDF7B505000C0015
:1079AC0016005B1808AADBB217780193019B9C4266
:1079BC0000D1F7BD21003B00320028000134FFF755
:1079CC002DFFE4B2F2E7F0B515001C0093B20122D2
:1079DC00D21A5B0089B05B4201911BB2691802920A
:1079EC000793C9B22BB2220000900493FFF7E6FE76
:1079FC00009B2200E818C0B20199FFF7DFFE019B43
:107A0C002200591BC9B20098FFF7D8FE009B220038
:107A1C00581BC0B20199FFF7D1FE0023049A934280
:107A2C0001DB09B0F0BD029A002A0CDB049A013A82
:107A3C0012B20492079A023292B211B207910299D1
:107A4C00521812B2029201339BB2029A06935B0057
:107A5C0001339B181BB202936B461B7E0593059A50
:107A6C00009B9F186B46019A1B7CFFB29E18F6B2C6
:107A7C003100380022000393FFF7A0FE009B059A0B
:107A8C0031009D1AEDB228002200FFF797FE019BF2
:107A9C00039A38009E1AF6B231002200FFF78EFED0
:107AAC00310028002200FFF789FE039B009A9F18E3
:107ABC00019B059AFFB29E18F6B2310022003800E5
:107ACC00FFF77CFE009B039A31009D1AEDB2220059
