:020000040800F2
:100000000060002015010008650100086501000876
:1000100000000000000000000000000000000000E0
:100020000000000000000000000000006501000862
:1000300000000000000000006501000865010008E4
:1000400065010008650100086501000865010008F8
:1000500065010008650100086501000865010008E8
:1000600065010008650100086501000865010008D8
:1000700065010008650100086501000865010008C8
:100080006501000800000000000000006501000894
:100090000000000065010008650100086501000816
:1000A0006501000865010008650100086501000898
:1000B0008D060008000000000000000000000000A5
:0C00C000F8B5C046F8BC08BC9E4670476E
:1000CC0010B5064C2378002B07D1054B002B02D022
:1000DC00044800E000BF0123237010BD6000002025
:1000EC000000000044150008044B10B5002B03D091
:1000FC000349044800E000BF10BDC04600000000EA
:10010C0064000020441500080D48854600F0ACFB47
:10011C00002103E00B4B5B58435004310A480B4B56
:10012C0042189A42F6D30A4A02E0002313600432C2
:10013C00084B9A42F9D300F04DFF00F029F8FEE786
:10014C0000600020C815000800000020600000209E
:10015C006000002074020020FEE7000010B582B0A1
:10016C0000F016F900F094FAE122084C01230193F7
:10017C0000230093083352020221200000F090FA71
:10018C00200000F0F5FA012002B010BD7C00002028
:10019C0000B583B0FFF7E2FFA023DB0520229A61B4
:1001AC00084800F015FD05E06B46D979064800F0CB
:1001BC00B4FA30BF04486B46D91D00F0D2FA0028BF
:1001CC00F7D0F1E7501500087C00002010B584B082
:1001DC00424B1A6C01210A431A641A6C0A400292AF
:1001EC00029ADA6B802040050243DA63DA6B024034
:1001FC000192019A3A4802680724A2430A4302601A
:10020C001968802252000A431A6001E0002A09D1C1
:10021C00324B19688023DB000A001A401942F5D0D2
:10022C000122F3E72D4B58682E4908408021C90163
:10023C000143596019682C480140196018688021E5
:10024C00C9030143196001E0002B09D1234B186845
:10025C008021090403000B400842F5D01300F3E79A
:10026C001E490A6E012002430A6601E0002808D1EB
:10027C001A4A126E0221080010401142F6D01800E2
:10028C00F4E7164BD96D194A1140802252000A43EB
:10029C00DA65DA6B8021C9000A43DA63DA6B0A404B
:1002AC000392039AD96D802212020A43DA659A6886
:1002BC000F490A409A609A680E490A409A609A68F7
:1002CC0007218A439A60054B9B6838221A42FAD15F
:1002DC00094800F0D1FA04B010BDC046001002402D
:1002EC0000200240FF80FFFFFFC7FFFFFFFCFFFF66
:1002FC00FFF0FFFFFF8FFFFF006CDC0200B585B045
:10030C00114B596B012211435963596B0A400392EB
:10031C00039A596B022211435963596B0A4002929A
:10032C00029A596B0422114359635B6B1A40019278
:10033C00019B064800F034F8054800F031F80548F8
:10034C0000F02EF805B000BD00100240A01500080A
:10035C00801500086015000882B00A4B1A6C8021C9
:10036C0009020A431A641B6C0B400193019B064B58
:10037C002F229A62054ADA621A6808210A431A6027
:10038C0002B070470010024000200040FFFF000048
:10039C0010B5FFF71BFFFFF7B1FFFFF7DDFF10BD37
:1003AC0003680269DA6082685A60C2689A604269BE
:1003BC005A6182691A62C2695A6242681A6070474D
:1003CC0010B50400022901D0002010BD002A0BD06A
:1003DC005008064B9C466044110000F053FA000490
:1003EC00000CE0600120F0E70120EEE7006CDC027D
:1003FC0010B5002A05D0072913D008291DD00020DC
:10040C001AE008290DD0092917D0072901D000209E
:10041C0012E0046821490C40802149052143016008
:10042C0003E001681D4C21400160012A17D0022A0B
:10043C001DD0002A09D0002010BD046817490C40BB
:10044C008021490121430160EFE7026814490A4009
:10045C000260012B13D0022B17D00020ECE70168AF
:10046C000F4A1140C022D2000A430260F1E7016832
:10047C000B4A11408022D2000A430260E9E743682C
:10048C00084A134043600120D6E74268054B1A40E6
:10049C0080239B01134343600120CDE7FFEFFFEF67
:1004AC00FFF9FFFFFFCFFFFFF0B585B0040001930C
:1004BC000AAB1E780BAB1F78022902D0002005B0C6
:1004CC00F0BD1F4BD86B8025AD022843D863DB6B86
:1004DC002B400393039B2000FFF772FF0028EED004
:1004EC003B00320001992000FFF782FF0028E6D084
:1004FC00EFF31081012383F31088226808252A4327
:10050C00226081F31088EFF3108183F31088226846
:10051C00043D2A43226081F31088EFF3108183F3AA
:10052C00108822681C352A43226081F310882268C7
:10053C0013432360034B802252051A60BFE7C04669
:10054C000010024000E100E030B583B00500046803
:10055C00E3699B062AD5636ADBB26A46D371E2690A
:10056C00120701D508222262E269920703D5022202
:10057C002262012100E00021E269D20714D4002993
:10058C0014D12268510508D52C49100008400A42A4
:10059C0034D17F2213406A46D3716B46D979280037
:1005AC00143000F033F901E00123236223681B06A9
:1005BC0010D5E3691B060DD5280008306B46D91DF4
:1005CC0000F03EF9002822D06B4607331B78A3625B
:1005DC000023AB7123685B060ED5E3695B060BD574
:1005EC000123AB71EFF3108283F310882368402151
:1005FC008B43236082F3108803B030BD80225205F8
:10060C009042CAD1402293436A46D371C5E7EFF3B7
:10061C001081012282F31088236880208343236099
:10062C0081F31088EFF3108182F3108823683F3236
:10063C001343236081F31088CCE7C04600100010F0
:10064C0010B50C000871022804D00023637101332B
:10065C00A37110BD074B0B600749200008304022E6
:10066C0000F0CEF8054920001430402200F0C8F804
:10067C00EBE7C04600440040C00000208000002092
:10068C0010B50248FFF760FF10BDC0460001002006
:10069C0010B502490220FFF7D3FF10BD0001002066
:1006AC00F0B583B0040008A8057809A806780020E6
:1006BC002060022902D0002003B0F0BD0A48407926
:1006CC00002801D00020F7E7074801278771006850
:1006DC0001960095FFF7E8FE0028EDD0024B236051
:1006EC0001225A71E8E7C0460001002070B50C00E9
:1006FC00056828000830210000F088F80028F8D0A0
:10070C002A68EFF31081012383F31088136880208B
:10071C000343136081F3108870BD10B5046820008A
:10072C00083000F073F800280BD02268EFF310812A
:10073C00012383F31088136880242343136081F30F
:10074C00108810BD10B582B00468200014306B46C0
:10075C00D91D00F075F80028F7D06B46D87902B097
:10076C0010BD10B50068143000F06AF810BD000020
:10077C0010B5054B1860054B1B68986800230222C6
:10078C00002100F02FFA10BD2001002010000020E5
:10079C0010B504000A2806D0064B18682100FFF794
:1007AC00A5FF002010BD034B18680D21FFF79EFF1D
:1007BC00F2E7C0462001002070B51600002405E0C9
:1007CC004D1C0878FFF7E4FF01342900B442F7DB35
:1007DC00300070BD10B5024B1868FFF7B3FF10BDA9
:1007EC002001002070B50C001600002504E0FFF776
:1007FC00F1FF207001350134B542F8DB300070BDDB
:10080C00016082800023C3800381704730B5C388A8
:10081C009DB201339BB282889A420DD91C00028989
:10082C0092B2A2420AD0026851558288934200D3F8
:10083C000023C380012030BD0024F0E70020FAE73C
:10084C0003899BB2C28892B29A420BD00268D25CE6
:10085C000A7001339BB28288934200D30023038138
:10086C00012070470020FCE7024B802212059A60A1
:10087C007047C04600ED00E0014B18607047C04661
:10088C0000000020002243088B4274D303098B42E2
:10089C005FD3030A8B4244D3030B8B4228D3030C44
:1008AC008B420DD3FF22090212BA030C8B4202D3E6
:1008BC001212090265D0030B8B4219D300E0090A0E
:1008CC00C30B8B4201D3CB03C01A5241830B8B4217
:1008DC0001D38B03C01A5241430B8B4201D34B0300
:1008EC00C01A5241030B8B4201D30B03C01A524165
:1008FC00C30A8B4201D3CB02C01A5241830A8B42EA
:10090C0001D38B02C01A5241430A8B4201D34B02D2
:10091C00C01A5241030A8B4201D30B02C01A524136
:10092C00CDD2C3098B4201D3CB01C01A52418309EA
:10093C008B4201D38B01C01A524143098B4201D324
:10094C004B01C01A524103098B4201D30B01C01A4F
:10095C005241C3088B4201D3CB00C01A52418308C9
:10096C008B4201D38B00C01A524143088B4201D3F6
:10097C004B00C01A5241411A00D201465241104656
:10098C007047FFE701B5002000F006F802BDC04635
:10099C000029F7D076E770477047C046002310B5A2
:1009AC00040003604360836081814366C2810361FC
:1009BC0043618361190008225C3000F0B5FA0B4BDF
:1009CC00246263620A4BA3620A4BE3620A4B236301
:1009DC000A4B9C4205D00A4B9C4202D0094B9C42CC
:1009EC0003D12000583000F019FB10BD5D0D00083C
:1009FC00850D0008BD0D0008E90D0008240100203C
:100A0C008C010020F401002010B5034A034904486E
:100A1C0000F06CF810BDC04604000020491300081B
:100A2C001400002041680B4B10B50400994201D012
:100A3C0000F084FCA168084B994202D0200000F021
:100A4C007DFCE168054B994202D0200000F076FC59
:100A5C0010BDC046240100208C010020F4010020B0
:100A6C0010B5094B094A04211A6009480022FFF706
:100A7C0095FF012209210748FFF790FF022212215E
:100A8C000548FFF78BFF10BD5C020020150A00081B
:100A9C00240100208C010020F401002010B5024834
:100AAC0000F0BDFA10BDC0466502002010B502482A
:100ABC0000F0B6FA10BDC0466502002010B5040067
:100ACC00FFF7ECFF236A002B02D0FFF7EFFF10BDFE
:100ADC00044B2362044B1B68002BF6D1FFF7C0FFBD
:100AEC00F3E7C046310A00085C020020F7B5140099
:100AFC00002600900191A5686768013F04D5246821
:100B0C00002CF8D13000FEBDAB89012B08D90E2288
:100B1C00AB5E013304D029000098019B9847064333
:100B2C006835EAE7036A70B505000E008468002B8F
:100B3C0001D1FFF7C3FF636EDB0705D4A3899B05C7
:100B4C0002D4A06D00F06BFAA3891B0702D52369B0
:100B5C00002B1FD12100280000F088F9002819D0A3
:100B6C0001256D42636EDB0705D4A3899B0502D476
:100B7C00A06D00F055FA280070BD0136A360002B63
:100B8C0004DAA2699A4216DC0A2914D023685A1C8A
:100B9C0022601970A3683178013B0029EDD1A36064
:100BAC00002B0FDA220028000A3100F01DF9013069
:100BBC00D6D00A25D6E72200280000F015F901301E
:100BCC00E8D1CDE723685A1C22600A221A70F0E79C
:100BDC0010B5034B01001868FFF7A4FF10BDC04609
:100BEC0010000020F0B51D00574B85B01E680400A6
:100BFC000F000092002E05D0336A002B02D130007A
:100C0C00FFF75CFF009B022B05D0012B00D997E06E
:100C1C00002D00DA94E0636EDB0705D4A3899B05F5
:100C2C0002D4A06D00F0FBF92100300000F086FB2F
:100C3C00616B002908D023004433994202D0300064
:100C4C0000F0F0F9002363630023A3616360A389C0
:100C5C001B0603D53000216900F0E4F9A3893B4A57
:100C6C001340A381009B022B60D003AB210030000A
:100C7C0002AA00F08FFBA3890343A381002D24D18A
:100C8C00029D280000F018FA0195071E48D1029B1E
:100C9C000193AB423FD101256D420C22A35E02228F
:100CAC001A43A2810022A2602200473222602261F4
:100CBC000122616E6261114204D19B0502D4A06DC8
:100CCC0000F0AEF9280005B0F0BD002FD9D0336A82
:100CDC00002B02D13000FFF7F1FE009B012B03D15A
:100CEC00A389009A1A43A2810C22A35E0822190040
:100CFC00276027616561114013421BD0DA0717D5B5
:100D0C0000226D42A260A561626ED20701D49B05E0
:100D1C0012D50025D6E7019800F0CEF9071EBAD0FF
:100D2C008023A289019D1343A381D0E70025B4E75A
:100D3C00A560E9E7A160E7E7A06D00F071F9E8E7CD
:100D4C0001256D42BEE7C046100000205CF3FFFF9A
:100D5C0070B50C000E25495F00F014F9002803DB78
:100D6C00636D1B18636570BDA389024A1340A38190
:100D7C00F9E7C046FFEFFFFFF8B51F008B890500B0
:100D8C000C001600DB0505D50E23C95E00220223DC
:100D9C0000F0E4F8A389054A28001340A38132002F
:100DAC000E23E15E3B0000F001F9F8BDFFEFFFFF01
:100DBC0070B50C000E25495F00F0D0F8A389421CD9
:100DCC0003D1054A1340A38170BD80225201134305
:100DDC00A3816065F8E7C046FFEFFFFF10B50E2357
:100DEC00C95E00F0A9F810BDF8B506000D0014009E
:100DFC00002804D0036A002B01D1FFF75FFEA36922
:100E0C00A360A3891B0702D52369002B09D12100FC
:100E1C00300000F02BF8002803D001256D4228008B
:100E2C00F8BD23692068EFB2C01A6369EDB2834242
:100E3C0005DC2100300000F081FA0028EDD1A36818
:100E4C000130013BA36023685A1C22601F70636948
:100E5C00834204D0A389DB07E1D50A2DDFD1210021
:100E6C00300000F06BFA0028D9D0D6E72D4B70B5C6
:100E7C00050018680C00002804D0036A002B01D16F
:100E8C00FFF71CFE0C23E25E130723D4D30607D412
:100E9C0009232B60402301201343A38140423AE0F5
:100EAC00520713D5616B002908D0230044339942B3
:100EBC0002D0280000F0B6F8002363632422A38933
:100ECC009343A38100236360236923600823A289D1
:100EDC001343A3812369002B0BD1A0218022A3896A
:100EEC00890092000B40934203D02100280000F0AF
:100EFC007BFA0C23E25E012113000B400A420BD05B
:100F0C000023A36063695B42A361002023698342D1
:100F1C0001D11306BED470BD910700D46369A360E0
:100F2C00F3E7C0461000002003008218934200D162
:100F3C00704719700133F9E7002370B5064D0400B2
:100F4C0008002B6000F0C8FA431C03D12B68002B5F
:100F5C0000D0236070BDC0466002002070B5040054
:100F6C00080011001A000023054D2B6000F0CCFA8C
:100F7C00431C03D12B68002B00D0236070BDC046EE
:100F8C006002002070B50400080011001A00002354
:100F9C00054D2B60FFF726FC431C03D12B68002B5F
:100FAC0000D0236070BDC0466002002070B5040004
:100FBC00080011001A000023054D2B60FFF7FCFB05
:100FCC00431C03D12B68002B00D0236070BDC0469E
:100FDC006002002070B500260C4C0D4D641BA41053
:100FEC00A64209D10026FFF765F80A4C0A4D641B8E
:100FFC00A410A64205D170BDB300EB58984701363A
:10100C00EEE7B300EB5898470136F2E7C01500083D
:10101C00C0150008C4150008C015000870477047BB
:10102C007047000070B505000C1E10D0043C2368FE
:10103C00002B00DAE418280000F0EAF81D4A1368C7
:10104C00002B05D163601460280000F0E9F870BD36
:10105C00A34208D9206821188B42F3D119685B6828
:10106C0009182160EEE71A005B68002B01D0A3423F
:10107C00F9D911685018A0420BD1206809185018E2
:10108C0011608342E0D118685B68411811605360AD
:10109C00DAE7A04202D90C232B60D5E7206821188F
:1010AC008B4203D119685B68091821606360546036
:1010BC00CAE7C0466C02002010B5034B010018684B
:1010CC0000F026F810BDC0461000002070B50F4E81
:1010DC000D0031680400002902D100F0EBF93060FA
:1010EC002900200000F0E6F9431C03D101256D42D4
:1010FC00280070BD0323C51C9D43A842F8D0291AB3
:10110C00200000F0D7F90130F2D1EFE7680200209F
:10111C00F7B50322CB1C9343083305001F000C2B9F
:10112C0034D20C27B94233D8280000F071F8374E6E
:10113C0033681C00002C2FD139002800FFF7C6FFA4
:10114C000400431C5FD134680094009B002B4AD1EF
:10115C00002C52D023682800E3180099019300F06A
:10116C00A9F9019B834248D123682800FF1A390052
:10117C00FFF7ACFF013040D02368DB1923603368E4
:10118C005A68002A33D1009B336019E0002BC9DA6E
:10119C000C232B600020FEBD2168C91B20D40B2919
:1011AC000AD9E2192760A34204D132606368116046
:1011BC00536005E05A60F9E76268A3420ED13260D1
:1011CC00280000F02DF8200007220B30231D90433F
:1011DC00C21A9842DFD01B1AA350DCE75A60EFE723
:1011EC0023006468A6E7009C63680093ADE71A00CF
:1011FC005B68A342FBD10023DAE70C2328002B60A9
:10120C0000F00EF8C6E70760DAE7C0466C02002073
:10121C0010B50248FFF703FF10BDC0466402002062
:10122C0010B50248FFF7FCFE10BDC046640200205A
:10123C00F7B50C228B5E05000C001A0756D44A68D1
:10124C00002A02DC0A6C002A4EDDE76A002F4BD024
:10125C00002280202E682A601A004001216A024078
:10126C00034233D0626DA3895B0706D56368D21A3B
:10127C00636B002B01D0236CD21A00232800E76A81
:10128C00216AB847A289431C06D129681D2946D872
:10129C00294B0B41DB0742D4002363602369236095
:1012AC00D20405D5431C02D12B68002B00D16065FC
:1012BC00616B2E60002917D023004433994202D071
:1012CC002800FFF7AFFE002363630DE00123280025
:1012DC00B8470200431CC6D12B68002BC3D01D2B72
:1012EC0001D0162B1AD12E6000201EE00E69002EA4
:1012FC00FAD00F680E60BA1B019200229B0700D136
:10130C004A69A260019B002BEEDDA36A32001F002C
:10131C002800019B216AB847002807DCA2894023DA
:10132C00012013431BB2A3814042FEBD019B361822
:10133C001B1A0193E6E7C046FEFFBFDF0B6970B5D1
:10134C0005000C00002B02D10025280070BD0028E0
:10135C0004D0036A002B01D1FFF7B0FB0C22A35E73
:10136C00002BF1D0626ED20704D49B0502D4A06D81
:10137C00FFF755FE28002100FFF75AFF636E0500AA
:10138C00DB07E2D4A3899B05DFD4A06DFFF748FEF1
:10139C00DBE7000070B50E001D000E23C95E1400C3
:1013AC0096B000290CDAB2898023110019401A4238
:1013BC0014D18023DB0000202960236016B070BD9F
:1013CC006A4600F053F80028EDDBF02301991B026C
:1013DC001940044BC9184B425941EAE700214023FC
:1013EC00E9E7C04600E0FFFFF0B502268B89050057
:1013FC000C0085B0334207D02300473323602361B0
:10140C000123636105B0F0BD03AB02AAFFF7C2FF75
:10141C00029F019039002800FFF77AFE002808D1BE
:10142C000C22A35E9A05EDD4032293431E43A6819E
:10143C00E2E78023A28920601343A381039B2061F0
:10144C006761002B0CD028000E23E15E00F020F821
:10145C00002805D00323A2899A43023B1343A3819E
:10146C00A389019A1343A381CCE70000002370B534
:10147C00064D0400080011002B6000F035F8431CE9
:10148C0003D12B68002B00D0236070BD60020020BC
:10149C00002370B5064D040008002B6000F02CF8FA
:1014AC00431C03D12B68002B00D0236070BDC046B9
:1014BC0060020020002370B5064D040008002B606C
:1014CC0000F02AF8431C03D12B68002B00D02360BA
:1014DC0070BDC0466002002058220120014B4042E2
:1014EC001A6070476002002058220120014B4042D4
:1014FC001A607047600200205822024B00201A60CC
:10150C007047C0466002002058220120014B404227
:10151C001A60704760020020054A03001168002918
:10152C0001D1044911601068C31813607047C0469C
:08153C0070020020780200207B
:0C154400F8B5C046F8BC08BC9E467047D5
:1015500048656C6C6F20576F726C6421000000004E
:1015600000080050FCFFF7F300020000000000003C
:101570000000000400020000000000000000000065
:1015800000040050FFFFFFFF00000000000000000B
:10159000000000000000000000000000000000004B
:1015A00000000050AFF7BFEA000000000000C00BD1
:1015B00040000024040000000044000000A00A00D5
:0415C000F50000082A
:0415C400CD0000084E
:1015C800001BB700000000000300000024010020F9
:1015D8001400002000000000240100208C010020DD
:1015E800F4010020000000000000000000000000DE
:1015F80000000000000000000000000000000000E3
:1016080000000000000000000000000000000000D2
:1016180000000000000000000000000000000000C2
:0400000508000115D9
:00000001FF
