:107C000011241FBECFEFD8E0DEBFCDBF14BE0FB62C
:107C1000F894A8958091600088618093600010922C
:107C200060000FBE6AD1289A52D071D080ED92E0E8
:107C300062D010920201109201011092000181E3C2
:107C40009EE303D1882359F080910001882339F005
:107C500063E071E0809101019091020176D10E9470
:107C600000001F93CF93DF93162FEC01112359F1DE
:107C7000E091000181E08E0F809300019991F0E086
:107C8000ED5FFE4F908387FF1CC0289863E071E092
:107C9000809101019091020158D1289A80910101AF
:107CA000909102010196883F910528F4909302017A
:107CB0008093010104C01092020110920101109200
:107CC00000011150D3CFDF91CF911F9108951092F1
:107CD00080008DE0809381000895909389008093C7
:107CE00088001092850010928400B19A089586B39E
:107CF00086958170089590938900809388001092F2
:107D0000850010928400B19AB19BFECF0895109225
:107D1000C50083E08093C40086E08093C20088E1C0
:107D20008093C10008959091C00095FFFCCF80938F
:107D3000C6000895FC018091C00087FF09C09091A2
:107D4000C0008091C600947119F4808381E0089589
:107D500080E00895E6E8F1E080E090E022E0E6309F
:107D6000F20791F02191922728E0AC01440F551FB2
:107D700097FF06C0CA0131E2832730E1932701C093
:107D8000CA01215091F7EACF08950F931F93CF9323
:107D90008C01C801CFDFC82F811103C0A8DF882361
:107DA000C1F38C2FCF911F910F910895EF92FF9205
:107DB0000F931F93CF93DF931F92CDB7DEB780E26F
:107DC0009CE18BDF53E8E52E51E0F52E00E0CE017B
:107DD0000196DBDF182F882371F18981F7018193E8
:107DE0007F0180E29CE179DF011103C08981843049
:107DF00019F10F5F053859F7809183018130D9F46B
:107E0000209184018091850190E0820F911D8F3F28
:107E1000910589F49FDF2091060230E0492F552714
:107E20002417350741F42091070230E0992711E02B
:107E30002817390709F010E0812F0F90DF91CF91BB
:107E40001F910F91FF90EF900895EF92FF921F9373
:107E5000CF93DF937C0181E08093080210E0C1E0C2
:107E6000C150111102C083E45EDFA0DFD82F811161
:107E700003C0112369F11AC080918301843031F469
:107E800086E051DFC11130C0D0E030C030918401B4
:107E900020910802432F50E0822F90E0019748176D
:107EA000590711F486E003C0321719F085E13BDF72
:107EB0000FC060E886E891E0F701099586E033DFBE
:107EC000809108028F5F8093080211E0C4E0C8CF60
:107ED000C111C6CFD9CF6ADF882341F080918301D9
:107EE000843011F486E01FDFC150A8F78D2FDF9199
:107EF000CF911F91FF90EF90089586E085B98FE2B2
:107F000084B98CE388B917B88FEB8BB982E68AB94C
:087F100083E080937E000895D8
:107F18002FB7F894A0E0B0E037E0880F991FAA1FA8
:107F2800BB1F3A95D1F733E0FC0130935700E89531
:107F380007B600FCFDCF81E180935700E8952FBF7D
:107F48000895CF92DF92EF92FF920F931F93CF93F2
:107F58008B016C01E12CF12C27E0CC0CDD1CEE1C14
:107F6800FF1C2A95D1F7CFB7F894D2DFA801405863
:107F78005F4FD801960161E0C01AD10A7C91F601E1
:107F8800EA0FFB1F11968C91119790E0982F882784
:107F9800870F911D0C0160935700E89511241296E4
:107FA800A417B50759F785E0F90180935700E895BC
:107FB80007B600FCFDCF81E180935700E895CFBF5D
:107FC800CF911F910F91FF90EF90DF90CF90089580
:0400000300007C007D
:00000001FF
