:100000003AC0000053C0000051C000004FC00000C3
:100010004DC000004BC0000049C0000047C00000B8
:1000200045C0000043C0000041C000003FC00000C8
:100030003DC000003BC0000039C0000037C00000D8
:1000400035C0000033C00000BAC00000EDC00000A1
:100050001DC100002BC0000029C0000027C0000007
:1000600025C0000023C0000048656C6C6F20576FEE
:10007000726C64210A0011241FBECFEFD8E0DEBFEE
:10008000CDBF11E0A0E0B1E0ECE8FAE002C00590DD
:100090000D92AE30B107D9F721E0AEE0B1E001C07A
:1000A0001D92AF37B207E1F702D0EEC4A9CFCF93CC
:1000B000DF931F92CDB7DEB7D4D100D1CC24C39447
:1000C000E12C08E020E032EC41E050E060E08EE01E
:1000D00091E0FFD08EE091E0B7D1789488E690E08F
:1000E0009F938F9308D20F900F90BE016F5F7F4F49
:1000F0008EE091E07CD18823C1F369818EE091E0AC
:1001000049D1F3CFCF92DF92EF92FF92CF93DF935B
:10011000CDB7DEB728970FB6F894DEBF0FBECDBFC0
:100120006B017C0183E0CC0CDD1CEE1CFF1C8A956E
:10013000D1F7A701960160E074E284EF90E09DD1D1
:1001400029833A836D837E838F83988789819A81FF
:10015000F694E794D794C7944D815E816F8178853A
:100160004C155D056E057F0508F4019728960FB6BE
:10017000F894DEBF0FBECDBFDF91CF91FF90EF901F
:10018000DF90CF900895811105C08091C1008062F9
:100190008093C1000895811110C01092C10082E0C7
:1001A0008093C0007093C5006093C4004093C20068
:1001B00088E98093C10081E0089580E008951F924E
:1001C0000F920FB60F9211242F933F934F938F935B
:1001D0009F93EF93FF938091C0004091C6008C7174
:1001E000B9F4209135018091360130E090E001961C
:1001F0008F7399272817390759F080913601E82F16
:10020000F0E0E05FFE4F47A38F5F8F73809336016E
:10021000FF91EF919F918F914F913F912F910F906F
:100220000FBE0F901F9018951F920F920FB60F924E
:1002300011248F939F93EF93FF93909113018091DB
:10024000140198130BC08091C1008F7D8093C10071
:100250008091C10080648093C1000FC08091130120
:10026000E82FF0E0E05FFE4F95818F5F8F71809304
:1002700013019093C60010921201FF91EF919F918C
:100280008F910F900FBE0F901F9018951F920F9295
:100290000FB60F9211248F93EF93FF9381E0809319
:1002A0001201E1ECF0E080818F7B8083FF91EF9180
:1002B0008F910F900FBE0F901F901895E0E1F1E025
:1002C0001082118281E082831382148215A216A209
:1002D0000895CF92EF92FF920F93CF93DF93FC019B
:1002E00011821082611136C060911101611132C01A
:1002F000DC2DCE2DCA01B9017F0104DFC13039F0F8
:1003000020F0C23039F540E203C040E001C040E3D4
:10031000063051F018F4053051F01CC0073031F0B0
:100320000830C1F4466003C0426001C04460D1306F
:1003300019F0D23079F44860BC0180E02CDF8823CA
:1003400049F020E131E0F7013183208391E090937F
:10035000110101C080E0DF91CF910F91FF90EF90EC
:10036000CF900895DC01ED91FC912381848130E0F0
:1003700090E001968F71992728173907B1F384818E
:10038000DF01A80FB11D15966C938F5F8F71848369
:100390008081F9CEDC01ED91FC912381848130E0F4
:1003A00090E001968F7199272817390769F08481A9
:1003B000DF01A80FB11D15966C938F5F8F71848339
:1003C0008081E1DE81E0089580E00895DC01ED9117
:1003D000FC9195A186A19817E1F395A1DF01A90FE2
:1003E000B11D97968C919F5F9F7395A30895DC0133
:1003F000ED91FC9195A186A1981769F085A1DF0187
:10040000A80FB11D97969C91DB019C938F5F8F7312
:1004100085A381E0089580E00895CF93C82F8A30A6
:1004200011F48DE0FADF6C2F8091770190917801C3
:1004300099DF80E090E0CF910895809177019091CD
:100440007801C4DF90E0089590937801809377015C
:10045000E9E7F1E080E091E09383828391838083F8
:10046000089587E085B98CE284B980E388B917B82C
:100470008FEF8BB982E08AB90895052E97FB16F4A9
:1004800000940FD057FD05D014D007FC02D046F4DD
:1004900008C050954095309521953F4F4F4F5F4F85
:1004A000089590958095709561957F4F8F4F9F4FE0
:1004B0000895A1E21A2EAA1BBB1BFD010DC0AA1FA5
:1004C000BB1FEE1FFF1FA217B307E407F50720F0BD
:1004D000A21BB30BE40BF50B661F771F881F991F38
:1004E0001A9469F760957095809590959B01AC0181
:1004F000BD01CF010895A0E0B0E0E0E8F2E09BC2CA
:10050000AE01495F5F4FDA016D917D91AD0109E761
:1005100011E0F80182819381DC0113962C911397ED
:10052000286013962C930AD0D8011296ED91FC9175
:1005300013972381277F2383E4E099C2ACE0B0E0E6
:10054000E3EAF2E06AC27C016B018A01FC011782D6
:100550001682838181FFB0C1CE0101964C01F70163
:100560009381F60193FD859193FF81916F0188231B
:1005700009F49EC1853239F493FD859193FF8191F1
:100580006F01853221F4B70190E0B1D1E8CF512C51
:10059000312C20E02032A0F48B3269F030F480322C
:1005A00059F0833269F420612CC08D3239F08033E8
:1005B00039F4216026C02260246023C0286021C055
:1005C00027FD27C030ED380F3A3078F426FF06C0FB
:1005D000FAE05F9E300D1124532E13C08AE0389E3E
:1005E000300D1124332E20620CC08E3221F426FDF2
:1005F0005FC1206406C08C3611F4206802C08836C2
:1006000041F4F60193FD859193FF81916F01811172
:10061000C1CF982F9F7D9554933028F40C5F1F4FC6
:10062000FFE3F9830DC0833631F0833771F08335F2
:1006300009F057C021C0F801808189830E5F1F4FE8
:1006400044244394512C540114C03801F2E06F0E3D
:10065000711CF801A080B18026FF03C0652D70E0F9
:1006600002C06FEF7FEFC5012C8736D12C018301CB
:100670002C852F77222E16C03801F2E06F0E711CE8
:10068000F801A080B18026FF03C0652D70E002C094
:100690006FEF7FEFC5012C8714D12C012C852068CA
:1006A000222E830123FC19C0832D90E048165906A1
:1006B000A0F4B70180E290E01AD13A94F5CFF501A9
:1006C00027FC859127FE81915F01B70190E00FD152
:1006D00031103A94F1E04F1A51084114510479F75E
:1006E000DEC0843611F0893631F5F80127FF07C0E6
:1006F00060817181828193810C5F1F4F08C060818E
:100700007181072E000C880B990B0E5F1F4F2F76FF
:10071000722E97FF09C090958095709561957F4FD7
:100720008F4F9F4F2068722E2AE030E0A40117D12E
:10073000A82EA81843C0853729F42F7EB22E2AE0B0
:1007400030E025C0F22FF97FBF2E8F36C1F018F4AC
:10075000883579F0ADC0803719F0883721F0A8C00E
:100760002F2F2061B22EB4FE0DC08B2D8460B82EC9
:1007700009C024FF0AC09F2F9660B92E06C028E04A
:1007800030E005C020E130E002C020E132E0F801B5
:10079000B7FE07C060817181828193810C5F1F4F1A
:1007A00006C06081718180E090E00E5F1F4FA40160
:1007B000D6D0A82EA818FB2DFF777F2E76FE0BC073
:1007C000372D3E7FA51450F474FE0AC072FC08C099
:1007D000372D3E7E05C0BA2C372D03C0BA2C01C080
:1007E000B52C34FF0DC0FE01EA0DF11D8081803370
:1007F00011F4397E09C032FF06C0B394B39404C02B
:10080000832F867809F0B39433FD12C030FF06C001
:100810005A2CB31418F4530C5B18B32CB31460F4B3
:10082000B70180E290E03C8762D0B3943C85F6CF7C
:10083000B31410F43B1801C0312C34FF11C0B701C0
:1008400080E390E03C8753D03C8532FF16C031FDF9
:1008500003C088E790E002C088E590E0B7010CC0D3
:10086000832F867851F031FF02C08BE201C080E215
:1008700037FD8DE2B70190E03AD0A51430F4B7010E
:1008800080E390E034D05A94F8CFAA94F401EA0DB2
:10089000F11D8081B70190E02AD0A110F6CF33205E
:1008A00009F45DCEB70180E290E021D03A94F7CF11
:1008B000F7018681978102C08FEF9FEF2C96E2E1CE
:1008C000C8C0FC010590615070400110D8F78095B8
:1008D00090958E0F9F1F0895FC016150704001900C
:1008E0000110D8F7809590958E0F9F1F08950F9354
:1008F0001F93CF93DF93FB01238121FD03C08FEF73
:100900009FEF28C022FF16C0468157812481358180
:100910004217530744F4A081B1819D012F5F3F4FDF
:10092000318320838C93268137812F5F3F4F37831C
:10093000268310C0EB01092F182F0084F185E02DCC
:100940000995892BE1F68E819F8101969F838E8385
:10095000812F902FDF91CF911F910F910895FA0170
:10096000AA27283051F1203181F1E8946F936E7FEE
:100970006E5F7F4F8F4F9F4FAF4FB1E03ED0B4E0DF
:100980003CD0670F781F891F9A1FA11D680F791F20
:100990008A1F911DA11D6A0F711D811D911DA11D31
:1009A00020D009F468943F912AE0269F1124301941
:1009B000305D3193DEF6CF010895462F4770405DDC
:1009C0004193B3E00FD0C9F7F6CF462F4F70405D8B
:1009D0004A3318F0495D31FD4052419302D0A9F7E6
:1009E000EACFB4E0A6959795879577956795BA95E0
:1009F000C9F700976105710508959B01AC010A2EA6
:100A000006945795479537952795BA95C9F7620F7C
:100A1000731F841F951FA01D08952F923F924F9220
:100A20005F926F927F928F929F92AF92BF92CF927E
:100A3000DF92EF92FF920F931F93CF93DF93CDB787
:100A4000DEB7CA1BDB0B0FB6F894DEBF0FBECDBFFF
:100A500009942A88398848885F846E847D848C84D0
:100A60009B84AA84B984C884DF80EE80FD800C81D9
:100A70001B81AA81B981CE0FD11D0FB6F894DEBFBC
:0C0A80000FBECDBFED010895F894FFCF2C
:0E0A8C0000000003000000000D021D0200002B
:00000001FF
