:020000040800F2
:1000000000500020ED0A00083D0B00083D0B0008E1
:1000100000000000000000000000000000000000E0
:100020000000000000000000000000003D0B000880
:1000300000000000000000003D0B00083906000829
:100040003D0B00083D0B00083D0B00083D0B000870
:100050003D0B00083D0B00083D0B00083D0B000860
:100060003D0B00083D0B00083D0B00083D0B000850
:100070003D0B00083D0B00083D0B00083D0B000840
:100080003D0B00083D0B00083D0B00080000000080
:100090003D0B00083D0B00083D0B00083D0B000820
:1000A0003D0B00083D0B00083D0B00088D060008C5
:1000B0003D0B00083D0B0008000000003D0B000850
:0C00C000F8B5C046F8BC08BC9E4670476E
:1000D00010B5064C2378002B07D1054B002B02D01E
:1000E000044800E000BF0123237010BDE40000209D
:1000F00000000000F80C0008044B10B5002B03D0E2
:100100000349044800E000BF10BDC04600000000E5
:10011000E8000020F80C0008E0230D4A1B061168D7
:1001200090B5C818A02300AFDB0198420ED8094B48
:1001300009481B681C180948844207D8002408484D
:10014000046081F3088807498A601847BD4690BD5E
:10015000004000080440000800C0FFF7FFBF010096
:10016000C402002000ED00E0F7B51B4D1B4B2A68D0
:100170009A4205D8040043180193019B9C4200D188
:10018000F7BD174B16491A78164E531CDBB20B708D
:100190002178B1543F2B19D90123134FBB62286832
:1001A0007E33184201D100F097FD28680F4B98422A
:1001B0000ED1402231000E4800F072FD0123BB61D8
:1001C0002B68074A40332B60002313700134D4E7B7
:1001D000310000F079FDF1E7B0020020FFFF0108D7
:1001E000AC02002040010020001C0050004000082C
:1001F000000100207FB504212F4C3048E26A0A43F9
:10020000E262E36A0B400393039B00F0C3F9802290
:10021000236DD20413402A4D3ED02A68294B9A42BE
:1002200043D1002601242E6000F0BCF800F00CFA47
:1002300000F074FAE1222100019408235202009692
:10024000214800F089FA214B9C6100F035FD204CDB
:10025000204B214D214823602E7000F075FBB042E9
:100260000FD02B78B34208D02068430601D100F0AC
:1002700033FD1B49206800F027FD1A49154800F09E
:1002800023FD00F031FDBFF34F8F174B174ADA60A3
:10029000BFF34F8FC046FDE78022216D12040A4351
:1002A00022652B60FFF738FFBBE72B608023DB0262
:1002B000013B002BFCD1F5E700100240040D0008C3
:1002C000C4020020DC719BA5B4020020001C005079
:1002D000B002002000400008AC02002069010008C4
:1002E000400100200001002000ED00E00400FA05BC
:1002F00010B50100014800F0B5FA10BDB4020020AD
:1003000010B504002100034800F09EFA0028F9D03F
:1003100010BDC046B4020020FA2189004843F530E0
:1003200010B5FF3000F00CFC0100024800F08CFB1F
:1003300010BDC046B802002010B5024800F08DFB89
:1003400010BDC046B8020020054B82B09A6B024334
:100350009A639B6B18400190019B02B07047C046A6
:1003600000100240054B82B0DA6A0243DA62DB6AAF
:1003700018400190019B02B07047C0460010024037
:1003800010B51020FFF7E0FF1F22044B9A62044AC9
:10039000DA62082219680A431A6010BD0010004092
:1003A000FFFF0000F7B501268020664C664D636BA9
:1003B000400533436363636B33400193019BFFF755
:1003C000C3FF2B68B34333432B602B68334200D108
:1003D000FEE780225D4B5E4F1968120139400A43E7
:1003E0001A602268164326601E00042322681A42FF
:1003F000FCD06368574A1A4080235B011343636053
:100400000123A2681343A3608023534A9B01116A0E
:100410000B4313620223A2681A42FCD0802000051D
:10042000FFF792FF4D4B4E491A6890200A40202159
:100430000A431A605A68C00510404A4A02435A608B
:100440004022186802431A601A6811431960802319
:1004500032685B001A433260226D17402765226DB7
:100460001343236580239B00226D1A42FCD0236D29
:100470003D4A1A4080235B02134323658023226D8B
:10048000DB0213432365E368384A1A408823DB0301
:100490001343E360802322685B04134323608023BB
:1004A0009B0422681A42FCD0F022E3689343E36085
:1004B000E3682F4A1340E360E3682E4A13400322A7
:1004C000E360E3681343E3600C23E6681E400C2EF0
:1004D000FBD1294800F004FB0322E36C0120934385
:1004E000E364E36C254AB343E364E36C1340802286
:1004F000E364E36CD2041343E36440232A681343A8
:100500002B60FFF72FFF0220FFF72CFF0420FFF7DF
:1005100029FF0820FFF726FF8020FFF723FF184858
:1005200000F079F8174800F076F8174800F073F8F3
:10053000164800F070F8164800F06DF8FFF720FF3D
:10054000F7BDC0460010024000200240007000408D
:10055000FFE7FFFFFFE0FFFF00000140006C0040ED
:10056000FFC0FFFF7FBB2220FFFFFCFFFFFF02FF5A
:10057000FFF8FFFFFFC7FFFF0048E801FFCFFFFFC5
:10058000100D0008300D0008500D0008700D000817
:10059000900D00080123F0B507790324BB40190032
:1005A000B9404C43E443057A02684D43D66826407F
:1005B0003543D560C57996684D43264035439560EF
:1005C00086795568BE409D4335435560457A002D78
:1005D00014D09361867A072F12D80B00BB40BB4022
:1005E0000F275F437343156ABD432B431362407962
:1005F000136841431C4021431160F0BD9362E9E759
:100600000F271B0A5B435B435F437343556ABD433C
:100610002B435362EBE702690368DA6082685A6031
:10062000C2689A6042695A6182691A62C2695A62F2
:1006300042681A6070470000024A13680133136071
:100640007047C04680010020C021094A094B0A4872
:100650005360036A09061B021B0A0B430362002353
:100660009360073313608022044B12061A607047B0
:1006700010E000E0FF7C000000ED00E000E100E0A1
:10068000014B18687047C04680010020F7B5224D25
:100690002C68E3699B0616D56B46616AE269C9B2AC
:1006A000D97108231A4200D023620123E2691A4259
:1006B00003D1E269DB181A4201D0236203E028006B
:1006C000143000F09BF98026236833420FD0E36991
:1006D00033420CD06B462800DF1D0830390000F093
:1006E0009FF9002810D03B78A3620023AB71402211
:1006F0002368134207D0E369134204D00123AB718E
:10070000236893432360F7BD2368B34323604023EA
:10071000226813432360EAE78401002070B50A4C85
:1007200001252000094B083040220949236025712A
:1007300000F05EF9200040221430064900F058F91C
:100740000023A571637170BD840100200038014051
:10075000E4010020A4010020F0B50700002085B0CE
:100760001D000AAB1E780BAB1B7838600193012982
:1007700002D0002005B0F0BD2C4B5C79002CF9D1E3
:1007800099711C688023DB019C462949486B1843FA
:1007900048634B6B61460B400393039B254B50080A
:1007A000C018110000F0CCF980B2E060002E27D014
:1007B000072D05D0082D01D0092DDAD11E4B00E000
:1007C0002C23012E05D0002E21D0022ED1D1802243
:1007D00000E0C022D200134319E0174B17E0626813
:1007E00016490A40012062608022236023681205B6
:1007F00003432360124B1A600C4B3B605871B9E7FE
:10080000082D10D0092DE8D0072DB2D10D4B019A3B
:10081000012AE4D0022AACD1626808491140802242
:1008200092010A43DEE72C23F1E7C0468401002051
:10083000001002400048E8012C100000FFCFFFFF2D
:1008400000E100E02C00001010B504682000083022
:1008500000F0D4F8002804D08023226811680B43EC
:10086000136010BD10B50068143000F0D9F810BD49
:10087000F0B581230020842408250C4E591E002940
:1008800000D1F0BD0A4AE31AD35C2A001B0258408B
:100890000B0007B2410088B2002F01DA714088B224
:1008A000013AD2B2002AF4D1E8E7C0462110000094
:1008B0002402002070B505002800FFF719FD041E72
:1008C00003D1FFF739FD0028F6D0200070BD0000ED
:1008D000F7B5FA208000FFF71FFD00266B46DF1DED
:1008E0003800FFF7E7FF041E02D100242000FEBD00
:1008F000FA20144D3B788000AB55FFF70DFD002E1C
:1009000004D13B78042BF1D00136E7E70136852E80
:10091000E4D12B78012BE8D16B78AA789B18FF2BB8
:10092000E3D1FFF7A5FF2A008332030A1278DBB276
:100930009A42DAD184352C78C0B2241A60424441FC
:10094000E4B2D3E7240200200123F7B500270424F2
:10095000244E00903370013CE4B2002F02D14320BA
:10096000FFF7CEFCFFF7B4FF051E019003D1002F67
:1009700016D0152012E01C4B1B78042B07D1062043
:10098000FFF7BEFC002C28D100252800FEBD164B29
:100990005A783378591E8A4205D10620FFF7B0FCF9
:1009A000002CD8D1F0E79A42E3D1009B80210F4878
:1009B00098470620FFF7A4FC3378042401333370F2
:1009C000019FC8E7FFF784FF0028DED0064B1B78A5
:1009D000042B02D10620FFF793FC013CE4B2FF2C6C
:1009E000F0D1D2E7A9020020240200202702002033
:1009F000002301608280C3800381704730B5C488C2
:100A00000200631C80889BB28342804115890340A9
:100A100000209D4203D0106801550120D38030BDD5
:100A200010B50389C488020000209C420BD01068D6
:100A3000C35C01200B701389918801339BB28B42F8
:100A400089410B40138110BD10B581600400FFF790
:100A500017FE01236060237010BD037870B5040099
:100A6000002B02D10025280070BD0125022BFAD0F1
:100A7000FFF706FE6368C01AA3689842F2D3022308
:100A80002370F0E78022104B520019680A431A6065
:100A9000DA680E490A40DA601A680D490A400121F5
:100AA0001A609A688A439A601A680A490A401A606A
:100AB000DA6809490A40DA6000221A618022074B8D
:100AC00012059A607047C046001002400C40FF8833
:100AD000F6FFF6FEFFFFFBFFFFFF02FF00ED00E069
:100AE000014B18607047C046000000200D48854645
:100AF000002103E00C4B5B58435004310B480C4B76
:100B000042189A42F6D30B4A02E0002313600432E3
:100B1000094B9A42F9D3FFF7B5FF00F09DF8FFF7B4
:100B200069FBFEE700500020B80D0008000000201F
:100B3000E4000020E4000020C4020020FEE70000E2
:100B4000002243088B4274D303098B425FD3030A0C
:100B50008B4244D3030B8B4228D3030C8B420DD31F
:100B6000FF22090212BA030C8B4202D312120902AD
:100B700065D0030B8B4219D300E0090AC30B8B42EB
:100B800001D3CB03C01A5241830B8B4201D38B0399
:100B9000C01A5241430B8B4201D34B03C01A52413E
:100BA000030B8B4201D30B03C01A5241C30A8B4281
:100BB00001D3CB02C01A5241830A8B4201D38B026C
:100BC000C01A5241430A8B4201D34B02C01A524110
:100BD000030A8B4201D30B02C01A5241CDD2C30982
:100BE0008B4201D3CB01C01A524183098B4201D3FE
:100BF0008B01C01A524143098B4201D34B01C01AE9
:100C0000524103098B4201D30B01C01A5241C30860
:100C10008B4201D3CB00C01A524183088B4201D3CF
:100C20008B00C01A524143088B4201D34B00C01ABB
:100C30005241411A00D20146524110467047FFE727
:100C400001B5002000F006F802BDC0460029F7D02B
:100C500076E770477047C04670B500260C4D0D4CC6
:100C6000641BA410A64209D10026FFF729FA0A4DF9
:100C70000A4C641BA410A64205D170BDB300EB580A
:100C800098470136EEE7B300EB5898470136F2E794
:100C9000B00D0008B00D0008B00D0008B40D00083C
:100CA000002310B59A4200D110BDCC5CC45401336E
:100CB000F8E700000000000001B40248844601BCCF
:100CC000604700BF0500002001B40248844601BC13
:100CD000604700BF9D00002001B40248844601BC6B
:100CE000604700BF5D00002001B40248844601BC9B
:080CF000604700BF390000203D
:0C0CF800F8B5C046F8BC08BC9E4670472A
:100D0400000800500801000000010000000000502D
:100D1400A0C3E82B00000000000000084A2810646B
:100D240004020000004400004004000000040050DD
:100D34009F1A5AA9000300008008A08800410520DA
:100D440044170000000000004400000000080050A8
:100D5400007FA1F00000000000200000A90044056D
:100D6400000100000000000200660000000C0050BA
:100D7400100000000000000000000000000000005F
:100D8400040000000000000000000000001C0050EF
:100D9400010000000000000000000000040000004A
:0C0DA40000000000000000000000000043
:040DB000F90000083E
:040DB400D100000862
:100DB80000002000EFF3108272B6064B0649D96096
:100DC8000649D960064919610649196182F31088F4
:100DD8007047C04600200240EFCDAB8905040302EE
:100DE800BFAE9D8C16151413EFF3108172B6022254
:100DF800054B586802435A600122586802435A60FA
:100E080081F310887047C0460020024010B5EFF308
:100E1800108172B682220B4B92005C6822435A60A2
:100E280000220260013298691042FCD102229869BE
:100E3800104200D09A615A68034802405A6081F310
:100E4800108810BD00200240F7FDFFFF30B5EFF31A
:100E5800108472B681220D4BD2005D682A435A6015
:100E68000A00403220C905609142FBD101229969EC
:100E78001142FCD102229969114200D09A615A6844
:100E880003490A405A6084F3108830BD00200240AC
:040E9800F7FBFFFF66
:0400000508000AEDF8
:00000001FF
