:020000040800F2
:10000000005000201901000869010008690100087A
:1000100000000000000000000000000000000000E0
:10002000000000000000000000000000690100085E
:10003000000000000000000069010008A906000897
:1000400069010008690100086901000869010008E8
:1000500069010008690100086901000869010008D8
:1000600069010008690100086901000869010008C8
:1000700069010008690100086901000869010008B8
:10008000690100086901000869010008000000001A
:100090006901000869010008690100086901000898
:1000A000690100086901000869010008910700085A
:1000B00069010008690100080000000069010008EA
:0C00C000F8B5C046F8BC08BC9E4670476E
:1000D00010B5064C2378002B07D1054B002B02D01E
:1000E000044800E000BF0123237010BDE40000209D
:1000F00000000000B00D0008044B10B5002B03D029
:100100000349044800E000BF10BDC04600000000E5
:10011000E8000020B00D00080D4885460D480E4946
:100120000E4A002302E0D458C4500433C4188C4251
:10013000F9D30B4A0B4C002301E013600432A242B6
:10014000FBD300F04BFD00F0E3FD00F07BF8FEE791
:100150000050002000000020E4000020700E000885
:10016000E4000020C4020020FEE70000E0230D4A66
:100170001B06116810B5C818A023DB0198420FD8E0
:10018000094B0A481B681C18E0204002844207D231
:1001900000240748046081F3088806498A601847EC
:1001A00010BDC046004000080440000800C0FFF732
:1001B000C402002000ED00E0F7B51B4D1B4B2A6880
:1001C00004009A4204D843180193019B9C4200D139
:1001D000F7BD174B16491A88164E531C9BB20B805D
:1001E0002178B1543F2B19D90123134FBB622868E2
:1001F0007E33184201D100F0C3FD28680F4B9842AE
:100200000ED1402231000E4800F0A6FD0123BB6153
:100210002B68074A40332B60002313800134D4E756
:10022000310000F0B5FDF1E7B0020020FFFF01084A
:10023000AC02002040010020001C005000400008DB
:10024000000100207FB50421304C3148E26A0A43A6
:10025000E262E36A0B400393039B00F0CDF9226D49
:1002600080231100DB042B4D19401A423ED02A682E
:10027000294B9A4243D1002601242E6000F0CAF88F
:1002800000F01AFA00F0FAFAE122210008230194A2
:1002900052022248009600F00FFB214B9C6100F0B7
:1002A0007FFD204C204B214D214823602E8000F003
:1002B000EBFBB0420FD02B88B34208D02068430636
:1002C00001D100F05DFD1B49206800F061FD1A4975
:1002D000154800F05DFD00F04BFDBFF34F8F174B4D
:1002E000174ADA60BFF34F8FC046FDE78023226DC7
:1002F0001B04134323652960FFF738FFBBE72B601E
:100300008023DB02013B002BFCD1F5E7001002400B
:10031000BC0D0008C4020020DC719BA5B4020020C3
:10032000001C0050B002002000400008AC02002079
:10033000B9010008400100200001002000ED00E0AC
:100340000400FA0510B50100014800F02EFB10BDB5
:10035000B402002010B504002100034800F010FB97
:100360000028F9D010BDC046B4020020FA2189004F
:100370004843F53010B5FF3000F03EFC0100024864
:1003800000F007FC10BDC046B802002010B50248BE
:1003900000F008FC10BDC046B8020020054B82B03A
:1003A0009A6B02439A639B6B18400190019B02B0C9
:1003B0007047C04600100240054B82B05A6B0243A2
:1003C0005A635B6B18400190019B02B07047C046B6
:1003D00000100240054B82B0DA6A0243DA62DB6A3F
:1003E00018400190019B02B07047C04600100240C7
:1003F00010B51020FFF7D2FF1F22044B9A62044A67
:10040000DA62082219680A431A6010BD0010004021
:10041000FFFF0000F8B50120FFF7CEFF8020400568
:10042000FFF7BCFF0123604D2A689A431A432A60F4
:100430002A681A4200D1FEE780225C4E5C4F316888
:10044000120139405B4C0A43326022681343236037
:10045000042322681A42FCD06368574A1A4080235A
:100460005B01134363600123A2681343A3608023ED
:10047000524A9B01116A0B4313620223A2681A427B
:10048000FCD080200005FFF789FF4D4B4D491A68CD
:1004900090200A4020210A431A605A68C005104083
:1004A000494A02435A604022186802431A601A6897
:1004B00011431960802332685B001A433260226D59
:1004C00017402765226D1343236580239B00226D0F
:1004D0001A42FCD0236D3D4A1A4080235B0213432D
:1004E00023658023226DDB0213432365E368384ACA
:1004F0001A408823DB031343E360802322685B04F4
:100500001343236080239B0422681A42FCD0F0220C
:10051000E3689343E360E3682E4A1340E360E368D3
:100520002D4A13400322E360E3681343E3600C2386
:10053000E6681E400C2EFBD1284800F057FB032232
:10054000E36C01209343E364E36C254AB343E36423
:10055000E36C13408022E364E36CD2041343E3644E
:1005600040232A6813432B60FFF734FF0220FFF774
:1005700031FF0420FFF72EFF0820FFF72BFF80201C
:10058000FFF728FF174800F07FF8174800F07CF8C5
:10059000164800F079F8164800F076F8154800F093
:1005A00073F8FFF725FFF8BD0020024000700040FF
:1005B000FFE7FFFF00100240FFE0FFFF00000140E7
:1005C000006C0040FFC0FFFF7FBB2220FFFFFCFF4D
:1005D000FFFF02FFFFF8FFFFFFC7FFFF0048E80132
:1005E000FFCFFFFFC80D0008E80D0008080E000847
:1005F000280E0008480E00080123F7B507790268A5
:10060000BB40D16803248C461900B9404C43E543F4
:1006100066460195057AA6434D433543D5609568F6
:10062000AC466646A6433400C5794D432C439460DE
:1006300085795468BD409C432C435460447A002C17
:1006400015D09361857A072F13D80B00BB40BB40B0
:100650000F275F436B43146ABC4323431362407903
:1006600013684143019E1E4031431160F7BD936200
:10067000E8E70F271B0A5B435B435F436B43546A06
:10068000BC4323435362EAE702690368DA60826885
:100690005A60C2689A6042695A6182691A62C26984
:1006A0005A6242681A607047024A13680133136045
:1006B0007047C04680010020C021074A074B084808
:1006C0005360036A09061B021B0A0B4303620023E3
:1006D000936007331360704710E000E0FF7C000078
:1006E00000ED00E0014B18687047C0468001002013
:1006F00010B5002A05D0072920D0082929D00020CC
:1007000010BD08291AD0092923D00729F7D102687A
:100710001C491140802252050A43026002681A49AE
:100720000A400260012B26D0022BE8D14368174A09
:100730001A4080239B011343436020E00168114C61
:1007400021400160012A0BD0022A0ED0002AD6D106
:10075000E4E701680B4C0C40802149012143F0E79C
:10076000C0210268C9000A43DBE70268064911405C
:100770008022D200F7E7426804490A404260012023
:10078000BEE7C046FFEFFFEFFFF9FFFFFFCFFFFF20
:10079000F7B5384D2C68E3699B0615D56A460821E4
:1007A000636AE069DBB207321370084200D021624D
:1007B0000226E76901210020374201D008002662A5
:1007C000E6690E4227D021628026236833420FD08B
:1007D000E36933420CD06B462800DF1D3900083036
:1007E00000F0C3F9002830D03B78A3620023AB713E
:1007F0004022236813420DD0E36913420AD001233B
:10080000AB71EFF3108183F3108823689343236067
:1008100081F31088F7BD0028D6D12168480507D597
:100820000E0015480640014208D17F210B4013708D
:1008300028001178143000F081F9C5E780214905BE
:100840008E42F5D140218B43F1E7EFF31081012275
:1008500082F310882368B343236081F31088EFF399
:10086000108182F31088402322681343236081F3B0
:100870001088BDE7040200200010001070B50A4C7B
:1008800001252000094B40220949083023602571C9
:1008900000F04EF9200040220649143000F048F9DB
:1008A0000023A571637170BD04020020003801406F
:1008B000C401002084010020F0B587B001930CAB87
:1008C0001B780D0002930DAB1B78070003930023E8
:1008D00011000360012D02D0002007B0F0BD244EAE
:1008E0007379002BF8D18023DB019C46214AB57136
:1008F000506B346818435063536B62461340059342
:10090000059B1D4B4808C01800F076F980B2E060E6
:10091000039B2000029A0199FFF7EAFE0028DBD032
:10092000EFF3108285F31088082321680B432360BE
:1009300082F31088EFF3108285F310880423216876
:100940000B43236082F31088EFF3108285F3108845
:10095000202321680B43236082F3108880222368C0
:1009600012052B432360054B1A603E607571B4E796
:1009700004020020001002400048E80100E100E00D
:1009800010B504682000083000F0D8F800280BD01B
:100990002268EFF31081012383F3108814687F33FA
:1009A0002343136081F3108810BD10B50068143024
:1009B00000F0DBF810BD00000023F0B51800082699
:1009C0000A4C0B4DE25C12025040320007B241006B
:1009D00088B2002F01DA694088B2013AD2B2002A07
:1009E000F4D10133802BEDD1F0BDC04627020020A9
:1009F0002110000070B505002800FFF7A3FC041EBD
:100A000003D1FFF7C3FC0028F6D0200070BD000022
:100A1000F7B5FA20FA278000FFF7A8FC0026BF00F0
:100A20006B46D81DFFF7E6FF051E27D06B46154C19
:100A3000DB793800A355FFF799FC002E05D16B46F2
:100A4000DB79042B1BD00136EAE70136852EE7D18E
:100A50002378012B12D16378A2789B18FF2B0DD13C
:100A6000FFF7AAFF22008332030A1278DBB29A4210
:100A700004D184342378C0B2834200D000252800FA
:100A8000FEBDC04624020020F7B501240027254EF4
:100A900000903470013CE4B2002F02D14320FFF7F4
:100AA00059FCFFF7B5FF051E019003D1002F16D0AA
:100AB000152012E01C4B1B78042B07D10620FFF7F2
:100AC00049FC002C28D100252800FEBD164B5A7881
:100AD0003378591E8A4205D10620FFF73BFC002CD3
:100AE000D8D1F0E79A42E3D1009B80210F48984784
:100AF0000620FFF72FFC337804240133019F337065
:100B0000C8E7FFF785FF0028DED0074B1B78042BD2
:100B100002D10620FFF71EFC013CE4B2FF2CF0D10D
:100B2000D2E7C046A90200202402002027020020AC
:100B30000023C380016082800381704770B5C38841
:100B400082889DB201339BB2934292410689040090
:100B50001A400020964207D0226801305155A288E1
:100B6000934292411340E38070BD30B50489C5883B
:100B70000200A3B20020A5420AD01068C05C013375
:100B8000087091889BB28B42894101200B401381F0
:100B900030BD10B581600400FFF7A4FD0123606043
:100BA000237010BD037810B50400002B01D1002084
:100BB00010BD0120022BFBD0FFF794FD6268A368F3
:100BC000D3189A4207D2904201D39842EFD302231E
:100BD00001202370ECE79042F7D3E8E78022024B34
:100BE00012059A607047C04600ED00E0014B1860A6
:100BF0007047C04600000020002243088B4274D397
:100C000003098B425FD3030A8B4244D3030B8B420D
:100C100028D3030C8B420DD3FF22090212BA030C16
:100C20008B4202D31212090265D0030B8B4219D3F7
:100C300000E0090AC30B8B4201D3CB03C01A524117
:100C4000830B8B4201D38B03C01A5241430B8B425F
:100C500001D34B03C01A5241030B8B4201D30B0348
:100C6000C01A5241C30A8B4201D3CB02C01A52416F
:100C7000830A8B4201D38B02C01A5241430A8B4232
:100C800001D34B02C01A5241030A8B4201D30B021B
:100C9000C01A5241CDD2C3098B4201D3CB01C01A35
:100CA000524183098B4201D38B01C01A524143093F
:100CB0008B4201D34B01C01A524103098B4201D32D
:100CC0000B01C01A5241C3088B4201D3CB00C01A9A
:100CD000524183088B4201D38B00C01A5241430812
:100CE0008B4201D34B00C01A5241411A00D2014637
:100CF000524110467047FFE701B5002000F006F8AA
:100D000002BDC0460029F7D076E770477047C0465D
:100D100070B500260C4D0D4C641BA410A64209D1E1
:100D20000026FFF7CDF90A4D0A4C641BA410A64219
:100D300005D170BDB300EB5898470136EEE7B3001C
:100D4000EB5898470136F2E7680E0008680E000875
:100D5000680E00086C0E0008002310B59A4200D1FE
:100D600010BDCC5CC4540133F8E700000000000063
:100D700001B40248844601BC604700BF390000202E
:100D800001B40248844601BC604700BF5D000020FA
:100D900001B40248844601BC604700BF9D000020AA
:100DA00001B40248844601BC604700BF0500002032
:0C0DB000F8B5C046F8BC08BC9E46704771
:100DBC000008005008010000000100000000005075
:100DCC00A0C3E82B00000000000000084A281064B3
:100DDC000402000000440000400400000004005025
:100DEC009F1A5AA9000300008008A0880041052022
:100DFC0044170000000000004400000000080050F0
:100E0C00007FA1F00000000000200000A9004405B4
:100E1C00000100000000000200660000000C005001
:100E2C00DFFFFFFF000000000000000000000000DA
:100E3C00040000000000000000000000001C005036
:100E4C00F1FFFFFF000000000000000004000000A4
:0C0E5C000000000000000000000000008A
:040E6800F900000885
:040E6C00D1000008A9
:100E700000002000EFF3108272B6064B0649D960DD
:100E80000649D960064919610649196182F310883B
:100E90007047C04600200240EFCDAB890504030235
:100EA000BFAE9D8C16151413EFF3108172B602229B
:100EB000054B586802435A600122586802435A6041
:100EC00081F310887047C0460020024010B5EFF350
:100ED000108172B682220B4B92005C6822435A60EA
:100EE00000220260013298691042FCD10222986906
:100EF000104200D09A615A68034802405A6081F358
:100F0000108810BD00200240F7FDFFFF30B5EFF361
:100F1000108472B681220D4BD2005D682A435A605C
:100F20000A00403220C905609142FBD10122996933
:100F30001142FCD102229969114200D09A615A688B
:100F400003490A405A6084F3108830BD00200240F3
:040F5000F7FBFFFFAD
:0400000508000119D5
:00000001FF
