:020000040800F2
:10000000005000201901000869010008690100087A
:1000100000000000000000000000000000000000E0
:10002000000000000000000000000000690100085E
:10003000000000000000000069010008CD0A00086F
:1000400069010008690100086901000869010008E8
:1000500069010008690100086901000869010008D8
:1000600069010008690100086901000869010008C8
:1000700069010008690100086901000869010008B8
:10008000690100086901000869010008000000001A
:100090006901000869010008690100086901000898
:1000A0006901000869010008690100086901000888
:1000B0006901000869010008000000003D03000814
:0C00C000F8B5C046F8BC08BC9E4670476E
:1000D00010B5064C2378002B07D1054B002B02D01E
:1000E000044800E000BF0123237010BDF801002088
:1000F00000000000403B0008044B10B5002B03D06B
:100100000349044800E000BF10BDC04600000000E5
:10011000FC010020403B00080D4885460D480E4973
:100120000E4A002302E0D458C4500433C4188C4251
:10013000F9D30B4A0B4C002301E013600432A242B6
:10014000FBD300F0D1FE03F09FFC00F071F8FEE756
:100150000050002000000020F8010020BC3D0008F5
:10016000F8010020300D0020FEE70000E0230D4ADA
:100170001B06116810B5C818A023DB0198420FD8E0
:10018000094B0A481B681C18E0204002844207D231
:1001900000240748046081F3088806498A601847EC
:1001A00010BDC046004000080440000800C0FFF732
:1001B000300D002000ED00E00122014B1A70704765
:1001C000750500208023F7B505001B0500900192FE
:1001D000CC18009B019A9B189D4200D1F7BD104E90
:1001E00040222900300003F073FC01230D4FBB6255
:1001F0007E331C4202D1200003F09AFC0A4B9C4241
:1002000009D140223100094803F062FC0123403447
:10021000BB614035DDE73100200003F081FCF5E7EC
:1002200054020020001C005000400008140200206E
:1002300073B50421344C3548E26A0A43E262E36A4A
:100240000B400193019B00F0E8FB226D802311001D
:10025000DB042F4D19401A4234D02A682D4B9A42A4
:1002600039D100232B6000F0CBFA00F037FC2A498B
:100270002A4800F04FFC2A4CFA212000802500F08B
:1002800005FE012603F03CFC00F060F86D02254BF2
:100290001B78002B26D00122234B24499A62244844
:1002A00003F03EFC03F034FC00F098FA1E2000F04E
:1002B000A7FBBFF34F8F1F4B1F4ADA60BFF34F8F6F
:1002C000C046FDE78023226D1B041343236529608C
:1002D000FFF74CFFC5E72B608023DB02013B002BBF
:1002E000FCD1F5E7200000F0DAFD00280AD020005C
:1002F00000F0F1FD30000C4A51690B042B4088439B
:100300000343936130BFC2E7001002404C3B00083A
:10031000300D0020DC719BA5B9010008C501000863
:100320009402002075050020001C005014020020DB
:100330000040000800ED00E00400FA0510B5024896
:1003400000F0A2FE10BDC0463C08002010B50F4CC6
:10035000002220000E4902F003FF002800D0FEE733
:1003600020000C4902F016FF002800D0FEE7200014
:10037000094902F02BFB002800D0FEE7200002F024
:1003800012FF002800D0FEE710BDC046780500200F
:10039000000000207400002050000020094B02687B
:1003A00010B59A420DD18023074A1B04916B1F2080
:1003B0000B4393630022110000F09EFD1F2000F00C
:1003C000C5FD10BD005C004000100240AC2310B51C
:1003D0009B00C1184033C05802F000FF10BD282315
:1003E0004B43C3187D33FF331A68BC2310B59B0001
:1003F000C05802F025FF10BD28234B43C318DA6B09
:10040000BC2310B59B00C05802F060FF10BDBC2398
:1004100010B59B00C05803F003F810BD836870B599
:100420000400022B00D0FEE7BC25AD00012140599D
:1004300002F0DBFF605902F0AEFF70BDBC2310B5C7
:1004400004009B00C05802F0D3FFA369002B04D026
:100450000623024A11690B43136110BD00ED00E051
:10046000836910B5002B04D00621054A13698B431C
:100470001361BC239B00C05802F0C6FF10BDC046EC
:1004800000ED00E0BC2370B5050018489B00C55086
:10049000174BB026036008234360063B836003616B
:1004A0000023B600A8518361C361036200F05AFDC6
:1004B000041E00D0FEE7020001001823A85901F035
:1004C000F4FBA85922005823802101F0EEFBA85923
:1004D00022009823812101F0E8FBA859D8232200AB
:1004E000012101F0E2FB200070BDC0463C08002065
:1004F000005C0040B0239B00C05810B500F09EFD8A
:1005000003000220032B01D8014AD05C10BDC04675
:10051000583B000810B514001A002300B024A400B2
:10052000005901F0C7FA03000220032B01D8014A49
:10053000D05C10BD583B0008B0239B00C05810B5DC
:1005400001F0E9FA03000220032B01D8014AD05C34
:1005500010BDC046583B0008B0239B00C05810B5E2
:1005600001F0A1FB03000220032B01D8014AD05C5B
:1005700010BDC046583B0008B0239B00C05810B5C2
:1005800001F037FB03000220032B01D8014AD05CA5
:1005900010BDC046583B0008B0239B00C05810B5A2
:1005A00001F052FB03000220032B01D8014AD05C6A
:1005B00010BDC046583B0008B0234AB29B00C35848
:1005C000002A07DA7F2211400131573A51435B1864
:1005D00098787047282251435B186B33FF331878A3
:1005E000F7E70000B0239B00C05810B500F039FDBC
:1005F00003000220032B01D8014AD05C10BDC04685
:10060000583B000810B5B024A400005901F0D4FAFA
:1006100003000220032B01D8014AD05C10BDC04664
:10062000583B000810B5B024A400005901F09AFA14
:1006300003000220032B01D8014AD05C10BDC04644
:10064000583B0008B02310B59B00C05801F0ABFA2E
:1006500010BD000000487047A00200207047000055
:10066000122301480B8070471C000020042301481E
:100670000B8070473000002030B5002552008A18EA
:10068000040FE3B2092C07D830330B704D700231E0
:1006900000018A42F4D130BD3733F6E71A2370B532
:1006A0000B800B4B0B4C18680B4B1B68C0180028B9
:1006B0000BD00A4B0822A11C1D68FFF7DDFF2100AB
:1006C000042228001231FFF7D7FF200070BDC0467A
:1006D0005000F81F340000205800F81F5400F81F85
:1006E00010B5044C0A000448210003F0C5F82000AE
:1006F00010BDC046300B00205C3B000810B5044C18
:100700000A000448210003F0B7F8200010BDC046DD
:10071000300B0020663B000810B5044C0A0004486A
:10072000210003F0A9F8200010BDC046300B0020C6
:10073000793B000810B5044C0A000448210003F07E
:100740009BF8200010BDC046300B0020843B000801
:100750000020704780235B020B6080239B000020F9
:10076000138070470020704710B5100000F0CCFADD
:10077000002010BD10B5100000F0D6F9002010BD0B
:100780000020704700207047054B82B09A6B0243EF
:100790009A639B6B18400190019B02B07047C04662
:1007A00000100240054B82B05A6B02435A635B6BE8
:1007B00018400190019B02B07047C04600100240F3
:1007C000054B82B0DA6A0243DA62DB6A18400190B4
:1007D000019B02B07047C0460010024010B51020C7
:1007E000FFF7D2FF1F22044B9A62044ADA62082202
:1007F00019680A431A6010BD00100040FFFF000096
:10080000F8B50120FFF7CEFF80204005FFF7BCFFC1
:100810000123604D2A689A431A432A602A681A42C3
:1008200000D1FEE780225C4E5C4F316812013940F6
:100830005B4C0A433260226813432360042322681E
:100840001A42FCD06368574A1A4080235B01134365
:1008500063600123A2681343A3608023524A9B0173
:10086000116A0B4313620223A2681A42FCD0802053
:100870000005FFF789FF4D4B4D491A6890200A404B
:1008800020210A431A605A68C0051040494A0243B1
:100890005A604022186802431A601A6811431960AE
:1008A000802332685B001A433260226D174027654F
:1008B000226D1343236580239B00226D1A42FCD0D6
:1008C000236D3D4A1A4080235B0213432365802336
:1008D000226DDB0213432365E368384A1A408823FC
:1008E000DB031343E360802322685B04134323602C
:1008F00080239B0422681A42FCD0F022E3689343D1
:10090000E360E3682E4A1340E360E3682D4A134036
:100910000322E360E3681343E3600C23E6681E40B0
:100920000C2EFBD1284801F039FF0322E36C012093
:100930009343E364E36C254AB343E364E36C1340FD
:100940008022E364E36CD2041343E36440232A6807
:1009500013432B60FFF734FF0220FFF731FF042021
:10096000FFF72EFF0820FFF72BFF8020FFF728FF5F
:10097000174800F09AF8174800F097F8164800F06A
:1009800094F8164800F091F8154800F08EF8FFF73B
:1009900025FFF8BD0020024000700040FFE7FFFF88
:1009A00000100240FFE0FFFF00000140006C00402B
:1009B000FFC0FFFF7FBB2220FFFFFCFFFFFF02FF06
:1009C000FFF8FFFFFFC7FFFF0048E801FFCFFFFF71
:1009D000B83B0008D83B0008F83B0008183C00086A
:1009E000383C00080122054BD8625A61196811434E
:1009F000196019681142FCD17047C04600100040D0
:100A000070B5FA250400AD00002C00D170BD28009F
:100A1000013CFFF7E7FFA4B2F6E70123F7B507793A
:100A20000268BB40D16803248C461900B9404C438E
:100A3000E54366460195057AA6434D433543D560A7
:100A40009568AC466646A6433400C5794D432C43B1
:100A5000946085795468BD409C432C435460447A2B
:100A6000002C15D09361857A072F13D80B00BB405B
:100A7000BB400F275F436B43146ABC43234313629D
:100A8000407913684143019E1E4031431160F7BD18
:100A90009362E8E70F271B0A5B435B435F436B43AB
:100AA000546ABC4323435362EAE702690368DA608D
:100AB00082685A60C2689A6042695A6182691A62A1
:100AC000C2695A6242681A6070470000024A13689D
:100AD000013313607047C04610050020C021074A4B
:100AE000074B08485360036A09061B021B0A0B43A5
:100AF00003620023936007331360704710E000E047
:100B0000FF7C000000ED00E0014B18687047C04614
:100B100010050020024B1860024B19607047C04658
:100B20001405002018050020F7B50C0080220500F0
:100B300000212000920002F0D4FF002D0CD13E22B3
:100B400020006D4902F0C4FFFF2355225B00E254F0
:100B50006A4B9218E254F7BD7E2D26D86B1E3E2BB1
:100B600000D93F3B002B13D0802501271B02581CC6
:100B7000634EFF30AD007F421A1F591CAA4202D2B9
:100B8000B34210D021800B0002348142F4D1E2E75D
:100B9000F0222100FF2022700A31621C9142E3D032
:100BA00010700132FAE72780EDE7822D46D87F2DBD
:100BB000D1D120002200504B0B302B335F3D1978F0
:100BC000002937D00133117001328242F7D1282336
:100BD00002264C4FE3722B3425008023F8680B3D2E
:100BE0000197DB02002802D002F083FF03001A0AFB
:100BF0002B776A771A0C1B0EEB77330AEB762B00F8
:100C0000AA77AE76019A1278002A15D0019901319F
:100C100001911A700133A342F4D199224D23013678
:100C2000B6B22A746B742A766B7610372034052E90
:100C3000D2D190E72900C6E72022EAE72B00833BC8
:100C4000012B0CD82F4A1B01D318DD68280002F0B5
:100C500050FF29000200200002F03AFF7BE78023CA
:100C6000853D29029B02994200D374E755222270E8
:100C70000F3A6270143AA27025322271063A6271FC
:100C80000C32A271BF3AE2710A0A62730A0CA273B3
:100C90000A0EE2730122002362742A0A62752A0C8A
:100CA000A27502220A2623732374A374E3742376A5
:100CB000A376E3762372A372E3723C332377153B6A
:100CC0006377953B25756276A3771E3256332D0EDA
:100CD0006272E377A018E670E575E03202F0F8FE84
:100CE000FE2330225B00E254E4188E3BFF3B63702E
:100CF000BE3BA370E6702EE7583C0008FF010000E1
:100D000003020000983C00084A780B7812021A434C
:100D10008B7810B51B041A43CB780C001B061343C9
:100D2000514A934200D09DE04A790B7912021A434E
:100D30008B791B041A43CB791B0613434B4A93420E
:100D400000D08FE0FE22FE23FF328A5C5B00CB5C8A
:100D500012021A43FF235B00CB5C1B041A43444B73
:100D6000CB5C1B061343434A93427BD14B7A0A7AEE
:100D70001B021A438B7A1B041343CA7A12061A43C6
:100D80009B046FD50B7F497F09021943A37F1B0486
:100D90001943E37F1B060B4337498B4262D1D307CC
:100DA00025D4637C227C1B021343A27C12041343D0
:100DB000E27C12061A4380235B009A4217D1637BC0
:100DC000217B1B021943A37B1B040B43E17B090618
:100DD0001943DBB2002B0AD1E020284B4002CB188C
:100DE000834204D22000264B20301B689847627E45
:100DF000237E12021A43A37E1B041A43E37E1B06C2
:100E000013432FD01F4A11688B4208D099208000CD
:100E1000834201D2002901D001235B421360617D2E
:100E2000237D09021943A37D1B041943E37D1B069F
:100E30000B43992189008B4214D20720D908034023
:100E4000063898405318197AC4B208420AD121438F
:100E500019725368013353601268934202D30A4BEC
:100E60001B68984710BDC0465546320A57515D9ED3
:100E7000FF010000306FB10A3C2792E800C0FFFF7D
:100E8000140500201C0500201805002010B5816005
:100E90000400FFF739FE01236060237010BD037862
:100EA00010B50400002B01D1002010BD0120022B41
:100EB000FBD0FFF729FE6268A368D3189A4207D2D5
:100EC000904201D39842EFD3022301202370ECE734
:100ED0009042F7D3E8E710B50400FFF715FE0123B1
:100EE0006060237010BD00008022024B12059A60E2
:100EF0007047C04600ED00E030B5FF2503242A000E
:100F00000440E400A24089012940D243A140C3B279
:100F100000280ADBC0240B4B80088000C018A40006
:100F200003591A401143015130BD0F200340083BC3
:100F300005489B089B001B18D86902401143D961E2
:100F4000F2E7C04600E100E000ED00E0002805DB2C
:100F50001F2318401E3B8340014A13607047C04660
:100F600000E100E0F0B50400012587B0002832D090
:100F7000314D435DDAB2002B04D1AA239B00C25449
:100F8000FFF70CFA03236355206800F0C7FE002327
:100F9000012719006068834220D30022282611000F
:100FA000904234D823006A46103343CB43C203CB6C
:100FB00003C2A268E3686168206800F0B9FE0023FC
:100FC000621DD377012262551D00E369934202D16D
:100FD000200000F084FE280007B0F0BD292628225A
:100FE000B4465A43A2189444664637702826B4463D
:100FF0009444664633702B26B44694446646D386A2
:1010000001333170DBB29163D1631164C3E7330004
:101010005343E3181F006A37FF373970013F3A70B6
:10102000F97081336C3FF967FF33803701323960E3
:10103000D2B21960B4E7C046A902000070B5AA2573
:10104000AD00435D04000220012B09D0012363554C
:10105000206800F059FE206801F0B9F800206055C2
:1010600070BD70B5AA25AD00435D04000220012BC0
:1010700008D001236355631DD977206801F0A0F8DB
:101080000020605570BD0000F0B5040085B0006818
:1010900001F0A5F8030400D5DBE0206801F09FF81B
:1010A00043050CD52368B3490633DA8F20000A4084
:1010B000DA87FFF7B3F900212000FFF7D2FF20689D
:1010C00001F08DF8430405D52368AB490633DA8F68
:1010D0000A40DA87206801F082F8830405D5236886
:1010E000A6490633DA8F0A40DA87206801F077F8DC
:1010F000C3041CD5042123680233DA8F8A43DA87BC
:10110000DA8F49188A43DA87B8239B00E25C012A08
:1011100004D100212000E15400F0F5FD2000FFF78C
:101120009FF9236896490633DA8F0A40DA872068E8
:1011300001F055F8030511D5082123689A1CD08FBA
:1011400006330143D187D98F8E480140D9870423C4
:10115000D18F20000B43D387FFF770F9206801F08F
:101160003EF88025284221D0B82023688000991DB0
:10117000CA8FAA43CA87225C002A01D000F095FCDE
:10118000991CCD8F04322A43CA870822CD8F54334D
:101190002A43CA8701213C2221541B8820009B0836
:1011A0001340B9229200A35000F0ADFD206801F079
:1011B00016F8830508D5236873490633DA8F2000B3
:1011C0000A40DA87FFF723F9206801F008F8C30521
:1011D00005D523686D490633DA8F0A40DA8705B0F2
:1011E000F0BD0F21D38F194000910F219AB20B420D
:1011F00000D0DDE01023110019401A4230D10388DD
:10120000634A1340802212021343038003005033C9
:101210001A88230028331B78DB00C3189B185D4A0B
:1012200020009B181B88E26B9B059B0D6364D31801
:10123000E363FFF7E1F8631DDA7F002A09D0206C31
:10124000002806D18022D97F114322684C321180B8
:10125000D8772068821DD38F1BB2002BC1DB1CE71F
:10126000028880211600090193B20E400A4222D062
:10127000030050331A88B4235B00E35CAC21DB002D
:10128000C3189B18444A89009B1822001B886932A6
:101290009B059B0DFF32D3616118D28801F062FA81
:1012A00022683E49138820000B4080210B431380A5
:1012B000FFF78CF8CDE71BB2002BCADA0388374A58
:1012C00025001340802213430380030050331A8803
:1012D000B4235B00E35C6935DB00C3189B182E4A1E
:1012E000FF359B181B889B059B0DEB610DD0696931
:1012F00000290AD0EA8801F035FA6B69EA69310001
:101300009B1820006B61FFF76AF821680B881B05AA
:101310009FD40B00204A50331B888A18D2182B699F
:10132000002B09D113881E480340802013801388A6
:1013300000020343138008E03E2B10D80125580813
:101340002B40C018800280B210800B88154A1A40CA
:10135000C0239B015340144A13430B8079E71F2598
:1013600058092B405D426B41C01A104B8002034369
:101370009BB2DFE7FFFBFFFFFFBFFFFFFFDFFFFFCA
:10138000FFEFFFFFFFF7FFFFFFFDFFFFFFFEFFFF88
:101390000F8FFFFF02040000060400008F0F000003
:1013A000FF83FFFF8FBFFFFF808000000080FFFFF3
:1013B000009B9F00C219138899B21BB20191002BA8
:1013C00000DBF2E01388C7490B4080210B431380F8
:1013D0002823009A5343E3181A001D007532FF3288
:1013E00012786935FF35002A1AD10200503211886F
:1013F0002A78D2005218BC49121852181288920545
:10140000950D002A00D1AFE01A006F327D33FF3313
:101410001900FF322B001288096801F0A3F9A3E03C
:1014200019006C31FF3109782A78022900D080E058
:101430008026F601B4466546019E81332E40039610
:101440000600503602966646019DFF331968354204
:1014500037D0029D2E88D5007619A44D36187619FE
:101460003588AD05AD0D8D420DD900211960920072
:10147000821813889E49194080239B014B409D4947
:101480000B43138002E0491B1960F0D0019B5B06FF
:101490000ED52823009A98495343E3186933FF3344
:1014A0001B789B00C3181A880A4094490A431A8083
:1014B000002D59D02823009A5343E3181A007132A3
:1014C000A4E7029D2E88D5007619874D3618761927
:1014D0003588AD05AD0D8D420DD903991960920087
:1014E000821813888249194080239B014B4081490F
:1014F0000B43138002E0491B1960F0D0019B5B068F
:101500000ED42823009A7C495343E3186933FF33F0
:101510001B789B00C3181A880A4078490A431A802E
:10152000002D21D02823009A5343E3181A00733268
:101530006CE79200821816886F4931406F4E314334
:1015400011802A78910041180D88010050310988D6
:10155000D200521812186D045FD5644952181288CF
:101560009205950D002AA9D12823009959436218A4
:1015700016008536FF363068083E4019B060306886
:101580004019306010008130FF300068002803D01F
:10159000FC32D26F954248D2009A20005343E318A0
:1015A0006933FF331978FEF71AFF8022019B13423B
:1015B00000D14EE62068524BC1190A88009D1A409E
:1015C000504B1A4392B20A802822554365192A00CB
:1015D0002E002B3212782836022A57D000224021C2
:1015E0002A649446019F019A0F4029350A4234D05B
:1015F0002D78317865451FD102003C4D503212885C
:1016000040198018C900401802883F490A400280EA
:10161000028813439BB203801AE0334952181288A0
:101620009205950D002A9FD080E76931FF3120682F
:10163000611800F0EDFDB8E7012D09D103002B4A38
:1016400050331B888018C0186346C90041180B80AE
:1016500020003178FEF7D0FEFBE5297832780029AA
:1016600008D10100204D5031098840194018D2009E
:101670008018C9E70129EBD103001B4950331B88AF
:101680004018C018D20082181780E1E7802701991E
:101690007F00394033788C4601990393DA002B6C34
:1016A000394233D1070050373F881049C719BA185B
:1016B000521812889205920D9A4202D363462B6407
:1016C000C6E728219B1A2B64EB6B9B18EB636B6CB2
:1016D0009A18009B6A6401335943611800F098FD21
:1016E000B7E5C0468F0F00000604000002040000AA
:1016F0008FBFFFFF808000008F8FFFFFC080000042
:101700000F8FFFFF0080FFFFFF83FFFF5027402662
:10171000BC460199019F31408444374200D1DDE04D
:101720006146C84E098886197118895A00278905AB
:101730000296890D994200D25F1A2823009E7343B6
:101740008026E3181F64019BF60133401E00002F22
:1017500053D1290029310B780091002B36D16346F3
:10176000029F1B88FB189A181388B74F3B401380C1
:101770001388B64F3B439BB213802F00009B283742
:101780001A783B78002A2BD16246B149128840185A
:101790008018DB00C0180388AB4A1340038001881F
:1017A000AA4B194389B2018020003978FEF724FE44
:1017B000002E00D1DCE03B7822689B00D218138811
:1017C000A4490B40A4490B431380D1E0012BD4D191
:1017D000030050331B880299CB189B181F80CCE75D
:1017E000012AE1D102009A4950321288401880182B
:1017F0000022DB00C3181A80D6E7002B08D0039B19
:101800009A0082181688934B3340934E33431380CB
:101810002823009A5343E3181F004C373A78012AD3
:1018200000D0A5E0DA6B9E6B94468C446246DA6386
:101830005A6C52185A649A6CB24225D3921B9A641D
:101840002B002F0029331A782837B3B2002A39D158
:101850000200503211883A78029FD200791852184B
:10186000002E1BD11188784E31401180178877499E
:101870000F43BFB217802821009A514361180A8E86
:10188000614600F0B0FC73E0002A02D10E003A700D
:10189000D6E70021160039709964D1E73E2E07D8AB
:1018A000012771083E408919890289B21180E2E757
:1018B0001F2771093E4077427741644EC91B890258
:1018C0003143F2E7012AD6D102005032128839782A
:1018D000029EC900B2188A181380CCE766465C4F96
:1018E0003688C719BE190297B75ABF05BF0D9F4268
:1018F00000D8D91B2823009E73438026E31819645F
:10190000019BF60133401E00002951D12B002933E1
:101910001B78002B36D1634619884A4BC3185B18D5
:101920009A18138848490B401380138847490B4382
:101930009BB213802B002F0029331A7828373B786D
:10194000002A2AD1624602991288DB008A189B1865
:101950001A883D490A401A8019883C4A114389B2C5
:10196000198020003978FEF747FD002E00D122E7CC
:1019700028352B7822689B00D1180B88374A1A40EB
:101980003023E7E4012BD5D1030050331F882D4BC2
:10199000C318DB199B181980CCE7012AE1D150301C
:1019A00002880299DB008A189B1800221A80D8E767
:1019B000002B08D1039B274A9B00C31819880A40B3
:1019C00025490A431A802823009A53434C229446FF
:1019D000E3189C4462461278012AC9D1DA6B9E6CE6
:1019E000D1195A6CD963D2195A649A6B96421CD396
:1019F000B61A9E642B002E0029331F7893B20193F0
:101A00002836002F44D1070050373F883678029B94
:101A1000F600DF19F619002A22D132880A4F3A401F
:101A200032803788094B1F4321E0002E03D16346E3
:101A30003A001E70DEE700229A6463461A70320094
:101A4000D8E7C04602040000FF83FFFF0080FFFFCD
:101A5000060400008F8FFFFF80C00000BF8FFFFFD4
:101A60003E2A0DD8012357081A40BF18BF02BFB243
:101A700037802822009B5A43A218528E019B00E710
:101A80001F2357091A4053425341FF1ABF02C9E7A7
:101A9000012FEED10200503212883678029BF600F8
:101AA0009A18019BB2181380E3E72000FEF7C6FCEA
:101AB000FFF77CFB70B505000720084049B22824D9
:101AC00000291DDA411C6143273C69184C700A61EA
:101AD0004A780870CB70002A00D0C881022B01D14F
:101AE00000230B71AA24A4002B5D0220012B06D039
:101AF00001232B55286800F02FF90020285570BDD0
:101B00004443210000262C1969316A34FF31FF3427
:101B100069182670DBE770B504000720084049B259
:101B20002823002913DA411C5943273B61184B70C5
:101B3000AA250870AD00635D0220012B06D00123A9
:101B40006355206800F046FA0020605570BD43439D
:101B50001900E218002369316A32FF31FF3261183F
:101B60001370E5E770B50724214021344C43051973
:101B70002E007D36FF3632602A008132FF3213603C
:101B80002B0000268533FF3369351E60FF351B3B74
:101B90001E70297021006931FF314118006800F082
:101BA00037FB300070BD07230B40282159434018F4
:101BB0008530FF300068704770B528260724214023
:101BC00034004C4304192500E26301224C352364A0
:101BD0002A700025A364230065642933A4191A70B0
:101BE0002170891871434118006800F011FB28002A
:101BF00070BD70B504000725636801200D409D424B
:101C000016D84AB22823002A13DA29185943611832
:101C100048700D700123AA258B70AD00625D022013
:101C20009A4205D06355206800F06AFA002060559A
:101C300070BD4B431900E218002369316A32FF314D
:101C4000FF3261181370E4E770B504000F23626877
:101C500001200B4093421AD80630084049B228238D
:101C6000002915DA411C5943273B61184B700025A8
:101C7000AA2608708D70B600A35D0220012B06D045
:101C80000123A355206800F059FA2800A55570BD1E
:101C900043431900E218002369316A32FF31FF32F1
:101CA00061181370E3E70020704710B50C0021069F
:101CB0000CD507212140282401316143401899B2F5
:101CC000002A08D10273C180002010BD2821614381
:101CD0006931FF31F2E7012283600273F4E70368A0
:101CE0000200BA20012110B58000B8241150002054
:101CF000A400105554331A88114302221980198800
:101D00000A431A8010BD7047821D03000020D0874F
:101D1000014A0233DA87704780BFFFFF0230C38F6A
:101D2000024A1340C38700207047C0467F4000002E
:101D300084B010B50400049205930122831C002096
:101D4000DA87D887A31D5034D8870391208010BC30
:101D500008BC04B018470000F7B50D780300AD00CB
:101D600045192C888E4AC878144003284BD801F0B6
:101D7000E1FD02484643802292001443894A8A4F7B
:101D80001443A4B22C800E78BC46B5005D192C8893
:101D90003C4034431E001443A4B22C800D7B0C78CD
:101DA0005036002D00D076E0E400E418CD88019490
:101DB0004C786D086D00002C2AD03688019C3419AF
:101DC0008026F600A41925800C78A4001C1925880B
:101DD0006D0604D525882F40744D2F4327800C783D
:101DE000C978A4001B19724C01290ED019880C4027
:101DF000202161400A439FE0C022D200144300200A
:101E0000BCE78022F9E70120B8E719882140F1E713
:101E10003788019C3C19674FE41925800C78358878
:101E2000E400654EE418A41964190D69002D1DD154
:101E30002588624E35408026258025883602354328
:101E400025800C78A4001C1925886D0405D56646EC
:101E5000258835405A4E354325800978594C8900EC
:101E60005B1819880C40C0218901C2E73E2D06D8B5
:101E700001276E083D407619B602B5B2E0E71F278C
:101E80006E093D406F427D41761BB5024E4E2E439A
:101E9000B6B22680D5E7CD78A4001C19022D4ED10C
:101EA00025883D40494F3D43802725800C78358863
:101EB000E400FF001C19E41964190D896D086D0018
:101EC00025800C783588E4003A4E1C19A419802628
:101ED00064194D89F6016D086D0025800C784F78E6
:101EE000A400334D1C19002F2FD12788374205D06D
:101EF000674626883E40324F3E4326800C78A40039
:101F00001C192688760605D5674626883E40274F49
:101F10003E4326800E782B4CB6009E19378827400A
:101F2000C024A4017C401443A4B234800978890001
:101F30005B1819880D402A4392B21A80FEBD25888D
:101F4000234F3D401543ADB2AEE72788374205D059
:101F5000674626883E401A4F3E4326800C78A400F0
:101F60001C192688760605D5674626883E400F4F01
:101F70003E4326800C78CE78A4001C19012E0CD08C
:101F800026882E40202575401543ADB2258009785E
:101F90000C4C89005B18198838E726883540F3E730
:101FA0008F89FFFF8080FFFF8F8FFFFFC0800000C1
:101FB000BF8FFFFF0404000006040000FF83FFFF43
:101FC00080C000008FBFFFFF0080FFFF8081000006
:101FD0008F8EFFFFF0B50B780D7B9B004C78404A4D
:101FE000C318002D21D1002C10D01C88640605D503
:101FF0001C883C4D2C403C4D2C431C800B783B49AD
:102000009B00C01803880B401A433FE01C886404FF
:1020100005D51C88334D2C40354D2C431C800B7846
:1020200034499B00C0180388EDE780262D4D2F4FC3
:10203000F601002C2ED11C88344204D01C882C4E72
:102040002C4034431C800B782B4C9B00C3181E88FB
:10205000760604D51E882E402643B6B21E800B7825
:102060009B00C3181E8835402C43A4B21C800C78FA
:10207000204DA400041923882B4013439BB22380D6
:102080000B789B00C01803881F403A4392B202802D
:102090000020F0BD1C88344205D01E88174C2E400D
:1020A0002643B6B21E800B789B00C3181E887406A8
:1020B00004D51E880C4C2E4026431E800B780F4CF6
:1020C0009B00C3181E8835402C43A4B21C800B789B
:1020D0009B00C3181C8827401743BFB21F809EE790
:1020E0008080FFFF8F8FFFFFC0800000BF8FFFFF4A
:1020F00080C000008FBFFFFFC080FFFF80C0FFFFD8
:102100000B780B4A9B00C0184B78002B09D0038832
:102110000849194010234B4013439BB20380002011
:10212000704703880449194080235B01F3E7C046E8
:102130008080FFFFBF8FFFFF8FBFFFFF0B7B10B5BE
:10214000002B1CD10B784A789B00C318002A18D0AA
:102150001A88520605D51A88134C2240134C224384
:102160001A80CB78012B0AD00B78114A9B00C0183B
:1021700003881A40202353400E4A13430380002053
:1021800010BD1A88520405D51A88074C22400A4C03
:1021900022431A800B78094A9B00C01803881A4012
:1021A000C0239B01E7E7C0468F8FFFFFC080000080
:1021B000BF8FFFFF8080000080C000008FBFFFFF47
:1021C000002902D180234C300380002070478022F8
:1021D00058300388120213430380002070470630F2
:1021E000C08F80B2704730B580240133E4001219EB
:1021F0005B0880185B00CB18401A4418994200D144
:1022000030BD4A780D7812022A4322800231F4E769
:10221000F7B50C0049780500227B012900D071E157
:102220002769A669BE4200D93E0063690193002A6E
:102230001ED1B6B23300E28801992800FFF7D3FF20
:102240002B00C04A503319882378AA18DB00521893
:102250009B181E802078BC4A80002D182B881A40BD
:1022600030235340B94A13439BB200202B80FEBD5C
:102270002078E1788200236AAA18022900D029E197
:1022800010889F4200D312E1B14F9B1B3840B14FE1
:1022900038431080207823628300EB181F8862780F
:1022A000B3B2790600D482E0002A52D12A0050321B
:1022B0001788A94AC000AA18D2191218002E35D1C1
:1022C0001088A64F38408027108010883F0238437E
:1022D0001080280062890199FFF785FF6369226AEF
:1022E0002069991961610023824201D9931B320050
:1022F0006078236293B200284CD1280050300788C0
:10230000904826782818F600C0193018002A2CD1D9
:102310000288924E32408026028002883602324382
:10232000028022892800FFF75EFF93E73E2E06D841
:10233000012770083740C019800280B2C8E71F2704
:102340003740794279417009401A870284483843FE
:10235000F3E7012ABDD12A007F49503212886F1855
:10236000BF18C00038180380B3E73E2A06D80127FB
:1023700056083A40B618B602B2B2D1E71F2756093E
:102380003A4057427A41B61AB202754E1643B6B277
:102390000680C6E70128C4D12A006A485032168850
:1023A00022782818D200801912181380B9E7002A61
:1023B0004FD12A0050321788624AC000AA18D21999
:1023C0001218002E32D11088644F384080271080B8
:1023D00010883F0238431080280022890199FFF7B6
:1023E00002FF6369226A20699919616100238242B0
:1023F00001D9931B32006078236293B2002849D13F
:10240000280050300788544826782818F600C0194C
:102410003018002A29D10288504E3240802602808E
:10242000028836023243028062897BE73E2E06D85C
:10243000012770083740C019800280B2CBE71F2700
:102440003740794279417009401A8702444838433D
:10245000F3E7012AC0D12A0050321788394AC00058
:10246000AA18D21910180380B6E73E2A06D8012709
:1024700056083A40B618B602B2B2D4E71F2756093A
:102480003A4057427A41B61AB202354E1643B6B2B6
:102490000680C9E70128C7D12A002F485032168884
:1024A00022782818D200801912181380BCE72D4E0C
:1024B00026493040084380B210802A00214950321A
:1024C000168822786818D200801912189BB21380DF
:1024D00022890FE01788C20028009B1B236250301E
:1024E000B3B20688790607D51B4968188019801889
:1024F00003806289019915E71249681880198018CC
:102500000380E5E7002A2FD1A36921698B4201D915
:102510005A1A0B00A2612A000F4950321088227803
:102520006918D20009188918002B00D0E7E00B8841
:102530000A4A134080220B800B88120213430B803F
:1025400077E0C04602040000BF8FFFFF8080FFFFDE
:102550008F8FFFFF8081000006040000FF83FFFFD4
:102560000080FFFF8F8EFFFFE378022B00D085E015
:1025700000291ED10300724A50331988237882182B
:10258000DB0052189A182369002B09D113886D4972
:102590000B4080211380138809020B43138008E04D
:1025A0003E2B1FD8012059080340C918890289B25F
:1025B000118062782378002A52D12A005032118883
:1025C000614ADB00AA185218D2182369002B14D1D3
:1025D00013885C490B4080211380138809020B4348
:1025E000138013E01F205909034058424341C91A80
:1025F000564B89020B439BB2D0E73E2B25D80120D6
:1026000059080340C918890289B21180E369002B77
:102610000FD023784E499B00EB181A880A408A4253
:1026200001D0002A05D11A884A490A404A490A437A
:102630001A802078494A80002D182B881A40C02320
:102640009B015340464A13430FE61F20590903409C
:1026500058424341C91A3D4B89020B439BB2BFE725
:10266000012AD3D12A0038495032128869188918B2
:102670002269DB00CB1892B21A80C7E7012083429F
:1026800000D0F4E5A36922690020934201D9981A89
:102690001300A061002913D12A0029495032108863
:1026A00022786918D20009185118002B14D10A8811
:1026B0002448024080200A800A88000202430A80DF
:1026C0006178227800292FD129001F4850310988CC
:1026D00028184118D20026E73E2B06D801205A08B8
:1026E00018401218920292B2E9E71F2018404642A1
:1026F00070415A09121A9002144A0243F3E73E2B22
:1027000007D801205A080340D218920292B20A80D8
:102710008FE71F205A09034058424341D21A0B4BFE
:10272000920213439BB20AE7012900D081E72900F6
:10273000503108880449D200691809188918F1E74E
:1027400002040000FF83FFFF060400000080FFFF7B
:10275000404000008F8FFFFFC08000008FBFFFFF51
:1027600080800000F0B580255C08ED00521926003D
:102770000D008018471A7A19002E07D1640000193D
:102780000919DB0701D503880B70F0BD1288013EE3
:1027900092B22A70120A6A700235ECE7014B186097
:1027A0007047C04670000020202303800048704717
:1027B000CC0000202023038000487047AC0000209C
:1027C0002023038000487047F80000200A2303807C
:1027D00000487047EC00002070B50600037C040040
:1027E000FC36002B1FD1802302229B000121FDF724
:1027F00091FE0125802335679B0002228121200064
:10280000FDF788FE9B20E5628000FDF723FFAE22E6
:1028100092000300A0500220002B03D0200000F003
:1028200001F9002070BD0125402302220121FDF79E
:1028300071FE40233567E0E770B504000121FDF724
:102840007BFE23000025AE26FC3381211D6720007E
:10285000FDF772FEB6002000E56200F012F9A05903
:10286000A84202D0FDF7FAFEA551002070BDAE23AC
:10287000F0B59B0085B0C75802AB0D00991D002331
:102880000B802B7860221E0004001640134231D0CA
:10289000202E04D16A78FE2A07D0FF2A1CD02900F6
:1028A000200000F0DFFF022621E06A880192002A62
:1028B000F5D1EE88012EF2D15BB2002BEFDAAF2317
:1028C0009B00C3589B69984732003900386020004C
:1028D00000F0F0FF019E0AE06A88002ADFD1EE884E
:1028E000002EDCD15BB2002BD9DB00F0BAF830004F
:1028F00005B0F0BD6B7801930B2BD0D8180001F018
:102900000FF80620CECECECECECECECE0D18A7233B
:102910009B00E35C032BC2D10222D8E7A7239B00D4
:10292000E35C032BBBD101222000391D00F0C2FF64
:10293000DDE7A7239B00E35C032BB0D1AB787B6082
:10294000D5E729792000FDF707FE29792000FDF75A
:10295000F3FD0F221423A9880A405343E318090604
:1029600015D500229A61237C93420DD18023023237
:102970009B0081212000FDF7CDFD0123E3622000B3
:10298000297900F039F9B2E740230222F1E7002269
:10299000FC33DA65237C93420BD1802302329B0007
:1029A00001212000FDF7B6FD23000122FC331A6748
:1029B000E5E740230222F3E710B500F089F8002094
:1029C00010BD10B500F0A2F8002010BD002902D003
:1029D000AF239B00C15000207047AE2370B59B0011
:1029E000C458A03BE35C0500002B0AD185239B0063
:1029F000E358002B05D0637A002B02D10121FDF7AB
:102A0000BBFD81212800FDF7B7FD637A022B08D1B9
:102A100083239B00E218EE3B01212800FF3BFDF7DA
:102A200001FE70BDAE239B0070B5C55804000020A8
:102A30005C3B2881E8526033E3581B6898470121CA
:102A40002000FDF789FD81212000FDF785FD83230E
:102A50009B00EA18EE3B01212000FF3BFDF7E2FD61
:102A600070BDAE239B00C258B93B10B5FF3B13812C
:102A70000D33FF33D218EE3B0121FF3BFDF7D2FDB2
:102A800010BDAE2300229B00C3581A72704700008D
:102A9000AE239B0070B50D4AC4588C3BE2500C33FA
:102AA000E154002323728B239B00E21881210D2324
:102AB0000500FDF7A7FD83239B00E218EE3B2800ED
:102AC0000121FF3BFDF7AEFD70BDC046555342539B
:102AD000AE2310B59B00C15804000B7A022B04D022
:102AE000033B0021012B09D910BD064BCA18064B28
:102AF000C95C00F0AFF80028F6DA01212000FFF7EA
:102B0000C7FFF1E71B02000019020000F8B5AE276D
:102B1000BF00C4590500237A002B02D0012B59D0E5
:102B2000F8BD842385269B00E258B6002033E2508E
:102B3000A2590433E2500121FDF784FD2A4A1F28DF
:102B40000DD183218900294B6158994207D1A15C9D
:102B5000012904D8264BE35C013B0F2B0BD9202322
:102B6000A15C2800052200F0E3FA0223637228002A
:102B7000FFF733FFD4E71F4B2800E21800F06AF894
:102B8000237A002806DA052BF1D101212800FFF76E
:102B90007FFFC5E7013B022BC2D96389002B17D009
:102BA0002200E95918008C590C329C4200D2A3B281
:102BB0008D26B6008C59201A88518E200024800062
:102BC0000C540420087281212800FDF71BFDA7E7A3
:102BD0001900DBE7074BE218034BE15C00F03AF821
:102BE00000289DDAD1E7C046190200005553424340
:102BF0001A0200001B020000AE2310B59B00C4584F
:102C0000637A022B05D18121FDF7B6FC00236372A4
:102C100010BD49B20029FBDA012BF9D00121FFF7E1
:102C200037FFF5E7AE2330B58F259B00C258084C1F
:102C3000AD00135DD8001018415500210133043553
:102C4000DBB24155042B01D0135530BD1155FCE7C3
:102C50005D020000F0B50500107887B01700009104
:102C60002F282AD819280DD8032858D0122800D187
:102C700087E0002833D0012405212800FFF7D2FF88
:102C8000644238E01A381528F5D800F05DFEAD0032
:102C9000A700F4FFF4FFA700F4FFF4FFF4FFF4FF34
:102CA000BD00F4FFEA00F4FFF4FF0B01F4FF99010B
:102CB000F4FFF4FFF4FFF4FF37025A28DBD1AE2310
:102CC00008229B00EB58B8495A811A000B33133283
:102CD0000878013A507001399A42F9D10AE0AE23DE
:102CE0009B00EE58A43BF758002F07D00521280081
:102CF000FFF798FF0024200007B0F0BDAF239B0032
:102D0000EB5800989B689847041E06D002212800C3
:102D1000FFF788FF05233372ECE77081EBE7AE2302
:102D20009B00EA580024130011000C331E311C7064
:102D300001338B42FBD17023972013739B49643B73
:102D4000D3748000135C515C994211D08F25D90057
:102D50005118AD004D5D01339573954DDBB24D5D5E
:102D600015769025AD00495D5176042B07D013549C
:102D7000122353813B79122BBCD85381BAE71454E8
:102D8000F6E7AE239B00EA587B78DB070CD50723D8
:102D900053811300874912330B320878013B587076
:102DA00001399342F9D1A5E7AF23242100989B0074
:102DB0004143EB583C79DB69201C59180B790533EA
:102DC0009C4200D9181C83B25081002B00D191E79E
:102DD000013B9BB2CC5CD0180473F6E7AE23002411
:102DE0009B00EB585C8186E7AE2308229B00EB58E2
:102DF00071495A811A000B3313320878013A507026
:102E000001399A42F9D175E7AE239B00EC580021B5
:102E1000230022000C331832197001339A42FBD17F
:102E200004AB9E1CAF239B00EB5832005B680098FC
:102E300005A99847002801D0022158E70823E37329
:102E4000059B013B1A0E22741A0C6274E3741A0A71
:102E50003388A2745BBA0222E3820C23A2826381CC
:102E600048E7AE239B00EE58544B0098F21802330B
:102E7000F1185C33EB585B689847041EDCD198234B
:102E80009B00F358013B1A0E32731A0C7273F373E2
:102E90001A0A4A4BB273F35A30825BBA7382082320
:102EA000738128E7AE26B600AC59237A002B36D1C1
:102EB00086239B00E35C7F2B00D817E7AF239B00A2
:102EC000EB5800989B6898470028B5D1FB78BA78F2
:102ED0001B0213433A79A859120413437A79120654
:102EE0001A43992312BA9B00E2503B7AF9791B02EC
:102EF0000B439A215BBA9BB2890063500839415851
:102F0000D2188A4200D9F1E6022222722B4AA25A32
:102F1000534385229200A2589A4200D0E6E6AE22A0
:102F200080239A209200AE589B00244A638180003F
:102F3000B15A375802924F439F4200D91F003300C5
:102F400038000C33019300F013FDAF229200AA5811
:102F500083B212690199140099229200B258009824
:102F6000A047002801DA0421C1E6019ABBB2812101
:102F70002800FDF747FB029B3800F15A00F0F8FCEF
:102F800099229200B3581B18B3509A239B00F25811
:102F9000141AF450343BF258D71BF750002C00D0D1
:102FA000A8E603233372A6E6A13D00085D020000F7
:102FB00041020000B03D0008A93D00085E0200008B
:102FC000AE239B00EE58337A002B4CD186239B0016
:102FD000F35C7F2B00D989E6AF24A4002B5900981D
:102FE0009B689847002800D026E72B590098DB689B
:102FF0009847041E00D01FE7FB78BA781B021343E2
:103000003A79120413437A7912061A43992312BAB1
:103010009B00F2503B7AF9791B020B439A215BBA71
:103020009BB2890073505031685858394158D218B2
:103030008A4200D95AE63D4AB25A53438522920049
:10304000B258934200D051E601223272802292009F
:10305000934200D913003200012128009BB20C32A8
:10306000FDF7E0FA47E69A23304F9B00F15BF358F7
:1030700003974B4301938023019A9B009A4200D906
:103080000193330001980C33029300F071FCAF22DE
:1030900099249200AA58A400526983B21700029999
:1030A00032590098B847002800DA5CE7039B019882
:1030B000F75A390000F05CFC335901991B18335161
:1030C0009A239B00F258141A8D229200F450B358A0
:1030D0005B1AB350002C04D121002800FFF7D8FC64
:1030E00009E680237C439B009C4200D91C000121FF
:1030F0002800029AA3B2FDF795FAFBE5AE23797892
:103100009B000C00EA5802231C40194200D0EDE558
:1031100099239B00D1580433D358C91898239B0096
:10312000D358994200D9E1E55481E4E55E020000FC
:10313000AE2330B58F259B00C158084CAD000B5D08
:10314000D80008184255002201330435DBB242553D
:10315000042B01D00B5530BD0A55FCE75D02000081
:10316000022310B5002813D0AD239B00C458002CB7
:1031700001D00024C450002902D0AC239B00C150D0
:10318000A72301219B00C1540270FDF77BF90023A6
:10319000180010BD03000220002903D0AD2200203A
:1031A00092009950704710B5FDF7A4F9002010BDAA
:1031B000AD239B00C35810B5002B01D1022010BDD8
:1031C0001B6898470028FAD0F8E7AD2310B59B009C
:1031D000C3585B689847002010BD0000AA239B00DD
:1031E00070B5C5180400280000F028FBA5230122B3
:1031F0009B00E250114BE25A163BE2501033E15C67
:103200001F230B40012B09D0022B0CD0002B0FD118
:103210002900200000F01EF9002070BD29002000C8
:1032200000F04EFAF8E72900200000F071FAF3E709
:103230007F2320009943FDF79FF9EDE7AE020000E0
:1032400070B50D0004001100002D2ED1A5239B00A8
:10325000C258032A22D102005532FF32D3681069C6
:1032600083420AD91B1AD36082B2984200D99AB21B
:10327000200000F035FB280070BDAD239B00E35813
:103280001B69002B06D0A7229200A25C032A01D161
:1032900020009847200000F02BFBECE7052AEAD13C
:1032A0002900C550FDF768F9E5E7AD239B00C35839
:1032B0009B69002B08D0A7229200825C032A03D1CD
:1032C000290098470025D6E70225D4E7F8B50D0078
:1032D00004001100002D4DD1A5239B00C358022BE3
:1032E00041D1036A466AB34213D99B1B03629AB267
:1032F00000F0EEFA2B002A0029002000FDF792F9D9
:10330000A8239B00E25C012A01D10022E25428009C
:10331000F8BDC7693100380000F0B0FB00290DD1BD
:10332000BE420BD8A626B600A3599F4206D22A0059
:103330002900200000F0CCFAA551DBE7AD239B006B
:10334000E358DB68002B06D0A7229200A25C032A78
:1033500001D12000984780212000FDF70DF92000C1
:1033600000F0D2FACCE704229343C9D18021FDF7C3
:1033700003F9C5E7AD239B00C3585B69002B08D058
:10338000A7229200825C032A03D1290098470025D6
:10339000BDE70225BBE7002270B504001100402301
:1033A000FDF7B8F8230001254026FC338021DD65B8
:1033B0009E66002233002000FDF7ACF8A723002111
:1033C0009B00A5616662E554083BE15010336160E3
:1033D000E1501433E3588B4205D0AD239B00E358F2
:1033E00020005B689847002070BD01740020704782
:1033F000A7239B00C15C034A81540422C2540020CD
:103400007047C0469D020000A7239B00C25C042AAF
:1034100002D1024A825CC254002070479D02000023
:10342000A72310B59B00C35C032B06D1AD239B00E3
:10343000C358DB69002B00D09847002010BD10B5A1
:1034400004008021FDF798F800212000FDF794F892
:1034500010BD000060220B7873B513400D001900F9
:10346000921820390400114212D0002B00D096E0AF
:103470006878092800D992E000F070FAF0000E0197
:10348000910006019100830012009100DA00A4006F
:10349000AD239B00C35829009B689847002076BD48
:1034A00000236A46D3806B88180A0138062876D82C
:1034B00000F040FA0417267575404B00AC239B00C2
:1034C000E358207C1B686A46911D98476B46D98853
:1034D000002951D0EA88002A43D1200000F008FAE0
:1034E000DCE7AD23227C9B00E358002A06D19B6ACF
:1034F0006A46901D984702234370E7E7DB6AF7E7C7
:10350000D8B205284BD8AC239B00E35800F012FA40
:1035100003080A0C0E105B68002B40D0207CD2E719
:103520009B68F9E7DB68F7E71B69F5E75B69F3E799
:103530009B69F1E7237C002B31D1AD236A469B00C8
:10354000E358901D5B6B9847C0E7237C002B26D186
:10355000AD236A469B00E358901D1B6B98470723D9
:10356000CAE70B1C914200D9131C69469AB2CB8062
:103570000100200000F09EF9EB88002B00D08DE7C1
:10358000ABE7AB88002B0AD1EB88002B07D16E8804
:103590007F2E04D8A725AD00635D032B03D1200047
:1035A000FFF74DFF7AE7444BF1B2E1542000FDF7FD
:1035B00019F8200000F09CF90223002E00D101230D
:1035C00063556BE7A9783D4D29700129E7D8A723FA
:1035D0009B00E25C022A09D0032A15D02000FFF7E5
:1035E0002EFF20002978FFF7F0FD57E7002900D1D2
:1035F00073E7012103226160E2542000FFF7D8FD48
:10360000022800D069E7CAE7002906D1022220007B
:10361000E2546160FFF7D9FD5FE76168012900D1DD
:103620005BE7C9B22000FFF7D0FD29786160E4E7CD
:10363000EA88012AB3D1A7239B00E35C022B06D8BA
:10364000002BACD000232100A360083102E0211D33
:10365000032BA4D1200000F02DF91FE7A7239B0026
:10366000E35C013B022B9AD8EB88022B97D1013BFC
:10367000E360A9239B00E358002B01D00323E36000
:10368000210002220C31E5E76B88012B00D005E711
:10369000A9229200A35020E7A7239B00E35C013BF3
:1036A000022B00D97BE76B88012B00D0F6E6A9231B
:1036B00000229B00E25010E79E02000074050020EB
:1036C00060230A7870B5134004000D00402B01D030
:1036D000530619D4A7239B00E35C013B022B13D8AC
:1036E0002B79012B10D8AD239B00E35829009B6850
:1036F00020009847EB88002B04D1002802D120003D
:1037000000F0F6F8002070BD2000FFF798FEF9E702
:103710000A780B0060210A4070B5040010004918B7
:103720002038084229D0002A37D198885A78C1B267
:10373000012A45D0032A29D0002A2ED1A7239B0095
:10374000E35C022B56D0032B27D10F2214230A400F
:103750005A43A21800065DD59269002A1DD07F2524
:103760000D4001355D437F230A0065191A40194257
:103770005AD12A600222290048E0AD229200A258C4
:103780001900200092689047002070BDA722920087
:10379000A25C022A24D0032A03D02000FFF74FFEA8
:1037A000F2E75A88002A07D14A0605D0DB88002BA9
:1037B00002D12000FCF7E0FE200000F099F8E3E7DA
:1037C000A7229200A25C022A0AD0032AE5D15B88D4
:1037D000002BD9D14B06EFD02000FCF7DDFEEBE744
:1037E0004B06DAD02000FCF7C7FE80212000FCF752
:1037F000C3FEC9E74B06D0D121005531FF31030686
:1038000001D54139FF39002302220B60200000F06E
:1038100051F8B9E7FC32D26D002ABED07F250D40A9
:103820005D435535FF359EE72000FCF7C5FE0028B7
:1038300002D001232B609DE728609BE70B78037083
:103840004B784370CA788B7812029B1843804A7970
:103850000B7912029B188380CA798B7912029B180C
:10386000C380704710B504008021FCF785FE00215D
:103870002000FCF781FE10BD70B50025461EA84251
:103880000FD02B000135745D002CFAD1DBB201336F
:103890005B0013800B7003234B70013B0578002DF8
:1038A00000D170BD5A1CCD54D2B202330130DBB20C
:1038B0008C54F3E71300A52210B502249200845023
:1038C0000A00C36100210362FCF79CFE002010BDCA
:1038D00010B513000A000021FCF794FE002010BD73
:1038E00010B513000A000021FCF79CFE002010BD5B
:1038F000A52304229B0010B5C25000231A00190012
:10390000FCF780FE002010BDA52305229B0010B50A
:10391000C25000231A001900FCF784FE002010BDDD
:1039200002B4714649084900095649008E4402BC58
:103930007047C04602B4714649084900095C490015
:103940008E4402BC7047C04603B47146490840002B
:103950004900095E49008E4403BC704703B47146B8
:10396000490840004900095A49008E4403BC704789
:10397000002243088B4274D303098B425FD3030AAE
:103980008B4244D3030B8B4228D3030C8B420DD3C1
:10399000FF22090212BA030C8B4202D3121209024F
:1039A00065D0030B8B4219D300E0090AC30B8B428D
:1039B00001D3CB03C01A5241830B8B4201D38B033B
:1039C000C01A5241430B8B4201D34B03C01A5241E0
:1039D000030B8B4201D30B03C01A5241C30A8B4223
:1039E00001D3CB02C01A5241830A8B4201D38B020E
:1039F000C01A5241430A8B4201D34B02C01A5241B2
:103A0000030A8B4201D30B02C01A5241CDD2C30923
:103A10008B4201D3CB01C01A524183098B4201D39F
:103A20008B01C01A524143098B4201D34B01C01A8A
:103A3000524103098B4201D30B01C01A5241C30802
:103A40008B4201D3CB00C01A524183088B4201D371
:103A50008B00C01A524143088B4201D34B00C01A5D
:103A60005241411A00D20146524110467047FFE7C9
:103A700001B5002000F006F802BDC0460029F7D0CD
:103A800076E770477047C04670B500260C4D0D4C68
:103A9000641BA410A64209D10026FCF711FB0A4DB5
:103AA0000A4C641BA410A64205D170BDB300EB58AC
:103AB00098470136EEE7B300EB5898470136F2E736
:103AC000B43D0008B43D0008B43D0008B83D00080E
:103AD000002310B59A4200D110BDCC5CC454013310
:103AE000F8E703008218934200D170471970013340
:103AF000F9E70023C25C0133002AFBD1581E70474E
:103B000001B40248844601BC604700BF190100208F
:103B100001B40248844601BC604700BF4D0100204B
:103B200001B40248844601BC604700BFB1010020D7
:103B300001B40248844601BC604700BF7101002007
:0C3B4000F8B5C046F8BC08BC9E467047B3
:103B4C000008005008010000000100000002010202
:103B5C005049434F4E4F4D49580053544D3332202A
:103B6C004D6173732053746F72616765004D5343DD
:103B7C0020436F6E666967004D534320496E746530
:103B8C00726661636500008002021F0000005058DD
:103B9C002020202020204845524F2020202020206B
:103BAC00202020202020302E30310000000000503A
:103BBC00A0C3E82B00000000000000084A28106495
:103BCC000402000000440000400400000004005007
:103BDC009F1A5AA9000300008008A0880041052004
:103BEC0044170000000000004400000000080050D2
:103BFC00007FA1F00000000000200000A900440597
:103C0C00000100000000000200660000000C0050E3
:103C1C00DFFFFFFF000000000000000000000000BC
:103C2C00040000000000000000000000001C005018
:103C3C00F1FFFFFF00000000000000000400000086
:103C4C00000000000000000000000000EB3C90555C
:103C5C004632205546322000020101000240007E0F
:103C6C003EF03F00010001000000000000000000D9
:103C7C00800029420042004845524F2D424F4F547C
:103C8C00200046415431362020200000494E464F3A
:103C9C005F55463254585400453D0008494E444542
:103CAC005820202048544D00C83C0008435552521F
:103CBC00454E542055463200000000003C21646FF4
:103CCC0063747970652068746D6C3E0A3C68746D21
:103CDC006C3E3C626F64793E3C7363726970743EF7
:103CEC000A6C6F636174696F6E2E7265706C6163C0
:103CFC0065282268747470733A2F2F7069636F6E25
:103D0C006F6D69782E636F6D2F70782D66776C6987
:103D1C00622F696E6465782E68746D6C22293B0A7B
:103D2C003C2F7363726970743E3C2F626F64793EF2
:103D3C003C2F68746D6C3E0A0055463220426F6F02
:103D4C00746C6F616465722076312E302E30204693
:103D5C000D0A4D6F64656C3A205069636F6E6F6D20
:103D6C0069782050582D4845524F0D0A426F6172A8
:103D7C00642D49443A2053544D33324C303732522F
:103D8C00422D50584845524F2D76310D0A000006F1
:103D9C000000000000000000000000000000000017
:083DAC00000300808300000009
:043DB400F90000080A
:043DB800D10000082E
:103DBC00610600086D060008E1060008FD06000813
:103DCC009D060008190700083507000812010002BB
:103DDC000000004083042A57000201020301000086
:103DEC00040309041A030000000000000000000096
:103DFC0000000000000000000000000000000000B7
:103E0C0051070008550700088507000881070008BE
:103E1C00750700086907000865070008923B000851
:103E2C0000002000D9270008392800086F28000856
:103E3C000000000000000000B9290008C329000898
:103E4C00000000000000000000000000A92700088E
:103E5C00B5270008C1270008CD270008090220005B
:103E6C00010104C0320904000002080650050705D0
:103E7C0081024000000705010240000009022000F9
:103E8C00010104C0320904000002080650050705B0
:103E9C008102000200070501020002000A0600026E
:103EAC00000000400100000009072000010104C0CF
:103EBC003209040000020806500507058102400083
:103ECC000007050102400000EFF3108272B6064BAA
:103EDC000649D9600649D960064919610649196134
:103EEC0082F310887047C04600200240EFCDAB89AA
:103EFC0005040302BFAE9D8C16151413EFF310814D
:103F0C0072B60222054B586802435A600122586867
:103F1C0002435A6081F310887047C046002002406B
:103F2C0010B5EFF3108172B682220B4B92005C68D5
:103F3C0022435A6000220260013298691042FCD17F
:103F4C0002229869104200D09A615A6803480240D4
:103F5C005A6081F3108810BD00200240F7FDFFFF6E
:103F6C0030B5EFF3108472B681220D4BD2005D6830
:103F7C002A435A600A00403220C905609142FBD1A5
:103F8C00012299691142FCD102229969114200D097
:103F9C009A615A6803490A405A6084F3108830BD0C
:083FAC0000200240F7FBFFFFBB
:0400000508000119D5
:00000001FF
