:10000000C2C70000DDC70000DBC70000D9C7000081
:10001000D7C70000D5C70000D3C700000C94DE1777
:10002000CFC70000CDC70000CBC700000C94450C23
:10003000C7C70000C5C70000C3C70000C1C7000094
:10004000BFC70000BDC700000C9491180C94C618DF
:100050000C94F8180C94700BB3C70000B1C70000E3
:10006000AFC70000ADC70000161029103C104F109C
:10007000621075108B10A4104522472249224B2292
:100080004D224F22512253225522602262226422A5
:10009000662268226A226C226E2270226E616E00D5
:1000A000696E66004E414E494E495459494E46CDFF
:1000B000CCCC3D0AD7233C17B7D13877CC2B32951F
:1000C00095E6241FB14F0A000020410000C84200FD
:1000D000401C4620BCBE4CCA1B0E5AAEC59D7400C7
:1000E000407A10F35A00A0724E18090010A5D4E807
:1000F0000000E87648170000E40B54020000CA9A9A
:100100003B000000E1F505000080969800000040EB
:10011000420F000000A08601000000102700000030
:1001200000E803000000006400000000000A000076
:100130000000000100000000002C76D888DC674F2A
:100140000823DFC1DFAE59E1B1B796E5E3E453C65A
:100150003AE651997696E8E6C28426EB898C9B6252
:10016000ED407C6FFCEFBC9C9F40F2BAA56FA5F4FC
:1001700090055A2AF75C936B6CF9676DC11BFCE024
:10018000E40D47FEF520E6B500D0ED902E03009477
:100190003577050080841E080000204E0A0000000C
:1001A000C80C333333330F986E12831141EF8D2116
:1001B00014893BE65516CFFEE6DB18D1844B381B7D
:1001C000F77C1D901DA4BBE424203284725E228142
:1001D00000C9F124ECA1E53D276364696E6F70737B
:1001E0007578585B004144432564203A205363618D
:1001F0006C65203D2025662C204F66667365742053
:100200003D2025660A004E756D626572206F66207E
:1002100073616D706C6573203D2025640A00536125
:100220006D706C696E672072617465203D2031309D
:10023000303020487A0A004572726F722E20556E57
:1002400061626C6520746F20636F6E7665727420D6
:100250003C6F66667365743E20746F20666C6F61D8
:1002600074004572726F722E20556E61626C65204B
:10027000746F20636F6E76657274203C7363616C7B
:10028000653E20746F20666C6F6174004572726FFA
:10029000722E203C63683E206D7573742062652069
:1002A0003020746F2033004572726F722E203C6EC6
:1002B00072206F662073616D706C65733E206D7582
:1002C00073742062652031303020746F20363030F6
:1002D000303000253034750925660A004572726F8A
:1002E000722E203C63683E206D7573742062652019
:1002F0003020746F203300092566002530356400F6
:10030000E60C4004360EDF03D80D8403EF0D5B03CB
:10031000390D2003000000001C030003616463002A
:10032000580300005703280353616D706C6520610A
:100330006C6C20414443206368616E6E656C732071
:10034000756E74696C205350414345206973207069
:100350007265737365640000736300820301017D3D
:1003600003630353616D706C652073696E676C6520
:1003700020414443206368616E6E656C003C636895
:100380003E007300D3030101C3038C035365742043
:100390006E756D626572206F662073616D706C653D
:1003A0007320616363756D756C6174656420666F3D
:1003B00072206561636820414443206368616E6E0A
:1003C000656C003C6E72206F662073616D706C65A9
:1003D000733E006366675F73616D706C6573003CAC
:1003E0000403032604E703436F6E6669677572654D
:1003F000206C696E65617220666974206F662041A9
:100400004443206368616E6E656C202879203D202E
:100410007363616C65207820414443202B206F6614
:100420006673657429003C63683E203C7363616CAD
:10043000653E203C6F66667365743E0063666700C8
:100440005D0400005C0448045265706F72742041C2
:1004500044432073657474696E67730000696E6647
:100460006F007D0EA404810E76040000000072046B
:1004700062046C656400A00400009F047E0444696B
:100480007361626C65204C45442028696620535096
:1004900049206973206E6F742075736564290000AC
:1004A0006F666600CE040000CD04AC04456E616248
:1004B0006C65204C45442020286966205350492013
:1004C0006973206E6F7420757365642900006F6E08
:1004D000002870756C6C2D75702044697361626CB6
:1004E000656429002870756C6C2D757020456E61EF
:1004F000626C65642900494E203D20302000494E41
:10050000203D20312000444952203D20492C20002C
:1005100028494E203D2030290028494E203D2031D9
:1005200029004F5554203D203020004F5554203D88
:1005300020312000444952203D204F2C2000203AF9
:100540002000203D203078253032782020200044C3
:100550003900443800443700443600443500443400
:100560000044330044320050494E442000504F5262
:1005700054440044445244200050494E432000500B
:100580004F5254430044445243200050494E4220AD
:1005900000504F525442004444524220000A20204E
:1005A0002020202020204845582020202037203699
:1005B00020352034203320322031204F0A0070753E
:1005C00000310A00300A004572726F722E203C70B2
:1005D000696E3E20737566666978206D7573742048
:1005E000626520302E2E37004572726F722E203CCD
:1005F00070696E3E20707265666978206D757374DF
:1006000020626520622C2063206F72206400457296
:10061000726F722E203C70696E3E206D757374206F
:10062000626520322C332C342C352C362C372C3868
:10063000206F722039002E0F3607CB1102076A1186
:10064000AE0630117B060B11570600000000520663
:1006500036066770696F007906010173065F0652FE
:10066000656164204750494F2070696E20696E7043
:100670007574003C70696E3E006900AC060202A011
:100680000683065772697465204750494F20706988
:100690006E206F75747075742030206F7220310079
:1006A0003C70696E3E203C307C313E006F00FF069E
:1006B0000102F406B606436F6E66696775726520BF
:1006C0004750494F2070696E20617320696E7075C4
:1006D000742E204F7074696F6E616C6C7920507548
:1006E0006C6C55702063616E20626520656E61627E
:1006F0006C6564003C70696E3E205B70755D0063E4
:1007000069003307020227070A07436F6E666967AD
:10071000757265204750494F2070696E20617320C3
:100720006F7574707574003C70696E3E203C307C4F
:10073000313E00636F00500700004F073E075265CF
:10074000706F7274204750494F20696E666F0000C9
:10075000696E666F004572726F722E20534441209D
:10076000697320302E20547279204932432042751B
:10077000732052657365742070726F63656475725F
:10078000650A004572726F722E2053434C206973C4
:1007900020300A00310A00300A00534441203D2035
:1007A00000310A00300A0053434C203D20004572BE
:1007B000726F722E2053434C20697320302E2049D3
:1007C00032432042757320726573657420726571BF
:1007D00075697265732053434C20746F20626520E5
:1007E00072656C6561736564004572726F722E206C
:1007F00053444120697320302E20547279204932AD
:1008000043204275732052657365742070726F6364
:1008100065647572650A004572726F722E205343CB
:100820004C20697320300A002530325820520A00CB
:100830002530325820570A004572726F72210045E8
:1008400072726F722E203C646174613E206174206C
:10085000696E64657820256420696E76616C6964D0
:100860000A004572726F722E203C6164723E206DE8
:10087000757374206265203020746F203132370028
:100880002530325820004572726F72210045727215
:100890006F722E203C6E72206F66206279746573D1
:1008A0003E206D757374206265203120746F203195
:1008B00036004572726F722E203C6164723E206D6C
:1008C000757374206265203020746F2031323700D8
:1008D0002C12E2094413B50960138509E1123C09A1
:1008E0007212F00800000000EC08D00869326300C2
:1008F0003A0902022609F8085265616420757020E1
:10090000746F203136206279746573206F662064BD
:100910006174612066726F6D20616E2049324320E0
:10092000736C617665003C6164723E203C6E72209F
:100930006F662062797465733E0072008309010955
:1009400070094409577269746520757020746F20AE
:1009500038206279746573206F6620646174612049
:10096000746F20616E2049324320736C617665009C
:100970003C6164723E203C64303E202E2E205B643D
:10098000375D007700B0090000AF098D095363613E
:100990006E20666F7220616C6C20636F6E6E656393
:1009A0007465642049324320736C6176657300007E
:1009B0007363616E00DE090000DD09BD09506572D8
:1009C000666F726D204932432062757320726573C1
:1009D00065742070726F6365647572650000727370
:1009E00074000D0A00000C0AEA095265706F7274F7
:1009F00020737461747573206F662053434C2061BB
:100A00006E64205344412070696E730000696E6605
:100A10006F002E14550ACC13260A00000000220A8B
:100A2000120A72746300530A02023D0A2E0A5772B8
:100A3000697465205254432074696D65003C79796E
:100A40002D6D6D2D64643E203C68683A6D6D3A737F
:100A5000733E0077006C0A00006B0A5D0A52656104
:100A600064205254432074696D6500007200446F25
:100A70006E652E2041637475616C2062617564201F
:100A800072617465203D20256C7520487A0A004506
:100A900072726F722E20496E636F7272656374207A
:100AA000706172616D61746572733B20756E616215
:100AB0006C6520746F20696E697469616C69736517
:100AC00020535049004572726F723A205B6F726416
:100AD00065725D206D757374206265206C73622091
:100AE0006F72206D7362006C7362006D7362000040
:100AF0004572726F722E205B6D6F64655D206D753F
:100B0000737420626520302C20312C2032206F72CB
:100B10002033004572726F722E205B626175645DD6
:100B2000206D757374206265203020746F20256CF1
:100B30007520487A0A004572726F723A20496E76C3
:100B4000616C696420706172616D65746572006CBE
:100B50006F00686900004572726F722E203C6461FC
:100B600074613E20617420696E646578202564207C
:100B7000696E76616C69640A0030782530327820BD
:100B8000004572726F722E203C6E72206F6620627A
:100B9000797465733E206D75737420626520312011
:100BA000746F20313600307825303278200045725D
:100BB000726F722E203C646174613E206174206902
:100BC0006E64657820256420696E76616C69640ABC
:100BD000009D14F60C2D16C00C50147D0CD5153745
:100BE0000C6815F10B00000000ED0BD10B73706960
:100BF00000350C0108280CF90B45786368616E67B5
:100C00006520757020746F203820627974657320B8
:100C10006F66206461746120746F20616E20535090
:100C20004920736C617665003C64303E202E2E2096
:100C30005B64375D0078007B0C01016D0C3F0C524A
:100C400065616420757020746F203136206279747C
:100C50006573206F6620646174612066726F6D2019
:100C6000616E2053504920736C617665003C6E7252
:100C7000206F662062797465733E007200BE0C01BD
:100C800008B10C850C577269746520757020746FFB
:100C90002038206279746573206F66206461746106
:100CA00020746F20616E2053504920736C6176650B
:100CB000003C64303E202E2E205B64375D007700C0
:100CC000F30C0101EB0CC80C54616B6520636F6E73
:100CD000666967757265642043532070696E206C85
:100CE0006F77206F722068696768003C6C6F7C6862
:100CF000693E00637300270D00050C0DFE0C436F69
:100D00006E66696775726520535049005B63735D59
:100D1000205B626175645D205B6D6F64655D205B67
:100D20006F726465725D006366670000006E0400A8
:100D3000004E06000018030000E8080000E90B0060
:100D4000001E0AB21E4B0D00000000B30D00019BF7
:100D50000D530D446973706C6179206C6973742054
:100D60006F6620636F6D6D616E6473207769746860
:100D70002068656C702E204F7074696F6E616C6CAA
:100D80007920746865206C6973742063616E2062D9
:100D90006520726564756365642E005B636D64280D
:100DA00073292073746172747320776974682E2EAE
:100DB0002E5D0068656C7000205F5F5F5F20202003
:100DC0005F5F20205F5F20544D0A7C20205F205C05
:100DD00020205C205C2F202F0A7C207C5F29207C37
:100DE00020205C20202F0A7C20205F5F2F202020E5
:100DF0002F20205C205049434F4E4F4D4958202D05
:100E000020456D62656464656420456C6567616E4C
:100E100063650A7C5F7C20202020202F5F2F5C5F91
:100E20005C2020202068747470733A2F2F706963DF
:100E30006F6E6F6D69782E636F6D0A0A00203A201D
:100E4000004572726F7221204E756D626572206F5F
:100E50006620706172616D657465727320696E637E
:100E60006F72726563740A004572726F722120435B
:100E70006F6D6D616E64206E6F7420666F756E6449
:100E80000A0054797065202768656C702720746F9C
:100E900020676574206C697374206F6620636D64CD
:100EA0007320776974682068656C7020646573636B
:100EB00072697074696F6E730A0A5441422020206F
:100EC000746F206379636C652F6175746F636F6DE8
:100ED000706C65746520636D642873290A55502F02
:100EE000444E20746F20726563616C6C206F6C647B
:100EF00020636D647320696E20686973746F727902
:100F00000A454E54455220746F20657865637574A8
:100F10006520636D640A3C2E2E2E3E206172652092
:100F2000726571756972656420706172616D657456
:100F30006572730A5B2E2E2E5D20617265206F70C4
:100F400074696F6E616C20706172616D6574657239
:100F5000730A0A0025303268752D25303268752DE8
:100F600025303268752025303268753A2530326870
:100F7000753A253032687500001F1C1F1E1F1E1F8A
:100F80001F1E1F1E1F0011241FBECFEFD8E0DEBFA3
:100F9000CDBF12E0A0E0B1E0E4EBF8E502C00590BF
:100FA0000D92A232B107D9F724E0A2E2B2E001C06B
:100FB0001D92A137B207E1F70E9467160C94582CD6
:100FC0001FC8A0E1B0E0E7EEF7E00C94E5227C0159
:100FD0001B016A01FC0117821682838181FF44C3D1
:100FE0009E012F5F3F4F3901F7019381F10193FD7E
:100FF000859193FF81911F01882309F431C38532C4
:1010000039F493FD859193FF81911F01853239F465
:10101000B70190E00E94442856016501E5CF10E039
:10102000512C912CFFE1F915D8F08B3279F038F47E
:10103000803279F08332A1F4F92DF0612EC08D3227
:1010400061F0803369F4292D21602DC0392D326083
:10105000932E892D8460982E2AC0E92DE86015C052
:1010600097FC2DC020ED280F2A3088F496FE06C08C
:101070003AE0139F200D1124122F19C08AE0589EC8
:10108000200D1124522EE92DE0629E2E10C08E32CA
:1010900031F496FCE5C2F92DF0649F2E08C08C3621
:1010A00021F4292D2068922E02C0883641F4F101E6
:1010B00093FD859193FF81911F018111B3CF9BEB2C
:1010C000980F933020F4992D9061805E07C09BE9C2
:1010D000980F933008F066C1992D9F7E96FF16E019
:1010E0009F73992E853619F49064992E08C0863620
:1010F00021F4392F3068932E02C01111115097FE40
:1011000007C01C3350F444244394410E27E00BC025
:10111000183038F027E017E005C027E09CE3492E9F
:1011200002C0212F412C560184E0A80EB11CF6010B
:101130006081718182819381042DA3010E940D271A
:101140006C01F981FC87F0FF02C0F3FF06C091FC3F
:1011500006C092FE06C000E205C00DE203C00BE22D
:1011600001C000E08C858C7019F001115AC29BC23D
:1011700097FE10C04C0CFC85F4FF04C08A818133BB
:1011800009F44A94141474F528E0241578F588E0DD
:10119000482E2CC096FC2AC0812F90E08C159D050E
:1011A0009CF03CEFC3163FEFD30674F0892D8068A6
:1011B000982E0AC0E2E0F0E0EC0FFD1FE10FF11DF8
:1011C0008081803319F411501111F4CF97FE0EC0B5
:1011D00044244394410E812F90E0C816D9062CF484
:1011E0001C1904C04424439401C010E097FE06C0BB
:1011F0001C141D0434F4C601019605C085E090E07E
:1012000002C081E090E001110196112331F0212FFD
:1012100030E02F5F3F4F820F931F252D30E0821764
:10122000930714F4581A01C0512C892D897049F480
:10123000552039F0B70180E290E00E9444285A948A
:10124000F7CF002329F0B701802F90E00E944428B7
:1012500093FC09C0552039F0B70180E390E00E946B
:1012600044285A94F7CF97FE4CC04601D7FE02C0DF
:10127000812C912CC60188199909F301E80FF91FF7
:10128000FE87ED87960124193109388B2F87012FAE
:1012900010E01195019511093FEF8316930629F48B
:1012A000B7018EE290E00E944428C814D9044CF0A3
:1012B0008F8598898815990524F4ED85FE858181AF
:1012C00001C080E3F1E08F1A91082D853E852F5FE4
:1012D0003F4F3E872D87801691062CF0B70190E096
:1012E0000E944428D9CFC814D90441F49A81963376
:1012F00020F4953319F43C8534FF81E3B70190E085
:101300004EC08A81813319F09C859F7E9C87B701EE
:1013100090E00E944428111105C094FC18C085E695
:1013200090E017C0B7018EE290E00E9444281E5F53
:1013300082E001E0080FF301E80FF11D8081B701A1
:1013400090E00E944428802F0113F3CFE6CF85E47C
:1013500090E0B7010E944428D7FC06C0C114D10414
:1013600041F4EC85E4FF05C0D194C194D1088DE22D
:1013700001C08BE2B70190E00E94442880E32AE09C
:10138000C216D1042CF08F5FFAE0CF1AD108F7CF44
:10139000B70190E00E944428B701C601C0960E94A0
:1013A000442854C1833631F0833779F0833509F00E
:1013B00056C020C0560132E0A30EB11CF601808158
:1013C000898301E010E0630112C05601F2E0AF0E24
:1013D000B11CF601C080D18096FE03C0612F70E081
:1013E00002C06FEF7FEFC6010E9439288C01F92DF2
:1013F000FF7714C0560122E0A20EB11CF601C08096
:10140000D18096FE03C0612F70E002C06FEF7FEFC6
:10141000C6010E942E288C01F92DF0689F2EF3FD45
:101420001AC0852D90E008171907A8F4B70180E2CB
:1014300090E00E9444285A94F4CFF60197FC8591DD
:1014400097FE81916F01B70190E00E9444285110EE
:101450005A94015011090115110579F7F7C0843626
:1014600011F0893661F5560197FE09C024E0A20EFD
:10147000B11CF60160817181828193810AC0F2E022
:10148000AF0EB11CF60160817181072E000C880B34
:10149000990BF92DFF769F2E97FF09C090958095A7
:1014A000709561957F4F8F4F9F4FF0689F2E2AE078
:1014B00030E0A3010E94CE28C82EC6183FC0092DD7
:1014C000853721F40F7E2AE030E01DC0097F8F367A
:1014D00091F018F4883559F0C3C0803719F0883777
:1014E00011F0BEC0006104FF09C0046007C094FE93
:1014F00008C0066006C028E030E005C020E130E00A
:1015000002C020E132E0560107FF09C084E0A80EC6
:10151000B11CF601608171818281938108C0F2E083
:10152000AF0EB11CF6016081718180E090E0A301F3
:101530000E94CE28C82EC6180F77902E96FE0BC09C
:10154000092D0E7FC11650F494FE0AC092FC08C00B
:10155000092D0E7E05C0DC2C092D03C0DC2C01C03A
:10156000D12E04FF0DC0FE01EC0DF11D80818033F2
:1015700011F4097E09C002FF06C0D394D39404C0BD
:10158000802F867809F0D39403FD11C000FF06C0B8
:101590001C2DD51480F4150D1D190DC0D51458F44B
:1015A000B70180E290E00E944428D394F7CFD5148D
:1015B00010F45D1801C0512C04FF10C0B70180E386
:1015C00090E00E94442802FF17C001FD03C088E795
:1015D00090E002C088E590E0B7010CC0802F8678CB
:1015E00059F001FF02C08BE201C080E207FD8DE2ED
:1015F000B70190E00E944428C11638F4B70180E397
:1016000090E00E9444281150F7CFCA94F301EC0DEA
:10161000F11D8081B70190E00E944428C110F5CFF0
:1016200015C0F4E0F51560F584E0581A93FE1FC06C
:10163000011127C02C8523FF2AC00CE910E0392DA9
:101640003071932EF8018491811124C0552009F442
:10165000E4CCB70180E290E00E9444285A94F6CF8F
:10166000F7018681978126C08FEF9FEF23C0B701D6
:1016700080E290E00E9444285A945110F8CFD8CFCD
:10168000512CB701802F90E00E944428D3CF00EA6C
:1016900010E0D5CF91108052B70190E00E9444280D
:1016A0000F5F1F4FCFCF23E0251510F483E0BDCF90
:1016B000512CC0CF6096E2E10C940123813041F0BF
:1016C00028F0823039F0833039F0089580E405C085
:1016D00081E403C082E401C083E480937C00089528
:1016E0001F920F920FB60F921124CF92DF92EF92BA
:1016F000FF920F931F932F933F934F935F936F939B
:101700007F938F939F93AF93BF93EF93FF93CF9369
:10171000DF9300D0CDB7DEB780917800909179004B
:101720009A838983A09163028091680249815A81DA
:1017300098E0899F90011124F901A11117C0ED5B78
:10174000FD4F608171814617570710F45183408324
:10175000F901ED5BFD4F628173816417750710F429
:1017600053834283F901ED5BFD4F16C0ED5DFD4FE4
:10177000608171814617570710F451834083F90146
:10178000ED5DFD4F628173816417750710F453831B
:101790004283F901ED5DFD4F04811581268137817A
:1017A00068017901C40ED51EE11CF11CC482D582EA
:1017B000E682F7828F5F80936802843038F47EDFA0
:1017C00080917A00806480937A0044C0109268020D
:1017D0008091660290916702009731F00197909393
:1017E00067028093660236C0809164029091650220
:1017F0009093670280936602A11118C081E08093E4
:101800006302E3E2F2E08FEF9FEF91838083138224
:1018100012821482158216821782389622E0E334EF
:10182000F20799F781E08093220214C010926302BC
:10183000E3E4F2E08FEF9FEF9183808313821282C3
:101840001482158216821782389622E0E336F20758
:1018500099F7E8CF0F900F90DF91CF91FF91EF9123
:10186000BF91AF919F918F917F916F915F914F91B8
:101870003F912F911F910F91FF90EF90DF90CF90AC
:101880000F900FBE0F901F9018951F920F920FB6DA
:101890000F9211248F9380916802811108C080E417
:1018A00080937C0080917A00806480937A008F918D
:1018B0000F900FBE0F901F90189590E490937C00AE
:1018C000FDDE87E880937A0080917A0080648093BF
:1018D0007A0080917A0086FDFCCF10927A00809188
:1018E00078009091790008959C01E3E4F2E0A3E28E
:1018F000B2E08FEF9FEF9183808313821282148274
:1019000015821682178211969C938E9313961C92C1
:101910001E92129714961D921D921D921C9217975B
:101920003896189642E0E336F40729F710926802D9
:10193000109263027093670260936602709365026F
:1019400060936402109222028DE880937A001092D4
:10195000800089E0809381001092850010928400BD
:10196000B90176956795CB01A0E0B0E0BC01CD014F
:101970007C5D8B409F4F40E050E00E9488222150C8
:101980003109309389002093880080916F00826034
:1019900080936F0008951092810010927A0008954C
:1019A00080912202089510922202089520916302EC
:1019B00090E033E0880F991F3A95E1F7211103C0B9
:1019C0008D5D9D4F08958D5B9D4F0895EF92FF9221
:1019D0000F931F93CF93DF938EE192E09F938F93AA
:1019E0000E949428809101018F93809100018F9330
:1019F00086E092E09F938F930E949428C0E0D1E00C
:101A00000F900F900F900F900F900F9000E010E04C
:101A100085EEE82E81E0F82E89858F9388858F9357
:101A20008F818F938E818F938D818F938C818F93F4
:101A30008B818F938A818F931F930F93FF92EF92E5
:101A40000E9494280F5F1F4F28968DB79EB70C9663
:101A50000FB6F8949EBF0FBE8DBF04301105E1F69E
:101A600080E090E0DF91CF911F910F91FF90EF9078
:101A700008954F925F926F927F928F929F92AF9252
:101A8000BF92CF92DF92FF920F931F93CF93DF937A
:101A90001F92CDB7DEB7609100017091010188EE11
:101AA00093E022DF00E010E09BEFA92E92E0B92E38
:101AB00027EF822E22E0922E73DF882309F456C08E
:101AC00072DF1F930F93BF92AF920E94942880E021
:101AD000C82E81E0D82E0F900F900F900F90F12C10
:101AE0008F2D64DFFC0164817581868197810E945E
:101AF000E9232B013C01609100017091010180E01C
:101B000090E00E94E9239B01AC01C301B2010E9455
:101B10008123F60122813381448155810E947724FB
:101B2000F60126813781408551850E941D239F93B0
:101B30008F937F936F939F928F920E949428F39438
:101B4000F8E0CF0ED11C0F900F900F900F900F90D8
:101B50000F9084E0F812C4CF60916B0470916C0414
:101B60008AE090E00E9444280F5F1F4FBE016F5F24
:101B70007F4F81E694E00E948D19882309F49CCF61
:101B80008981803209F098CF06DF80E090E00F90E5
:101B9000DF91CF911F910F91FF90DF90CF90BF9079
:101BA000AF909F908F907F906F905F904F9008952F
:101BB00040E65AEE64E670E080E00E94342088231C
:101BC00059F080916504909166049093010180938F
:101BD000000180E090E0089587EA92E008950F9375
:101BE0001F93CF93DF9343E060E080E00E94EB1F00
:101BF0008823A9F180916504C82FD0E05EDE8C01B6
:101C000083E0CC0FDD1F8A95E1F7C050DF4FB801AC
:101C100080E090E00E94E9232A813B814C815D8134
:101C20000E9477242E813F81488559850E941D237B
:101C30009F938F937F936F931F930F9383ED92E006
:101C40009F938F930E9494288DB79EB708960FB6E6
:101C5000F8949EBF0FBE8DBF80E090E002C08CED77
:101C600092E0DF91CF911F910F910895CF92DF9273
:101C7000EF92FF92CF9343E060E080E00E94EB1F81
:101C8000882369F1C091650481E00E94D6208823F1
:101C900049F1C0906504D0906604E0906704F0902C
:101CA000680482E00E94D6208823F9F080916504C0
:101CB00090916604A0916704B091680428E0C29FE7
:101CC000F0011124E050FF4FC282D382E482F582FA
:101CD00086839783A087B18780E090E008C08CE876
:101CE00092E005C082E692E002C087E392E0CF91E5
:101CF000FF90EF90DF90CF9008952D9A80E090E0D4
:101D000008952D9880E090E00895CF92DF92EF92B1
:101D1000FF920F931F93CF93DF93062FE42EC22ED3
:101D20009F938F930E9494281F920F9382E495E0D3
:101D30009F938F930E9494280F900F900F900F9075
:101D40000F900F90C8E0D0E010E8F12CD12C6091FA
:101D50006B0470916C04802F812311F0C60101C0C7
:101D6000C7010E94442860916B0470916C0480E26A
:101D700090E00E9444281695219749F760916B04E2
:101D800070916C048AE090E0DF91CF911F910F91E8
:101D9000FF90EF90DF90CF900C9444281F93CF9347
:101DA000DF93162FC42FD22F9F938F930E949428D6
:101DB0008EE395E09F938F930E9494280F900F904D
:101DC0000F900F901123E9F084E395E09F938F9398
:101DD0000E9494280F900F90CC2319F08BE295E08D
:101DE00002C082E295E09F938F930E9494280F9007
:101DF0000F90DD2319F089E195E01FC080E195E0A7
:101E00001CC086E095E09F938F930E9494280F90CA
:101E10000F90DD2319F08EEF94E002C086EF94E07E
:101E20009F938F930E9494280F900F90CC2319F0CA
:101E300084EE94E002C081ED94E09F938F930E9422
:101E400094280F900F9060916B0470916C048AE05D
:101E500090E0DF91CF911F910C944428CF93DF93B2
:101E60008DE995E09F938F930E94942864B12FE4AD
:101E700049E487E995E049DF65B121E340E381E981
:101E800095E043DF63B121E340E38BE895E03DDF7C
:101E9000C9E6D4E06A817B818AE090E00E94442810
:101EA00067B12FE449E485E895E02FDF68B121E3CD
:101EB00040E38FE795E029DF66B121E340E389E75E
:101EC00095E023DF6A817B818AE090E00E944428CC
:101ED0006AB12FE449E483E795E017DF6BB121E3B2
:101EE00040E38DE695E011DF69B121E340E387E649
:101EF00095E00BDF6A817B818AE090E00E944428B4
:101F000029B14BB16AB122FB222720F942FB4427B9
:101F100040F962FB662760F984E695E03FDF29B16E
:101F20004BB16AB123FB222720F943FB442740F938
:101F300063FB662760F981E695E030DF29B14BB19C
:101F40006AB12295217042954170629561708EE56B
:101F500095E024DF29B14BB16AB125FB222720F996
:101F600045FB442740F965FB662760F98BE595E062
:101F700015DF29B14BB16AB126FB222720F946FBB8
:101F8000442740F966FB662760F988E595E006DF9F
:101F900029B14BB16AB1221F2227221F441F4427B7
:101FA000441F661F6627661F85E595E0F7DE23B1AF
:101FB00045B164B121704170617082E595E0EEDE5B
:101FC00023B145B164B1269521704695417066955F
:101FD00061708FE495E0E2DE0F900F9080E090E07A
:101FE000DF91CF910895CF93DF93DC01EB0148811E
:101FF000442309F402C1FB0101900020E9F7CF015D
:102000000197861B970B8330910508F0F6C081304D
:10201000910509F0B4C050E0FA01F297E830F105FB
:1020200008F0EEC0EC5CFF4F0C94C6228BE290E00F
:1020300011969C938E938AE290E013969C938E93D4
:10204000129789E290E015969C938E93149782E004
:102050005EC08BE290E011969C938E938AE290E0B2
:1020600013969C938E93129789E290E015969C9319
:102070008E93149783E04BC08BE290E011969C9373
:102080008E938AE290E013969C938E93129789E246
:1020900090E015969C938E93149784E038C08BE261
:1020A00090E011969C938E938AE290E013969C9315
:1020B0008E93129789E290E015969C938E931497D5
:1020C00085E025C08BE290E011969C938E938AE286
:1020D00090E013969C938E93129789E290E0159668
:1020E0009C938E93149786E012C08BE290E0119639
:1020F0009C938E938AE290E013969C938E93129712
:1021000089E290E015969C938E93149787E016963B
:102110008C93169714C085E290E011969C938E9351
:1021200084E290E013969C938E93129783E290E062
:1021300015969C938E93149716961C921697179645
:102140001C92179781E018C085E290E011969C934D
:102150008E9384E290E013969C938E93129783E281
:1021600090E015969C938E93149781E016968C932D
:10217000169717961C92179718968C933BC0029748
:10218000C9F5433691F04436F1F04236E1F585E287
:1021900090E011969C938E9384E290E013969C932A
:1021A0008E93129783E290E01BC088E290E0119634
:1021B0009C938E9387E290E013969C938E93129754
:1021C00086E290E00DC08BE290E011969C938E9396
:1021D0008AE290E013969C938E93129789E290E0A6
:1021E00015969C938E93149789818053883070F450
:1021F00016968C9380E090E00BC080E391E008C0DD
:102200008EE096E005C088EE95E002C087EC95E090
:10221000DF91CF910895FB016081718189E692E0A1
:10222000E2DE0097E1F4E0916D02F0916E028081B0
:1022300090E000906F0202C0959587950A94E2F7AE
:1022400080FD03C084EC95E002C081EC95E09F9393
:102250008F930E9494280F900F9080E090E0089553
:10226000CF93DF93EB016881798189E692E0BBDE51
:10227000009769F5EA81FB818081803391F0813399
:1022800021F5E0916902F0916A02208181E090E0FD
:1022900000906F0202C0880F991F0A94E2F7822B08
:1022A00010C0E0916902F0916A02208181E090E023
:1022B00000906F0202C0880F991F0A94E2F7809580
:1022C0008223808380E090E002C083E791E0DF9189
:1022D000CF9108951F93CF93DF93182FEB0168815F
:1022E000798189E692E07FDE009709F050C01230D4
:1022F00068F06EEB75E08A819B810E94F627892B3E
:1023000009F043C081E08093710202C01092710213
:102310001092700280917102E0916902F0916A025C
:1023200030916F022081811109C081E090E001C0ED
:10233000880F3A95EAF78095822307C081E090E004
:1023400001C0880F3A95EAF7822B80838091700252
:1023500030916F02E0916B02F0916C02208181114B
:1023600009C081E090E001C0880F3A95EAF78095B6
:10237000822307C081E090E001C0880F3A95EAF718
:10238000822B808380E090E002C08FE891E0DF91B3
:10239000CF911F910895CF93DF93EB0168817981ED
:1023A00089E692E020DE009709F04EC0EA81FB81C9
:1023B0008081803339F0813309F044C081E080931B
:1023C000710202C01092710281E0809370028091CC
:1023D0007102E0916902F0916A0230916F022081EE
:1023E000811109C081E090E001C0880F3A95EAF7B9
:1023F0008095822307C081E090E001C0880F3A9564
:10240000EAF7822B80838091700230916F02E09115
:102410006B02F0916C022081811109C081E090E093
:1024200001C0880F3A95EAF78095822307C081E0C2
:1024300090E001C0880F3A95EAF7822B808380E014
:1024400090E002C083E791E0DF91CF91089540E0F2
:1024500060E08EE594E0F7C78EE594E00E94491AAB
:1024600087EA97E09F938F930E9494280F900F9094
:10247000359903C084EA97E002C081EA97E09F9310
:102480008F930E9494280F900F908AE997E09F9372
:102490008F930E9494280F900F90349903C087E97E
:1024A00097E002C084E997E09F938F930E9494285D
:1024B0000F900F90359908C083E897E09F938F9312
:1024C0000E9494280F900F90349908C085E597E0FA
:1024D0009F938F930E9494280F900F90B8DF80E015
:1024E00090E00895AF92BF92DF92EF92FF920F9328
:1024F0001F93CF93DF93CDB7DEB760970FB6F894F5
:10250000DEBF0FBECDBF4FE760E080E00E94EB1F53
:10251000882309F43EC01091650440E161E081E048
:102520000E94EB1F8823C1F1D0906504612F8EE5D6
:1025300094E00E94F61A4D2D50E023E08E010F5FCB
:102540001F4FB8018EE594E0FBD7882341F1780155
:1025500080E8A82E88E0B82E8E2D801B8D1570F493
:10256000F70181917F011F928F93BF92AF920E94DA
:1025700094280F900F900F900F90EECF60916B0406
:1025800070916C048AE090E00E94442880E090E022
:1025900008C082EB98E005C08DE898E002C086E8AC
:1025A00098E060960FB6F894DEBF0FBECDBFDF9106
:1025B000CF911F910F91FF90EF90DF90BF90AF9060
:1025C0000895BF92CF92DF92EF92FF920F931F93E5
:1025D000CF93DF93CDB7DEB728970FB6F894DEBF61
:1025E0000FBECDBF182F4FE760E080E00E94EB1FC9
:1025F0008823C1F1B0906504CE0101967C0101E011
:102600006C010117D8F44FEF60E0802F0E94EB1FA0
:1026100081110DC01F920F938FE398E09F938F93CA
:102620000E9494280F900F900F900F9015C08091EA
:102630006504F70181937F010F5FE3CF6B2D8EE57A
:1026400094E0D4D71150412F50E023E0B6018EE53D
:1026500094E034D7882319F080E090E005C088E347
:1026600098E002C082E698E028960FB6F894DEBFA4
:102670000FBECDBFDF91CF911F910F91FF90EF90D3
:10268000DF90CF90BF900895CF938EE594E001D76F
:10269000359B11C0C8E0459888EE93E00E947222F5
:1026A000459A88EE93E00E947222C150A1F7CFDED6
:1026B00080E090E003C0CBDE8EEA97E0CF910895F2
:1026C000CF92DF92EF92FF920F931F93CF93DF93FE
:1026D0001F92CDB7DEB78EE594E0DBD6359908C002
:1026E00087E198E09F938F930E9494280F900F901A
:1026F000349908C089EE97E09F938F930E949428A5
:102700000F900F90A4DE00E010E080E3E82E88E058
:10271000F82E98E2C92E98E0D92E0038110581F1E3
:10272000602F8EE594E062D723E040E050E060E067
:1027300070E08EE594E0C2D6882351F01F930F938A
:10274000FF92EF920E9494280F900F900F900F909D
:1027500023E041E050E0BE016F5F7F4F8EE594E0E3
:10276000EFD6882351F01F930F93DF92CF920E94F0
:1027700094280F900F900F900F900F5F1F4FCDCFA9
:1027800080E090E00F90DF91CF911F910F91FF902B
:10279000EF90DF90CF9008950F931F93CF93DF9327
:1027A000CDB7DEB72C970FB6F894DEBF0FBECDBF06
:1027B0008B01CE010A969F938F9301969F938F93DF
:1027C00001969F938F9386ED91E09F938F93FB01EA
:1027D00081818F9380818F930E94B828CE010796C4
:1027E0009F938F9301969F938F9301969F938F93BF
:1027F0008BEE91E09F938F93F80183818F93828179
:102800008F930E94B8288C8589838B858A838A85DB
:102810008B8389858C8388858D838F818E83CE0180
:1028200001960E94E6210FB6F894DEBF0FBECDBF21
:10283000882339F0CE0101960E948E2180E090E03D
:1028400002C086EA91E02C960FB6F894DEBF0FBE68
:10285000CDBFDF91CF911F910F910895CF93DF935B
:1028600000D000D000D0CDB7DEB7CE0101960E94D7
:10287000BA21CE0101960E940F2260916B047091E3
:102880006C048AE090E00E94442880E090E0269664
:102890000FB6F894DEBF0FBECDBFDF91CF91089584
:1028A000CF92DF92EF92FF920F931F93CF93DF931C
:1028B000CDB7DEB728970FB6F894DEBF0FBECDBFF9
:1028C000C82ECE0101967C0110E0D82E0F2D1C15CC
:1028D000D9F04FEF60E0812F0E94EB1F81110DC0F6
:1028E0001F921F9386E59BE09F938F930E949428ED
:1028F0000F900F900F900F900FC080916504F7011B
:1029000081937F011F5FE3CF412F50E020E06D2DC9
:10291000702F83E792E075D280E090E028960FB6A2
:10292000F894DEBF0FBECDBFDF91CF911F910F9105
:10293000FF90EF90DF90CF900895CF92EF92FF92AB
:102940000F931F93CF93DF93C82F7B01882351F000
:10295000DB016D917C9189E792E045DB009709F0FE
:10296000AFC00AC089E0E0E0F2E0A9E7B2E0019080
:102970000D928A95E1F7A0C0C23008F49DC000E036
:1029800012E12AE730E040E050E0BA0181E00E9425
:10299000812081110DC01F928AE78F9382E18F936E
:1029A0001F9283E19BE09F938F930E94942875C0B0
:1029B0006091650470916604809167049091680449
:1029C000D6D2D82FC23009F478C0D7011496ED9131
:1029D000FC9115978081813369F028F4803309F0E8
:1029E00065C000E00AC0823339F0833309F05EC06D
:1029F00003E003C001E001C002E0C33009F45EC09F
:102A000067EE7AE083E00E94B91F882331F08130BD
:102A100009F454C085EC9AE053C0EE24E394E091AD
:102A20007902F0917A02408181E090E09C0100906F
:102A30007F0202C0220F331F0A94E2F7242B208367
:102A4000E0917B02F0917C02208100907F0202C025
:102A5000880F991F0A94E2F7822B8083809172027B
:102A6000882319F083E792E0B8D1C12C2D2F40E0E4
:102A700060E083E792E075D18823D9F08D2F8ED264
:102A80009F938F937F936F938EE69AE09F938F939C
:102A90000E94942881E0809372020F900F900F9013
:102AA0000F900F900F9080E090E00AC080EF9AE0C6
:102AB00007C08FE89AE004C0D0E000E0E12CAFCF7F
:102AC000DF91CF911F910F91FF90EF90CF900895DC
:102AD000AF92BF92DF92EF92FF920F931F93CF932B
:102AE000DF93CDB7DEB760970FB6F894DEBF0FBEA9
:102AF000CDBFD82ECE0101967C015C0110E01D15E2
:102B0000D9F04FEF60E0812F0E94EB1F81110DC0C3
:102B10001F921F938EEA9BE09F938F930E949428AD
:102B20000F900F900F900F902EC080916504F501CB
:102B300081935F011F5FE3CF2D2D30E003E0A701FC
:102B4000B70183E792E0D0D1870186EAA82E8BE017
:102B5000B82E802F8E198D1570F4F80181918F0198
:102B60001F928F93BF92AF920E9494280F900F9064
:102B70000F900F90EECF60916B0470916C048AE01F
:102B800090E00E94442880E090E060960FB6F894B0
:102B9000DEBF0FBECDBFDF91CF911F910F91FF9090
:102BA000EF90DF90BF90AF900895AF92BF92DF9209
:102BB000EF92FF920F931F93CF93DF93CDB7DEB7C2
:102BC00060970FB6F894DEBF0FBECDBF40E161E065
:102BD00080E00E94EB1F882371F1D09065044D2D99
:102BE00050E020E08E010F5F1F4FB80183E792E0B5
:102BF00041D1780189E7A82E8BE0B82E8E2D801B5D
:102C00008D1570F4F70181917F011F928F93BF9210
:102C1000AF920E9494280F900F900F900F90EECFDC
:102C200060916B0470916C048AE090E00E944428EB
:102C300080E090E002C081E89BE060960FB6F894D7
:102C4000DEBF0FBECDBFDF91CF911F910F91FF90DF
:102C5000EF90DF90BF90AF9008956FE47BE080E04D
:102C60000E94B91F8823A1F0813071F5E0917902AB
:102C7000F0917A02208181E090E000907F0202C012
:102C8000880F991F0A94E2F7822B808322E012C0FA
:102C9000E0917902F0917A02208181E090E0009049
:102CA0007F0202C0880F991F0A94E2F78095822361
:102CB000808321E040E050E060E070E083E792E054
:102CC000A0D080E090E0089586E39BE00895CF9344
:102CD000DF931F92CDB7DEB70E943022ADD10E94A4
:102CE000CC219ED2CC24C394E12C08E020E032EC2D
:102CF00041E050E060E081E694E09DD281E694E01E
:102D000039D32AD09BD340E060E08EE594E09BD39A
:102D1000789488EB9DE0C8D5BE016F5F7F4F81E658
:102D200094E0FBD2882311F08981FBD583B7817FA2
:102D300083BF83B7816083BF889583B78E7F83BF4E
:102D4000EBCF811108C06CBD8DB5442311F08160BB
:102D500001C08E7F8DBD0895E2E8F2E010821182FD
:102D60000895CF92EF920F931F93CF93DF93EC01CF
:102D700019821882611129C04A83273050F430E04B
:102D8000F901E05FFD4F6081F901E75FFD4F408190
:102D900002C040E060E5037084E0089F80011124D8
:102DA000602B81E0E81201C060626B834C83CD82AE
:102DB00080E0C7DF82E892E0998388838091830274
:102DC0008F5F8093830281E001C080E0DF91CF912B
:102DD0001F910F91EF90CF900895FC01A081B181D8
:102DE00011969C911197915011969C931197911166
:102DF00004C08C91811101C01CBC1182108281E041
:102E00000895DF92EF92FF920F931F93CF93DF937A
:102E1000EC01D62EE72E8A01F22EE881F9814C8151
:102E20006B8180818EDFF0FE03C08A810E943C228C
:102E3000ED2DFE2D0E0F1F1FE017F10739F08191C8
:102E40008EBD0DB407FEFDCF8EB5F6CFF1FE0AC0E4
:102E50008A81DF91CF911F910F91FF90EF90DF90CA
:102E60000C945722DF91CF911F910F91FF90EF901B
:102E7000DF900895DF92EF92FF920F931F93CF930D
:102E8000DF93EC01D62EE72E8A01F22EE881F9813C
:102E90004C816B81808155DFF0FE03C08A810E94E6
:102EA0003C22ED2DFE2D0E0F1F1FE017F10741F004
:102EB0008D818EBD0DB407FEFDCF8EB58193F5CF0C
:102EC000F1FE0AC08A81DF91CF911F910F91FF908F
:102ED000EF90DF900C945722DF91CF911F910F91CB
:102EE000FF90EF90DF900895BF92CF92DF92EF9224
:102EF000FF920F931F93CF93DF93EC01D62E172FE2
:102F0000B42EC52E7901E881F9814C816B818081D5
:102F100018DF00FF03C08A810E943C22EB2DFC2DAC
:102F2000AD2DB12FEE0EFF1EEE15FF0541F08D9178
:102F30008EBD0DB407FEFDCF8EB58193F5CF01FF99
:102F40000CC08A81DF91CF911F910F91FF90EF907C
:102F5000DF90CF90BF900C945722DF91CF911F91BB
:102F60000F91FF90EF90DF90CF90BF9008950F9357
:102F70001F9340E000E012E12AE730E0601771079C
:102F80008207930738F436952795179507954F5F75
:102F90004630A1F7842F1F910F91089521E0280F4B
:102FA00080E094E2A4EFB0E0BC01CD0104C09695AE
:102FB0008795779567952A95D2F708951F920F9276
:102FC0000FB60F9211242F933F934F935F936F93FC
:102FD0007F938F939F93AF93BF93EF93FF938091D2
:102FE00086029091870201969093870280938602D1
:102FF000809184029091850201979093850280933D
:103000008402892B41F484E690E0909385028093BA
:1030100084020E941721FF91EF91BF91AF919F9180
:103020008F917F916F915F914F913F912F910F9071
:103030000FBE0F901F90189582E08093B00087E03C
:103040008093B1001092B2008BE98093B30084E6C4
:1030500090E09093850280938402E0E7F0E0808125
:10306000826080830895CF92DF92EF92FF92CF9398
:10307000DF93CDB7DEB728970FB6F894DEBF0FBE4B
:10308000CDBF6B017C0183E0CC0CDD1CEE1CFF1C72
:103090008A95D1F7A701960160E074E284EF90E091
:1030A0000E94AA2229833A836D837E838F83988727
:1030B00089819A81F694E794D794C7944D815E8173
:1030C0006F8178854C155D056E057F0508F40197C5
:1030D00028960FB6F894DEBF0FBECDBFDF91CF911B
:1030E000FF90EF90DF90CF900895811105C08091FF
:1030F000C10080628093C1000895811110C01092B8
:10310000C10082E08093C0007093C5006093C4004A
:103110004093C20088E98093C10081E0089580E077
:1031200008951F920F920FB60F9211242F933F9381
:103130004F938F939F93EF93FF938091C0004091A3
:10314000C6008C71B9F42091AD028091AE0230E0DE
:1031500090E001968F7399272817390759F08091CD
:10316000AE02E82FF0E0E857FD4F47A38F5F8F7363
:103170008093AE02FF91EF919F918F914F913F917C
:103180002F910F900FBE0F901F9018951F920F92C6
:103190000FB60F9211248F939F93EF93FF9390910B
:1031A0008B0280918C0298130BC08091C1008F7D9F
:1031B0008093C1008091C10080648093C1000FC0E2
:1031C00080918B02E82FF0E0E857FD4F95818F5FEB
:1031D0008F7180938B029093C60010928A02FF91A8
:1031E000EF919F918F910F900FBE0F901F901895A8
:1031F0001F920F920FB60F9211248F93EF93FF93AC
:1032000081E080938A02E1ECF0E080818F7B808313
:10321000FF91EF918F910F900FBE0F901F90189517
:10322000E8E8F2E01082118281E082831382148246
:1032300015A216A20895CF92EF92FF920F93CF930B
:10324000DF93FC0111821082611136C06091890206
:10325000611132C0DC2DCE2DCA01B9017F0103DF1F
:10326000C13039F020F0C23039F540E203C040E00F
:1032700001C040E3063051F018F4053051F01CC095
:10328000073031F00830C1F4466003C0426001C02D
:103290004460D13019F0D23079F44860BC0180E04C
:1032A0002CDF882349F028E832E0F70131832083BE
:1032B00091E09093890201C080E0DF91CF910F915E
:1032C000FF90EF90CF900895DC01ED91FC91238168
:1032D000848130E090E001968F7199272817390793
:1032E000B1F38481DF01A80FB11D15966C938F5F38
:1032F0008F7184838081F9CEDC01ED91FC9195A1E1
:1033000086A19817E1F395A1DF01A90FB11D97964A
:103310008C919F5F9F7395A30895DC01ED91FC91C3
:1033200095A186A1981769F085A1DF01A80FB11DAD
:1033300097969C91DB019C938F5F8F7385A381E0AF
:10334000089580E00895CF93C82F8A3011F48DE05E
:10335000FADF6C2F8091630490916404B5DF80E004
:1033600090E0CF9108958091630490916404C4DF4C
:1033700090E008959093640480936304E9E6F4E098
:1033800082E291E09383828391838083089584E92C
:103390008093BC008091BC0084FDFCCF81E0089547
:1033A00094EA9093BC009091BC0097FFFCCF909161
:1033B000B900987F9031B9F4880F682B6093BB00F7
:1033C00084E88093BC008091BC0087FFFCCF809193
:1033D000B900887F60FF04C0803439F0D8DF03C0B3
:1033E0008831E1F702C080E0089581E0089594EA11
:1033F0009093BC009091BC0097FFFCCF9091B900D6
:10340000987F9830B9F4880F682B6093BB0084E8EC
:103410008093BC008091BC0087FFFCCF8091B900F5
:10342000887F60FF04C0803439F0B1DF03C0883189
:10343000E1F702C080E0089581E00895EFEEF2E048
:10344000108211820895FC011182108261111FC047
:1034500042838091F00281110FC08091EF028111AF
:1034600016C01092B90088E48093B8008FEF809363
:10347000BB0084E08093BC008FEE92E09183808358
:103480008091F0028F5F8093F00281E0089580E0E8
:103490000895FC01A081B18111969C9111979150E2
:1034A00011969C931197911105C08C91811102C0C6
:1034B0001092BC001182108281E00895FF920F9358
:1034C0001F93CF93DF93D62FF72E8A01C22F20FDB3
:1034D00008C023FD0DC0ED2FFF2D0E0F1F1F94E818
:1034E0000CC060E0FC01828182DF8111F4CF17C043
:1034F00060E0FC01828154DFF8CFE017F10789F02A
:1035000081918093BB009093BC008091BC0087FFA9
:10351000FCCF8091B900887F883279F338DF80E072
:1035200009C0C1FF06C0DF91CF911F910F91FF909D
:103530002ECF81E0DF91CF911F910F91FF900895E1
:10354000EF92FF920F931F93CF937B018A01C22FBB
:1035500020FD07C023FD0CC094EC2C2F267034E80E
:1035600020C061E0FC01828142DF8111F5CF2DC0D6
:1035700061E0FC01828114DFF8CF9093BC00809160
:10358000BC0087FFFCCF8091B900887F8035E1F4D3
:103590008091BB00F7018083FFEFEF1AFF0A015013
:1035A00011090115110599F00130110531F7222398
:1035B00021F33093BC008091BC0087FFFCCF809149
:1035C000B900887F883521F3E2DE80E009C0C1FFC1
:1035D00006C0CF911F910F91FF90EF90D8CE81E060
:1035E000CF911F910F91FF90EF900895FC0162839E
:1035F00008959091F102913071F018F09230A9F095
:1036000026C08B3121F481E08093F1020CC0881F29
:103610008827881F08958B3521F482E08093F1027A
:1036200008951092F10282E008951092F10282341E
:1036300051F018F4813479F00CC0833431F08434C3
:1036400041F486E0089584E0089585E0089510929D
:10365000F10281E0089583E00895CF93DF93C9E6F6
:10366000D4E06A817B818BE190E00E9444286A81EA
:103670007B818BE590E00E9444286A817B8182E314
:1036800090E00E9444286A817B818AE490E0DF9187
:10369000CF910C944428CF93DF931092F102C9E6A6
:1036A000D4E06A817B818BE190E00E9444286A81AA
:1036B0007B818BE590E00E9444286A817B8188E4CD
:1036C00090E00E944428C9DF84E690E0DF91CF912A
:1036D00012C7CF93C82FCC23D1F060916B047091A7
:1036E0006C0488E090E00E94442860916B04709123
:1036F0006C0480E290E00E94442860916B04709119
:103700006C0488E090E00E944428C150E4CFCF913F
:10371000089544E050E0BC018FEF92E00E94ED2755
:1037200060910103709102036115710589F0809128
:10373000FF0290910003892B19F048E050E002C08D
:1037400044E050E087EF92E00E94ED2781E0089589
:1037500080E008951092F2028BE29DE09093F402D3
:103760008093F302D6CF109286038091CF0380938B
:103770008503F0CF8091010390910203892B69F0BA
:10378000E091F202F0E0EE0FFF1FED50FD4F80815F
:103790009181049691838083BCCF80E00895E0916D
:1037A000F202E11107C08BE29DE09093F402809356
:1037B000F30215C0F0E0EE0FFF1FEF50FD4F8081C8
:1037C0009181A7DFE091F202F0E0EE0FFF1FED50D4
:1037D000FD4F8091F9029091FA0291838083E091EC
:1037E000F202F0E0EE0FFF1FED50FD4F808191815E
:1037F00090CFE091F202EE2359F0E150E093F20213
:10380000F0E0EE0FFF1FED50FD4F8081918181CFE1
:1038100080E008951F93CF93DF938091CF0359DF0A
:10382000D0910303C0E0ED2FF0E0EB5FFC4F10817F
:103830001123B1F060916B0470916C04812F90E0C2
:103840000E94442881E08C0FEC2FF0E0E053FC4F05
:103850001083DF3718F0D0E0C82FE5CFDF5FFCCF53
:10386000C093CF03DF91CF911F9108958091010301
:1038700090910203892BB1F08091FF029091000397
:10388000892B81F48091F20281110CC081E0809338
:10389000F2028091F9029091FA029093F6028093DD
:1038A000F50237CF80E00895CF93DF93EC01E5E098
:1038B000F3E083E0E538F80711F01192FACF1092A7
:1038C0000403109203031092CF034DDFE4DE209730
:1038D00031F0DF93CF930E9494280F900F9087E1EF
:1038E00092E09F938F930E94802882E89EE09F93AE
:1038F0008F930E9494288DE192E09F938F930E9472
:1039000080280F900F900F900F900F900F90609164
:103910006B0470916C048EE390E0DF91CF910C9476
:103920004428EF92FF920F931F93CF93DF93C82FFA
:1039300060DE833009F4B1C1843009F4DCC1811147
:103940000AC2C93009F417C1CD3021F0C83009F0DE
:103950008CC100C160916B0470916C048AE090E0AE
:103960000E944428E091CF0320910403EE23B9F094
:10397000822F922F3E2F3150992311F0915001C088
:103980009FE7C32FD0E0C053DC4FA92FB0E0AB5F5F
:10399000BC4F58814C91541305C03111ECCF20938A
:1039A000030328C0C0EDD3E090E08F3710F48F5FA1
:1039B00001C080E09F5F2991A82FB0E0AB5FBC4FB2
:1039C0002C93E913F2CF8F3711F08F5F01C080E0A5
:1039D0008093040380930303A82FB0E0AB5FBC4F38
:1039E0009C91992339F01C928F3711F480E0F4CF29
:1039F0008F5FF2CFF0E0E053FC4F108240E0E0ED4B
:103A0000F3E0C0E08081803229F4108231969C2F4F
:103A1000C92FF8CF882369F1C43250F0E0918703B1
:103A2000F09188038081833209F482C093DE41C023
:103A3000823211F4319641E091E09C0FD0E0CC0F3E
:103A4000DD1FC957DC4FF983E883442351F0DF01C0
:103A5000FD018D91823219F08111FACFD9CF1082F8
:103A6000FD019F01F9012F5F3F4F80818F7DD1F7CD
:103A7000CFCFCC2309F45CC0D1CFD091F202DC17B8
:103A8000F0F40D2F10E06091F7027091F802F80148
:103A9000EE0FFF1FE957FC4F808191810E94F627AE
:103AA000892B81F48091FF0290910003892B61F4AE
:103AB000DDDE8091010390910203892BF1F688E607
:103AC0009EE00EC057DEF5CFD095CD0F8091F90264
:103AD000C81720F08091FA028C1738F481E49EE038
:103AE0009F938F930E94942821C087E192E09F9337
:103AF0008F930E948028B801660F771F67577C4F0D
:103B0000E091FF02F09100038C2F09950F900F9028
:103B1000009771F09F938F930E94942860916B049B
:103B200070916C048AE090E00E9444280F900F90FE
:103B30001092CF0318DE8DE192E09F938F930E9445
:103B400080280F900F9060916B0470916C048EE34D
:103B500090E0F9C08091CF03882309F4EEC0815032
:103B60008093CF0381E0B5DDDF91CF911F910F915D
:103B7000FF90EF90F8CDE091F202F0E0EE0FFF1F22
:103B8000ED50FD4FC081D18100918603E090F70296
:103B9000F090F80290918503091760F511E0100F7D
:103BA000E02FF0E0E053FC4F80812FEFE21AF20AA1
:103BB000F7013197E491E11112C0803281F48091D4
:103BC000FF0290910003892B09F0B7C04FDEE0900F
:103BD000F702F090F80210938603012F0BC08E17A6
:103BE00039F0C8DD811101C0DADD0091860302C021
:103BF000012FD2CF90918503091770F4E091F20262
:103C0000F0E0EE0FFF1FED50FD4F80819181C8174E
:103C1000D90709F0BBCF91C08091CF03891B59DD33
:103C2000F70184918823A9F0EF0121960F3788F4DA
:103C300011E0100FE02FF0E0E053FC4F8083609123
:103C40006B0470916C0490E00E944428FE01012FE7
:103C5000E8CF0093CF038EDD81117DC0DF91CF913E
:103C60001F910F91FF90EF909ACDC03208F473C06E
:103C7000E091CF03EF3708F060C081E08E0F8093B2
:103C8000CF03F0E0E053FC4FC0836DDD60916B0427
:103C900070916C048C2F90E056C0809103038823B0
:103CA00011F0815001C08FE790910403981709F437
:103CB00052C0882311F0815001C08FE7E82FF0E057
:103CC000EB5FFC4F9081992309F445C0E82FF0E0A9
:103CD000EB5FFC4F9081992331F0882311F08150E4
:103CE000F5CF8FE7F3CF8F3710F48F5F01C080E0FF
:103CF000809303031BC080910303E82FF0E0EB5F88
:103D0000FC4F9081992331F08F3710F48F5FF5CFFE
:103D100080E0F3CF90910403891731F08F3718F4C6
:103D200091E0980F01C090E090930303DF91CF9151
:103D30001F910F91FF90EF906DCD60916B0470918A
:103D40006C0487E090E0DF91CF911F910F91FF907D
:103D5000EF900C944428DF91CF911F910F91FF9029
:103D6000EF900895AF92BF92CF92DF92EF92FF92C1
:103D70000F931F93CF93DF93B82E7B01EBDCC12C05
:103D8000D12C8091010390910203892B31F4809111
:103D9000F202882389F12DDD2BC08091FF029091E2
:103DA0000003892B39F1C0E0D0E08091F2028D1739
:103DB00098F0ED2FF0E0EE0FFF1FED50FD4F8081EA
:103DC0009181A7DC8091F7029091F8020E94FF2771
:103DD0000196C80FDF5FE9CFDC1608F4DC2E809176
:103DE000FB029091FC020E94FF27C81608F4C82E1F
:103DF000C1DCC7CF3BDDC5CFADDCD0E00DE31EE0BD
:103E00008091010390910203892B41F48091F20289
:103E1000882309F4A1C0EDDCADDC9CC08091FF02D9
:103E200090910003892B09F494C08091F302909142
:103E3000F4026FDCBB20A1F0F70180819181FC01CD
:103E400001900020E9F73197AF01481B590B6091B1
:103E5000F7027091F8020E942028892B61F077C048
:103E6000DD2349F060916B0470916C048AE090E06E
:103E70000E944428D0E0C0E0A12C8091F2028A1573
:103E800028F1EA2DF0E0EE0FFF1FED50FD4F80818D
:103E900091813FDC8091F8028F938091F7028F939C
:103EA0000E94942860916B0470916C0480E290E011
:103EB0000E9444288091F7029091F8020E94FF2707
:103EC0000196C80FA3940F900F90D7CFCD1550F443
:103ED00060916B0470916C0480E290E00E94442831
:103EE000CF5FF4CF8091FC028F938091FB028F9380
:103EF0000E9494288091FB029091FC020E94FF276F
:103F0000C82F0F900F90CC1550F460916B047091F6
:103F10006C0480E290E00E944428CF5FF4CF1F93AE
:103F20000F930E9494288091FE028F938091FD024E
:103F30008F930E94942860916B0470916C048AE0C6
:103F400090E00E9444280F900F900F900F9012DC89
:103F500057CF8CDCD1E054CF80E090E0DF91CF915F
:103F60001F910F91FF90EF90DF90CF90BF90AF9097
:103F70000895CF92DF92FF920F931F93CF93DF9319
:103F80008B01C091F202CF5F8C0FF12CC82FD0E0D3
:103F9000CC0FDD1FC957DC4FC8010E94FF276C0101
:103FA000892B71F0B801888199810E94F627892BAD
:103FB00049F08FEFC81AD80A0C0D1D1DF394ECCFF1
:103FC0008FEF01C08F2DDF91CF911F910F91FF9047
:103FD000DF90CF900895EF92FF920F931F93CF93AE
:103FE000DF9300D0CDB7DEB7E62EF42E0091F202BB
:103FF0000F5F800F082F10E0000F111F09571C4F93
:1040000040E050E0BE016F5F7F4FD8018D919C91E1
:1040100014D6E981FA81D8012D913C912E173F07E2
:10402000C9F02081211116C00E2D10E020E030E0F3
:10403000601771078207930768F00F2D10E020E0EA
:1040400030E0061717072807390720F0609365044A
:1040500081E001C080E00F900F90DF91CF911F9120
:104060000F91FF90EF900895CF92DF92EF92FF9221
:104070000F931F93CF93DF9300D0CDB7DEB76B01C3
:104080007A010091F2020F5F800F082F10E0000FFD
:10409000111F09571C4F40E050E0BE016F5F7F4F7A
:1040A000D8018D919C91C9D5E981FA81D8012D91D2
:1040B0003C912E173F07C9F02081211116C08601BF
:1040C00020E030E0601771078207930770F08701E6
:1040D00020E030E0061717072807390730F0709303
:1040E00066046093650481E001C080E00F900F904A
:1040F000DF91CF911F910F91FF90EF90DF90CF90C4
:1041000008958F929F92AF92BF92CF92DF92EF92DB
:10411000FF920F931F93CF93DF9300D0CDB7DEB7FD
:104120004A015B01680179010091F2020F5F800F83
:10413000082F10E0000F111F09571C4F40E050E0FE
:10414000BE016F5F7F4FD8018D919C9176D5E9813B
:10415000FA81D8012D913C912E173F07B9F02081AB
:10416000211114C0681579058A059B0578F0C616DB
:10417000D706E806F90650F060936504709366046C
:10418000809367049093680481E001C080E00F9001
:104190000F90DF91CF911F910F91FF90EF90DF90E3
:1041A000CF90BF90AF909F908F9008950F931F93E3
:1041B000CF93DF9300D0CDB7DEB70091F2020F5F4F
:1041C000800F082F10E0000F111F09571C4FBE0170
:1041D0006F5F7F4FD8018D919C91ECD3E981FA817B
:1041E000D8012D913C912E173F0769F020812111B4
:1041F0000AC060936504709366048093670490938B
:10420000680481E001C080E00F900F90DF91CF91B2
:104210001F910F910895E62FF0E0E858F04FE491D8
:10422000623019F4837009F4EF5F8E2F0895CF93F5
:10423000DF9380915D048F5F8C3318F480935D046D
:1042400033C010925D0480915C048F5F8C3318F44E
:1042500080935C0429C010925C0480915B048F5FA2
:10426000883118F480935B041FC010925B04C091E6
:104270005904D09158046C2F8D2FCDDF90915A04A2
:104280009F5F891718F090935A040EC081E08093C5
:104290005A04CF5FCD3018F4C093590405C0809301
:1042A0005904DF5FD093580480915104882399F119
:1042B00020915D049091570429132DC0813049F15C
:1042C00020915C0490915604291325C0823001F19D
:1042D00020915B049091550429131DC08330C1F0D7
:1042E00020915A0490915404291315C0843081F010
:1042F000209159049091530429130DC0853041F049
:104300002091580490915204291305C0863019F465
:1043100081E080935004DF91CF910895CF93DF9394
:10432000EC0186E0FE01A8E5B4E001900D928A95CB
:10433000E1F79D8180915D049813F3CF9C8180917A
:104340005C049813EECF9B8180915B049813E9CFB6
:104350009A8180915A049813E4CF909159048981ED
:104360009813DFCF9091580488819813DACFDF91AA
:10437000CF910895DC0196E0E8E5F4E001900D921C
:104380009A95E1F70895FC01108281E08183828390
:104390001382148215820895CF93DF9300D000D04A
:1043A00000D0CDB7DEB71092510410925004CE0168
:1043B0000196E9DFCE010196B1DF26960FB6F8949B
:1043C000DEBF0FBECDBFDF91CF9108950F931F9336
:1043D000CF93FC0180818436E8F461819FEF960FD2
:1043E0009C30C0F4C281CC23A9F08F0114DF2C2FA4
:1043F00030E0082E000C990B821793075CF0F8014F
:104400008381883138F484818C3320F481E0958174
:104410009C3308F080E0CF911F910F910895FC012B
:1044200085811F928F9384811F928F9383811F9226
:104430008F9382811F928F9381811F928F938081AE
:104440001F928F9384E59FE09F938F936DD68DB7D6
:104450009EB70E960FB6F8949EBF0FBE8DBF0895FF
:1044600087E085B98CE484B980E388B917B88FEF09
:104470008BB982E08AB9089590E0FC013197E93068
:10448000F105A0F4E45CFF4F81C02A9808955A9882
:1044900008955B9808955C9808955D9808955E98D6
:1044A00008955F980895289808952998089590E0B0
:1044B000FC013197E930F105A0F4EB5BFF4F66C0DA
:1044C0002A9A08955A9A08955B9A08955C9A0895D5
:1044D0005D9A08955E9A08955F9A0895289A0895BE
:1044E000299A0895009731F025E02A95F1F7000008
:1044F0000197F8CF0895CF93DF93EC01209729F02F
:1045000088EE93E0EFDF2197F9CFDF91CF91089507
:10451000A1E21A2EAA1BBB1BFD010DC0AA1FBB1FC7
:10452000EE1FFF1FA217B307E407F50720F0A21B39
:10453000B30BE40BF50B661F771F881F991F1A94A6
:1045400069F760957095809590959B01AC01BD01D0
:10455000CF010895052E97FB16F400940FD057FD58
:1045600005D0D6DF07FC02D046F408C05095409530
:10457000309521953F4F4F4F5F4F0895909580950F
:10458000709561957F4F8F4F9F4F0895EE0FFF1FDE
:104590000590F491E02D0994A29FB001B39FC00152
:1045A000A39F700D811D1124911DB29F700D811D5F
:1045B0001124911D0895F0DFA59F900DB49F900DDB
:1045C000A49F800D911D112408952F923F924F9228
:1045D0005F926F927F928F929F92AF92BF92CF9293
:1045E000DF92EF92FF920F931F93CF93DF93CDB79C
:1045F000DEB7CA1BDB0B0FB6F894DEBF0FBECDBF14
:1046000009942A88398848885F846E847D848C84E4
:104610009B84AA84B984C884DF80EE80FD800C81ED
:104620001B81AA81B981CE0FD11D0FB6F894DEBFD0
:104630000FBECDBFED0108955058BB27AA270ED05D
:104640001CC10DD130F012D120F031F49F3F11F494
:104650001EF402C10EF4E095E7FBF8C0E92F1ED16D
:1046600080F3BA17620773078407950718F071F48F
:104670009EF536C10EF4E0950B2EBA2FA02D0B013E
:10468000B90190010C01CA01A0011124FF27591B97
:1046900099F0593F50F4503E68F11A16F040A22F9D
:1046A000232F342F4427585FF3CF4695379527950E
:1046B000A795F0405395C9F77EF41F16BA0B620B0D
:1046C000730B840BBAF09150A1F0FF0FBB1F661F54
:1046D000771F881FC2F70EC0BA0F621F731F841F97
:1046E00048F4879577956795B795F7959E3F08F0BD
:1046F000B3CF9395880F08F09927EE0F979587957C
:1047000008950CD0BAC0B2D040F0A9D030F021F456
:104710005F3F19F09BC05111E4C09EC0BFD098F319
:104720009923C9F35523B1F3951B550BBB27AA2732
:1047300062177307840738F09F5F5F4F220F331FA4
:10474000441FAA1FA9F333D00E2E3AF0E0E830D070
:1047500091505040E695001CCAF729D0FE2F27D073
:10476000660F771F881FBB1F261737074807AB0741
:10477000B0E809F0BB0B802DBF01FF2793585F4FB6
:104780002AF09E3F510568F061C0ABC05F3FECF37B
:10479000983EDCF3869577956795B795F7959F5F7B
:1047A000C9F7880F911D9695879597F90895E1E0CF
:1047B000660F771F881FBB1F621773078407BA072E
:1047C00020F0621B730B840BBA0BEE1F88F7E09589
:1047D0000895E89409C097FB3EF4909580957095F4
:1047E00061957F4F8F4F9F4F9923A9F0F92F96E93D
:1047F000BB279395F695879577956795B795F111B2
:10480000F8CFFAF4BB0F11F460FF1BC06F5F7F4F4E
:104810008F4F9F4F16C0882311F096E911C0772360
:1048200021F09EE8872F762F05C0662371F096E869
:10483000862F70E060E02AF09A95660F771F881F38
:10484000DAF7880F9695879597F9089597F99F67F6
:1048500080E870E060E008959FEF80EC0895002408
:104860000A941616170618060906089500240A94D5
:1048700012161306140605060895092E0394000C5B
:1048800011F4882352F0BB0F40F4BF2B11F460FFEA
:1048900004C06F5F7F4F8F4F9F4F089557FD905813
:1048A000440F551F59F05F3F71F04795880F97FBF4
:1048B000991F61F09F3F79F08795089512161306AE
:1048C0001406551FF2CF4695F1DF08C016161706DD
:1048D0001806991FF1CF8695710561050894089512
:1048E000E894BB2766277727CB0197F908950BD06B
:1048F000C4CFB5DF28F0BADF18F0952309F0A6CFB2
:10490000ABCF1124EECFCADFA0F3959FD1F3950F63
:1049100050E0551F629FF001729FBB27F00DB11D43
:10492000639FAA27F00DB11DAA1F649F6627B00DD3
:10493000A11D661F829F2227B00DA11D621F739FBC
:10494000B00DA11D621F839FA00D611D221F749FCA
:104950003327A00D611D231F849F600D211D822F11
:10496000762F6A2F11249F5750408AF0E1F0882358
:104970004AF0EE0FFF1FBB1F661F771F881F915065
:104980005040A9F79E3F510570F060CFAACF5F3F1E
:10499000ECF3983EDCF3869577956795B795F79598
:1049A000E7959F5FC1F7FE2B880F911D9695879520
:1049B00097F90895A0E0B0E0EFEDF4E20CCEEC0141
:1049C0006B016115710519F0FB01918380837E01F4
:1049D000FFEFEF1AFF0A0881802F90E0F6D2892BB3
:1049E00011F0E701F4CF0D3239F47E0182E0E80ED8
:1049F000F11C098111E008C00B3229F47E0192E01C
:104A0000E90EF11C098110E0E701219743E050E035
:104A10006CEA70E0CE01FCD2892BB9F4239645E014
:104A200050E067EA70E0CE01F3D2892B09F42596B5
:104A3000C114D10419F0F601D183C0831111F0C063
:104A400060E070E080E89FE7F4C043E050E064EA93
:104A500070E0CE01DDD2892B59F4C114D10409F4E0
:104A6000E4C0F2E0EF0EF11CF601F182E082DDC05D
:104A700020E030E0A901C0E0D0E0F70180EDA82EF1
:104A8000A00E89E08A1528F1912F9260B92E812F0E
:104A9000887012FF04C0811123C0219621C08111AA
:104AA0002197A5E0B0E087DDDC01CB01880F991FDD
:104AB000AA1FBB1F9C01AD012A0D311D411D511DB7
:104AC000283989E93807480789E1580748F016600E
:104AD00006C09EEFA9120AC013FD40C01860B12E97
:104AE0008FEFE81AF80A00811B2DC7CF802F8F7D2A
:104AF0008534A1F580818D3211F4106106C08B32AE
:104B000021F0319661E070E004C08181329662E06C
:104B100070E080538A3018F0E61BF70B1FC060E08E
:104B200070E060389CE079075CF4DB01AA0FBB1FE2
:104B3000AA0FBB1F6A0F7B1F660F771F680F711DBF
:104B40003196DF0111978C9180538A3050F314FF16
:104B500003C0719561957109C60FD71F11FF08C079
:104B6000C114D10429F0CF010197F601918380830C
:104B7000CA01B9012EDE212F2370233019F04B0119
:104B80005C0106C04B015C01B7FAB094B7F8B09471
:104B900020E030E0A901C501B4015ED3882309F407
:104BA0003CC0D7FF06C0D195C195D10903EC10E0F8
:104BB00002C00BED10E06801F8E1CF1AD10890E2D5
:104BC000E92EF12CCE15DF056CF0F8012591359119
:104BD00045915491C501B4018ADE4B015C01CE19A7
:104BE000DF09F0CF04501109F594E7940C151D0569
:104BF00049F78A2D880F8B2D881F8F3F41F020E0C9
:104C000030E0A901C501B40127D3811106C082E2B9
:104C100090E09093700480936F04C501B40109C0C3
:104C200060E070E080E89FEF04C060E070E080EC3E
:104C30009FE7CDB7DEB7ECE0EACCA0E0B0E0E2E27F
:104C4000F6E2C4CC5C016B017A016115710519F0C3
:104C5000FB0191838083E114F10429F0C7010297DD
:104C6000839708F0C6C0E5012196F5011081812FD8
:104C700090E0ABD1892B11F05E01F5CF1D3229F404
:104C80002196F501118101E007C01B3221F4E501F5
:104C90002296F501118100E0E114F104B1F0F0E198
:104CA000EF16F10429F4AEC010E3E114F10401F1B0
:104CB0002AE0E216F104A9F180E1E816F10471F0AE
:104CC000E8E0EE16F104F1F413C0103339F58881F1
:104CD0008F7D883549F7198122960260F0E1EF2E29
:104CE000F12C88248A94982CA82CAFE0BA2E1FC0EF
:104CF00078E0E72EF12C88248A94982CA82CEFE1F8
:104D0000BE2E15C06FEF7FEFCB0197010F2C000C6B
:104D1000440B550BFDDB49015A0109C08AE0E82E1E
:104D2000F12C69E9862E982CA82C69E1B62E40E07A
:104D300060E070E0CB0127010F2C000C66087708BB
:104D4000FE0150ED352E310E29E0231570F42FEBC6
:104D5000210F2A3118F439EC332E06C02FE9210F28
:104D60002A3128F529EA322E310E232D30E02E1576
:104D70003F05ECF44F3FC1F086169706A806B9062A
:104D800080F0A301920184D5232D30E040E050E073
:104D9000620F731F841F951F62177307840795079F
:104DA00010F44FEF01C041E021961081C9CFC1142A
:104DB000D10451F0442311F0219703C001FF04C036
:104DC0002297F601D183C08300FF07C0909580959C
:104DD000709561957F4F8F4F9F4F4F3F79F482E2DF
:104DE00090E09093700480936F043FEF2FEF9FEF5C
:104DF0000DC040E030E020E090E008C0462F372FA3
:104E0000282F04C0103309F069CF61CF642F732FAE
:104E1000822FCDB7DEB7E1E1F5CB283008F027E0EF
:104E20003327DA01990F311D87FD916000966105E6
:104E3000710539F432602E5F3D9330E32A95E1F736
:104E400008959F3F30F080387105610509F03C5F9F
:104E50003C5F3D93913008F08068911DDF93CF93C4
:104E60001F930F93FF92EF92192F987F9695E92F3A
:104E700096959695E90FFF27E75CFE4F9927332714
:104E8000EE24FF24A701E70105900894079428F475
:104E9000360FE71EF81E491F511D660F771F881F2A
:104EA000991F0694A1F70590079428F4E70EF81EC1
:104EB000491F561FC11D770F881F991F661F069433
:104EC000A1F70590079428F4F80E491F561FC71F35
:104ED000D11D880F991F661F771F0694A1F70590B3
:104EE000079420F4490F561FC71FD81F990F661F3C
:104EF000771F881F0694A9F784911095177041F0C9
:104F0000D695C79557954795F794E7941A95C1F7A5
:104F1000EFEDF0E0689415901591359165919591BC
:104F200005907FE27395E118F10A430B560BC90B0C
:104F3000D009C0F7E10CF11E431F561FC91FD01D39
:104F40007EF4703311F48A95E6CFE894015030F086
:104F5000080F0AF40027021708F4202F2395022FC8
:104F60007A3328F079E37D932A95E9F710C07D9391
:104F70002A9589F60694979567953795179517940E
:104F8000E118F10A430B560BC90BD00998F0239591
:104F90007E9173957A3308F070E37C932013B8F711
:104FA0007E9170617D9330F0839571E37D9370E322
:104FB0002A95E1F71124EF90FF900F911F91CF9167
:104FC000DF91992787FD909508959111FCC3803258
:104FD00019F089508550D0F70895FB01DC0102C01B
:104FE00005900D9241505040D8F70895FB01DC0127
:104FF0008D91059080190110D9F3990B0895FC014A
:1050000005900020E9F7809590958E0F9F1F0895D9
:10501000FB01DC014150504088F08D9181341CF03F
:105020008B350CF4805E659161341CF06B350CF4AB
:10503000605E861B611171F3990B0895881BFCCF8C
:10504000FB01DC014150504030F08D9105908019FA
:1050500019F40020B9F7881B990B0895FC010590FD
:10506000615070400110D8F7809590958E0F9F1F6A
:105070000895FC016150704001900110D8F78095AF
:1050800090958E0F9F1F08950F931F93CF93DF93DB
:10509000FB01238121FD03C08FEF9FEF2CC022FF76
:1050A00016C046815781248135814217530744F445
:1050B000A081B1819D012F5F3F4F318320838C936D
:1050C000268137812F5F3F4F3783268314C08B01A2
:1050D000EC01FB010084F185E02D0995892BE1F6B7
:1050E000D80116968D919C911797019617969C93CF
:1050F0008E931697CE01DF91CF911F910F91089556
:10510000A0E0B0E0E5E8F8E270CAAE014B5F5F4FA7
:10511000FA0161917191AF0180916B0490916C04DF
:105120000E94E107E2E07DCAA0E0B0E0E9E9F8E230
:105130005ACAAE01495F5F4FDA016D917D91AD01B1
:1051400009E614E0F80182819381DC0113962C9129
:105150001397286013962C930E94E107D8011296AA
:10516000ED91FC9113972381277F2383E4E057CAB5
:10517000AEE0B0E0EDEBF8E238CA85E08C838B89D5
:105180009C899A838983AE01495E5F4F6D897E89D0
:10519000CE01019616D22E96E2E043CAFA01AA2762
:1051A000283051F1203181F1E8946F936E7F6E5F6A
:1051B0007F4F8F4F9F4FAF4FB1E03ED0B4E03CD018
:1051C000670F781F891F9A1FA11D680F791F8A1FFB
:1051D000911DA11D6A0F711D811D911DA11D20D062
:1051E00009F468943F912AE0269F11243019305D1C
:1051F0003193DEF6CF010895462F4770405D41930D
:10520000B3E00FD0C9F7F6CF462F4F70405D4A3359
:1052100018F0495D31FD4052419302D0A9F7EACF21
:10522000B4E0A6959795879577956795BA95C9F750
:1052300000976105710508959B01AC010A2E069443
:105240005795479537952795BA95C9F7620F731FFC
:10525000841F951FA01D089503D008F481E00895D0
:10526000990F0008550FAA0BE0E8FEEF1616170677
:10527000E807F907C0F012161306E407F50798F0DF
:10528000621B730B840B950B39F40A2661F0232BF8
:10529000242B252B21F408950A2609F4A140A69574
:1052A0008FEF811D811D089520FD09C0FC0123FDA4
:1052B00005C022FF02C07383628351834083089537
:1052C00044FD17C046FD17C0AB01BC01DA01FB016C
:1052D000AA0FBB1FEE1FFF1F1094D1F74A0F5B1FD1
:1052E0006E1F7F1FCB01BA01660F771F881F991FA2
:1052F00009C033E001C034E0660F771F881F991F93
:105300003150D1F7620F711D811D911D08950F93CA
:105310001F93CF93DF938C01C80163D2EC0197FDFB
:1053200006C053DE892BC1F7B801CE0198D2CE0159
:10533000DF91CF911F910F9108958F929F92AF921D
:10534000BF92EF92FF920F931F93CF93DF938C0145
:10535000D62F7A01B22E45D29C0133272B3231054C
:1053600031F02D32310559F48B2D8068B82ED15093
:1053700011F480E061C0C80134D297FDFACFCB2D83
:10538000CD7F2B2D2073F9F48033E9F4AA24AA945D
:10539000AD0E09F43EC0C80124D297FD3AC09C016D
:1053A0002F7D33272835310541F4C264D25089F16D
:1053B000C80117D297FF07C02CC0B6FE02C0C2605A
:1053C00001C0C261DA2D812C912C540120ED280FEF
:1053D000283078F0C4FF03C0B80141D217C02A308A
:1053E00040F0C6FFF9CF2F7D3FEE320F3630A0F7E9
:1053F00027504C2FC501B40163DF4B015C01C26033
:10540000D15051F0C801EDD197FFE0CFC1FD04C0EC
:10541000B0CF812C912C5401C7FF08C0B094A09448
:1054200090948094811C911CA11CB11C2C2FB5015F
:10543000A401C70139DF81E0DF91CF911F910F9166
:10544000FF90EF90BF90AF909F908F900895A0E253
:10545000B0E0ECE2FAE2BCC85C01962E7A01F901F8
:105460008E010F5F1F4F680180E2D8011D928A955F
:10547000E9F7D50113968C9080E090E0612C712CB7
:1054800030E061E070E083FC259183FE21918F0183
:10549000522E211103C080E090E090C02E3511F40F
:1054A000009751F1432F50E0481759073CF42D3530
:1054B00059F12D3219F4772009F103C0772009F44E
:1054C00068C0452D469546954695D601A40FB11D59
:1054D000452D47708B0102C0000F111F4A95E2F75E
:1054E000A8015C91452B4C93651459F0561410F4A7
:1054F0005394E7CF5A94E5CF31E004C077247394F6
:1055000001C0712C0196BFCF772019F08E81806287
:105510008E83311103C08824839417C0F6019E0145
:105520002F5D3F4F8081809581932E173F07D1F7E4
:10553000F2CFE114F10429F0D7018C93F7013196F1
:105540007F019A94812C9920E9F0C5014AD197FDF9
:1055500017C0FC01FF2723E0F595E7952A95E1F7B1
:10556000EC0DFD1D208130E0AC014770552702C0D5
:10557000359527954A95E2F720FDDBCFB5016FD130
:10558000811089CFE114F10411F0D7011C92C801F8
:1055900015C0422F469546954695D601A40FB11DDC
:1055A000422F47708B0102C0000F111F4A95E2F78E
:1055B000A8015C91452B4C93622EA4CFA096EFE0FE
:1055C00023C8A0E0B0E0E6EEFAE202C86C01EB010D
:1055D0005A01FC0117821682512CF601E380FE016C
:1055E000E3FC8591E3FE8191182FEF01882309F4F4
:1055F000E0C090E0EADC892B19F0C60188DEEDCF2F
:10560000153241F4FE01E3FC1591E3FE1191EF0127
:10561000153271F4C601E5D097FDC9C0412F50E0A5
:105620009C01332724173507C1F2B60118D1C1C038
:105630001A3239F4E3FC1591E3FE1191EF0101E018
:1056400001C000E0F12C20ED210F2A3078F4026037
:105650006F2D70E080E090E040E232DEF62EFE0139
:10566000E3FC1591E3FE1191EF01EDCF01FF03C0C3
:10567000F11003C09EC0FF24FA94183619F01C36AE
:1056800051F010C0FE01E3FC1591E3FE1191EF0112
:10569000183641F408600460FE01E3FC1591E3FE56
:1056A0001191EF01112309F484C0612F70E089ED9D
:1056B00091E08CD0892B09F47CC000FD07C0F50176
:1056C00080809180C50102965C0102C0812C912CE2
:1056D0001E3649F4F6014681578160E070E0202FC4
:1056E000C401E2DD7ACF1336A1F401FD02C0FF242C
:1056F000F394C60176D097FD5AC08114910429F025
:10570000F4018083C40101964C01FA94F110F1CFA9
:105710004AC01B3551F49E01A4016F2DC60197DECE
:10572000EC01892B09F03FC039C0C601F0DD97FDBF
:105730003EC01F3649F128F4143621F1193639F1EB
:1057400025C0133771F01537E9F020C0811491049A
:1057500029F0F4016082C40101964C01FA94FF2003
:1057600059F0C6013ED03C0197FD06C02EDC892BC6
:1057700069F3B601C30173D081149104A1F0F4015F
:10578000108211C0006203C0006101C00064202FBC
:10579000A4016F2DC601D1DD811105C0F601838101
:1057A000807329F406C000FD18CF539416CF5520FE
:1057B00019F0852D90E002C08FEF9FEFCDB7DEB7D7
:1057C000EFE00C940423992788270895FC010590A5
:1057D000061621F00020D9F7C00108953197CF01B6
:1057E0000895CF93DF93EC012B8120FF33C026FF78
:1057F0000AC02F7B2B838E819F8101969F838E838E
:105800008A8190E029C022FF0FC0E881F981808160
:10581000082E000C990B009719F420622B831AC0F4
:105820003196F983E8830EC0EA85FB85099597FFD9
:1058300009C02B81019611F080E201C080E1822B2A
:105840008B8308C02E813F812F5F3F4F3F832E8384
:10585000992702C08FEF9FEFDF91CF910895FB0151
:10586000238120FF12C026FD10C08F3F3FEF93071A
:1058700061F082832F7D206423832681378121502C
:10588000310937832683992708958FEF9FEF089575
:10589000DB018F939F930E94DB22BF91AF91A29F68
:1058A000800D911DA39F900DB29F900D112408951E
:0458B000F894FFCF9A
:1058B400E8031A679C40000000001A679C4000003F
:1058C40000001A679C40000000001A679C4000001A
:1058D40000000000000300000000A319B319000039
:1058E4004572726F722E203C70696E3E206D757326
:1058F4007420656974686572206265203C322E2EBE
:10590400393E2C203C62302E2E62373E2C203C63E4
:10591400302E2E63373E206F72203C64302E2E646E
:10592400373E004572726F722E203C307C313E202F
:105934006D7573742062652030206F7220310045CC
:1059440072726F722E205B70755D206D757374209A
:105954006265207075004572726F7221204F6E650A
:10596400206F72206D6F726520646174652D746997
:105974006D65206669656C64732061726520696E6B
:1059840076616C6964002530326868752D25303283
:105994006868752D2530326868750025303268686E
:1059A400753A2530326868753A2530326868750072
:1059B4002500240023000201010100010001000070
:1059C400505051515252531B5B33326D001B5B30AC
:0259D4006D0064
:00000001FF
