:10000000C2C70000DDC70000DBC70000D9C7000081
:10001000D7C70000D5C70000D3C700000C94E21773
:10002000CFC70000CDC70000CBC700000C94440C24
:10003000C7C70000C5C70000C3C70000C1C7000094
:10004000BFC70000BDC700000C9495180C94CA18D7
:100050000C94FC180C946F0BB3C70000B1C70000E0
:10006000AFC70000ADC700001C102F104210551084
:1000700068107B109110AA10272229222B222D22F2
:100080002F22312233223522372242224422462295
:1000900048224A224C224E22502252226E616E0089
:1000A000696E66004E414E494E495459494E46CDFF
:1000B000CCCC3D0AD7233C17B7D13877CC2B32951F
:1000C00095E6241FB14F0A000020410000C84200FD
:1000D000401C4620BCBE4CCA1B0E5AAEC59D7400C7
:1000E000407A10F35A00A0724E18090010A5D4E807
:1000F0000000E87648170000E40B54020000CA9A9A
:100100003B000000E1F505000080969800000040EB
:10011000420F000000A08601000000102700000030
:1001200000E803000000006400000000000A000076
:100130000000000100000000002C76D888DC674F2A
:100140000823DFC1DFAE59E1B1B796E5E3E453C65A
:100150003AE651997696E8E6C28426EB898C9B6252
:10016000ED407C6FFCEFBC9C9F40F2BAA56FA5F4FC
:1001700090055A2AF75C936B6CF9676DC11BFCE024
:10018000E40D47FEF520E6B500D0ED902E03009477
:100190003577050080841E080000204E0A0000000C
:1001A000C80C333333330F986E12831141EF8D2116
:1001B00014893BE65516CFFEE6DB18D1844B381B7D
:1001C000F77C1D901DA4BBE424203284725E228142
:1001D00000C9F124ECA1E53D276364696E6F70737B
:1001E0007578585B004144432564203A205363618D
:1001F0006C65203D2025662C204F66667365742053
:100200003D2025660A004E756D626572206F66207E
:1002100073616D706C6573203D2025640A00536125
:100220006D706C696E672072617465203D2031309D
:10023000303020487A0A004572726F722E20556E57
:1002400061626C6520746F20636F6E7665727420D6
:100250003C6F66667365743E20746F20666C6F61D8
:1002600074004572726F722E20556E61626C65204B
:10027000746F20636F6E76657274203C7363616C7B
:10028000653E20746F20666C6F6174004572726FFA
:10029000722E203C63683E206D7573742062652069
:1002A0003020746F2033004572726F722E203C6EC6
:1002B00072206F662073616D706C65733E206D7582
:1002C00073742062652031303020746F20363030F6
:1002D000303000253034750925660A004572726F8A
:1002E000722E203C63683E206D7573742062652019
:1002F0003020746F203300092566002530356400F6
:10030000E50C4004350EDF03D70D8403EE0D5B03CF
:10031000380D2003000000001C030003616463002B
:10032000580300005703280353616D706C6520610A
:100330006C6C20414443206368616E6E656C732071
:10034000756E74696C205350414345206973207069
:100350007265737365640000736300820301017D3D
:1003600003630353616D706C652073696E676C6520
:1003700020414443206368616E6E656C003C636895
:100380003E007300D3030101C3038C035365742043
:100390006E756D626572206F662073616D706C653D
:1003A0007320616363756D756C6174656420666F3D
:1003B00072206561636820414443206368616E6E0A
:1003C000656C003C6E72206F662073616D706C65A9
:1003D000733E006366675F73616D706C6573003CAC
:1003E0000403032604E703436F6E6669677572654D
:1003F000206C696E65617220666974206F662041A9
:100400004443206368616E6E656C202879203D202E
:100410007363616C65207820414443202B206F6614
:100420006673657429003C63683E203C7363616CAD
:10043000653E203C6F66667365743E0063666700C8
:100440005D0400005C0448045265706F72742041C2
:1004500044432073657474696E67730000696E6647
:100460006F007C0EA404800E76040000000072046D
:1004700062046C656400A00400009F047E0444696B
:100480007361626C65204C45442028696620535096
:1004900049206973206E6F742075736564290000AC
:1004A0006F666600CE040000CD04AC04456E616248
:1004B0006C65204C45442020286966205350492013
:1004C0006973206E6F7420757365642900006F6E08
:1004D000002870756C6C2D75702044697361626CB6
:1004E000656429002870756C6C2D757020456E61EF
:1004F000626C65642900494E203D20302000494E41
:10050000203D20312000444952203D20492C20002C
:1005100028494E203D2030290028494E203D2031D9
:1005200029004F5554203D203020004F5554203D88
:1005300020312000444952203D204F2C2000203AF9
:100540002000203D203078253032782020200044C3
:100550003900443800443700443600443500443400
:100560000044330044320050494E442000504F5262
:1005700054440044445244200050494E432000500B
:100580004F5254430044445243200050494E4220AD
:1005900000504F525442004444524220000A20204E
:1005A0002020202020204845582020202037203699
:1005B00020352034203320322031204F0A0070753E
:1005C00000310A00300A004572726F722E203C70B2
:1005D000696E3E20737566666978206D7573742048
:1005E000626520302E2E37004572726F722E203CCD
:1005F00070696E3E20707265666978206D757374DF
:1006000020626520622C2063206F72206400457296
:10061000726F722E203C70696E3E206D757374206F
:10062000626520322C332C342C352C362C372C3868
:10063000206F72203900340F3607D1110207701174
:10064000AE0636117B061111570600000000520657
:1006500036066770696F007906010173065F0652FE
:10066000656164204750494F2070696E20696E7043
:100670007574003C70696E3E006900AC060202A011
:100680000683065772697465204750494F20706988
:100690006E206F75747075742030206F7220310079
:1006A0003C70696E3E203C307C313E006F00FF069E
:1006B0000102F406B606436F6E66696775726520BF
:1006C0004750494F2070696E20617320696E7075C4
:1006D000742E204F7074696F6E616C6C7920507548
:1006E0006C6C55702063616E20626520656E61627E
:1006F0006C6564003C70696E3E205B70755D0063E4
:1007000069003307020227070A07436F6E666967AD
:10071000757265204750494F2070696E20617320C3
:100720006F7574707574003C70696E3E203C307C4F
:10073000313E00636F00500700004F073E075265CF
:10074000706F7274204750494F20696E666F0000C9
:10075000696E666F004572726F722E20534441209D
:10076000697320302E20547279204932432042751B
:10077000732052657365742070726F63656475725F
:10078000650A004572726F722E2053434C206973C4
:1007900020300A00310A00300A00534441203D2035
:1007A00000310A00300A0053434C203D20004572BE
:1007B000726F722E2053434C20697320302E2049D3
:1007C00032432042757320726573657420726571BF
:1007D00075697265732053434C20746F20626520E5
:1007E00072656C6561736564004572726F722E206C
:1007F00053444120697320302E20547279204932AD
:1008000043204275732052657365742070726F6364
:1008100065647572650A004572726F722E205343CB
:100820004C20697320300A002530325820520A00CB
:100830002530325820570A004572726F72210045E8
:1008400072726F722E203C646174613E206174206C
:10085000696E64657820256420696E76616C6964D0
:100860000A004572726F722E203C6164723E206DE8
:10087000757374206265203020746F203132370028
:100880002530325820004572726F72210045727215
:100890006F722E203C6E72206F66206279746573D1
:1008A0003E206D757374206265203120746F203195
:1008B00036004572726F722E203C6164723E206D6C
:1008C000757374206265203020746F2031323700D8
:1008D0003212E2094A13B50966138509E7123C0989
:1008E0007812F00800000000EC08D00869326300BC
:1008F0003A0902022609F8085265616420757020E1
:10090000746F203136206279746573206F662064BD
:100910006174612066726F6D20616E2049324320E0
:10092000736C617665003C6164723E203C6E72209F
:100930006F662062797465733E0072008309010955
:1009400070094409577269746520757020746F20AE
:1009500038206279746573206F6620646174612049
:10096000746F20616E2049324320736C617665009C
:100970003C6164723E203C64303E202E2E205B643D
:10098000375D007700B0090000AF098D095363613E
:100990006E20666F7220616C6C20636F6E6E656393
:1009A0007465642049324320736C6176657300007E
:1009B0007363616E00DE090000DD09BD09506572D8
:1009C000666F726D204932432062757320726573C1
:1009D00065742070726F6365647572650000727370
:1009E00074000D0A00000C0AEA095265706F7274F7
:1009F00020737461747573206F662053434C2061BB
:100A00006E64205344412070696E730000696E6605
:100A10006F003414550AD213260A00000000220A7F
:100A2000120A72746300530A02023D0A2E0A5772B8
:100A3000697465205254432074696D65003C79796E
:100A40002D6D6D2D64643E203C68683A6D6D3A737F
:100A5000733E0077006C0A00006B0A5D0A52656104
:100A600064205254432074696D6500007200446F25
:100A70006E652E2041637475616C2062617564201F
:100A800072617465203D20256C7520487A0A004506
:100A900072726F722E20496E636F7272656374207A
:100AA000706172616D61746572733B20756E616215
:100AB0006C6520746F20696E697469616C69736517
:100AC00020535049004572726F723A205B6F726416
:100AD00065725D206D757374206265206C73622091
:100AE0006F72206D7362006C7362006D7362000040
:100AF0004572726F722E205B6D6F64655D206D753F
:100B0000737420626520302C20312C2032206F72CB
:100B10002033004572726F722E205B626175645DD6
:100B2000206D757374206265203020746F20256CF1
:100B30007520487A0A004572726F723A20496E76C3
:100B4000616C696420706172616D65746572006CBE
:100B50006F00686900004572726F722E203C6461FC
:100B600074613E20617420696E646578202564207C
:100B7000696E76616C69640A0030782530327820BD
:100B8000004572726F722E203C6E72206F6620627A
:100B9000797465733E206D75737420626520312011
:100BA000746F20313600307825303278200045725D
:100BB000726F722E203C646174613E206174206902
:100BC0006E64657820256420696E76616C69640ABC
:100BD00000A114F60C3116C00C56147D0CD9153733
:100BE0000C6C15F10B00000000ED0BD10B7370695C
:100BF00000350C0108280CF90B45786368616E67B5
:100C00006520757020746F203820627974657320B8
:100C10006F66206461746120746F20616E20535090
:100C20004920736C617665003C64303E202E2E2096
:100C30005B64375D0078007B0C01016D0C3F0C524A
:100C400065616420757020746F203136206279747C
:100C50006573206F6620646174612066726F6D2019
:100C6000616E2053504920736C617665003C6E7252
:100C7000206F662062797465733E007200BE0C01BD
:100C800008B10C850C577269746520757020746FFB
:100C90002038206279746573206F66206461746106
:100CA00020746F20616E2053504920736C6176650B
:100CB000003C64303E202E2E205B64375D007700C0
:100CC000F30C0101EB0CC80C54616B6520636F6E73
:100CD000666967757265642043532070696E206C85
:100CE0006F77206F722068696768003C6C6F7C6862
:100CF000693E00637300270D00050C0DFE0C436F69
:100D00006E66696775726520535049005B63735D59
:100D1000205B626175645D205B6D6F64655D205B67
:100D20006F726465725D006366670000006E0400A8
:100D3000004E06000018030000E8080000E90B0060
:100D4000001E0A8D1E4B0D00000000B30D00019B1C
:100D50000D530D446973706C6179206C6973742054
:100D60006F6620636F6D6D616E6473207769746860
:100D70002068656C702E204F7074696F6E616C6CAA
:100D80007920746865206C6973742063616E2062D9
:100D90006520726564756365642E005B636D64280D
:100DA00073292073746172747320776974682E2EAE
:100DB0002E5D0068656C7000205F5F5F5F20202003
:100DC0005F5F20205F5F20544D0A7C20205F205C05
:100DD00020205C205C2F202F0A7C207C5F29207C37
:100DE00020205C20202F0A7C20205F5F2F202020E5
:100DF0002F20205C205049434F4E4F4D4958202D05
:100E000020456D62656464656420456C6567616E4C
:100E100063650A7C5F7C20202020202F5F2F5C5F91
:100E20005C2020202068747470733A2F2F706963DF
:100E30006F6E6F6D69782E636F6D0A0A00203A201D
:100E4000004572726F7221204E756D626572206F5F
:100E50006620706172616D657465727320696E637E
:100E60006F72726563740A004572726F722120435B
:100E70006F6D6D616E64206E6F7420666F756E6449
:100E80000A0054797065202768656C702720746F9C
:100E900020676574206C697374206F6620636D64CD
:100EA0007320776974682068656C7020646573636B
:100EB00072697074696F6E730A0A5441422020206F
:100EC000746F206379636C652F6175746F636F6DE8
:100ED000706C65746520636D642873290A55502F02
:100EE000444E20746F20726563616C6C206F6C647B
:100EF00020636D647320696E20686973746F727902
:100F00000A454E54455220746F20657865637574A8
:100F10006520636D640A3C2E2E2E3E206172652092
:100F2000726571756972656420706172616D657456
:100F30006572730A5B2E2E2E5D20617265206F70C4
:100F400074696F6E616C20706172616D6574657239
:100F5000730A0A0025303268752D25303268752DE8
:100F600025303268752025303268753A2530326870
:100F7000753A253032687500001F1C1F1E1F1E1F8A
:100F80001F1E1F1E1F0011241FBECFEFD8E0DEBFA3
:100F9000CDBF12E0A0E0B1E0E0EAF8E502C00590C4
:100FA0000D92A831B107D9F724E0A8E1B2E001C061
:100FB0001D92A736B207E1F70E946B160C944E2CD7
:100FC0001FC8A3E1B0E0E7EEF7E00C94C7226C0184
:100FD0004B012A01FC0117821682838181FF43C3E2
:100FE000AE014F5F5F4F3A01F6019381F40193FD2B
:100FF000859193FF81914F01882309F430C3853295
:1010000039F493FD859193FF81914F01853239F435
:10101000B60190E00E94522852012501E5CF10E070
:10102000F12C20E02032A0F48B3269F030F48032D1
:1010300059F0833269F420612CC08D3239F080334D
:1010400039F4216026C02260246023C0286021C0BA
:1010500027FD27C030ED380F3A3078F426FF06C060
:10106000FAE01F9F300D1124132F13C04AE0F49EA5
:10107000300D1124F32E20620CC08E3221F426FD97
:10108000EEC2206406C08C3611F4206802C0883697
:1010900041F4F40193FD859193FF81914F018111FA
:1010A000C1CF9BEB980F933018F42061805E06C08F
:1010B0009BE9980F933008F071C12F7E26FF16E050
:1010C0002F73322E853619F42064322E08C08636EE
:1010D00021F4F22FF0683F2E02C01111115037FE9B
:1010E00007C01C3350F4EE24E394E10E27E00BC05C
:1010F000183038F027E017E005C027E04CE3E42E75
:1011000002C0212FE12C520144E0A40EB11CF201D7
:1011100060817181828193810E2DA3010E941B2722
:101120002C01098100FF02C003FF07C031FC08C089
:1011300032FE09C030E2232E07C02DE2222E04C069
:101140009BE2292E01C0212C802F8C7019F02110D8
:1011500068C2A8C237FE0FC0E40C04FF04C08A8135
:10116000813309F4EA941E1474F5F8E0FE1578F55D
:1011700088E0E82E2CC036FC2AC0812F90E0841530
:1011800095059CF02CEF42162FEF520674F0432D7C
:101190004068342E0AC0E2E0F0E0EC0FFD1FE10FE2
:1011A000F11D8081803319F411501111F4CF37FEF5
:1011B0000EC0EE24E394E10E812F90E0481659060C
:1011C0002CF4141904C0EE24E39401C010E037FE9F
:1011D00006C01414150434F4C201019605C085E05C
:1011E00090E002C081E090E021100196112331F0DF
:1011F000212F30E02F5F3F4F820F931F2F2D30E0C4
:101200008217930714F4F81A01C0F12C832D89700A
:1012100049F4FF2039F0B60180E290E00E945228A4
:10122000FA94F7CF222029F0B601822D90E00E9497
:10123000522833FC09C0FF2039F0B60180E390E06A
:101240000E945228FA94F7CF37FE5AC0942D852D6C
:1012500057FE02C090E080E0292E382E20E030E0DA
:10126000A2014E1951095D874C87A2014219530909
:101270005F874E87612F70E044275527461B570B29
:10128000598B488B5FEF2516350649F4B6018EE27F
:1012900090E02A8B3B8B0E9452283B892A8942147A
:1012A00053046CF04C855D854215530544F4EE857E
:1012B000FF85E20FF31FE60DF71D818101C080E37A
:1012C00051E0251A31082F5F3F4F4889598924166C
:1012D00035064CF0B60190E02A8B3B8B0E945228D9
:1012E0002A893B89CFCF2414350439F49A81963367
:1012F00018F4953311F404FF81E3B60190E04BC07C
:101300008A81813309F00F7EB60190E00E94522855
:10131000111105C034FC18C085E690E017C0B60175
:101320008EE290E00E94522882E0EE24E394E80EE0
:10133000F301E80FF11D8081B60190E00E94522870
:1013400011508E2D91F7E6CF85E490E0B6010E9412
:10135000522857FC05C04114510439F404FF05C05C
:101360005194419451088DE201C08BE2B60190E0A6
:101370000E94522880E39AE0491651042CF08F5FB6
:101380005AE0451A5108F7CFB60190E00E94522862
:10139000B601C201C0960E94522857C1833631F06F
:1013A000833779F0833509F058C021C05201E2E05B
:1013B000AE0EB11CF2018081898301E010E02301AF
:1013C00014C05201F2E0AF0EB11CF2014080518016
:1013D00026FF03C0612F70E002C06FEF7FEFC201F4
:1013E0002A8B0E9447288C012A892F7715C0520129
:1013F000F2E0AF0EB11CF2014080518026FF03C025
:10140000612F70E002C06FEF7FEFC2012A8B0E9454
:101410003C288C012A892068322E23FD1AC08F2D8A
:1014200090E008171907A8F4B60180E290E00E9446
:101430005228FA94F4CFF20137FC859137FE81915E
:101440002F01B60190E00E945228F110FA94015049
:1014500011090115110579F7F8C0843611F08936A4
:1014600059F5520127FF09C0F4E0AF0EB11CF2019B
:1014700060817181828193810AC0F2E0AF0EB11C5C
:10148000F20160817181072E000C880B990B2F7679
:10149000322E97FF09C090958095709561957F4F8A
:1014A0008F4F9F4F2068322E2AE030E0A3010E9428
:1014B000C428E82EE6183FC0022F853721F40F7E9E
:1014C0002AE030E01DC0097F8F3691F018F488358E
:1014D00059F0C5C0803719F0883711F0C0C00061DD
:1014E00004FF09C0046007C024FF08C0066006C0EE
:1014F00028E030E005C020E130E002C020E132E029
:10150000520107FF09C0F4E0AF0EB11CF201608187
:1015100071818281938108C0F2E0AF0EB11CF201AB
:101520006081718180E090E0A3010E94C428E82ED0
:10153000E6180F77302E36FE0BC0332D3E7FE116B6
:1015400050F434FE0AC032FC08C0332D3E7E05C084
:101550000E2D332D03C00E2D01C0012F34FF0CC002
:10156000FE01EE0DF11D8081803311F4397E08C03B
:1015700032FF05C00E5F04C0832F867809F00F5F2D
:1015800033FD13C030FF06C01E2D0F1518F41F0DBC
:10159000101B0F2D0F1568F4B60180E290E03B8B15
:1015A0000E9452280F5F3B89F5CF0F1510F4F01AF7
:1015B00001C0F12C34FF12C0B60180E390E03B8BF8
:1015C0000E9452283B8932FF17C031FD03C088E7D3
:1015D00090E002C088E590E0B6010CC0832F8678C9
:1015E00059F031FF02C08BE201C080E237FD8DE28D
:1015F000B60190E00E945228E11638F4B60180E36B
:1016000090E00E9452281150F7CFEA94F301EE0DBA
:10161000F11D8081B60190E00E945228E110F5CFC3
:1016200014C0F4E0FF1558F584E0F81A33FE1EC02C
:10163000211026C003FF2AC00CE910E0F32DF07141
:101640003F2EF8018491811124C0FF2009F4E5CCDC
:10165000B60180E290E00E945228FA94F6CFF6019B
:101660008681978126C08FEF9FEF23C0B60180E26D
:1016700090E00E945228FA94F110F8CFD9CFF12CC3
:10168000B601822D90E00E945228D4CF00EA10E0EB
:10169000D5CF31108052B60190E00E9452280F5FE2
:1016A0001F4FCFCF23E02F1510F483E0BECFF12CD6
:1016B000C1CF6396E2E10C94E322813041F028F03F
:1016C000823039F0833039F0089580E405C081E438
:1016D00003C082E401C083E480937C0008951F92DC
:1016E0000F920FB60F921124CF92DF92EF92FF92DA
:1016F0000F931F932F933F934F935F936F937F931A
:101700008F939F93AF93BF93EF93FF93CF93DF9309
:1017100000D0CDB7DEB780917800909179009A83A0
:101720008983A091590280915E0249815A8198E093
:10173000899F90011124F901A11117C0E75CFD4FA9
:10174000608171814617570710F451834083F90176
:10175000E75CFD4F628173816417750710F4538352
:101760004283F901E75CFD4F16C0E75EFD4F6081E3
:1017700071814617570710F451834083F901E75EE2
:10178000FD4F628173816417750710F453834283A0
:10179000F901E75EFD4F04811581268137816801DB
:1017A0007901C40ED51EE11CF11CC482D582E682EB
:1017B000F7828F5F80935E02843038F47EDF809101
:1017C0007A00806480937A0044C010925E02809117
:1017D0005C0290915D02009731F0019790935D0259
:1017E00080935C0236C080915A0290915B02909384
:1017F0005D0280935C02A11118C081E080935902C0
:10180000E9E1F2E08FEF9FEF9183808313821282F0
:101810001482158216821782389622E0E933F20785
:1018200099F781E08093180214C010925902E9E3FD
:10183000F2E08FEF9FEF91838083138212821482F4
:10184000158216821782389622E0E935F20799F759
:10185000E8CF0F900F90DF91CF91FF91EF91BF9163
:10186000AF919F918F917F916F915F914F913F9138
:101870002F911F910F91FF90EF90DF90CF900F90DD
:101880000FBE0F901F9018951F920F920FB60F92D8
:1018900011248F9380915E02811108C080E48093AF
:1018A0007C0080917A00806480937A008F910F9001
:1018B0000FBE0F901F90189590E490937C00FDDE72
:1018C00087E880937A0080917A00806480937A0020
:1018D00080917A0086FDFCCF10927A00809178008A
:1018E0009091790008959C01E9E3F2E0A9E1B2E06A
:1018F0008FEF9FEF9183808313821282148215826F
:101900001682178211969C938E9313961C921E92A8
:10191000129714961D921D921D921C92179738963D
:10192000189642E0E935F40729F710925E0210920A
:10193000590270935D0260935C0270935B02609346
:101940005A02109218028DE880937A00109280005B
:1019500089E0809381001092850010928400B90183
:1019600076956795CB01A0E0B0E0BC01CD017C5D30
:101970008B409F4F40E050E00E946A222150310985
:10198000309389002093880080916F00826080935B
:101990006F0008951092810010927A00089580914E
:1019A000180208951092180208952091590290E0AB
:1019B00033E0880F991F3A95E1F7211103C0875E44
:1019C0009D4F0895875C9D4F0895EF92FF920F936E
:1019D0001F93CF93DF938EE192E09F938F930E94AA
:1019E0008A28809101018F93809100018F9386E076
:1019F00092E09F938F930E948A28C0E0D1E00F90DD
:101A00000F900F900F900F900F9000E010E085EE78
:101A1000E82E81E0F82E89858F9388858F938F81BA
:101A20008F938E818F938D818F938C818F938B81F8
:101A30008F938A818F931F930F93FF92EF920E944F
:101A40008A280F5F1F4F28968DB79EB70C960FB64A
:101A5000F8949EBF0FBE8DBF04301105E1F680E003
:101A600090E0DF91CF911F910F91FF90EF9008953B
:101A70004F925F926F927F928F929F92AF92BF929E
:101A8000CF92DF92FF920F931F93CF93DF931F921A
:101A9000CDB7DEB7609100017091010188EE93E04F
:101AA00022DF00E010E09BEFA92E92E0B92E27EF95
:101AB000822E22E0922E73DF882309F456C072DF53
:101AC0001F930F93BF92AF920E948A2880E0C82E86
:101AD00081E0D82E0F900F900F900F90F12C8F2D4A
:101AE00064DFFC0164817581868197810E94CB232C
:101AF0002B013C01609100017091010180E090E0B8
:101B00000E94CB239B01AC01C301B2010E9463235D
:101B1000F60122813381448155810E945924F601C6
:101B200026813781408551850E94FF229F938F93A4
:101B30007F936F939F928F920E948A28F394F8E08C
:101B4000CF0ED11C0F900F900F900F900F900F9011
:101B500084E0F812C4CF60916104709162048AE05D
:101B600090E00E9452280F5F1F4FBE016F5F7F4FB2
:101B700087E594E00E949119882309F49CCF89811C
:101B8000803209F098CF06DF80E090E00F90DF917F
:101B9000CF911F910F91FF90DF90CF90BF90AF90AA
:101BA0009F908F907F906F905F904F90089540E648
:101BB0005AEE64E670E080E00E940F20882359F01E
:101BC00080915B0490915C049093010180930001EB
:101BD00080E090E0089587EA92E008950F931F93C4
:101BE000CF93DF9343E060E080E00E94C61F88232C
:101BF000A9F180915B04C82FD0E05EDE8C0183E008
:101C0000CC0FDD1F8A95E1F7C050DF4FB80180E0AF
:101C100090E00E94CB232A813B814C815D810E9410
:101C200059242E813F81488559850E94FF229F9328
:101C30008F937F936F931F930F9383ED92E09F9306
:101C40008F930E948A288DB79EB708960FB6F89496
:101C50009EBF0FBE8DBF80E090E002C08CED92E091
:101C6000DF91CF911F910F910895CF92DF92EF9264
:101C7000FF92CF9343E060E080E00E94C61F88237C
:101C800069F1C0915B0481E00E94B720882349F18B
:101C9000C0905B04D0905C04E0905D04F0905E0422
:101CA00082E00E94B7208823F9F080915B04909134
:101CB0005C04A0915D04B0915E0428E0C29FF00135
:101CC0001124E050FF4FC282D382E482F5828683E2
:101CD0009783A087B18780E090E008C08CE892E00D
:101CE00005C082E692E002C087E392E0CF91FF90C8
:101CF000EF90DF90CF9008952D9A80E090E00895C6
:101D00002D9880E090E00895CF92DF92EF92FF92BD
:101D10000F931F93CF93DF93062FE42EC22E9F9332
:101D20008F930E948A281F920F9382E495E09F93DD
:101D30008F930E948A280F900F900F900F900F9012
:101D40000F90C8E0D0E010E8F12CD12C6091610434
:101D500070916204812F802311F0C60101C0C70178
:101D60000E945228609161047091620480E290E0C8
:101D70000E9452281695219749F76091610470914D
:101D800062048AE090E0DF91CF911F910F91FF9064
:101D9000EF90DF90CF900C9452280F931F93CF9326
:101DA000DF931F92CDB7DEB7142F022F9F938F932F
:101DB00069830E948A288EE395E09F938F930E9407
:101DC0008A280F900F900F900F9069816623E9F099
:101DD00084E395E09F938F930E948A280F900F9041
:101DE000112319F08BE295E002C082E295E09F9307
:101DF0008F930E948A280F900F90002319F089E199
:101E000095E01FC080E195E01CC086E095E09F93BF
:101E10008F930E948A280F900F90002319F08EEF65
:101E200094E002C086EF94E09F938F930E948A28EB
:101E30000F900F90112319F084EE94E002C081ED11
:101E400094E09F938F930E948A280F900F90609147
:101E50006104709162048AE090E00F90DF91CF916D
:101E60001F910F910C945228CF93DF938DE995E049
:101E70009F938F930E948A2864B12FE449E487E9F5
:101E800095E042DF65B121E340E381E995E03CDF85
:101E900063B121E340E38BE895E036DFCFE5D4E0A2
:101EA0006A817B818AE090E00E94522867B12FE42A
:101EB00049E485E895E028DF68B121E340E38FE756
:101EC00095E022DF66B121E340E389E795E01CDF7E
:101ED0006A817B818AE090E00E9452286AB12FE4F7
:101EE00049E483E795E010DF6BB121E340E38DE641
:101EF00095E00ADF69B121E340E387E695E004DF7E
:101F00006A817B818AE090E00E94522829B14BB11E
:101F10006AB122FB222720F942FB442740F962FBE9
:101F2000662760F984E695E038DF29B14BB16AB1E4
:101F300023FB222720F943FB442740F963FB662754
:101F400060F981E695E029DF29B14BB16AB12295AC
:101F5000217042954170629561708EE595E01DDFBC
:101F600029B14BB16AB125FB222720F945FB442753
:101F700040F965FB662760F98BE595E00EDF29B136
:101F80004BB16AB126FB222720F946FB442740F9D2
:101F900066FB662760F988E595E0FFDE29B14BB165
:101FA0006AB1221F2227221F441F4427441F661F95
:101FB0006627661F85E595E0F0DE23B145B164B183
:101FC00021704170617082E595E0E7DE23B145B193
:101FD00064B12695217046954170669561708FE4D5
:101FE00095E0DBDE0F900F9080E090E0DF91CF91E5
:101FF0000895CF93DF93DC01EB014881442309F47A
:1020000002C1FB0101900020E9F7CF010197861B77
:10201000970B8330910508F0F6C08130910509F0E7
:10202000B4C050E0FA01F297E830F10508F0EEC0D4
:10203000EC5CFF4F0C94A8228BE290E011969C93ED
:102040008E938AE290E013969C938E93129789E286
:1020500090E015969C938E93149782E05EC08BE27D
:1020600090E011969C938E938AE290E013969C9355
:102070008E93129789E290E015969C938E93149715
:1020800083E04BC08BE290E011969C938E938AE2A2
:1020900090E013969C938E93129789E290E01596A8
:1020A0009C938E93149784E038C08BE290E0119655
:1020B0009C938E938AE290E013969C938E93129752
:1020C00089E290E015969C938E93149785E025C045
:1020D0008BE290E011969C938E938AE290E01396A7
:1020E0009C938E93129789E290E015969C938E9321
:1020F000149786E012C08BE290E011969C938E9329
:102100008AE290E013969C938E93129789E290E076
:1021100015969C938E93149787E016968C9316973A
:1021200014C085E290E011969C938E9384E290E037
:1021300013969C938E93129783E290E015969C934E
:102140008E93149716961C92169717961C921797B3
:1021500081E018C085E290E011969C938E9384E212
:1021600090E013969C938E93129783E290E01596DD
:102170009C938E93149781E016968C9316971796DE
:102180001C92179718968C933BC00297C9F543365B
:1021900091F04436F1F04236E1F585E290E0119697
:1021A0009C938E9384E290E013969C938E93129767
:1021B00083E290E01BC088E290E011969C938E939E
:1021C00087E290E013969C938E93129786E290E0BC
:1021D0000DC08BE290E011969C938E938AE290E082
:1021E00013969C938E93129789E290E015969C9398
:1021F0008E93149789818053883070F416968C934F
:1022000080E090E00BC080E391E008C08EE096E0B3
:1022100005C088EE95E002C087EC95E0DF91CF9194
:102220000895FB01608171818FE592E0E2DE009705
:10223000E1F4E0916302F0916402808190E000900B
:10224000650202C0959587950A94E2F780FD03C068
:1022500084EC95E002C081EC95E09F938F930E94FF
:102260008A280F900F9080E090E00895CF93DF933D
:10227000EB01688179818FE592E0BBDE009769F51B
:10228000EA81FB818081803391F0813321F5E091F7
:102290005F02F0916002208181E090E00090650291
:1022A00002C0880F991F0A94E2F7822B10C0E091B8
:1022B0005F02F0916002208181E090E00090650271
:1022C00002C0880F991F0A94E2F7809582238083C9
:1022D00080E090E002C083E791E0DF91CF91089524
:1022E0001F93CF93DF93182FEB01688179818FE5DE
:1022F00092E07FDE009709F050C0123068F06EEB7C
:1023000075E08A819B810E940428892B09F043C0D3
:1023100081E08093670202C0109267021092660209
:1023200080916702E0915F02F09160023091650256
:102330002081811109C081E090E001C0880F3A95A9
:10234000EAF78095822307C081E090E001C0880F02
:102350003A95EAF7822B808380916602309165027C
:10236000E0916102F09162022081811109C081E057
:1023700090E001C0880F3A95EAF78095822307C064
:1023800081E090E001C0880F3A95EAF7822B8083C4
:1023900080E090E002C08FE891E0DF91CF911F9143
:1023A0000895CF93DF93EB01688179818FE592E007
:1023B00020DE009709F04EC0EA81FB8180818033E6
:1023C00039F0813309F044C081E08093670202C094
:1023D0001092670281E08093660280916702E0912B
:1023E0005F02F0916002309165022081811109C085
:1023F00081E090E001C0880F3A95EAF7809582234A
:1024000007C081E090E001C0880F3A95EAF7822B7F
:1024100080838091660230916502E0916102F091C3
:1024200062022081811109C081E090E001C0880F23
:102430003A95EAF78095822307C081E090E001C0D9
:10244000880F3A95EAF7822B808380E090E002C003
:1024500083E791E0DF91CF91089540E060E084E56B
:1024600094E0F5C784E594E00E944D1A87EA97E06E
:102470009F938F930E948A280F900F90359903C0E5
:1024800084EA97E002C081EA97E09F938F930E94CD
:102490008A280F900F908AE997E09F938F930E946C
:1024A0008A280F900F90349903C087E997E002C003
:1024B00084E997E09F938F930E948A280F900F9052
:1024C000359908C083E897E09F938F930E948A28EC
:1024D0000F900F90349908C085E597E09F938F93F4
:1024E0000E948A280F900F90B8DF80E090E0089556
:1024F000AF92BF92DF92EF92FF920F931F93CF9311
:10250000DF93CDB7DEB760970FB6F894DEBF0FBE8E
:10251000CDBF4FE760E080E00E94C61F882309F42A
:102520003EC010915B0440E161E081E00E94C61F63
:102530008823C1F1D0905B04612F84E594E00E9470
:10254000FA1A4D2D50E023E08E010F5F1F4FB801A6
:1025500084E594E0F9D7882341F1780180E8A82E3A
:1025600088E0B82E8E2D801B8D1570F4F7018191B7
:102570007F011F928F93BF92AF920E948A280F9083
:102580000F900F900F90EECF6091610470916204F4
:102590008AE090E00E94522880E090E008C082EB40
:1025A00098E005C08DE898E002C086E898E0609663
:1025B0000FB6F894DEBF0FBECDBFDF91CF911F9154
:1025C0000F91FF90EF90DF90BF90AF900895BF9272
:1025D000CF92DF92EF92FF920F931F93CF93DF93EF
:1025E000CDB7DEB728970FB6F894DEBF0FBECDBFCC
:1025F000182F4FE760E080E00E94C61F8823C1F1DA
:10260000B0905B04CE0101967C0101E06C010117E2
:10261000D8F44FEF60E0802F0E94C61F81110DC0DB
:102620001F920F938FE398E09F938F930E948A28C5
:102630000F900F900F900F9015C080915B04F701E1
:1026400081937F010F5FE3CF6B2D84E594E0D2D7B8
:102650001150412F50E023E0B60184E594E032D7D9
:10266000882319F080E090E005C088E398E002C07C
:1026700082E698E028960FB6F894DEBF0FBECDBF75
:10268000DF91CF911F910F91FF90EF90DF90CF904E
:10269000BF900895CF9384E594E0FFD6359B11C099
:1026A000C8E0459888EE93E00E945422459A88EE4F
:1026B00093E00E945422C150A1F7CFDE80E090E069
:1026C00003C0CBDE8EEA97E0CF910895CF92DF92E0
:1026D000EF92FF920F931F93CF93DF931F92CDB78B
:1026E000DEB784E594E0D9D6359908C087E198E053
:1026F0009F938F930E948A280F900F90349908C05F
:1027000089EE97E09F938F930E948A280F900F90F5
:10271000A4DE00E010E080E3E82E88E0F82E98E2E6
:10272000C92E98E0D92E0038110581F1602F84E57B
:1027300094E060D723E040E050E060E070E084E5A2
:1027400094E0C0D6882351F01F930F93FF92EF922D
:102750000E948A280F900F900F900F9023E041E085
:1027600050E0BE016F5F7F4F84E594E0EDD6882393
:1027700051F01F930F93DF92CF920E948A280F90FF
:102780000F900F900F900F5F1F4FCDCF80E090E024
:102790000F90DF91CF911F910F91FF90EF90DF90FD
:1027A000CF9008950F931F93CF93DF93CDB7DEB7EC
:1027B0002C970FB6F894DEBF0FBECDBF8B01CE01B4
:1027C0000A969F938F9301969F938F9301969F9361
:1027D0008F9386ED91E09F938F93FB0181818F937F
:1027E00080818F930E94AE28CE0107969F938F938E
:1027F00001969F938F9301969F938F938BEE91E019
:102800009F938F93F80183818F9382818F930E948E
:10281000AE288C8589838B858A838A858B8389857D
:102820008C8388858D838F818E83CE0101960E9453
:10283000C8210FB6F894DEBF0FBECDBF882339F094
:10284000CE0101960E946F2180E090E002C086EAEE
:1028500091E02C960FB6F894DEBF0FBECDBFDF918E
:10286000CF911F910F910895CF93DF9300D000D0A7
:1028700000D0CDB7DEB7CE0101960E949C21CE01DB
:1028800001960E94F12160916104709162048AE0D6
:1028900090E00E94522880E090E026960FB6F894CF
:1028A000DEBF0FBECDBFDF91CF910895CF92DF92F3
:1028B000EF92FF920F931F93CF93DF93CDB7DEB7C5
:1028C00028970FB6F894DEBF0FBECDBF182FCE01EC
:1028D00001967C016C010C2D0E190117D0F44FEFFD
:1028E00060E0802F0E94C61F81110DC01F920F93C0
:1028F00086E59BE09F938F930E948A280F900F900C
:102900000F900F900DC080915B04F60181936F01D1
:10291000E2CF412F50E020E0B70189E692E075D286
:1029200080E090E028960FB6F894DEBF0FBECDBFD2
:10293000DF91CF911F910F91FF90EF90DF90CF909B
:102940000895CF92EF92FF920F931F93CF93DF934F
:10295000C82F7B01882351F0DB016D917C918FE6BC
:1029600092E047DB009709F0AFC00AC089E0E0E0E1
:10297000F2E0AFE6B2E001900D928A95E1F7A0C0D7
:10298000C23008F49DC000E012E12AE730E040E0E8
:1029900050E0BA0181E00E945C2081110DC01F92BD
:1029A0008AE78F9382E18F931F9283E19BE09F934D
:1029B0008F930E948A2875C060915B0470915C04BB
:1029C00080915D0490915E04D6D2D82FC23009F474
:1029D00078C0D7011496ED91FC91159790819133B1
:1029E00069F028F4903309F065C000E00AC0923322
:1029F00039F0933309F05EC003E003C001E001C089
:102A000002E0C33009F45EC067EE7AE083E00E9422
:102A1000941F882331F0813009F454C085EC9AE08A
:102A200053C0EE24E394E0916F02F0917002208194
:102A300041E050E0CA010090750202C0880F991F62
:102A40000A94E2F7822B8083E0917102F091720286
:102A500080810090750202C0440F551F0A94E2F76E
:102A6000482B408380916802882319F089E692E020
:102A7000B8D1C12C2D2F40E060E089E692E075D1FD
:102A80008823D9F08D2F8ED29F938F937F936F934E
:102A90008EE69AE09F938F930E948A2881E080932C
:102AA00068020F900F900F900F900F900F9080E0A2
:102AB00090E00AC080EF9AE007C08FE89AE004C077
:102AC000D0E000E0E12CAFCFDF91CF911F910F91CB
:102AD000FF90EF90CF900895BF92CF92DF92EF9248
:102AE000FF920F931F93CF93DF93CDB7DEB760971D
:102AF0000FB6F894DEBF0FBECDBF182FCE010196E2
:102B00007C016C01B82E0C2D0E190117D0F44FEF7B
:102B100060E0802F0E94C61F81110DC01F920F938D
:102B20008EEA9BE09F938F930E948A280F900F90CC
:102B30000F900F902CC080915B04F60181936F0180
:102B4000E2CF212F30E003E0A701B70189E692E050
:102B5000CFD186EAC82E8BE0D82E8E2D8B19811707
:102B600070F4F70181917F011F928F93DF92CF92D2
:102B70000E948A280F900F900F900F90EECF6091D7
:102B80006104709162048AE090E00E94522880E023
:102B900090E060960FB6F894DEBF0FBECDBFDF9118
:102BA000CF911F910F91FF90EF90DF90CF90BF904A
:102BB0000895AF92BF92DF92EF92FF920F931F930F
:102BC000CF93DF93CDB7DEB760970FB6F894DEBF33
:102BD0000FBECDBF40E161E080E00E94C61F8823A8
:102BE00071F1D0905B044D2D50E020E08E010F5F1D
:102BF0001F4FB80189E692E041D1780189E7A82EFC
:102C00008BE0B82E8E2D801B8D1570F4F70181910D
:102C10007F011F928F93BF92AF920E948A280F90DC
:102C20000F900F900F90EECF60916104709162044D
:102C30008AE090E00E94522880E090E002C081E8A3
:102C40009BE060960FB6F894DEBF0FBECDBFDF915C
:102C5000CF911F910F91FF90EF90DF90BF90AF90B9
:102C600008956FE47BE080E00E94941F8823A1F028
:102C7000813071F5E0916F02F0917002208181E066
:102C800090E00090750202C0880F991F0A94E2F745
:102C9000822B808322E012C0E0916F02F0917002DB
:102CA000208181E090E00090750202C0880F991F9A
:102CB0000A94E2F780958223808321E040E050E08F
:102CC00060E070E089E692E0A0D080E090E00895B6
:102CD00086E39BE00895CF93DF931F92CDB7DEB7D5
:102CE0000E941222ADD10E94AE219ED2CC24C39468
:102CF000E12C08E020E032EC41E050E060E087E5C4
:102D000094E09DD287E594E039D32AD09BD340E06C
:102D100060E084E594E09BD3789488EB9DE0C8D58F
:102D2000BE016F5F7F4F87E594E0FBD2882311F0EF
:102D30008981EBD583B7817F83BF83B7816083BFF0
:102D4000889583B78E7F83BFEBCF811108C06CBDA0
:102D50008DB5442311F0816001C08E7F8DBD089533
:102D6000E8E7F2E0108211820895CF92EF920F937C
:102D70001F93CF93DF93EC0119821882611129C050
:102D80004A83273050F430E0F901E05FFD4F608165
:102D9000F901E75FFD4F408102C040E060E503704C
:102DA00084E0089F80011124602B81E0E81201C0BB
:102DB00060626B834C83CD8280E0C7DF88E792E05E
:102DC00099838883809179028F5F8093790281E073
:102DD00001C080E0DF91CF911F910F91EF90CF90D4
:102DE0000895FC01A081B18111969C911197915099
:102DF00011969C931197911104C08C91811101C07F
:102E00001CBC1182108281E00895DF92EF92FF9244
:102E10000F931F93CF93DF93EC01D62EE72E8A01F9
:102E2000F22EE881F9814C816B8180818EDFF0FE8A
:102E300003C08A810E941E22ED2DFE2D0E0F1F1F42
:102E4000E017F10739F081918EBD0DB407FEFDCF7B
:102E50008EB5F6CFF1FE0AC08A81DF91CF911F9126
:102E60000F91FF90EF90DF900C943922DF91CF917A
:102E70001F910F91FF90EF90DF900895DF92EF92F6
:102E8000FF920F931F93CF93DF93EC01D62EE72E83
:102E90008A01F22EE881F9814C816B81808155DFB6
:102EA000F0FE03C08A810E941E22ED2DFE2D0E0F22
:102EB0001F1FE017F10741F08D818EBD0DB407FE95
:102EC000FDCF8EB58193F5CFF1FE0AC08A81DF91E7
:102ED000CF911F910F91FF90EF90DF900C943922CA
:102EE000DF91CF911F910F91FF90EF90DF900895A8
:102EF000BF92CF92DF92EF92FF920F931F93CF93E7
:102F0000DF93EC01D62E172FB42EC52E7901E88160
:102F1000F9814C816B81808118DF00FF03C08A81B9
:102F20000E941E22EB2DFC2DAD2DB12FEE0EFF1EAB
:102F3000EE15FF0541F08D918EBD0DB407FEFDCF5E
:102F40008EB58193F5CF01FF0CC08A81DF91CF91BF
:102F50001F910F91FF90EF90DF90CF90BF900C9456
:102F60003922DF91CF911F910F91FF90EF90DF9069
:102F7000CF90BF9008950F931F9340E000E012E1BF
:102F80002AE730E0601771078207930738F4369517
:102F90002795179507954F5F4630A1F7842F1F910E
:102FA0000F91089521E0280F80E094E2A4EFB0E0B3
:102FB000BC01CD0104C096958795779567952A95B4
:102FC000D2F708951F920F920FB60F9211242F93EC
:102FD0003F934F935F936F937F938F939F93AF93A1
:102FE000BF93EF93FF9380917C0290917D020196B5
:102FF00090937D0280937C0280917A0290917B0273
:10300000019790937B0280937A02892B41F484E6A6
:1030100090E090937B0280937A020E94F820FF91C7
:10302000EF91BF91AF919F918F917F916F915F9140
:103030004F913F912F910F900FBE0F901F901895B9
:1030400082E08093B00087E08093B1001092B200DC
:103050008BE98093B30084E690E090937B028093A9
:103060007A02E0E7F0E08081826080830895CF9269
:10307000DF92EF92FF92CF93DF93CDB7DEB7289721
:103080000FB6F894DEBF0FBECDBF6B017C0183E0AD
:10309000CC0CDD1CEE1CFF1C8A95D1F7A701960114
:1030A00060E074E284EF90E00E948C2229833A83EE
:1030B0006D837E838F83988789819A81F694E794C4
:1030C000D794C7944D815E816F8178854C155D05DD
:1030D0006E057F0508F4019728960FB6F894DEBFB9
:1030E0000FBECDBFDF91CF91FF90EF90DF90CF90DB
:1030F0000895811105C08091C10080628093C10054
:103100000895811110C01092C10082E08093C00028
:103110007093C5006093C4004093C20088E9809317
:10312000C10081E0089580E008951F920F920FB6CC
:103130000F9211242F933F934F938F939F93EF936D
:10314000FF938091C0004091C6008C71B9F420912A
:10315000A3028091A40230E090E001968F7399273A
:103160002817390759F08091A402E82FF0E0E258BF
:10317000FD4F47A38F5F8F738093A402FF91EF9160
:103180009F918F914F913F912F910F900FBE0F9074
:103190001F9018951F920F920FB60F9211248F93C4
:1031A0009F93EF93FF9390918102809182029813F5
:1031B0000BC08091C1008F7D8093C1008091C100C0
:1031C00080648093C1000FC080918102E82FF0E0FD
:1031D000E258FD4F95818F5F8F71809381029093AC
:1031E000C60010928002FF91EF919F918F910F90F6
:1031F0000FBE0F901F9018951F920F920FB60F924F
:1032000011248F93EF93FF9381E080938002E1EC90
:10321000F0E080818F7B8083FF91EF918F910F9001
:103220000FBE0F901F901895EEE7F2E0108211820A
:1032300081E082831382148215A216A20895CF9290
:10324000EF92FF920F93CF93DF93FC0111821082D4
:10325000611136C060917F02611132C0DC2DCE2D2C
:10326000CA01B9017F0103DFC13039F020F0C2305B
:1032700039F540E203C040E001C040E3063051F0C0
:1032800018F4053051F01CC0073031F00830C1F49B
:10329000466003C0426001C04460D13019F0D230B2
:1032A00079F44860BC0180E02CDF882349F02EE7E8
:1032B00032E0F7013183208391E090937F0201C0D7
:1032C00080E0DF91CF910F91FF90EF90CF90089524
:1032D000DC01ED91FC912381848130E090E0019646
:1032E0008F71992728173907B1F38481DF01A80F5F
:1032F000B11D15966C938F5F8F7184838081F9CE99
:10330000DC01ED91FC9195A186A19817E1F395A1BF
:10331000DF01A90FB11D97968C919F5F9F7395A3B5
:103320000895DC01ED91FC9195A186A1981769F0B3
:1033300085A1DF01A80FB11D97969C91DB019C939D
:103340008F5F8F7385A381E0089580E00895CF9308
:10335000C82F8A3011F48DE0FADF6C2F8091590468
:1033600090915A04B5DF80E090E0CF91089580916C
:10337000590490915A04C4DF90E0089590935A0440
:1033800080935904EFE5F4E082E291E09383828335
:1033900091838083089584E98093BC008091BC0070
:1033A00084FDFCCF81E0089594EA9093BC00909155
:1033B000BC0097FFFCCF9091B900987F9830B9F48A
:1033C000880F682B6093BB0084E88093BC008091D9
:1033D000BC0087FFFCCF8091B900887F60FF04C0EC
:1033E000803439F0D8DF03C08831E1F702C080E0D3
:1033F000089581E0089594EA9093BC009091BC00F8
:1034000097FFFCCF9091B900987F9031B9F4880F65
:10341000682B6093BB0084E88093BC008091BC0063
:1034200087FFFCCF8091B900887F60FF04C08034A3
:1034300039F0B1DF03C08831E1F702C080E00895C0
:1034400081E00895E5EEF2E0108211820895FC011A
:103450001182108261111FC042838091E6028111A6
:103460000FC08091E502811116C01092B90088E466
:103470008093B8008FEF8093BB0084E08093BC0002
:1034800085EE92E0918380838091E6028F5F809346
:10349000E60281E0089580E00895FC01A081B181F9
:1034A00011969C911197915011969C93119791119F
:1034B00005C08C91811102C01092BC001182108253
:1034C00081E00895FF920F931F93CF93DF93D62F40
:1034D000F72E8A01C22F20FD08C023FD0DC0ED2F5D
:1034E000FF2D0E0F1F1F94E80CC060E0FC018281CD
:1034F0005BDF8111F4CF17C060E0FC0182817BDFCC
:10350000F8CFE017F10789F081918093BB00909389
:10351000BC008091BC0087FFFCCF8091B900887F00
:10352000883279F338DF80E009C0C1FF06C0DF913F
:10353000CF911F910F91FF902ECF81E0DF91CF911E
:103540001F910F91FF900895EF92FF920F931F9399
:10355000CF937B018A01C22F20FD07C023FD0CC041
:1035600094EC2C2F267034E820C061E0FC018281AD
:103570001BDF8111F5CF2DC061E0FC0182813BDFB3
:10358000F8CF9093BC008091BC0087FFFCCF809166
:10359000B900887F8035E1F48091BB00F70180831A
:1035A000FFEFEF1AFF0A015011090115110599F0FB
:1035B0000130110531F7222321F33093BC008091B3
:1035C000BC0087FFFCCF8091B900887F883521F34C
:1035D000E2DE80E009C0C1FF06C0CF911F910F91CC
:1035E000FF90EF90D8CE81E0CF911F910F91FF9087
:1035F000EF900895FC01628308959091E702913065
:1036000071F018F09230A9F026C08B3121F481E0DE
:103610008093E7020CC0881F8827881F08958B3588
:1036200021F482E08093E70208951092E70282E09D
:1036300008951092E702823451F018F4813479F041
:103640000CC0833431F0843441F486E0089584E082
:10365000089585E008951092E70281E0089583E0DF
:103660000895CF93DF93CFE5D4E06A817B818BE12E
:1036700090E00E9452286A817B818BE590E00E9455
:1036800052286A817B8182E390E00E9452286A81FD
:103690007B818AE490E0DF91CF910C945228CF9304
:1036A000DF931092E702CFE5D4E06A817B818BE162
:1036B00090E00E9452286A817B818BE590E00E9415
:1036C00052286A817B8188E490E00E945228C9DFF9
:1036D00084E690E0DF91CF91F0C6CF93C82FCC2342
:1036E000D1F0609161047091620488E090E00E94E2
:1036F0005228609161047091620480E290E00E941F
:103700005228609161047091620488E090E00E9408
:103710005228C150E4CFCF91089544E050E0BC015D
:1037200080EF92E00E94FB276091F2027091F30219
:103730006115710589F08091F0029091F102892B59
:1037400019F048E050E002C044E050E088EE92E01A
:103750000E94FB2781E0089580E008951092F40212
:103760008BE29DE09093F6028093F502D6CF109203
:10377000C4038091C5038093C303F0CF8091F2020C
:103780009091F302892B69F0E091F402F0E0EE0FE2
:10379000FF1FEB50FD4F80819181049691838083C0
:1037A000BCCF80E00895E091F402E11107C08BE204
:1037B0009DE09093F6028093F50215C0F0E0EE0FC5
:1037C000FF1FED50FD4F80819181A7DFE091F40252
:1037D000F0E0EE0FFF1FEB50FD4F8091EA02909159
:1037E000EB0291838083E091F402F0E0EE0FFF1F83
:1037F000EB50FD4F8081918190CFE091F402EE2358
:1038000059F0E150E093F402F0E0EE0FFF1FEB50AF
:10381000FD4F8081918181CF80E008951F93CF93E8
:10382000DF938091C50359DFD0914103C0E0ED2FB4
:10383000F0E0ED5BFC4F10811123B1F06091610469
:1038400070916204812F90E00E94522881E08C0FD9
:10385000EC2FF0E0EA53FC4F1083DF3718F0D0E094
:10386000C82FE5CFDF5FFCCFC093C503DF91CF91B9
:103870001F9108958091F2029091F302892BB1F08B
:103880008091F0029091F102892B81F48091F402F1
:1038900081110CC081E08093F4028091EA02909142
:1038A000EB029093F8028093F70237CF80E00895FF
:1038B000CF93DF93EC01E3E4F3E083E0E33CF8072C
:1038C00011F01192FACF109242031092410310921C
:1038D000C5034DDFE4DE209731F0DF93CF930E94E4
:1038E0008A280F900F9082E89EE09F938F930E940A
:1038F0008A280F900F9060916104709162048EE3AA
:1039000090E0DF91CF910C945228EF92FF921F9399
:10391000CF93DF93C82F71DE833009F499C18430CF
:1039200009F4C4C18111F3C1C93009F4FFC0CD301D
:1039300021F0C83009F074C1E9C060916104709150
:1039400062048AE090E00E945228E091C503309121
:103950004203E11103C03093410341C0832F932FF1
:103960002E2F2150992311F0915001C09FE7C22FB3
:10397000D0E0CA53DC4FA92FB0E0AD5BBC4F5881FB
:103980004C91541303C02111ECCFE5CF26EC33E06A
:10399000D9018F3710F48F5F01C080E09D91C82F4F
:1039A000D0E0CD5BDC4F98839A2F921B9E1788F353
:1039B0008F3711F08F5F01C080E0809342038093C6
:1039C0004103A82FB0E0AD5BBC4F9C91992339F027
:1039D0001C928F3711F480E0F4CF8F5FF2CFF0E0CC
:1039E000EA53FC4F108290E0E6ECF3E010E08081B7
:1039F000803219F410823196FACF882309F11432FB
:103A000010F5823211F4319691E0A12FB0E0AA0FA7
:103A1000BB1FA750BD4FED93FC93992341F0DF01ED
:103A2000FD018D91823209F46FC18111F9CF9F019F
:103A3000F9012F5F3F4F80818F7DD1F71F5FD7CF77
:103A4000112309F459C0E091F902F091FA02808142
:103A5000833209F451C082DE8091F2029091F30228
:103A6000892B21F0F090F402F11618F088E69EE020
:103A700028C0CF2DD0E06091E8027091E902FE01EC
:103A8000EE0FFF1FE750FD4F808191810E940428B7
:103A9000892B41F4E091F002F091F102309721F48A
:103AA000E9DEDACF6BDED8CF8FEF810F8F199091DF
:103AB000EA02891720F09091EB02981738F481E41C
:103AC0009EE09F938F930E948A2814C0BE01660FC8
:103AD000771F65507D4F0995009771F09F938F93E5
:103AE0000E948A2860916104709162048AE090E0EB
:103AF0000E9452280F900F901092C50338DE6091FB
:103B00006104709162048EE390E0F7C08091C50378
:103B1000882309F4ECC081508093C50381E0DDDD8A
:103B2000DF91CF911F91FF90EF9021CEE091F402B1
:103B3000F0E0EE0FFF1FEB50FD4FC081D1811091DF
:103B4000C403E090E802F090E9024091C303141727
:103B500060F521E0210FA12FB0E0AA53BC4F3C91AA
:103B60008FEFE81AF80AF70131978491811112C09A
:103B7000303281F4122F8091F0029091F102892B62
:103B800009F0B5C077DEE090E802F090E90210930A
:103B9000C4030BC0381739F0F1DD811101C003DE19
:103BA0001091C40302C0122FD2CF9091C3031917F2
:103BB00070F4E091F402F0E0EE0FFF1FEB50FD4FC8
:103BC000808191818C179D0709F0BBCF90C08091B7
:103BD000C503891B82DDF70184918823B1F0EF01D1
:103BE00021961F3790F4FF24F394F10EE12FF0E0BB
:103BF000EA53FC4F8083609161047091620490E00D
:103C00000E945228FE011F2DE7CF1093C503B6DD99
:103C100081117DC0DF91CF911F91FF90EF90C3CDB7
:103C2000C03208F474C0E091C503EF3708F05FC0FC
:103C300081E08E0F8093C503F0E0EA53FC4FC08310
:103C400096DD60916104709162048C2F90E055C004
:103C500080914103882311F0815001C08FE790913A
:103C60004203891709F453C0882311F0815001C021
:103C70008FE7E82FF0E0ED5BFC4F9081992309F48A
:103C800046C0E82FF0E0ED5BFC4F9081992331F0C6
:103C9000882311F08150F5CF8FE7F3CF8F3710F4E1
:103CA0008F5F01C080E0809341031BC0809141037E
:103CB000E82FF0E0ED5BFC4F9081992331F08F37D6
:103CC00010F48F5FF5CF80E0F3CF90914203891716
:103CD00031F08F3718F491E0980F01C090E0909385
:103CE0004103DF91CF911F91FF90EF9097CD6091AD
:103CF00061047091620487E090E0DF91CF911F91A1
:103D0000FF90EF900C9452281082FD0190CEDF912D
:103D1000CF911F91FF90EF900895AF92BF92CF92F5
:103D2000DF92EF92FF920F931F93CF93DF93B82E02
:103D30007B0114DDC12CD12C8091F2029091F30211
:103D4000892B31F48091F402882389F156DD2BC050
:103D50008091F0029091F102892B39F1C0E0D0E01E
:103D60008091F4028D1798F0ED2FF0E0EE0FFF1F19
:103D7000EB50FD4F80819181D0DC8091E8029091E1
:103D8000E9020E940D280196C80FDF5FE9CFDC161B
:103D900008F4DC2E8091EC029091ED020E940D2837
:103DA000C81608F4C82EEADCC7CF64DDC5CFD6DC60
:103DB000D0E00DE31EE08091F2029091F302892B96
:103DC00041F48091F402882309F4A1C016DDD6DC09
:103DD0009CC08091F0029091F102892B09F494C06B
:103DE0008091F5029091F60298DCBB20A1F0F701DA
:103DF00080819181FC0101900020E9F73197AF01AA
:103E0000481B590B6091E8027091E9020E942E282C
:103E1000892B61F077C0DD2349F0609161047091D6
:103E200062048AE090E00E945228D0E0C0E0A12C19
:103E30008091F4028A1528F1EA2DF0E0EE0FFF1FC1
:103E4000EB50FD4F8081918168DC8091E9028F9376
:103E50008091E8028F930E948A286091610470919A
:103E6000620480E290E00E9452288091E8029091E2
:103E7000E9020E940D280F900F900196C80FA3949D
:103E8000D7CFCD1550F4609161047091620480E247
:103E900090E00E945228CF5FF4CF8091ED028F9383
:103EA0008091EC028F930E948A288091EC0290917D
:103EB000ED020E940D28C82F0F900F90CC1550F4E2
:103EC000609161047091620480E290E00E94522847
:103ED000CF5FF4CF1F930F930E948A288091EF0247
:103EE0008F938091EE028F930E948A2860916104E3
:103EF000709162048AE090E00E9452280F900F9027
:103F00000F900F903BDC57CFB5DCD1E054CF80E071
:103F100090E0DF91CF911F910F91FF90EF90DF9094
:103F2000CF90BF90AF900895CF92DF92EF92FF9223
:103F30001F93CF93DF937B01C091F402CF5F8C0F6F
:103F400010E0C82FD0E0CC0FDD1FC750DD4FC701F8
:103F50000E940D286C01892B71F0B701888199812D
:103F60000E940428892B49F08FEFC81AD80AEC0C5C
:103F7000FD1C1F5FECCF8FEF01C0812FDF91CF9130
:103F80001F91FF90EF90DF90CF900895EF92FF92F6
:103F90000F931F93CF93DF9300D0CDB7DEB7E62EFC
:103FA000F42E0091F4020F5F800F082F10E0000F35
:103FB000111F07501D4F40E050E0BE016F5F7F4F63
:103FC000D8018D919C912AD6E981FA81D8012D9151
:103FD0003C91E217F307C9F02081211116C00E2D84
:103FE00010E020E030E0601771078207930768F067
:103FF0000F2D10E020E030E00617170728073907DB
:1040000020F060935B0481E001C080E00F900F908E
:10401000DF91CF911F910F91FF90EF900895CF9274
:10402000DF92EF92FF920F931F93CF93DF9300D015
:10403000CDB7DEB76B017A010091F4020F5F800FFC
:10404000082F10E0000F111F07501D4F40E050E0F7
:10405000BE016F5F7F4FD8018D919C91DFD5E981C3
:10406000FA81D8012D913C91E217F307C9F0208124
:10407000211116C0860120E030E060177107820729
:10408000930770F0870120E030E006171707280734
:10409000390730F070935C0460935B0481E001C0E9
:1040A00080E00F900F90DF91CF911F910F91FF90C3
:1040B000EF90DF90CF9008954F925F926F927F9232
:1040C0008F929F92AF92BF92EF92FF920F931F93A6
:1040D000CF93DF9300D0CDB7DEB74A015B01280153
:1040E0003901E090F402E3948E0DE82EF12CC70123
:1040F000880F991F8C0107501D4F40E050E0BE0112
:104100006F5F7F4FD8018D919C9188D5E981FA81AD
:10411000D8012D913C91E217F307B9F020812111CC
:1041200014C0681579058A059B0578F04616570670
:104130006806790650F060935B0470935C0480938A
:104140005D0490935E0481E001C080E00F900F90C9
:10415000DF91CF911F910F91FF90EF90BF90AF90A3
:104160009F908F907F906F905F904F9008950F93E6
:104170001F93CF93DF9300D0CDB7DEB70091F40249
:104180000F5F800F082F10E0000F111F07501D4F09
:10419000BE016F5F7F4FD8018D919C91EDD3E98176
:1041A000FA81D8012D913C91E217F30769F0208143
:1041B00021110AC060935B0470935C0480935D04DA
:1041C00090935E0481E001C080E00F900F90DF913A
:1041D000CF911F910F910895E62FF0E0E858F04F2E
:1041E000E491623019F4837009F4EF5F8E2F089523
:1041F000CF93DF93809153048F5F8C3318F48093B7
:10420000530433C010925304809152048F5F8C3357
:1042100018F48093520429C01092520480915104E2
:104220008F5F883118F4809351041FC0109251049D
:10423000C0914F04D0914E046C2F8D2FCDDF909103
:1042400050049F5F891718F0909350040EC081E0CE
:1042500080935004CF5FCD3018F4C0934F0405C055
:1042600080934F04DF5FD0934E04809147048823EE
:1042700099F12091530490914D0429132DC0813060
:1042800049F12091520490914C04291325C08230A9
:1042900001F12091510490914B0429131DC08330EA
:1042A000C1F02091500490914A04291315C0843024
:1042B00081F020914F049091490429130DC085305D
:1042C00041F020914E0490914804291305C0863096
:1042D00019F481E080934604DF91CF910895CF9344
:1042E000DF93EC0126E0FE01AEE4B4E0822F019002
:1042F0000D928A95E1F780914E0490914F04309190
:10430000500440915104509152047D8160915304B6
:104310007613E9CF6C816513E6CF5B815413E3CF4D
:104320004A814313E0CF39813913DDCF9881981347
:10433000DACFDF91CF910895DC0196E0EEE4F4E06E
:1043400001900D929A95E1F70895FC01108281E0A9
:10435000818382831382148215820895CF93DF9321
:1043600000D000D000D0CDB7DEB710924704109235
:104370004604CE010196E9DFCE010196B0DF269614
:104380000FB6F894DEBF0FBECDBFDF91CF91089579
:104390000F931F93CF93FC0180818436E8F46181F1
:1043A0009FEF960F9C30C0F4C281CC23A9F08F01FF
:1043B00013DF2C2F30E0082E000C990B8217930787
:1043C0005CF0F8018381883138F484818C3320F4E7
:1043D00081E095819C3308F080E0CF911F910F918F
:1043E0000895FC0185811F928F9384811F928F9382
:1043F00083811F928F9382811F928F9381811F925D
:104400008F9380811F928F9384E59FE09F938F937A
:1044100081D68DB79EB70E960FB6F8949EBF0FBE8D
:104420008DBF089587E085B98CE284B980E388B9AF
:1044300017B88FEF8BB982E08AB9089590E0FC013C
:104440003197E930F105A0F4E45CFF4F81C02A9870
:1044500008955A9808955B9808955C9808955D981A
:1044600008955E9808955F9808952898089529986A
:10447000089590E0FC013197E930F105A0F4EB5B81
:10448000FF4F66C02A9A08955A9A08955B9A089534
:104490005C9A08955D9A08955E9A08955F9A0895CA
:1044A000289A0895299A0895009731F025E02A95D1
:1044B000F1F700000197F8CF0895CF93DF93EC0157
:1044C000209729F088EE93E0EFDF2197F9CFDF9175
:1044D000CF910895A1E21A2EAA1BBB1BFD010DC0AE
:1044E000AA1FBB1FEE1FFF1FA217B307E407F507A4
:1044F00020F0A21BB30BE40BF50B661F771F881F80
:10450000991F1A9469F760957095809590959B0115
:10451000AC01BD01CF010895052E97FB16F4009460
:104520000FD057FD05D0D6DF07FC02D046F408C0F7
:1045300050954095309521953F4F4F4F5F4F0895CF
:1045400090958095709561957F4F8F4F9F4F0895FF
:10455000EE0FFF1F0590F491E02D0994A29FB0018A
:10456000B39FC001A39F700D811D1124911DB29FA7
:10457000700D811D1124911D0895F0DFA59F900DF0
:10458000B49F900DA49F800D911D112408952F922A
:104590003F924F925F926F927F928F929F92AF92D3
:1045A000BF92CF92DF92EF92FF920F931F93CF9320
:1045B000DF93CDB7DEB7CA1BDB0B0FB6F894DEBFB7
:1045C0000FBECDBF09942A88398848885F846E84DD
:1045D0007D848C849B84AA84B984C884DF80EE8027
:1045E000FD800C811B81AA81B981CE0FD11D0FB630
:1045F000F894DEBF0FBECDBFED0108955058BB2724
:10460000AA270ED01CC10DD130F012D120F031F408
:104610009F3F11F41EF402C10EF4E095E7FBF8C0D1
:10462000E92F1ED180F3BA17620773078407950735
:1046300018F071F49EF536C10EF4E0950B2EBA2FEA
:10464000A02D0B01B90190010C01CA01A001112498
:10465000FF27591B99F0593F50F4503E68F11A1644
:10466000F040A22F232F342F4427585FF3CF4695D5
:1046700037952795A795F0405395C9F77EF41F16F7
:10468000BA0B620B730B840BBAF09150A1F0FF0FC1
:10469000BB1F661F771F881FC2F70EC0BA0F621FAD
:1046A000731F841F48F4879577956795B795F7959D
:1046B0009E3F08F0B3CF9395880F08F09927EE0F2F
:1046C0009795879508950CD0BAC0B2D040F0A9D084
:1046D00030F021F45F3F19F09BC05111E4C09EC03F
:1046E000BFD098F39923C9F35523B1F3951B550B0C
:1046F000BB27AA2762177307840738F09F5F5F4FB5
:10470000220F331F441FAA1FA9F333D00E2E3AF0F5
:10471000E0E830D091505040E695001CCAF729D00F
:10472000FE2F27D0660F771F881FBB1F261737075E
:104730004807AB07B0E809F0BB0B802DBF01FF278E
:1047400093585F4F2AF09E3F510568F061C0ABC09F
:104750005F3FECF3983EDCF3869577956795B795C8
:10476000F7959F5FC9F7880F911D9695879597F9E3
:104770000895E1E0660F771F881FBB1F621773075C
:104780008407BA0720F0621B730B840BBA0BEE1F71
:1047900088F7E0950895E89409C097FB3EF490955A
:1047A0008095709561957F4F8F4F9F4F9923A9F00A
:1047B000F92F96E9BB279395F69587957795679599
:1047C000B795F111F8CFFAF4BB0F11F460FF1BC0DD
:1047D0006F5F7F4F8F4F9F4F16C0882311F096E970
:1047E00011C0772321F09EE8872F762F05C066231E
:1047F00071F096E8862F70E060E02AF09A95660FD7
:10480000771F881FDAF7880F9695879597F908958F
:1048100097F99F6780E870E060E008959FEF80EC73
:10482000089500240A941616170618060906089516
:1048300000240A9412161306140605060895092E7C
:104840000394000C11F4882352F0BB0F40F4BF2BEB
:1048500011F460FF04C06F5F7F4F8F4F9F4F08952B
:1048600057FD9058440F551F59F05F3F71F0479521
:10487000880F97FB991F61F09F3F79F08795089506
:10488000121613061406551FF2CF4695F1DF08C025
:10489000161617061806991FF1CF86957105610542
:1048A00008940895E894BB2766277727CB0197F9EA
:1048B00008950BD0C4CFB5DF28F0BADF18F09523E8
:1048C00009F0A6CFABCF1124EECFCADFA0F3959F9E
:1048D000D1F3950F50E0551F629FF001729FBB27E7
:1048E000F00DB11D639FAA27F00DB11DAA1F649F93
:1048F0006627B00DA11D661F829F2227B00DA11D46
:10490000621F739FB00DA11D621F839FA00D611DCB
:10491000221F749F3327A00D611D231F849F600DEC
:10492000211D822F762F6A2F11249F5750408AF025
:10493000E1F088234AF0EE0FFF1FBB1F661F771FB1
:10494000881F91505040A9F79E3F510570F060CFED
:10495000AACF5F3FECF3983EDCF386957795679599
:10496000B795F795E7959F5FC1F7FE2B880F911DCF
:104970009695879597F90895A0E0B0E0E1ECF4E210
:104980000ACEEC017B016115710519F0DB018D93F5
:104990009C938E010F5F1F4F7880872D90E023D36B
:1049A000892B11F0E801F5CFBDE27B1205C00F5F46
:1049B0001F4F7980C1E008C0EBE27E1204C08E0177
:1049C0000E5F1F4F7980C0E06801F1E0CF1AD10877
:1049D00043E050E06CEA70E0C60128D3892BE9F48B
:1049E000680122E0C20ED11C45E050E067EA70E0A9
:1049F000C6011CD3892B21F4680187E0C80ED11CA5
:104A0000E114F10419F0D701CD92DC92C111F9C083
:104A100060E070E080E89FE7FDC043E050E064EABA
:104A200070E0C60103D3892B51F4E114F10409F4B9
:104A3000EDC00E5F1F4FF70111830083E7C06801CF
:104A400060E070E0CB0100E010E0F601D0EDD70DA2
:104A5000DA3050F52C2F2260622E2C2F2870C2FFE6
:104A600005C0211127C00F5F1F4F24C0222311F062
:104A700001501109A5E0B0E09B01AC017EDD4B01C6
:104A80005C01880C991CAA1CBB1CC501B4016D0FEC
:104A9000711D811D911D6839A9E97A078A07A9E16D
:104AA0009A0740F0C66005C0DE3F51F4C3FD44C024
:104AB000C8606C2EBFEFCB1ADB0A7080C62DC5CF45
:104AC0002D2F2F7D2531C1F540814D3211F4C0616C
:104AD00006C04B3221F0319621E030E006C032961C
:104AE000D60111964C9122E030E0A0EDA40FAA303F
:104AF00018F0E21BF30B20C040E050E04038BCE06F
:104B00005B075CF49A01220F331F220F331F420F01
:104B1000531F440F551F4A0F511D3196DF01119746
:104B20002C91A0EDA20FAA3048F3C4FF03C0519509
:104B300041955109040F151FC1FF07C0E114F1048D
:104B400021F03197D701ED93FC9325DEC370C3307C
:104B500019F06B017C0106C06B017C01F7FAF0943F
:104B6000F7F8F09420E030E0A901C701B6016AD35C
:104B7000882309F443C017FF06C011950195110958
:104B8000C3ECD0E002C0CBEDD0E05E01B8E1AB1ADF
:104B9000B1084601BE2DAF2D90E2E92EF12C0E1585
:104BA0001F057CF0FE012591359145915491B4018A
:104BB0008B2F9A2F7EDE4B01B82FA92F0E191F09BC
:104BC000EECF2497F594E794CA15DB0541F764010D
:104BD000EB2EFA2E8E2D880F8F2D881F8F3F41F0E0
:104BE00020E030E0A901C701B6012CD3811106C035
:104BF00082E290E09093660480936504C701B60159
:104C000009C060E070E080E89FEF04C060E070E001
:104C100080EC9FE7CDB7DEB7EEE0D9CCA6E0B0E000
:104C2000E3E1F6E2B4CC5C016B017A016115710538
:104C300019F0DB018D939C93E114F10429F0C70175
:104C40000297839708F0D9C03501BFEF6B1A7B0A32
:104C5000F5011081812F90E0C6D1892B11F053010D
:104C6000F3CF1D3249F43501F2E06F0E711CD5010E
:104C700011961C9101E009C01B3231F43501B2E0FC
:104C80006B0E711CF501118100E0E114F10409F4CF
:104C9000C2C0F0E1EF16F10489F4103391F5D301AD
:104CA0008C918F7D883509F0B0C011961C91B2E0CF
:104CB0006B0E711C026050E1E52EF12CEAE0EE165D
:104CC000F10409F4AEC0F0E1EF16F104D1F028E0F0
:104CD000E216F10451F438E0E32EF12C88248A9492
:104CE000982CA82C4FE1B42E12C06FEF7FEFCB01B0
:104CF00097010F2C000C440B550BECDB49015A01BA
:104D000006C088248A94982CA82C2FE0B22E7E828C
:104D10006D8260E020E030E0A90127010F2C000C3B
:104D2000660877082D803E80E0EDE10FEA3060F004
:104D30008FEB810F8A3110F4E9EC05C08FE9810F08
:104D40008A3188F5E9EAE10F8E2F90E08E159F05F4
:104D500054F56F3F01F182169306A406B506D0F014
:104D6000C301B2018BD52E2F30E040E050E0298303
:104D70003A834B835C83260F371F481F591F898155
:104D80009A81AB81BC81281739074A075B0710F06D
:104D900061E001C06FEFED81FE813196FE83ED830E
:104DA000D1011C91BFCFC114D10489F0662339F021
:104DB0008D819E810197F6019183808308C001FF58
:104DC00006C08D819E810297D6018D939C9300FF32
:104DD00007C050954095309521953F4F4F4F5F4FFD
:104DE00067FF10C082E290E09093660480936504B0
:104DF0006FEF7FEF8FEF9FEF1BC060E070E080E010
:104E000090E016C0B901CA0113C010E3E114F10427
:104E100009F461CF53CF103309F441CF9AE0E92E62
:104E2000F12C89E9882E982CA82C89E1B82E6FCF17
:104E30002696E2E1C8CB283008F027E03327DA01D4
:104E4000990F311D87FD916000966105710539F458
:104E500032602E5F3D9330E32A95E1F708959F3F3E
:104E600030F080387105610509F03C5F3C5F3D938F
:104E7000913008F08068911DDF93CF931F930F93BB
:104E8000FF92EF92192F987F9695E92F9695969518
:104E9000E90FFF27E75CFE4F99273327EE24FF2415
:104EA000A701E70105900894079428F4360FE71E40
:104EB000F81E491F511D660F771F881F991F069402
:104EC000A1F70590079428F4E70EF81E491F561F16
:104ED000C11D770F881F991F661F0694A1F70590C3
:104EE000079428F4F80E491F561FC71FD11D880FBD
:104EF000991F661F771F0694A1F70590079420F469
:104F0000490F561FC71FD81F990F661F771F881F8D
:104F10000694A9F784911095177041F0D695C7951E
:104F200057954795F794E7941A95C1F7EFEDF0E0A0
:104F300068941590159135916591959105907FE252
:104F40007395E118F10A430B560BC90BD009C0F752
:104F5000E10CF11E431F561FC91FD01D7EF4703394
:104F600011F48A95E6CFE894015030F0080F0AF466
:104F70000027021708F4202F2395022F7A3328F0F8
:104F800079E37D932A95E9F710C07D932A9589F6F8
:104F9000069497956795379517951794E118F10A38
:104FA000430B560BC90BD00998F023957E9173954E
:104FB0007A3308F070E37C932013B8F77E91706128
:104FC0007D9330F0839571E37D9370E32A95E1F74B
:104FD0001124EF90FF900F911F91CF91DF919927AE
:104FE00087FD909508959111E4C3803219F089509E
:104FF0008550D0F70895FB01DC0102C005900D92A9
:1050000041505040D8F70895FB01DC018D91059087
:1050100080190110D9F3990B0895FC010590002027
:10502000E9F7809590958E0F9F1F0895FB01DC0195
:105030004150504088F08D9181341CF08B350CF438
:10504000805E659161341CF06B350CF4605E861BEC
:10505000611171F3990B0895881BFCCFFB01DC01F2
:105060004150504030F08D910590801919F4002086
:10507000B9F7881B990B0895FC01059061507040A9
:105080000110D8F7809590958E0F9F1F0895FC0111
:105090006150704001900110D8F7809590958E0F67
:1050A0009F1F08950F931F93CF93DF93FB012381DD
:1050B00021FD03C08FEF9FEF28C022FF16C046815D
:1050C0005781248135814217530744F4A081B1816F
:1050D0009D012F5F3F4F318320838C932681378141
:1050E0002F5F3F4F3783268310C0EB01092F182F06
:1050F0000084F185E02D0995892BE1F68E819F8151
:1051000001969F838E83812F902FDF91CF911F91E6
:105110000F910895A0E0B0E0EFE8F8E246CAAE01D2
:10512000495F5F4FDA016D917D91AD010FE514E0AC
:10513000F80182819381DC0113962C9113972860EA
:1051400013962C930E94E107D8011296ED91FC91E1
:1051500013972381277F2383E4E043CAAEE0B0E0C6
:10516000E3EBF8E224CA85E08C838B899C899A83DF
:105170008983AE01495E5F4F6D897E89CE010196BC
:10518000F8D12E96E2E02FCAFA01AA27283051F171
:10519000203181F1E8946F936E7F6E5F7F4F8F4F68
:1051A0009F4FAF4FB1E03ED0B4E03CD0670F781FC7
:1051B000891F9A1FA11D680F791F8A1F911DA11DAC
:1051C0006A0F711D811D911DA11D20D009F46894E5
:1051D0003F912AE0269F11243019305D3193DEF68D
:1051E000CF010895462F4770405D4193B3E00FD043
:1051F000C9F7F6CF462F4F70405D4A3318F0495D2E
:1052000031FD4052419302D0A9F7EACFB4E0A69510
:105210009795879577956795BA95C9F70097610532
:10522000710508959B01AC010A2E06945795479588
:1052300037952795BA95C9F7620F731F841F951F7D
:10524000A01D089503D008F481E00895990F000887
:10525000550FAA0BE0E8FEEF16161706E807F90748
:10526000C0F012161306E407F50798F0621B730BE3
:10527000840B950B39F40A2661F0232B242B252B64
:1052800021F408950A2609F4A140A6958FEF811D07
:10529000811D089520FD09C0FC0123FD05C022FFEA
:1052A00002C07383628351834083089544FD10C01C
:1052B00046FD10C0DB01FC01AA0FBB1FEE1FFF1F44
:1052C0001094D1F76A0F7B1F8E1F9F1F31E003C020
:1052D00033E001C034E0660F771F881F991F3150FB
:1052E000D1F7620F711D811D911D08950F931F93BA
:1052F000CF93DF938C01C8016AD2EC0197FD06C001
:1053000072DE892BC1F7B801CE019FD2CE01DF91A9
:10531000CF911F910F910895A1E0B0E0E1E9F9E28A
:105320003CC98C01C62E7A01298351D2AC01552784
:1053300029814B32510521F04D32510561F420682D
:10534000CA94C11002C080E06FC0C80129833FD257
:10535000298197FDF8CF322F3D7FD32E322F307326
:1053600039F5803329F5BB24BA94BC0C09F449C043
:10537000C80129832CD2298197FD43C0382F3F7D56
:10538000383561F48D2D8264D82ECA94CA94CC200D
:10539000C1F1C8011CD297FF0BC033C026FF04C067
:1053A0002D2D2260D22E03C03D2D3261D32ECB2C69
:1053B000812C912C540120ED280F283078F0D4FE58
:1053C00003C0B80142D21AC02A3040F0D6FEF9CF4D
:1053D0002F7D3FEE320F3630A0F727504D2DC501FF
:1053E000B40164DF4B015C018D2D8260D82ECA941C
:1053F000CC2051F0C801EBD197FFDDCFD1FC04C028
:10540000A2CF812C912C5401D7FE08C0B094A09457
:1054100090948094811C911CA11CB11C2D2DB50170
:10542000A401C70137DF81E02196ECE0D2C8A1E2F8
:10543000B0E0ECE1FAE2AFC85C017A01CE0101967E
:105440006C0180E2F60111928A95E9F7F5018380FB
:1054500040E050E0912C712C70E0A1E0B0E0F90147
:1054600083FC859183FE81918F01982F9F0181118B
:1054700003C080E090E07AC08E3519F441155105E3
:1054800049F1E72FF0E0E417F5073CF48D3559F1C9
:105490008D3219F4772001F103C0711001C0982EEC
:1054A000892F8695869586958601080F111D892F6F
:1054B00087703D0101C0660C8A95EAF7F80180818A
:1054C00086298083991559F0991510F49F5FE8CFCC
:1054D0009150E6CF71E004C07724739401C0712C21
:1054E0004F5F5F4FBCCF772019F08E8180628E8333
:1054F000711103C09924939416C0F6019E012F5D8B
:105500003F4F808180958193E217F307D1F7F2CF67
:10551000E114F10429F0F7018083C70101967C01B1
:105520006150912CE9F0C50169A351D169A197FDA2
:1055300015C0282F269526952695F601E20FF11D18
:10554000208130E0AC014770552702C03595279582
:105550004A95E2F720FDDCCFB50177D1911089CFD4
:10556000E114F10411F0F7011082C801A196EEE0F8
:105570002EC84F925F927F928F929F92AF92BF926E
:10558000CF92DF92EF92FF920F931F93CF93DF930F
:105590001F92CDB7DEB76C012B015A01FC011782B7
:1055A0001682712CF601F380F201F3FC8591F3FE73
:1055B0008191382F2F01882309F4E5C090E03983C9
:1055C00012DD3981892B19F0C60190DEEBCF35321F
:1055D00041F4F201F3FC3591F3FE31912F013532A4
:1055E00059F4C6013983F3D0398197FDCAC0381701
:1055F000C9F2B6012AD1C7C03A3239F4F3FC359169
:10560000F3FE31912F0151E001C050E0420110E062
:1056100020ED230F2A3088F45260612F70E080E083
:1056200090E040E2598342DE162FF401F3FC3591FD
:10563000F3FE31914F015981EBCF052F232F240128
:1056400051FF03C0111102C09EC01FEF383619F080
:105650003C3659F011C0F401F3FC2591F3FE219181
:105660002F01283649F4052F08600460F201F3FC8D
:105670002591F3FE21912F01222309F484C0622F8A
:1056800070E089ED91E0298397D02981892B09F475
:105690007AC000FD07C0F501E080F180C5010296E7
:1056A0005C0102C0E12CF12C2E3649F4F601468152
:1056B000578160E070E0202FC701ECDD73CF233607
:1056C00089F401FF11E0C60182D097FD5AC0E114B0
:1056D000F10429F0F7018083C70101967C01115084
:1056E00091F74BC02B3551F49201A701612FC601F0
:1056F0009EDE2C01892B09F040C03AC0C6012983E7
:10570000F5DD298197FD3DC02F3641F128F424367F
:1057100019F1293631F124C0233769F02537E1F03A
:105720001FC0E114F10429F0F7018082C70101963E
:105730007C01115059F0C6014AD04C0197FD06C0BA
:1057400052DC892B71F3B601C4017FD0E114F1045E
:10575000A1F0F701108211C0006203C0006101C016
:105760000064202FA701612FC601D6DD811105C07D
:10577000F6018381807329F406C000FD13CF739472
:1057800011CF772019F0872D90E002C08FEF9FEFA7
:105790000F90DF91CF911F910F91FF90EF90DF90CD
:1057A000CF90BF90AF909F908F907F905F904F90E1
:1057B0000895992788270895FC010590061621F081
:1057C0000020D9F7C00108953197CF010895CF93F4
:1057D000DF93EC012B8120FF33C026FF0AC02F7B13
:1057E0002B838E819F8101969F838E838A8190E097
:1057F00029C022FF0FC0E881F9818081082E000CAA
:10580000990B009719F420622B831AC03196F98303
:10581000E8830EC0EA85FB85099597FF09C02B81B7
:10582000019611F080E201C080E1822B8B8308C0D9
:105830002E813F812F5F3F4F3F832E83992702C0E8
:105840008FEF9FEFDF91CF910895FB01238120FF20
:1058500012C026FD10C08F3F3FEF930761F0828397
:105860002F7D20642383268137812150310937839E
:105870002683992708958FEF9FEF0895DB018F937B
:105880009F930E94BD22BF91AF91A29F800D911D59
:10589000A39F900DB29F900D11240895F894FFCF0F
:1058A000E8031A679C40000000001A679C40000053
:1058B00000001A679C40000000001A679C4000002E
:1058C00000000000000300000000A719B719000045
:1058D0004572726F722E203C70696E3E206D75733A
:1058E0007420656974686572206265203C322E2ED2
:1058F000393E2C203C62302E2E62373E2C203C63F9
:10590000302E2E63373E206F72203C64302E2E6482
:10591000373E004572726F722E203C307C313E2043
:105920006D7573742062652030206F7220310045E0
:1059300072726F722E205B70755D206D75737420AE
:105940006265207075004572726F7221204F6E651E
:10595000206F72206D6F726520646174652D7469AB
:105960006D65206669656C64732061726520696E7F
:1059700076616C6964002530326868752D25303297
:105980006868752D25303268687500253032686882
:10599000753A2530326868753A2530326868750086
:1059A0002500240023000201010100010001000084
:0859B0005050515152525300B6
:00000001FF
